:0200000460009A
:100000004643464200000156000000000103030081
:1000100000000000000000000000000000000000E0
:1000200000000000000000000000000000000000D0
:1000300000000000000000000000000000000000C0
:1000400000000000010408000000000000000000A3
:100050000000800000000000000000000000000020
:100060000000000000000000000000000000000090
:100070000000000000000000000000000000000080
:10008000EB04180A063204260000000000000000FD
:10009000050404240000000000000000000000002F
:1000A0000000000000000000000000000000000050
:1000B0000604000000000000000000000000000036
:1000C0000000000000000000000000000000000030
:1000D00020041808000000000000000000000000DC
:1000E0000000000000000000000000000000000010
:1000F0000000000000000000000000000000000000
:10010000D8041808000000000000000000000000F3
:100110000204180804200000000000000000000095
:1001200000000000000000000000000000000000CF
:10013000600400000000000000000000000000005B
:1001400000000000000000000000000000000000AF
:10015000000000000000000000000000000000009F
:10016000000000000000000000000000000000008F
:10017000000000000000000000000000000000007F
:10018000000000000000000000000000000000006F
:10019000000000000000000000000000000000005F
:1001A000000000000000000000000000000000004F
:1001B000000000000000000000000000000000003F
:1001C000000100000010000001000000000000001D
:1001D000000001000000000000000000000000001E
:1001E000000000000000000000000000000000000F
:1001F00000000000000000000000000000000000FF
:10020000FFFFFFFFFFFFFFFFFFFFFFFFFFFFFFFFFE
:10021000FFFFFFFFFFFFFFFFFFFFFFFFFFFFFFFFEE
:10100000D10020434D1600600000000000000000E9
:10101000201000600010006000440260000000002A
:10102000000000600050020000000000FFFFFFFF12
:10103000FFFFFFFFFFFFFFFFFFFFFFFFFFFFFFFFC0
:10104000FFFFFFFFFFFFFFFFFFFFFFFFFFFFFFFFB0
:10105000FFFFFFFFFFFFFFFFFFFFFFFFFFFFFFFFA0
:10106000FFFFFFFFFFFFFFFFFFFFFFFFFFFFFFFF90
:10140000814205D051F8043B40F8043B8242F9D8B0
:10141000704700BF044A05494FF0000342F8043BFF
:101420009142FBD8704700BFC03A002020970020AF
:101430002DE98848BFF34F8F00BF00BF00BF00BF3A
:1014400000F0D6F9684B0822C3F8542100BF00BF52
:1014500000BF00BF00BF00BF00BF00BF00BF00BF94
:1014600000BF00BF00BF00BF00BF00BF5F4A6049B0
:101470006048FFF7C5FF604A60496148FFF7C0FF59
:10148000604CFFF7C7FF4FF470004FF0E0210023DE
:101490005D4AC1F8880D44F823200133B02BFAD1FE
:1014A0005A4B80215A4A03F8011B9342FBD14FF05B
:1014B000E0254D4E4FF08039DFF884B1DFF884A18C
:1014C0004FF0FF31C5F8084D0027C6F80491C6F863
:1014D00000B1C6F8F490C6F8F0A0D5F8243DDFF8C6
:1014E000688143F4E0234B4AC5F8243DD8F81C300A
:1014F00023F07F0343F04003C8F81C30D8F82430B1
:1015000023F07F0343F04003C8F824309166D1668E
:101510001167516700F074F93F4B4049A363404B9A
:10152000E36363236B610323AF612B613D4BC5F81C
:10153000203DD5F8FC3D43F08073C5F8FC3D3A4BA7
:101540001A6842F001021A605B680B6000F0A2FBAF
:10155000C6F804913548C6F800B1C6F8F490C6F84C
:10156000F0A000F039FDD8F86C10314B314A41F44D
:101570004051C8F86C101F60C3F80871C3F81871A7
:10158000C3F82871C3F83871936BDB0708D442F6AF
:101590001563294951651365936B43F00103936308
:1015A000244A264C936843F00113936000F0B0F98D
:1015B00000F0D4FC00F004FD00F09AFB00F01AF9F2
:1015C0002368132BFCD900F02BFC2368B3F5967F1E
:1015D000FBD300F013F900F00FF900F00DFD00F05F
:1015E00007FD30BFFDE700BF00800D40E8E40100CB
:1015F0000C22006000000000C03A0020F8060260E3
:101600000000002000380020F952000000E400E053
:10161000A0E400E000C00A4029670000FC9500201B
:101620002D67000000002020001000E00046C323CA
:101630000040084000400D400000C05600960020C9
:101640001B1018200C0D111300C00F40054B4FF458
:101650002A01054A05485A641864054A9963954663
:10166000FFF7E6FE00C00A40FFAAAAAA0700200072
:101670000000062043690A4A03EB011010B4037A04
:10168000084C02EB0313D3E901321460C2681A60FC
:1016900003690BB142691A605DF8044B704700BFE3
:1016A000A40D002061F801004369027E03EB0212E1
:1016B00092F808C08C451CD01A7AFF2A19D09142A2
:1016C00010B5044616D01A7EFF2A06D00121D3E9B0
:1016D000002312681A4201D1217610BD064B052263
:1016E000204603EB0C135B681A60FFF7C3FF2176FB
:1016F000F3E770470021EAE7A40D002043690A4A96
:1017000003EB011010B490F82830084C02EB0313DF
:10171000D3E901321460C26A1A60036B0BB1426BE9
:101720001A605DF8044B7047A40D002061F80100B9
:101730004369427E03EB021292F828C08C451ED00A
:1017400093F82820FF2A1AD0914210B5044617D0EA
:1017500093F83820FF2A06D00121D3E9002312682C
:101760001A4201D1617610BD064B0522204603EBDB
:101770000C135B681A60FFF7C1FF6176F3E77047EF
:101780000021EAE7A40D0020164942698B6B23F47F
:101790007C0343F4802370B58B630446124DD2E979
:1017A00000130A681A4303690A60022200211A61C1
:1017B0000E4A19619A6401225A629D624FF43035D3
:1017C000DD624FF001159E6C1E6519629D651A6100
:1017D000017EFFF74FFF617E2046BDE87040FFF7B6
:1017E0008DBF00BF00C00F40B80B05053B3728195F
:1017F000704700BF704700BF704700BF00BF704711
:1018000010B44FF0E023002110243148C3F8941D98
:10181000C3F89C4D1124C3F8A00D2E48C3F89C4D6D
:101820001224C3F8A00D2C48C3F89C4D2B4AC3F8D2
:10183000A00D2B4C42F015022A48C3F89C4DC3F86A
:10184000A00D294C2948C3F89C4DC3F8A00D284C85
:10185000C3F89C2D2748284AC3F8A04DC3F89C0D17
:10186000C3F8A02D02F5A022244C0C322448C3F862
:101870009C4DC3F8A02D234AC3F89C0D224CC3F8FD
:10188000A02D02F14062C3F89C4D2048C3F8A02D62
:101890000C32C3F89C0DC3F8A02D00BF00BF00BFE1
:1018A00000BF00BF0122C3F8942DBFF34F8FBFF3D9
:1018B0006F8FC3F8501FBFF34F8FBFF36F8FD3F8F5
:1018C000142D5DF8044B42F44032C3F8142D7047D8
:1018D0003F00001025000807090010002097002095
:1018E0001300200021000207140000202500081327
:1018F000090000101600202027000B1317000040DD
:10190000180000602F000B07190000701A000080FB
:10191000F0B5B84B1822B84E0120B84F83B0C3F8C9
:101920005C62B749C3F86072B64DC3F86462A6F54D
:101930003046B54CC3F86862C3F86C52C3F87052B5
:10194000C3F87452C3F8785248F20C75DA661A6715
:101950005A679A67DA67C3F88020C3F88420C3F80F
:101960008820C1F82C03A94AC1F83003C1F8340318
:10197000C1F83803C1F83C03C1F85003A169A44B76
:101980000A40A448A4491343A44AA361D4F884306C
:1019900043F00C03C4F884304FF0FF34036843F085
:1019A0000203036003682B404FF400551A439C4B1D
:1019B000026044608A689B4C13409B4A43F000538A
:1019C0008360C36823F07803C360036A1340234332
:1019D0000362036A1340954A2343954C4362826233
:1019E000C2620022D1F8B83023F03F0343F0010374
:1019F000C0F8B830D1F8BC308E4923F03F0343F033
:101A00000103C0F8BC3040F205630261056604675B
:101A1000C0F88030456644670224C0F8843003680B
:101A200023F0020303608161834B8449C46143F85E
:101A3000042B8B42FBD1774A136843F001031360F8
:101A4000136813F00103FBD17A48022140F2F564D8
:101A5000906140F29940D16140F26641C2F8004283
:101A600042F20144C2F810127549C2F82002C2F8CD
:101A7000301240F235417348C2F83442C2F8401285
:101A8000714CC2F8500242F201207049C2F854125F
:101A90000121C2F86042C2F864025E48C2F8A03078
:101AA000C2F8A430C2F8B0104369DA07FCD50123AC
:101AB00000244FF4803257494361C0F8A040C0F879
:101AC000A420C0F8B0304B69DB07FCD5012300240B
:101AD0004FF400304F4A4B61C1F8A040C1F8A40058
:101AE000C1F8B0305369DF07FCD501230024584802
:101AF00048495361C2F8A040C2F8A400C2F8B0300F
:101B00004B69DE07FCD5D1F8003145F60D52212096
:101B10009BB24861934265D100244FF48022012397
:101B20003C48C1F8A040C1F8A420C1F8B0304369D6
:101B3000DD07FCD501234FF400040021354A436141
:101B4000C0F8A040C0F8A410C0F8B0305369DC075A
:101B5000FCD501234FF400044FF480302D4953612C
:101B6000C2F8A040C2F8A400C2F8B0304B69D80750
:101B7000FCD501234FF400044FF40030254A4B619B
:101B8000C1F8A040C1F8A400C1F8B0305369D9072A
:101B9000FCD501234FF400042D481E495361C2F8BF
:101BA000A040C2F8A400C2F8B0304B69DA07FCD5F7
:101BB000D1F8003145F60D5221209BB24861934285
:101BC00050D008254FF4000422490020224B234A1C
:101BD000009015705A1A01232148224400F0F8F9A8
:101BE00003B0F0BD1E4B0022C3E90022C3E902226C
:101BF00003B0F0BD00801F40F9B00100F9100100F2
:101C000000841F40F970010000C00F40FFFCFF1F5F
:101C1000000300A000402A4000802A401200FFFF7D
:101C2000FF37F7004000008000FFF07CFF000F83CB
:101C300063000200F05AF05A00422A4000432A4052
:101C40009F041830EB06180A3806180A06320126D7
:101C5000040003000000007000000070EF960020F8
:101C6000E09200204FF400044FF480220123084842
:101C7000C1F8A040C1F8A420C1F8B0304369DB0727
:101C8000FCD5012310254FF0807443619CE700BF11
:101C900000402A40F0B4154A40274FF480314FF4F9
:101CA00080564FF400554FF4404443F2420013690C
:101CB00013F0020F0ED113F4005F0FD013F4805F06
:101CC0000ED0002BF3DA13F4803F0BD15B060BD55B
:101CD000F0BC7047946151619061E8E75561E6E7B7
:101CE0005661E4E79161E2E75761E0E700800D406B
:101CF0003F4A03203F49F3EE095AD2F880304FF0B3
:101D0000000C9FED3D6A23F001039FED3C5A30B477
:101D1000C2F88030C2F89000D1F8E010384DCBB254
:101D2000384C39482B6007EE903A0B0DC1F30B216C
:101D3000F8EEE77A06EE903A07EE101A334BB8EE5B
:101D4000C77A2160F8EEE66A314937EEC66A37EEA7
:101D5000C55A76EEC76A77EEE57A26EE266AC3EDB7
:101D6000006A25EE265AD2F8803067EEA64AC0ED0A
:101D7000007AC6EE275A274885EE276AC4EEA76A7E
:101D800075EE875AFCEEE55A36EE076A15EE904A74
:101D9000BCEEC66A43EA045376EE877AC2F8803016
:101DA00016EE103AD2F89041FCEEE77A01EA0341D0
:101DB000214317EE903AC2F89011C3F30B03D2F807
:101DC00090110B431449C2F89031D2F8803043F09F
:101DD0000203C2F88030114B80F840C0C1F8403196
:101DE0004FF0E023012230BCC3F80821704700BF48
:101DF00000810D4000441F400000AA420000B44290
:101E000078950020749500207C9500208095002016
:101E10000000FF0F00E400E000380020E95400005B
:101E2000314B40F6617210B5C3F8202140F20444F2
:101E300000F0CAF82D4A2E49D2F880302D4843F0E0
:101E40000303C2F880302C4BC1F8604102681A428B
:101E500003D1D1F8A8319A071BD0254A4FF0004191
:101E6000244B5963D2F8403143F00203C2F84031A9
:101E7000D2F840319B07FBD44FF400304FF0E02103
:101E80001C4B4FF00042C1F88C0219209A6300F0FD
:101E9000ABF8184A4FF08040154C002190630A209F
:101EA000164B11604FF42072C4F8A801184600F0D8
:101EB00097F84FF4800203464FF4810040F243113B
:101EC0001860C4F858311A640D4B0E4AC4F8481112
:101ED000C3F804224FF0E0224FF400310123C2F88E
:101EE0000C11C4F8403110BD00800D4000C00F40FF
:101EF00000002E4000900D40001C1E00000000203D
:101F000000380020D156000008B50E4B1B6E9B0711
:101F100000D4FBBE72B60C4B00200C4AC3F8400143
:101F200003F160430A49A3F55F2311649D46BFF3A3
:101F30004F8F4FF400130748074ADB6902609B6824
:101F4000984700BF00441F4000002E4000C00A40D8
:101F50000300200000802020000012EB104BA02086
:101F6000104AD96E41F4403110B4D96640F237645A
:101F7000D96E41F44071D96654649064936C1B0629
:101F8000FCD4094A40F23761A02351649364936CF6
:101F900013F08003FBD1054A13705DF8044B7047C2
:101FA00000C00F4000400C4000800C40ED96002027
:101FB000F8B500BFF8BC08BC9E46704700000000A2
:101FC0005FF800F0E95100005FF800F0415E0000AA
:101FD0005FF800F0D96700005FF800F0914600005C
:101FE0005FF800F04D8401005FF800F081490000C7
:101FF0005FF800F06D4C00005FF800F0F184010024
:10200000050100004D34000079680000D182000015
:042010004DE8000097
:1020140080C00F4000000003190000001000000001
:10202400E8841F4001000000FF000000FF000000E2
:102034000000000000000000180000001000000074
:10204400E4841F4001000000FF000000FF000000C6
:1020540000000000000000001F000000F53B00002D
:1020640070C00F40000C00001100000011000000BF
:10207400E0841F40020000002C0000001200000059
:10208400E0841F4001000000100000001100000067
:10209400DC841F40020000002D000000120000003C
:1020A400DC841F40010000001E000000E93B00002A
:1020B40070C00F40C00000001200000013000000B8
:1020C400D0841F4001000000FF000000FF0000005A
:1020D40000000000000000001300000013000000D6
:1020E400CC841F4001000000FF000000FF0000003E
:1020F40000000000000000001C000000DD3B0000A8
:10210400160355005300420020005300650072007E
:10211400690061006C00000018035400650065004C
:102124006E00730079006400750069006E006F0032
:102134000403090409026200030100C032080B0011
:102144000202020100090400000102020100052448
:1021540000100105240101010424020605240600DF
:10216400010705820310001009040100020A00009F
:10217400000705030240000007058402400000092F
:1021840004020002FF6AFF00070581024000010704
:10219400050102400001000009026200030100C0C1
:1021A40032080B00020202010009040000010202CD
:1021B4000100052400100105240101010424020684
:1021C4000524060001070582031000050904010027
:1021D400020A00000007050302000200070584024A
:1021E4000002000904020002FF6AC7000705810219
:1021F4000002010705010200020100000A060002B4
:08220400EF020140010000009F
:10220C0000000000000000000000000000000000C2
:10221C0000000000000000000000000000000000B2
:10222C00F8B54FF084439D695A6915400DD0254F80
:10223C0001269D6195FAA5F4B4FA84F457F824307C
:10224C0006FA04F49847A543F4D11F4B9D695A69CB
:10225C0015400DD01D4F01269D6195FAA5F4B4FAD9
:10226C0084F457F8243006FA04F49847A543F4D1C3
:10227C00174B9D695A6915400DD0164F01269D616B
:10228C0095FAA5F4B4FA84F457F8243006FA04F459
:10229C009847A543F4D1104B9D695A6915400DD050
:1022AC000E4F01269D6195FAA5F4B4FA84F457F803
:1022BC00243006FA04F49847A543F4D1BFF34F8FAA
:1022CC00F8BD00BF3C32002000400042BC32002070
:1022DC00008000423C33002000C00042BC33002090
:1022EC000548064B1B1AD90F01EBA301491002D06C
:1022FC00034B03B118477047C03A0020C03A002086
:10230C000000000008B5054B1BB105490548AFF3AB
:10231C000080BDE80840FFF7E3BF00BF00000000ED
:10232C00E894002000500260224BD3F8A820D2E998
:10233C000010D3680968006810B41842946801EA68
:10234C0004012ED0137C03F00303D9B943F0080326
:10235C009908013B11740D2B0BD8DFE803F00D0726
:10236C001C070A160D0D160A071C070D5369013BB5
:10237C0053615DF8044B704753695DF8044B0133AE
:10238C005361704743F00403E0E753695DF8044B75
:10239C00023B5361704753695DF8044B0233536140
:1023AC007047137C03F003030029D1D043F00403DE
:1023BC00CEE700BFF88B002010B58EB0044600F2BB
:1023CC008F100DF11E0307AA0DF11A0103F07AFD0F
:1023DC00BDF91A3094ED5F4A04F5DC7E05EE103A37
:1023EC00BDF91C30B7EEC44A0DF1200C06EE103AC4
:1023FC00BDF91E30B8EEC55B07EE103AB8EEC66BF1
:10240C00B8EEC77B25EE045B26EE046B27EE047B4F
:10241C009FED0F3B25EE035B26EE036B27EE037B54
:10242C0084ED6E5B84ED706B84ED727BBEE80F0007
:10243C00ACE80F009EE803009DED0A1B9DED080B18
:10244C008CE803009DED0C2B0EB010BDAFF300809B
:10245C00399D52A246DF913F08B50D2004F038FC9F
:10246C0001460D20B1FA81F1490904F007FC024A3A
:10247C00024B12681A6008BD0096002008950020D7
:10248C0010B504460021007B04F0D2FE207A002116
:10249C00BDE8104004F0CCBE38B50D460446002112
:1024AC00007A04F0C5FE207B85EAE571A1EBE571AD
:1024BC00BDE8384004F0BCBE38B50D4604460021DA
:1024CC00007B04F0B5FE207A85EAE571A1EBE5719D
:1024DC00BDE8384004F0ACBE10B58EB0044600F533
:1024EC00C0700DF11E0307AA0DF11A0103F0CAFC0E
:1024FC00BDF91A3094ED5E3A04F5D07E05EE103A33
:10250C00BDF91C30B7EEC33A94ED524A06EE103AC0
:10251C00BDF91E30B8EEC55B0DF1200C07EE103A7C
:10252C00B8EEC66BB7EEC44AB8EEC77B25EE035BBC
:10253C0026EE036B27EE037B25EE045B26EE046B85
:10254C0027EE047B84ED685B84ED6A6B84ED6C7B19
:10255C00BEE80F00ACE80F009EE803009DED0A1BDF
:10256C009DED080B8CE803009DED0C2B0EB010BDFF
:10257C0010B5044682B00C481EF0AAF804F5C070E1
:10258C00019003F041FC019803F062FC08B902B021
:10259C0010BD04F28F10019003F036FC019802B0CC
:1025AC00BDE8104003F054BCB8210020214B1A6840
:1025BC00D2E90010D3680968006810B41842946816
:1025CC0001EA04012ED0137C03F00303D9B943F0C4
:1025DC0008039908013B11740D2B0BD8DFE803F0AD
:1025EC000D071C070A160D0D160A071C070D53695B
:1025FC00013B53615DF8044B704753695DF8044B24
:10260C0001335361704743F00403E0E753695DF80D
:10261C00044B023B5361704753695DF8044B023322
:10262C0053617047137C03F003030029D1D043F0AE
:10263C000403CEE7F88B0020214B5A68D2E9001036
:10264C00D3680968006810B41842946801EA040160
:10265C002ED0137C03F00303D9B943F00803990877
:10266C00013B11740D2B0BD8DFE803F00D071C0791
:10267C000A160D0D160A071C070D5369013B536111
:10268C005DF8044B704753695DF8044B013353619B
:10269C00704743F00403E0E753695DF8044B023BD9
:1026AC005361704753695DF8044B023353617047B3
:1026BC00137C03F003030029D1D043F00403CEE7CD
:1026CC00F88B0020214B9A68D2E90010D368096876
:1026DC00006810B41842946801EA04012ED0137CEF
:1026EC0003F00303D9B943F008039908013B1174B3
:1026FC000D2B0BD8DFE803F00D071C070A160D0D88
:10270C00160A071C070D5369013B53615DF8044B16
:10271C00704753695DF8044B01335361704743F0C4
:10272C000403E0E753695DF8044B023B53617047C7
:10273C0053695DF8044B023353617047137C03F00B
:10274C0003030029D1D043F00403CEE7F88B00201B
:10275C00224BD3F8CC20D2E90010D368096800686A
:10276C0010B41842946801EA04012ED0137C03F0D3
:10277C000303D9B943F008039908013B11740D2BDD
:10278C000BD8DFE803F00D071C070A160D0D160A0F
:10279C00071C070D5369013B53615DF8044B7047EF
:1027AC0053695DF8044B01335361704743F00403E4
:1027BC00E0E753695DF8044B023B53617047536982
:1027CC005DF8044B023353617047137C03F0030331
:1027DC000029D1D043F00403CEE700BFF88B0020D2
:1027EC00224BD3F8D020D2E90010D36809680068D6
:1027FC0010B41842946801EA04012ED0137C03F043
:10280C000303D9B943F008039908013B11740D2B4C
:10281C000BD8DFE803F00D071C070A160D0D160A7E
:10282C00071C070D5369013B53615DF8044B70475E
:10283C0053695DF8044B01335361704743F0040353
:10284C00E0E753695DF8044B023B536170475369F1
:10285C005DF8044B023353617047137C03F00303A0
:10286C000029D1D043F00403CEE700BFF88B002041
:10287C00224BD3F8D420D2E90010D3680968006841
:10288C0010B41842946801EA04012ED0137C03F0B2
:10289C000303D9B943F008039908013B11740D2BBC
:1028AC000BD8DFE803F00D071C070A160D0D160AEE
:1028BC00071C070D5369013B53615DF8044B7047CE
:1028CC0053695DF8044B01335361704743F00403C3
:1028DC00E0E753695DF8044B023B53617047536961
:1028EC005DF8044B023353617047137C03F0030310
:1028FC000029D1D043F00403CEE700BFF88B0020B1
:10290C00224BD3F8D820D2E90010D36809680068AC
:10291C0010B41842946801EA04012ED0137C03F021
:10292C000303D9B943F008039908013B11740D2B2B
:10293C000BD8DFE803F00D071C070A160D0D160A5D
:10294C00071C070D5369013B53615DF8044B70473D
:10295C0053695DF8044B01335361704743F0040332
:10296C00E0E753695DF8044B023B536170475369D0
:10297C005DF8044B023353617047137C03F003037F
:10298C000029D1D043F00403CEE700BFF88B002020
:10299C00214BDA68D2E90010D3680968006810B4DA
:1029AC001842946801EA04012ED0137C03F003034F
:1029BC00D9B943F008039908013B11740D2B0BD8BE
:1029CC00DFE803F00D071C070A160D0D160A071C8D
:1029DC00070D5369013B53615DF8044B7047536914
:1029EC005DF8044B01335361704743F00403E0E797
:1029FC0053695DF8044B023B5361704753695DF8B2
:102A0C00044B023353617047137C03F0030300291A
:102A1C00D1D043F00403CEE7F88B0020214B1A6988
:102A2C00D2E90010D3680968006810B418429468A1
:102A3C0001EA04012ED0137C03F00303D9B943F04F
:102A4C0008039908013B11740D2B0BD8DFE803F038
:102A5C000D071C070A160D0D160A071C070D5369E6
:102A6C00013B53615DF8044B704753695DF8044BAF
:102A7C0001335361704743F00403E0E753695DF899
:102A8C00044B023B5361704753695DF8044B0233AE
:102A9C0053617047137C03F003030029D1D043F03A
:102AAC000403CEE7F88B0020214B5A69D2E90010C1
:102ABC00D3680968006810B41842946801EA0401EC
:102ACC002ED0137C03F00303D9B943F00803990803
:102ADC00013B11740D2B0BD8DFE803F00D071C071D
:102AEC000A160D0D160A071C070D5369013B53619D
:102AFC005DF8044B704753695DF8044B0133536127
:102B0C00704743F00403E0E753695DF8044B023B64
:102B1C005361704753695DF8044B0233536170473E
:102B2C00137C03F003030029D1D043F00403CEE758
:102B3C00F88B0020214B9A69D2E90010D368096800
:102B4C00006810B41842946801EA04012ED0137C7A
:102B5C0003F00303D9B943F008039908013B11743E
:102B6C000D2B0BD8DFE803F00D071C070A160D0D13
:102B7C00160A071C070D5369013B53615DF8044BA2
:102B8C00704753695DF8044B01335361704743F050
:102B9C000403E0E753695DF8044B023B5361704753
:102BAC0053695DF8044B023353617047137C03F097
:102BBC0003030029D1D043F00403CEE7F88B0020A7
:102BCC00214BDA69D2E90010D3680968006810B4A7
:102BDC001842946801EA04012ED0137C03F003031D
:102BEC00D9B943F008039908013B11740D2B0BD88C
:102BFC00DFE803F00D071C070A160D0D160A071C5B
:102C0C00070D5369013B53615DF8044B70475369E1
:102C1C005DF8044B01335361704743F00403E0E764
:102C2C0053695DF8044B023B5361704753695DF87F
:102C3C00044B023353617047137C03F003030029E8
:102C4C00D1D043F00403CEE7F88B0020214B1A6A55
:102C5C00D2E90010D3680968006810B4184294686F
:102C6C0001EA04012ED0137C03F00303D9B943F01D
:102C7C0008039908013B11740D2B0BD8DFE803F006
:102C8C000D071C070A160D0D160A071C070D5369B4
:102C9C00013B53615DF8044B704753695DF8044B7D
:102CAC0001335361704743F00403E0E753695DF867
:102CBC00044B023B5361704753695DF8044B02337C
:102CCC0053617047137C03F003030029D1D043F008
:102CDC000403CEE7F88B0020214B5A6AD2E900108E
:102CEC00D3680968006810B41842946801EA0401BA
:102CFC002ED0137C03F00303D9B943F008039908D1
:102D0C00013B11740D2B0BD8DFE803F00D071C07EA
:102D1C000A160D0D160A071C070D5369013B53616A
:102D2C005DF8044B704753695DF8044B01335361F4
:102D3C00704743F00403E0E753695DF8044B023B32
:102D4C005361704753695DF8044B0233536170470C
:102D5C00137C03F003030029D1D043F00403CEE726
:102D6C00F88B0020214B9A6AD2E90010D3680968CD
:102D7C00006810B41842946801EA04012ED0137C48
:102D8C0003F00303D9B943F008039908013B11740C
:102D9C000D2B0BD8DFE803F00D071C070A160D0DE1
:102DAC00160A071C070D5369013B53615DF8044B70
:102DBC00704753695DF8044B01335361704743F01E
:102DCC000403E0E753695DF8044B023B5361704721
:102DDC0053695DF8044B023353617047137C03F065
:102DEC0003030029D1D043F00403CEE7F88B002075
:102DFC00224BD3F8AC20D2E90010D36809680068E4
:102E0C0010B41842946801EA04012ED0137C03F02C
:102E1C000303D9B943F008039908013B11740D2B36
:102E2C000BD8DFE803F00D071C070A160D0D160A68
:102E3C00071C070D5369013B53615DF8044B704748
:102E4C0053695DF8044B01335361704743F004033D
:102E5C00E0E753695DF8044B023B536170475369DB
:102E6C005DF8044B023353617047137C03F003038A
:102E7C000029D1D043F00403CEE700BFF88B00202B
:102E8C00224BD3F8B020D2E90010D368096800684F
:102E9C0010B41842946801EA04012ED0137C03F09C
:102EAC000303D9B943F008039908013B11740D2BA6
:102EBC000BD8DFE803F00D071C070A160D0D160AD8
:102ECC00071C070D5369013B53615DF8044B7047B8
:102EDC0053695DF8044B01335361704743F00403AD
:102EEC00E0E753695DF8044B023B5361704753694B
:102EFC005DF8044B023353617047137C03F00303FA
:102F0C000029D1D043F00403CEE700BFF88B00209A
:102F1C00224BD3F8B420D2E90010D36809680068BA
:102F2C0010B41842946801EA04012ED0137C03F00B
:102F3C000303D9B943F008039908013B11740D2B15
:102F4C000BD8DFE803F00D071C070A160D0D160A47
:102F5C00071C070D5369013B53615DF8044B704727
:102F6C0053695DF8044B01335361704743F004031C
:102F7C00E0E753695DF8044B023B536170475369BA
:102F8C005DF8044B023353617047137C03F0030369
:102F9C000029D1D043F00403CEE700BFF88B00200A
:102FAC00224BD3F8B820D2E90010D3680968006826
:102FBC0010B41842946801EA04012ED0137C03F07B
:102FCC000303D9B943F008039908013B11740D2B85
:102FDC000BD8DFE803F00D071C070A160D0D160AB7
:102FEC00071C070D5369013B53615DF8044B704797
:102FFC0053695DF8044B01335361704743F004038C
:10300C00E0E753695DF8044B023B53617047536929
:10301C005DF8044B023353617047137C03F00303D8
:10302C000029D1D043F00403CEE700BFF88B002079
:10303C00224BD3F8BC20D2E90010D3680968006891
:10304C0010B41842946801EA04012ED0137C03F0EA
:10305C000303D9B943F008039908013B11740D2BF4
:10306C000BD8DFE803F00D071C070A160D0D160A26
:10307C00071C070D5369013B53615DF8044B704706
:10308C0053695DF8044B01335361704743F00403FB
:10309C00E0E753695DF8044B023B53617047536999
:1030AC005DF8044B023353617047137C03F0030348
:1030BC000029D1D043F00403CEE700BFF88B0020E9
:1030CC00224BD3F8C020D2E90010D36809680068FD
:1030DC0010B41842946801EA04012ED0137C03F05A
:1030EC000303D9B943F008039908013B11740D2B64
:1030FC000BD8DFE803F00D071C070A160D0D160A96
:10310C00071C070D5369013B53615DF8044B704775
:10311C0053695DF8044B01335361704743F004036A
:10312C00E0E753695DF8044B023B53617047536908
:10313C005DF8044B023353617047137C03F00303B7
:10314C000029D1D043F00403CEE700BFF88B002058
:10315C00224BD3F8C420D2E90010D3680968006868
:10316C0010B41842946801EA04012ED0137C03F0C9
:10317C000303D9B943F008039908013B11740D2BD3
:10318C000BD8DFE803F00D071C070A160D0D160A05
:10319C00071C070D5369013B53615DF8044B7047E5
:1031AC0053695DF8044B01335361704743F00403DA
:1031BC00E0E753695DF8044B023B53617047536978
:1031CC005DF8044B023353617047137C03F0030327
:1031DC000029D1D043F00403CEE700BFF88B0020C8
:1031EC00224BD3F8C820D2E90010D36809680068D4
:1031FC0010B41842946801EA04012ED0137C03F039
:10320C000303D9B943F008039908013B11740D2B42
:10321C000BD8DFE803F00D071C070A160D0D160A74
:10322C00071C070D5369013B53615DF8044B704754
:10323C0053695DF8044B01335361704743F0040349
:10324C00E0E753695DF8044B023B536170475369E7
:10325C005DF8044B023353617047137C03F0030396
:10326C000029D1D043F00403CEE700BFF88B002037
:10327C00214BDA6AD2E90010D3680968006810B4EF
:10328C001842946801EA04012ED0137C03F0030366
:10329C00D9B943F008039908013B11740D2B0BD8D5
:1032AC00DFE803F00D071C070A160D0D160A071CA4
:1032BC00070D5369013B53615DF8044B704753692B
:1032CC005DF8044B01335361704743F00403E0E7AE
:1032DC0053695DF8044B023B5361704753695DF8C9
:1032EC00044B023353617047137C03F00303002932
:1032FC00D1D043F00403CEE7F88B0020214B1A6B9E
:10330C00D2E90010D3680968006810B418429468B8
:10331C0001EA04012ED0137C03F00303D9B943F066
:10332C0008039908013B11740D2B0BD8DFE803F04F
:10333C000D071C070A160D0D160A071C070D5369FD
:10334C00013B53615DF8044B704753695DF8044BC6
:10335C0001335361704743F00403E0E753695DF8B0
:10336C00044B023B5361704753695DF8044B0233C5
:10337C0053617047137C03F003030029D1D043F051
:10338C000403CEE7F88B0020214B5A6BD2E90010D6
:10339C00D3680968006810B41842946801EA040103
:1033AC002ED0137C03F00303D9B943F0080399081A
:1033BC00013B11740D2B0BD8DFE803F00D071C0734
:1033CC000A160D0D160A071C070D5369013B5361B4
:1033DC005DF8044B704753695DF8044B013353613E
:1033EC00704743F00403E0E753695DF8044B023B7C
:1033FC005361704753695DF8044B02335361704756
:10340C00137C03F003030029D1D043F00403CEE76F
:10341C00F88B0020214B9A6BD2E90010D368096815
:10342C00006810B41842946801EA04012ED0137C91
:10343C0003F00303D9B943F008039908013B117455
:10344C000D2B0BD8DFE803F00D071C070A160D0D2A
:10345C00160A071C070D5369013B53615DF8044BB9
:10346C00704753695DF8044B01335361704743F067
:10347C000403E0E753695DF8044B023B536170476A
:10348C0053695DF8044B023353617047137C03F0AE
:10349C0003030029D1D043F00403CEE7F88B0020BE
:1034AC00214BDA6BD2E90010D3680968006810B4BC
:1034BC001842946801EA04012ED0137C03F0030334
:1034CC00D9B943F008039908013B11740D2B0BD8A3
:1034DC00DFE803F00D071C070A160D0D160A071C72
:1034EC00070D5369013B53615DF8044B70475369F9
:1034FC005DF8044B01335361704743F00403E0E77C
:10350C0053695DF8044B023B5361704753695DF896
:10351C00044B023353617047137C03F003030029FF
:10352C00D1D043F00403CEE7F88B0020214B1A6C6A
:10353C00D2E90010D3680968006810B41842946886
:10354C0001EA04012ED0137C03F00303D9B943F034
:10355C0008039908013B11740D2B0BD8DFE803F01D
:10356C000D071C070A160D0D160A071C070D5369CB
:10357C00013B53615DF8044B704753695DF8044B94
:10358C0001335361704743F00403E0E753695DF87E
:10359C00044B023B5361704753695DF8044B023393
:1035AC0053617047137C03F003030029D1D043F01F
:1035BC000403CEE7F88B0020214B5A6CD2E90010A3
:1035CC00D3680968006810B41842946801EA0401D1
:1035DC002ED0137C03F00303D9B943F008039908E8
:1035EC00013B11740D2B0BD8DFE803F00D071C0702
:1035FC000A160D0D160A071C070D5369013B536182
:10360C005DF8044B704753695DF8044B013353610B
:10361C00704743F00403E0E753695DF8044B023B49
:10362C005361704753695DF8044B02335361704723
:10363C00137C03F003030029D1D043F00403CEE73D
:10364C00F88B0020214B9A6CD2E90010D3680968E2
:10365C00006810B41842946801EA04012ED0137C5F
:10366C0003F00303D9B943F008039908013B117423
:10367C000D2B0BD8DFE803F00D071C070A160D0DF8
:10368C00160A071C070D5369013B53615DF8044B87
:10369C00704753695DF8044B01335361704743F035
:1036AC000403E0E753695DF8044B023B5361704738
:1036BC0053695DF8044B023353617047137C03F07C
:1036CC0003030029D1D043F00403CEE7F88B00208C
:1036DC00214BDA6CD2E90010D3680968006810B489
:1036EC001842946801EA04012ED0137C03F0030302
:1036FC00D9B943F008039908013B11740D2B0BD871
:10370C00DFE803F00D071C070A160D0D160A071C3F
:10371C00070D5369013B53615DF8044B70475369C6
:10372C005DF8044B01335361704743F00403E0E749
:10373C0053695DF8044B023B5361704753695DF864
:10374C00044B023353617047137C03F003030029CD
:10375C00D1D043F00403CEE7F88B0020214B1A6D37
:10376C00D2E90010D3680968006810B41842946854
:10377C0001EA04012ED0137C03F00303D9B943F002
:10378C0008039908013B11740D2B0BD8DFE803F0EB
:10379C000D071C070A160D0D160A071C070D536999
:1037AC00013B53615DF8044B704753695DF8044B62
:1037BC0001335361704743F00403E0E753695DF84C
:1037CC00044B023B5361704753695DF8044B023361
:1037DC0053617047137C03F003030029D1D043F0ED
:1037EC000403CEE7F88B0020214B5A6DD2E9001070
:1037FC00D3680968006810B41842946801EA04019F
:10380C002ED0137C03F00303D9B943F008039908B5
:10381C00013B11740D2B0BD8DFE803F00D071C07CF
:10382C000A160D0D160A071C070D5369013B53614F
:10383C005DF8044B704753695DF8044B01335361D9
:10384C00704743F00403E0E753695DF8044B023B17
:10385C005361704753695DF8044B023353617047F1
:10386C00137C03F003030029D1D043F00403CEE70B
:10387C00F88B0020214B9A6DD2E90010D3680968AF
:10388C00006810B41842946801EA04012ED0137C2D
:10389C0003F00303D9B943F008039908013B1174F1
:1038AC000D2B0BD8DFE803F00D071C070A160D0DC6
:1038BC00160A071C070D5369013B53615DF8044B55
:1038CC00704753695DF8044B01335361704743F003
:1038DC000403E0E753695DF8044B023B5361704706
:1038EC0053695DF8044B023353617047137C03F04A
:1038FC0003030029D1D043F00403CEE7F88B00205A
:10390C00214BDA6DD2E90010D3680968006810B455
:10391C001842946801EA04012ED0137C03F00303CF
:10392C00D9B943F008039908013B11740D2B0BD83E
:10393C00DFE803F00D071C070A160D0D160A071C0D
:10394C00070D5369013B53615DF8044B7047536994
:10395C005DF8044B01335361704743F00403E0E717
:10396C0053695DF8044B023B5361704753695DF832
:10397C00044B023353617047137C03F0030300299B
:10398C00D1D043F00403CEE7F88B0020214B1A6E04
:10399C00D2E90010D3680968006810B41842946822
:1039AC0001EA04012ED0137C03F00303D9B943F0D0
:1039BC0008039908013B11740D2B0BD8DFE803F0B9
:1039CC000D071C070A160D0D160A071C070D536967
:1039DC00013B53615DF8044B704753695DF8044B30
:1039EC0001335361704743F00403E0E753695DF81A
:1039FC00044B023B5361704753695DF8044B02332F
:103A0C0053617047137C03F003030029D1D043F0BA
:103A1C000403CEE7F88B0020214B5A6ED2E900103C
:103A2C00D3680968006810B41842946801EA04016C
:103A3C002ED0137C03F00303D9B943F00803990883
:103A4C00013B11740D2B0BD8DFE803F00D071C079D
:103A5C000A160D0D160A071C070D5369013B53611D
:103A6C005DF8044B704753695DF8044B01335361A7
:103A7C00704743F00403E0E753695DF8044B023BE5
:103A8C005361704753695DF8044B023353617047BF
:103A9C00137C03F003030029D1D043F00403CEE7D9
:103AAC00F88B0020214B9A6ED2E90010D36809687C
:103ABC00006810B41842946801EA04012ED0137CFB
:103ACC0003F00303D9B943F008039908013B1174BF
:103ADC000D2B0BD8DFE803F00D071C070A160D0D94
:103AEC00160A071C070D5369013B53615DF8044B23
:103AFC00704753695DF8044B01335361704743F0D1
:103B0C000403E0E753695DF8044B023B53617047D3
:103B1C0053695DF8044B023353617047137C03F017
:103B2C0003030029D1D043F00403CEE7F88B002027
:103B3C00214BDA6ED2E90010D3680968006810B422
:103B4C001842946801EA04012ED0137C03F003039D
:103B5C00D9B943F008039908013B11740D2B0BD80C
:103B6C00DFE803F00D071C070A160D0D160A071CDB
:103B7C00070D5369013B53615DF8044B7047536962
:103B8C005DF8044B01335361704743F00403E0E7E5
:103B9C0053695DF8044B023B5361704753695DF800
:103BAC00044B023353617047137C03F00303002969
:103BBC00D1D043F00403CEE7F88B0020214B1A6FD1
:103BCC00D2E90010D3680968006810B418429468F0
:103BDC0001EA04012ED0137C03F00303D9B943F09E
:103BEC0008039908013B11740D2B0BD8DFE803F087
:103BFC000D071C070A160D0D160A071C070D536935
:103C0C00013B53615DF8044B704753695DF8044BFD
:103C1C0001335361704743F00403E0E753695DF8E7
:103C2C00044B023B5361704753695DF8044B0233FC
:103C3C0053617047137C03F003030029D1D043F088
:103C4C000403CEE7F88B0020214B5A6FD2E9001009
:103C5C00D3680968006810B41842946801EA04013A
:103C6C002ED0137C03F00303D9B943F00803990851
:103C7C00013B11740D2B0BD8DFE803F00D071C076B
:103C8C000A160D0D160A071C070D5369013B5361EB
:103C9C005DF8044B704753695DF8044B0133536175
:103CAC00704743F00403E0E753695DF8044B023BB3
:103CBC005361704753695DF8044B0233536170478D
:103CCC00137C03F003030029D1D043F00403CEE7A7
:103CDC00F88B0020214B9A6FD2E90010D368096849
:103CEC00006810B41842946801EA04012ED0137CC9
:103CFC0003F00303D9B943F008039908013B11748D
:103D0C000D2B0BD8DFE803F00D071C070A160D0D61
:103D1C00160A071C070D5369013B53615DF8044BF0
:103D2C00704753695DF8044B01335361704743F09E
:103D3C000403E0E753695DF8044B023B53617047A1
:103D4C0053695DF8044B023353617047137C03F0E5
:103D5C0003030029D1D043F00403CEE7F88B0020F5
:103D6C00214BDA6FD2E90010D3680968006810B4EF
:103D7C001842946801EA04012ED0137C03F003036B
:103D8C00D9B943F008039908013B11740D2B0BD8DA
:103D9C00DFE803F00D071C070A160D0D160A071CA9
:103DAC00070D5369013B53615DF8044B7047536930
:103DBC005DF8044B01335361704743F00403E0E7B3
:103DCC0053695DF8044B023B5361704753695DF8CE
:103DDC00044B023353617047137C03F00303002937
:103DEC00D1D043F00403CEE7F88B0020224BD3F85C
:103DFC008020D2E90010D3680968006810B418421A
:103E0C00946801EA04012ED0137C03F00303D9B9A2
:103E1C0043F008039908013B11740D2B0BD8DFE814
:103E2C0003F00D071C070A160D0D160A071C070DCB
:103E3C005369013B53615DF8044B704753695DF85E
:103E4C00044B01335361704743F00403E0E75369BB
:103E5C005DF8044B023B5361704753695DF8044BAA
:103E6C00023353617047137C03F003030029D1D054
:103E7C0043F00403CEE700BFF88B0020224BD3F8AD
:103E8C008420D2E90010D3680968006810B4184285
:103E9C00946801EA04012ED0137C03F00303D9B912
:103EAC0043F008039908013B11740D2B0BD8DFE884
:103EBC0003F00D071C070A160D0D160A071C070D3B
:103ECC005369013B53615DF8044B704753695DF8CE
:103EDC00044B01335361704743F00403E0E753692B
:103EEC005DF8044B023B5361704753695DF8044B1A
:103EFC00023353617047137C03F003030029D1D0C4
:103F0C0043F00403CEE700BFF88B0020224BD3F81C
:103F1C008820D2E90010D3680968006810B41842F0
:103F2C00946801EA04012ED0137C03F00303D9B981
:103F3C0043F008039908013B11740D2B0BD8DFE8F3
:103F4C0003F00D071C070A160D0D160A071C070DAA
:103F5C005369013B53615DF8044B704753695DF83D
:103F6C00044B01335361704743F00403E0E753699A
:103F7C005DF8044B023B5361704753695DF8044B89
:103F8C00023353617047137C03F003030029D1D033
:103F9C0043F00403CEE700BFF88B0020224BD3F88C
:103FAC008C20D2E90010D3680968006810B418425C
:103FBC00946801EA04012ED0137C03F00303D9B9F1
:103FCC0043F008039908013B11740D2B0BD8DFE863
:103FDC0003F00D071C070A160D0D160A071C070D1A
:103FEC005369013B53615DF8044B704753695DF8AD
:103FFC00044B01335361704743F00403E0E753690A
:10400C005DF8044B023B5361704753695DF8044BF8
:10401C00023353617047137C03F003030029D1D0A2
:10402C0043F00403CEE700BFF88B0020224BD3F8FB
:10403C009020D2E90010D3680968006810B41842C7
:10404C00946801EA04012ED0137C03F00303D9B960
:10405C0043F008039908013B11740D2B0BD8DFE8D2
:10406C0003F00D071C070A160D0D160A071C070D89
:10407C005369013B53615DF8044B704753695DF81C
:10408C00044B01335361704743F00403E0E7536979
:10409C005DF8044B023B5361704753695DF8044B68
:1040AC00023353617047137C03F003030029D1D012
:1040BC0043F00403CEE700BFF88B0020224BD3F86B
:1040CC009420D2E90010D3680968006810B4184233
:1040DC00946801EA04012ED0137C03F00303D9B9D0
:1040EC0043F008039908013B11740D2B0BD8DFE842
:1040FC0003F00D071C070A160D0D160A071C070DF9
:10410C005369013B53615DF8044B704753695DF88B
:10411C00044B01335361704743F00403E0E75369E8
:10412C005DF8044B023B5361704753695DF8044BD7
:10413C00023353617047137C03F003030029D1D081
:10414C0043F00403CEE700BFF88B0020224BD3F8DA
:10415C009820D2E90010D3680968006810B418429E
:10416C00946801EA04012ED0137C03F00303D9B93F
:10417C0043F008039908013B11740D2B0BD8DFE8B1
:10418C0003F00D071C070A160D0D160A071C070D68
:10419C005369013B53615DF8044B704753695DF8FB
:1041AC00044B01335361704743F00403E0E7536958
:1041BC005DF8044B023B5361704753695DF8044B47
:1041CC00023353617047137C03F003030029D1D0F1
:1041DC0043F00403CEE700BFF88B0020224BD3F84A
:1041EC009C20D2E90010D3680968006810B418420A
:1041FC00946801EA04012ED0137C03F00303D9B9AF
:10420C0043F008039908013B11740D2B0BD8DFE820
:10421C0003F00D071C070A160D0D160A071C070DD7
:10422C005369013B53615DF8044B704753695DF86A
:10423C00044B01335361704743F00403E0E75369C7
:10424C005DF8044B023B5361704753695DF8044BB6
:10425C00023353617047137C03F003030029D1D060
:10426C0043F00403CEE700BFF88B0020224BD3F8B9
:10427C00A020D2E90010D3680968006810B4184275
:10428C00946801EA04012ED0137C03F00303D9B91E
:10429C0043F008039908013B11740D2B0BD8DFE890
:1042AC0003F00D071C070A160D0D160A071C070D47
:1042BC005369013B53615DF8044B704753695DF8DA
:1042CC00044B01335361704743F00403E0E7536937
:1042DC005DF8044B023B5361704753695DF8044B26
:1042EC00023353617047137C03F003030029D1D0D0
:1042FC0043F00403CEE700BFF88B0020224BD3F829
:10430C00A420D2E90010D3680968006810B41842E0
:10431C00946801EA04012ED0137C03F00303D9B98D
:10432C0043F008039908013B11740D2B0BD8DFE8FF
:10433C0003F00D071C070A160D0D160A071C070DB6
:10434C005369013B53615DF8044B704753695DF849
:10435C00044B01335361704743F00403E0E75369A6
:10436C005DF8044B023B5361704753695DF8044B95
:10437C00023353617047137C03F003030029D1D03F
:10438C0043F00403CEE700BFF88B002038B52DEDC9
:10439C00028B069B04460271B0EE408A8360D8B251
:1043AC00144A0D46079B01212260E36002F0A2FC37
:1043BC000121207B02F09EFCB5EEC08AF1EE10FAD2
:1043CC0009DDB0EE480A207A02F098FFB0EE480AF8
:1043DC00207B02F093FF284603F080F80021207A1E
:1043EC0002F026FF207B002102F022FF2046BDECCC
:1043FC00028B38BDE00700200B4610B5362800F2C2
:10440C009782DFE810F08C02820279027002670258
:10441C005E0255024C0243023A02310228021F028C
:10442C00BF01B601AD01A4019B019201890180017C
:10443C0077016E0165015C0153014A0141013801AC
:10444C002F0126011D0113010901FF00F500EB00EE
:10445C00E100D700CD00C300B900AF00A5009B0060
:10446C00910087007D00730069005F0055004B00D0
:10447C0041003700C84C0422C8493620C4F8D83053
:10448C0002F072FC012010BDC34C0422C44935203B
:10449C00C4F8D43002F068FC012010BDBE4C0422DC
:1044AC00C0493420C4F8D03002F05EFC012010BDAD
:1044BC00B94C0422BC493320C4F8CC3002F054FC73
:1044CC00012010BDB44C0422B8493220C4F8C830C5
:1044DC0002F04AFC012010BDAF4C0422B44931203B
:1044EC00C4F8C43002F040FC012010BDAA4C0422D8
:1044FC00B0493020C4F8C03002F036FC012010BDA9
:10450C00A54C0422AC492F20C4F8BC3002F02CFC82
:10451C00012010BDA04C0422A8492E20C4F8B830AC
:10452C0002F022FC012010BD9B4C0422A4492D203A
:10453C00C4F8B43002F018FC012010BD964C0422D3
:10454C00A0492C20C4F8B03002F00EFC012010BDA4
:10455C00914C04229C492B20C4F8AC3002F004FC92
:10456C00012010BD8C4C042298492A20C4F8A83094
:10457C0002F0FAFB012010BD874C0422944929203B
:10458C00C4F8A43002F0F0FB012010BD824C0422D0
:10459C0090492820C4F8A03002F0E6FB012010BDA1
:1045AC007D4C04228C492720C4F89C3002F0DCFBA3
:1045BC00012010BD784C042288492620C4F898307C
:1045CC0002F0D2FB012010BD734C0422844925203B
:1045DC00C4F8943002F0C8FB012010BD6E4C0422CC
:1045EC0080492420C4F8903002F0BEFB012010BD9D
:1045FC00694C04227C492320C4F88C3002F0B4FBB3
:10460C00012010BD644C042278492220C4F8883063
:10461C0002F0AAFB012010BD5F4C0422744921203A
:10462C00C4F8843002F0A0FB012010BD5A4C0422C7
:10463C0070492020C4F8803002F096FB012010BD98
:10464C00554C04226C491F20E36702F08DFB0120BE
:10465C0010BD514C042269491E20A36702F084FB53
:10466C00012010BD4C4C042265491D20636702F0EB
:10467C007BFB012010BD484C042262491C2023679F
:10468C0002F072FB012010BD434C04225E491B203A
:10469C00E36602F069FB012010BD3F4C04225B492C
:1046AC001A20A36602F060FB012010BD3A4C0422D4
:1046BC0057491920636602F057FB012010BD364C98
:1046CC00042254491820236602F04EFB012010BD31
:1046DC00314C042250491720E36502F045FB0120C0
:1046EC0010BD2D4C04224D491620A36502F03CFB55
:1046FC00012010BD284C042249491520636502F0A5
:10470C0033FB012010BD244C0422464914202365A0
:10471C0002F02AFB012010BD1F4C04224249132039
:10472C00E36402F021FB012010BD1B4C04223F4925
:10473C001220A36402F018FB012010BD164C0422B9
:10474C003B491120636402F00FFB012010BD124C99
:10475C00042238491020236402F006FB012010BD0E
:10476C000D4C042234490F20E36302F0FDFA0120C2
:10477C0010BD094C042231490E20A36302F0F4FA57
:10478C00012010BD044C04222D490D20636302F05E
:10479C00EBFA012010BD00BFF88B002001070000D0
:1047AC0071060000E105000051050000E10F00005A
:1047BC00510F0000C10E0000310E0000A10D0000D1
:1047CC00110D0000810C0000F10B0000290100000C
:1047DC00FD2000006D200000DD1F00004D1F0000BB
:1047EC00BD1E00002D1E00009D1D00000D1D0000B3
:1047FC007D1C0000ED1B0000611B0000D51A0000A1
:10480C00491A0000BD19000031190000A51800005C
:10481C00191800008D170000011700007516000014
:10482C00E91500005D150000D114000045140000CE
:10483C00B91300002D130000A11200001512000086
:10484C00891100003B4C04223B490C20236302F0ED
:10485C008BFA012010BD374C042238490B20E3623F
:10486C0002F082FA012010BD324C042234490A2095
:10487C00A36202F079FA012010BD2E4C04223149BA
:10488C000920636202F070FA012010BD294C042249
:10489C002D490820236202F067FA012010BD254C37
:1048AC0004222A490720E36102F05EFA012010BDC0
:1048BC00204C042226490620A36102F055FA01205F
:1048CC0010BD1C4C042223490520636102F04CFAF4
:1048DC00012010BD0422174C1F491046236102F021
:1048EC0043FA012010BD134C04221C490320E36041
:1048FC0002F03AFA012010BD0E4C04221849022095
:10490C00A36002F031FA012010BD044609480422CC
:10491C0014494360012002F027FA204610BD054CD3
:10492C00042211490020236002F01EFA012010BD60
:10493C00002010BDF88B0020FD100000711000004D
:10494C00650B0000D90A00004D0A0000C1090000E7
:10495C0035090000A90800001D080000910700009F
:10496C00C504000039040000AD0300002DE9F0413E
:10497C000F46164604460221384602F0BBF90221C6
:10498C00304602F0B7F9224B3A0122483101DFF8E8
:10499C008CC053F8028003EB0712C4F80080D2F8E5
:1049AC000CE003EB061259580023C4F808E0D26857
:1049BC006361194BE26045681B686160ACFB033CAA
:1049CC004FF4FA634FEA9C4C03FB0CFC43685B1BF3
:1049DC009C45FBD8D8F80030384609681EEA030F0E
:1049EC0014BF012300230A42214618BF43F00203DF
:1049FC002374FFF701FD0346214630462376FFF76B
:104A0C00FBFC227E0346204613442376BDE8F0814E
:104A1C00A40D0020001000E0A421002083DE1B4325
:104A2C002DE9F04301210D205F4C2DED028B85B05B
:104A3C0002F060F95D481BF04BFE04F5C07001F00C
:104A4C00E3F904F5C07001F003FA002830D1584D99
:104A5C0040F2EE28574C584FDFF874912E6803F053
:104A6C00D5FE2378BBB13B78DB0714D52B68D9F87E
:104A7C0000209B1A0E2B0ED9504C5148514B524AC8
:104A8C005249CDE90004012009F00EFF05B0BDEC40
:104A9C00028BBDE8F0832B6822789B1B2AB1B3F5FF
:104AAC00FA6FE9D803F0B2FED9E74345FAD9E3E748
:104ABC0004F28F1001F0A8F904F28F1001F0C8F97C
:104ACC000028C4D0D4F85C31002B4EDD002504F254
:104ADC008F169FED338B0DF10E0303AA0DF10A0116
:104AEC00304601F0EFF9BDF90A3094ED5F1A32202F
:104AFC0002EE103ABDF90C30B7EEC11A013503EED7
:104B0C00103ABDF90E30B8EEC22B07EE103AB8EEE3
:104B1C00C33BB8EEC77B22EE012B23EE013B27EE05
:104B2C00017B22EE082B23EE083B27EE087B94ED4D
:104B3C00584B94ED5A5B94ED5C6B34EE024B35EEB6
:104B4C00035B36EE076B84ED584B84ED5A5B84EDBA
:104B5C005C6B84ED6E2B84ED703B84ED727B02F00C
:104B6C000FF8D4F85C319D42B5DB07EE903AB8EE05
:104B7C00E77A94ED585B94ED5A6BB7EEC77A94EDE7
:104B8C005C3B85EE074B86EE075B83EE076B84ED93
:104B9C00584B84ED5A5B84ED5C6B58E7AFF30080A7
:104BAC00399D52A246DF913FE0820020B8210020BF
:104BBC0000960020FA960020F9960020C9360000D5
:104BCC00BD360000B9360000B5360000A821002023
:104BDC008896002038B5134D134C284606F060FD1E
:104BEC0000210BF07BF92146104807F011FC2146FF
:104BFC000F4807F00DFC21460E4807F0C3FE204677
:104C0C0007F004FA0C4808F0A9FA0C4806F034F93D
:104C1C00284606F039FC0D20012102F02FF8012066
:104C2C0038BD00BFC8950020D0940020009500200E
:104C3C004093002018960020848E0020488200208B
:104C4C002DE9F047E44ADFF8C0831268D8F8003049
:104C5C009B1AC72B2DED048B88B000F20582DF4C1C
:104C6C00DF48DFF8A893DFF8A8A3DE4EDE4D94ED05
:104C7C00026B94ED007B94ED0A1BF7EEC60BDB4C3C
:104C8C00B7EEC70BB7EEC11B01F074FBD84B99ED17
:104C9C00007A93ED0A8AD3ED036A93ED045AB7EECA
:104CAC00C82A78EE666A8DED040AB7EEC55A8DED0A
:104CBC00061A93ED061A86EE876AD3ED057AD3EDC4
:104CCC00019A93ED009ACDED050AD3ED020A83ED1E
:104CDC00038AD6ED0A8ACDED071A9FEDB94B9FEDED
:104CEC00BA3B83ED0B6A83ED046AB7EEC66A26EE17
:104CFC00046BA2EE036BA5EE046BB7EEC66B30EE45
:104D0C00460A83ED0A6A70EE416A83ED060AE7EE05
:104D1C00007A86EE876AC3ED057A67EEA97A9AF86F
:104D2C000430D5ED0A9AE0EE097A94ED0A9AE6EE93
:104D3C00207AFDEEE77A17EE907A03B17F42002FCE
:104D4C0040F368819AF80800002102F071FA3946A4
:104D5C009AF80C0002F06CFAD6ED037AD9ED000A41
:104D6C0078EEE77A96ED043A96ED0A2AB7EEC33A56
:104D7C00DDED056A87EEA07A96ED066A9D4FC6EDCD
:104D8C00038A3B79B7EEC22A9FED8D4B9FED8E1BAC
:104D9C0086ED0B7A86ED047AB7EEC77A27EE045BC4
:104DAC0096ED057AD6ED017AA2EE015BD6ED002ADE
:104DBC00A3EE045BD6ED024AB7EEC55B76EEC56A90
:104DCC0086ED0A5A36EEC66AC6ED066AA0EEA67ADB
:104DDC00C6EE205A86ED057A67EE277AE6EEA27AC1
:104DEC00E5EEA47AFDEEE77A17EE906A03B176420F
:104DFC00002E40F32F81387A002102F019FA314647
:104E0C00387B02F015FAD5ED037AD9ED000A79EE6C
:104E1C00E77A95ED043A95ED0A2AB7EEC33ADDED43
:104E2C00066A87EEA07A95ED066A734EC5ED039A75
:104E3C003379B7EEC22A9FED624B9FED631B85ED74
:104E4C000B7A85ED047AB7EEC77A27EE045B95ED05
:104E5C00057AD5ED017AA2EE015BD5ED002AA3EE21
:104E6C00045BD5ED024AB7EEC55B76EEC56A85EDFF
:104E7C000A5A36EEC66AC5ED066AA0EEA67AC6EEEA
:104E8C00205A85ED057A67EE277AE6EEA27AE5EEF2
:104E9C00A47AFDEEE77A17EE905A03B16D42002D1D
:104EAC0040F3CE80307A002102F0C2F92946307BE3
:104EBC0002F0BEF9D4ED037AD9ED000A79EE677AE7
:104ECC0094ED043A94ED0A2AB7EEC33ADDED076A85
:104EDC0087EEA07A94ED066A484D84ED039A2B79FF
:104EEC00B7EEC22A9FED364B9FED371B84ED0B7A44
:104EFC0084ED047AB7EEC77A27EE045B94ED057A5D
:104F0C00D4ED017AA2EE015BD4ED002AA3EE045B92
:104F1C00D4ED024AB7EEC55B76EEC56A84ED0A5A4B
:104F2C0036EEC66AC4ED066AA0EEA67AC6EE205A24
:104F3C0084ED057A67EE277AE6EEA27AE5EEA47A9E
:104F4C00FDEEE77A17EE904A03B16442002C6DDD5A
:104F5C00287A002102F06CF92146287B02F068F9CE
:104F6C00B0EE480A1E48B0EE691AF0EE680AF0EE90
:104F7C00491A01F00DFA224AD8F80030F0EE411A25
:104F8C001168B0EE601A1360F0EE400A5B1A8DEDFA
:104F9C00010A1C4807EE903A8DED021ACDED031A6A
:104FAC00B8EE677B9FED0A5B87EE056BB7EEC60B21
:104FBC0008B0BDEC048BBDE8F04701F095BB00BF19
:104FCC00C217265305A3B23F8716D9CEF753EB3F32
:104FDC000000000000408F4008950020988B0020B6
:104FEC0058930020EC9300203C9400208C940020DB
:104FFC009C930020DC9300202C9400207C940020B7
:10500C000C950020B88800200096002058920020B3
:10501C008C9300209AF80C0044D0002102F008F97F
:10502C0079429AF8080002F003F995E6287B29D01A
:10503C00002102F0FDF86142287A02F0F9F88FE7BE
:10504C00307B27D0002102F0F3F86942307A02F06D
:10505C00EFF82FE7387B2ED0002102F0E9F87142EF
:10506C00387A02F0E5F8CEE600220023164C012136
:10507C000D20C4E90023C4E90223C4E90A2301F08A
:10508C00FDFDEDE5214602F0D3F82146287A02F029
:10509C00CFF865E7294602F0CBF82946307A02F0C2
:1050AC00C7F807E7394602F0C3F839469AF8080002
:1050BC0002F0BEF850E6314602F0BAF83146387AC2
:1050CC0002F0B6F89FE600BF988B002000000000AD
:1050DC002DE9F047ADF5856D994C9A49684601F07C
:1050EC0093FA4FF432726946974801F0C7FEBAAB97
:1050FC00B4AA0DF2CE2104F28F1000F0E3FEBDF93C
:10510C00CE3294ED5F0A01EE103ABDF9D032B7EE13
:10511C00C00AB8EEC11B03EE103ABDF9E832B8EE86
:10512C00C33B21EE001B07EE103AB8EEC77B23EE13
:10513C00003B27EE007B9FED7C2B94ED584B9FEDB5
:10514C007C0B21EE021B23EE023B27EE027B31EEA1
:10515C00444B94ED5A5B94ED5C6BB4EEC04B33EE68
:10516C00455B37EE466BF1EE10FA84ED6E1B84ED69
:10517C00703B84ED224B84ED727B84ED245B84EDDB
:10518C00266B07DD9FED6C7BB4EEC74BF1EE10FA8E
:10519C0000F1C3809FED667BB4EEC75BF1EE10FAB5
:1051AC0007DD9FED657BB4EEC75BF1EE10FA00F105
:1051BC00AF809FED5F7BB4EEC76BF1EE10FA0ADDAA
:1051CC009FED5D7BB4EEC76BF1EE10FA03D50022B8
:1051DC000023C4E9262394ED567ABAAB0DF2CE2205
:1051EC00B3A9B7EEC77A5948594DDFF87C81DFF87F
:1051FC00589184ED287B84ED307B84ED387B00F076
:10520C0041FEBDF9CC3294ED5E3A0DF5347C05EEE1
:10521C00103ABDF9CE32B7EEC33A94ED524A06EECF
:10522C00103ABDF9E832B8EEC55BE24607EE103A2B
:10523C00B8EEC66BB7EEC44A0DF53A7EB8EEC77B36
:10524C0025EE035B774626EE036B27EE037B25EEFC
:10525C00045B26EE046B27EE047B84ED685B84ED27
:10526C006A6B0FCD84ED6C7BACE80F0095E8030006
:10527C00A5F1C8068CE80300BAE80F00AEE80F00F1
:10528C009CE803008EE803000FCF94ED557A0FC60F
:10529C00B7EEC77A4FF4A0729EE8030084ED407B12
:1052AC0086E80300A5F5D471BAA884ED487B84ED9B
:1052BC00507B01F0E3FDBAA94FF4A072404601F017
:1052CC00DDFD244A2448D2E9003100684FF47A729B
:1052DC00C0184FF0000341F1000114F00FF81F4B00
:1052EC004146C9F8000003FB02F2C8F80000C9F8F7
:1052FC000420C8F804200022194807F0E3F8002223
:10530C00494618480DF5856DBDE8F04707F0DAB849
:10531C0000220023C4E924234BE700220023C4E924
:10532C00222337E7AFF30080399D52A246DF913F2D
:10533C007B14AE47E17A84BF7B14AE47E17A843F9D
:10534C00E0820020B8880020F085002060840020D6
:10535C0080840020908B00200096002040420F009B
:10536C004093002000950020B084002030B108B597
:10537C00FFF766FCBDE80840FFF7AABE704700BF08
:10538C0008B501210D2001F079FC962001F0F8FB05
:10539C0000210D2001F072FC962001F0F1FB01219F
:1053AC000D2001F06BFC962001F0EAFB00210D2092
:1053BC0001F064FC962001F0E3FB4FF47A7001F0ED
:1053CC00DFFBDEE70000000030B5ABB0404C24A89A
:1053DC0008F01EFE0DF1900CBCE80F000FC400226B
:1053EC00DCF8001023463B4843F81019114606F030
:1053FC0001F8002866D1374B374A3849384806F04F
:10540C00FDF800285ED105F055F8364B02463449BC
:10541C00354806F0BFF9002854D10BF009FB334B8B
:10542C0002462F49324806F0B5F900284AD103F05C
:10543C0015FB304B02462A492F4806F0E5F90028A7
:10544C0040D12E48234900902D481FA3D3E90023B7
:10545C0006F014FA002835D102A805F085FC882244
:10546C0002A9284801F00AFDA4F1100302221949EF
:10547C00244805F085FC044620BB234B234A1E49D7
:10548C002048009405F02CFDE0B91D491D4805F09D
:10549C0065FDB8B91E4B0A201D680AF00DFD88B9D0
:1054AC000AF0EEFC451B0A461A4C4FF00D004FF06B
:1054BC00010162F10002C4E9005201F0DFFB01209E
:1054CC002BB030BDFFF75CFF002D31010000000058
:1054DC00608E0020C895002088160020CC06002085
:1054EC00D0940020E006002000950020F00600205B
:1054FC0040930020FC060020189600206D3100001F
:10550C00848E00204882002059020000988B0020D5
:10551C0000960020908B002070B501F085FB07EE03
:10552C00900A434BF8EE677ADFED426A93ED007A0E
:10553C00414D37EEC77AC3ED007A404A2C78C7EE5E
:10554C00267AC2ED007A032C07D8DFE804F02C266B
:10555C000702FFF73FFB00232B7070BD384ED6E9D6
:10556C000023B3F1FF3F08BFB2F1FF3F55D004F069
:10557C006FFFD6E90023801A61EB0301C92871F192
:10558C00000138DA2B78022BE7D12E4826A3D3E979
:10559C000023BDE8704005F0FBBEFFF715FF28B3F4
:1055AC0002232B7070BD284CD4E90023B3F1FF3FCC
:1055BC0008BFB2F1FF3F2BD004F04AFFD4E900231F
:1055CC00801A61EB030140F2F513984271F100016E
:1055DC00C3DB0121642009F07DF9B0FA80F04009A9
:1055EC00287004F035FFC4E9000170BD2870BDE8D7
:1055FC007040FFF7EFBA0121642009F06BF9002825
:10560C0018BF03242C7004F023FFC6E90001B9E78E
:10561C0004F01EFFC4E90001CEE704F019FFC6E94F
:10562C000001A4E7AFF3008000E1F50500000000E5
:10563C000495002000247449F5960020589200200F
:10564C0078200020488200207020002070B50F22A6
:10565C000E217A4803247A4D7A4E2DED028B86B0BA
:10566C009FED798AFFF782F90C220B217748FFF71F
:10567C007DF9102211217648FFF778F90A220921C9
:10568C007448FFF773F925212420B0EE480A0191E4
:10569C004FF0FF33009000220A216F48FEF776FE90
:1056AC0006210520B0EE480A01914FF0FF3300901F
:1056BC0000220A216948FEF769FE17211620B0EE78
:1056CC00480A01914FF0FF33009000220A216448F0
:1056DC00FEF75CFE0420B0EE480A4FF0FF330022C8
:1056EC000A21DFED608ACDE900405F48FEF74EFEEF
:1056FC00B2EE0E7AF1EE047A00235C4A21465C4845
:10570C00F3EE080A5B4CB0EE682ADFF8A0E1DFF894
:10571C00A0C185ED007AC5ED017A84ED007AC4ED67
:10572C00017AC5F81CE0C4F81CE0C5F820C0C4F828
:10573C0020C0DFED511A9FED511A9FED510AAB605D
:10574C00AB62EB622B636B63AB63EB63EB602B6164
:10575C006B61AB61A360A362E36223636363A363C6
:10576C00E363E36023616361A3616E62666282ED51
:10577C00007A80ED007AC2ED017AC0ED017AC2F8B0
:10578C001CE0C0F81CE0C2F820C0C0F820C0566273
:10579C00466202AE93609362D36213635363936366
:1057AC00D363D36013615361936140F2262283600B
:1057BC008362C362036343638363C363C360036134
:1057CC00436183612F4800F0BBFC2F4800F0F0FED2
:1057DC002E4C2F4B30462F4A04F110052E490092C7
:1057EC002822C4F85431C4F858312C4B2160C4F829
:1057FC0048312B4BC4F85C21C4F85031C4ED538AAA
:10580C0095E80E0004F0FAFD264B96E8070085E8B3
:10581C00070025494FF0625204F5C070C4F87C3182
:10582C002160C4F8782100F0EBFA04F28F1006B076
:10583C00BDEC028BBDE8704000F0E2BA5C92002037
:10584C009C9300200000484300409C467892002026
:10585C0094920020B09200208C930020DC930020C6
:10586C002C940020CDCCCC3D7C9400203C9400208A
:10587C008C940020EC930020CDCC4C3D0000BC411E
:10588C009A99593F58930020B8880020E082002054
:10589C00ACC52737C0060020A4070020C3F51C4167
:1058AC00BD3786352D23FA3B9007002000007F433F
:1058BC00666666420120704701207047D0F88C0262
:1058CC0003685B68184700BFD0F88C02836000F057
:1058DC00A5BF00BF0020704790F8A32090F8A2004D
:1058EC00101A704790F8A23090F8A3209A4205D96C
:1058FC005A1C034480F8A220987E70474FF0FF306A
:10590C00704700BF90F8A23090F8A3209A4202D9B9
:10591C001844807E70474FF0FF307047704700BFCF
:10592C000346B0F8300178B193F82F21882A03D9B7
:10593C00012200205A60704702F1010C01201A4428
:10594C0083F82FC182F8A510704700BF38B5B0F8A6
:10595C0030410CB9204638BD90F82F310546C3F1C3
:10596C008904A2420DD8144605F1A500224618441C
:10597C0001F084FA95F82F312046234485F82F3115
:10598C0038BD01224260EFE72DE9F04FD0F814A0AA
:10599C001524017E8146437E83B00AEB0111384AFF
:1059AC000AEB0313374F097A93F8283002EB0115F1
:1059BC000901E86852F8018002EB0311D5F804B034
:1059CC001B01CE68D558CBF80040C8F88400D8F835
:1059DC0004304A6803432C490192C8F8043014601F
:1059EC00C5F884606B6833436B60284B4C683A682D
:1059FC00A3FB0232920C02EB820252004B681B1B7F
:105A0C009A42FBD84FF0090C1F4ADFF880E0D8F817
:105A1C000830034202D0AB6833422FD1C5F88860FE
:105A2C0054683968AEFB0131890C01EB8101536874
:105A3C001B1B9942FBD8C5F8846054683968AEFBCF
:105A4C000131890C01EB810153681B1B9942FBD876
:105A5C00BCF1010CDBD1604699F81830019A0AEBC5
:105A6C000313DB68CBF8003099F819300AEB031AF2
:105A7C00DAF82C30136003B0BDE8F08F0120EBE7AF
:105A8C00A40D0020A4210020001000E083DE1B43A5
:105A9C000E4A10B51168046905E0DB0107D41368E0
:105AAC005B1A102B08D8636913F0007FF5D14FF403
:105ABC00FE430120636110BDFFF766FF0028FAD09A
:105ACC004FF4FE4301206361F5E700BF0096002010
:105ADC002DE9F04790F82FA10569BAF1000F4FD0CE
:105AEC0081468846FFF7D4FF002849D0374E002462
:105AFC00376818E06B69190551D4DA0455D4580588
:105B0C0059D4990441D43268D21B322A3DD8544519
:105B1C0007D9EA6D520704D19B0555D4B8F1000F93
:105B2C0052D002F073FE5445E4D8EA6D500702F0EF
:105B3C000703DFD413E099F8A5200133022442F4C3
:105B4C008062042B2A661ED08A4503F1010309EBFF
:105B5C0001020ED992F8A520042B2A66CAD0012185
:105B6C00002CE8D02146013301348A4509EB0102AF
:105B7C00F0D8B8F1000FBDD04FF400732B66B9E725
:105B8C000420BDE8F0870124B4E72B694FF40072C0
:105B9C00042043F440732B612A66BDE8F0872B691F
:105BAC00042043F440732B61EBE72B69052043F48D
:105BBC0040732B61E5E72B694FF40072022043F42C
:105BCC0040732B612A66DCE70020DAE700960020A0
:105BDC002DE9F84F83460C4615461F46D0F810A009
:105BEC00FFF756FF002800F09E806100012DDFF8C2
:105BFC003C8140F20146CBB24FF0000138BF012589
:105C0C00D8F800900C461E43ABF8A21020E09BF88D
:105C1C00A330872B3FD9DAF8142010055AD412F48C
:105C2C00105F70D1D8F80030A3EB0903322B6AD87F
:105C3C009BF8A330AB4209D3022C07D9DAF85C30BD
:105C4C00590703D193054BD4002F49D002F0DEFD48
:105C5C00022CDCD8DAF85C3003F007025B07D6D4F0
:105C6C00681E224440F480704CB9CAF8606001345C
:105C7C00131B032BCBD8022CC9D8002CF5D0012C2C
:105C8C0037D01FB14FF40073CAF860309BF8A330C3
:105C9C000324872BBFD8DAF85C2012F4E02FC2F370
:105CAC00024CB8D0591C9C441933C9B25FFA8CFC15
:105CBC005BFA83F3DAF870004A1C61458BF8A31089
:105CCC00D1B203F8010FA6D08929F3D1DAF8142048
:105CDC001005A4D5DAF8103043F44073CAF810302C
:105CEC00DAF85C3013F4E02F06D19BF8A300BDE882
:105CFC00F88FCAF86000BAE7DAF8103043F4007392
:105D0C00CAF81030F1E7DAF810304FF4007243F4AF
:105D1C004073CAF81030CAF86020DAF85C3013F41B
:105D2C00E02FE2D0E8E70420BDE8F88F00960020D1
:105D3C00F8B506690446D6F8145115F4706301D011
:105D4C00C6F81431A8070BD5D6F8702111043DD52F
:105D5C000023012184F8A230234484F8A3109A76FE
:105D6C00EA0710D594F83071F7B194F82E7194F8C5
:105D7C002F31BB4226D97B1C274484F82E3197F84F
:105D8C00A530C6F86031AB050DD594F8A30018B159
:105D9C00D4F83C3103B198470023A4F8A230A4F8FE
:105DAC002E3184F83031F8BDD4F8383103B198472E
:105DBC00002384F82E31012384F8303194F82F31EC
:105DCC00BB42D8D80023C6F86031DCE794F8A33086
:105DDC00872BC5D8591CC9B2BEE700BF0148FFF7D5
:105DEC00A7BF00BFB82100200148FFF7A1BF00BF2B
:105DFC00F82200200148FFF79BBF00BF3824002089
:105E0C0068230370704700BF30B5012583B004468A
:105E1C0003230095002502226B21007800F04EF937
:105E2C000095022304221B21207800F047F90095ED
:105E3C0004221C210223207800F040F92B46062274
:105E4C006B21207803B0BDE8304000F0FBB800BFF8
:105E5C0030B50B4A044683B00623108825467521BD
:105E6C001A46019015F8010B009500F0CFF86078F8
:105E7C00A0F13400B0FA80F0400903B030BD00BF8F
:105E8C00C6370020F0B516460D4A83B01D46128861
:105E9C00034604460F4600923B2113F8010B0622E1
:105EAC0000F030F8B4F801305BBA3B80B4F8033042
:105EBC005BBA3380B4F805305BBA2B8003B0F0BD0D
:105ECC00C6370020F0B516460D4A83B01D46128821
:105EDC00034604460F460092432113F8010B062299
:105EEC0000F010F8B4F801305BBA3B80B4F8033022
:105EFC005BBA3380B4F805305BBA2B8003B0F0BDCD
:105F0C00C63700202DE9F04FDFF8FC902DED028B09
:105F1C0085B0D9F800A0BDF840600192002A6FD07E
:105F2C001F464FF000084300882A08EE100A08EEBE
:105F3C00901ADBB2A8BF8822324C45464FF0010BB9
:105F4C0002930392029B18EE901A204684F830B10B
:105F5C0084F8A53084F82FB1FFF7E2FC012120462C
:105F6C00FFF7B6FD029B18EE101A204684F8A530F8
:105F7C00019B84F830B1A3EB0802012384F82FB104
:105F8C00872AD4BFD2B28822FFF722FE94F8A3202E
:105F9C0094F8A2309A4218D0581C04EB030C2EB182
:105FAC00D9F80010A1EB0A01B1420ED29A4225D9C0
:105FBC009CF81A3084F8A2007B55691C94F8A32035
:105FCC0094F8A2304DB29A42E6D1039B9844019BBF
:105FDC005FFA88F89845B5D356B1D9F80030A3EBE1
:105FEC000A03B34204D3019B9D42B8BF4FF0FF3567
:105FFC00284605B0BDEC028BBDE8F08FFF23DBE734
:10600C00019DE9E7B82100200096002030B585B04D
:10601C001D46BDF824400DF10F03009414460122D7
:10602C00FFF770FF60B10121621B9DF80F4001FA70
:10603C0005F30A44013B934023401341089A137023
:10604C0005B030BD2DE9F0411E461A4B84B0144604
:10605C001B8801220546884600930DF10F03FFF7BC
:10606C0051FF012306B39DF80F60A34046EA0302DB
:10607C00D6B20127104C4146BD40204684F8307101
:10608C0084F8A55084F82F71FFF74AFC314620465E
:10609C00FFF746FC39462046FFF71AFDB0FA80F0B0
:1060AC00400904B0BDE8F0819DF80F60A34026EADA
:1060BC000306DEE7C6370020B82100202DE9F041A9
:1060CC001C461C4B84B015461B880122064688468C
:1060DC0000930DF10F039DF82870FFF713FF30B3F9
:1060EC002D1B76004146013507FA05F3012707FA07
:1060FC0004F4DBB2013CAC409DF80F50234025EA80
:10610C0004050D4C1D43204684F8A56084F83071BD
:10611C0084F82F71FFF704FC29462046FFF700FC9A
:10612C0039462046FFF7D4FCB0FA80F0400904B0A1
:10613C00BDE8F081C6370020B82100200000000027
:10614C009FED195BB7EEE17A4B1EF6EE006A01701B
:10615C00B5EEC01A022B27EE057B80ED022A8CBF10
:10616C000223042362EE266A8361F1EE10FAB7EE85
:10617C00C77BC0ED036A06EE902A80ED057A10D439
:10618C00B4EE601AF1EE10FA30FE811AC1EE207AEC
:10619C00F8EEE66A67EEA67A27EE800A80ED010A31
:1061AC0070479FED031AF1E7182D4454FB21094069
:1061BC00000000000000000090ED027AB6EE005BDB
:1061CC00B7EEC12ADFED6A6AB7EEC77A90ED056AC1
:1061DC0020EE260AD0ED013A60EEA64A88B027EEF2
:1061EC00057B80EE064A27EE027B84EE865AB7EEDC
:1061FC00C77B67EE267AF0EEC45A87EE867AF0EE0D
:10620C00C56A76EEA57AF4EE673AF1EE10FAF0EE86
:10621C00C76A76EEA56A05D8B5EE401AF1EE10FA0B
:10622C0000F08380F5EE400AF1EE10FA04D1F4EEA2
:10623C00663AF1EE10FA7FD9B7EEC44AD0ED037A84
:10624C00B7EEC55A27EE277AB1EE633A9FED3E1BA7
:10625C009FED3F6BB7EEC77A24EE011BB0EE410BFE
:10626C00A5EE060B30EE070BB7EEC00BB4EEC30A6F
:10627C00F1EE10FA56D4F4EE403AF1EE10FA48BFB3
:10628C00B0EE630A9FED346B9FED312B25EE066B60
:10629C00A4EE026B37EE066BF7EEC60BF4EEC30AF8
:1062AC00F1EE10FA3BD4F4EE603AF1EE10FA48BF7E
:1062BC00F0EE630A9FED2A6B95EE061B37EE011B81
:1062CC00B7EEC11BB4EEC31AF1EE10FA24D4F4EEFF
:1062DC00413AF1EE10FA48BFB0EE631A9FED222B53
:1062EC009FED1F6B25EE025BA4EE065B37EE057B84
:1062FC00B7EEC77BB4EEC37AF1EE10FA08D4F4EE25
:10630C00C73AF1EE10FA54BFB0EE473AB0EE633A2A
:10631C00F0EE431A08B07047B0EE431ADEE7F0EE29
:10632C00430AC7E7B0EE430AACE7C3EEA76A24EE14
:10633C00264A25EE265A7FE7C3EEA67A24EE274A94
:10634C0027EE277A78E700BFCC3B7F669EA0E63F1E
:10635C00CD3B7F669EA0E63FCC3B7F669EA0E6BF12
:10636C00CE3B7F669EA0E6BFCB3B7F669EA0E63F02
:10637C0000007042037884B0DFED047A012B98BFE3
:10638C00F0EE670A04B0FFF717BF00BF0000000073
:10639C000378F0EE407A002B40D030EE207A9FED5F
:1063AC00822A70EEC06AD0ED052A022B37EE017AF4
:1063BC002DED088B90ED06BA37EE217A88B0B8EE49
:1063CC00CB8A87EE086A86EE020A20EE220A54D1A6
:1063DC0036EEC16A90ED027AB6EE005BB7EEC77A84
:1063EC0036EE216A76EE816A27EE057B86EE085A38
:1063FC0076EEE16AC6EE885A85EE026AC5EE820A2E
:10640C0026EE226AB7EEC66A86EE071B60EEA20A7B
:10641C00B7EEC11B08B0BDEC088B704730EEC06AFC
:10642C00DFED626A90ED067A70EE207A9FED5E4A9F
:10643C00F0EE660AB8EEC77A90ED025A36EE266A8E
:10644C00D0ED054A77EEA67AB6EE002BC6EE073AEB
:10645C00C7EE876AB7EEC55A25EE025B83EE847AE7
:10646C0086EE840A27EE247AB7EEC77A20EE240A49
:10647C0087EE051BB7EEC11B704790ED029AB6EE86
:10648C00005B032BB7EEC99A29EE059B55D1B7EEED
:10649C00E76AB7EEE00AB7EEC7AAB8EECBBBB1EE2F
:1064AC00007BB7EEC14A9FED2E3B2BEE07BB20EED7
:1064BC00033B9FED2D5B9FED2E7BA6EE053BB7EED0
:1064CC00E15A8AEE0B1B20EE077B9FED2BAB81EE86
:1064DC000A0BB7EEC00B20EE220AB7EEC00A80EE14
:1064EC00091B9FED270B9FED289BA6EE007B9FEDD4
:1064FC00280B9FED296BA4EE007BA5EE067BB7EE77
:10650C00C11B9FED276BB7EEC77BC7EE087AC7EEB2
:10651C00820AB0EE437BA4EE097B60EEA20AA5EEE4
:10652C00067BB7EEC77BC7EE087A87EE820A20EEB1
:10653C00220A08B0BDEC088B704776EEC17ADFED0D
:10654C001B0A77EEA17AC7EE886A86EE827A27EE6E
:10655C00227AB7EEC77A87EE091BB7EEC11B59E753
:10656C0013A3CE88549FB63F039B3D079A3AEB3F4B
:10657C0099FE7B98F3DFEFBF0000000000004E4057
:10658C003FF03A0F70CFE03F079C665556C3EDBF06
:10659C00E9AEE5172982D73FEC6A9C625F57E53F6D
:1065AC001AF24DB721D8E73F0000704200000000FE
:1065BC00F0B587B0002300F10807114A02AD04467C
:1065CC000092C0F8C83204F11406C0F8CC32C0F8FE
:1065DC00D032284697E80E0003F010FF094B0093C9
:1065EC0095E8070087E80700284696E80E0003F0B8
:1065FC0005FF95E8070086E80700204607B0F0BDC8
:10660C004C0700205407002010B504464FF432729A
:10661C0000F034FC204610BD10B5B7EEC11A0C4684
:10662C002DED0A8BB6EE00ABB0EE608AB0EE409A60
:10663C0021EE0ABBB7EEC88AB7EEC99A28EE0A8BD0
:10664C0029EE0A9BB0EE4B0B11F02EFBB0EE407B0B
:10665C00B0EE4B0BF7EEC7BB11F0A2FFB7EEC0BB11
:10666C00B0EE480B11F020FBB0EE40CBB0EE480B77
:10667C0011F096FFB7EEC08BB0EE490B11F014FB86
:10668C00B0EE407BB0EE490BB7EECCCBF7EEC78B40
:10669C0011F086FF6BEE087AF7EEC06B2BEE888A52
:1066AC002BEE8C7A67EEA65A28EE286A68EEE77A0B
:1066BC002BEE0CBA26EEC88AE7EE285AE7EE267ABD
:1066CC00B0EE467AABEE288AABEE267AC4ED005AD1
:1066DC00C4ED017A84ED038ABDEC0A8B84ED027A59
:1066EC0010BD00BF0000000010B52DED088B90ED23
:1066FC00B48A84B0B0EE409A0446B0EE480AF0EE8C
:10670C0060AAF0EE418AF0EE619A11F04DFEB0EE07
:10671C0040BAB0EE480A11F043FD68EEC07A6BEE59
:10672C00286A94EDB37AA9EE898A94EDB2AAEBEEBD
:10673C002A7ADFED370AE0EE2A6A69462046B0EE87
:10674C00600AB0EE481A84EDB48AA7EE89AAA6EEC8
:10675C00897A84EDB2AAB0EE478A84EDB37AFFF75A
:10676C005BFFB7EECA1A9DED012AB7EEEA6AB7EEE7
:10677C00C87A9DED023A9DED034AB7EEC22A9DED13
:10678C00005AB7EEC33AB7EEC44A0022B7EEC55A68
:10679C0000231BA1D1E9000184ED081B84ED0A7BC9
:1067AC00B7EEE81AB7EEE97AC4E91601C4E9240198
:1067BC00C4E95C0114A1D1E90001C4E90C2384ED06
:1067CC000E2B84ED103B84ED124B84ED145B84EDA9
:1067DC005E6B84ED601BC4E96223C4E96423C4E9E5
:1067EC00662384ED687BC4E96A01C4E97801C4E9D5
:1067FC00B00104B0BDEC088B10BD00BFAFF300803E
:10680C00FCA9F1D24D62503F2D431CEBE2361A3FEE
:10681C000000000001F056BF01F0EEBE2DE9F0477C
:10682C00884651B3914662B382460027164C174EE8
:10683C0025680BE001F046FF002810DA01F0E6FFB6
:10684C002368DAF808205B1B934210D2DAF8003088
:10685C005B69B342EED0504698470028EEDB013717
:10686C0008F8010BB945E3D13846BDE8F0870123A0
:10687C0038468AF80C30BDE8F0870F463846BDE83C
:10688C00F0871746F0E700BF009600201546000081
:10689C00A249A34B88422DE9F047A24C5E699A6944
:1068AC00D4F80C801BD9A04B984240F20281C31A39
:1068BC009E491B0AA1FB031340F22761DB0903EB82
:1068CC00830303EB830303F2E2438B4228BF0B46A3
:1068DC00A3F54877964BA3FB0737FF0804E0954FC9
:1068EC00B8428CBF0E2706278D4908F01F09D1F836
:1068FC008030B94543F0C003C1F880300CD228F089
:10690C001F08A1F5F82148EA0708C1F80C800B68AC
:10691C00002BFCDA08F01F0916F0007324D186490D
:10692C000C698649A14300F0EA8082F48051344618
:10693C004FF4805514F0605F04D026F060561E436F
:10694C00774B5E6111F4405F07D022F440527449DA
:10695C002A438A618B6C1A07FCD446F00076704A85
:10696C005661936C9B06FCD4754CA04200F2CE8011
:10697C004FF0010C0146634603FB011203F1010EBB
:10698C000CF10105A24218D8BEF1080F4FF001031B
:10699C0040F08D80BCF1040F00F291800A18A242E5
:1069AC0000F2A48005FB00F1AC4603F1010E03FBE1
:1069BC0001120CF10105A242E6D90CF1FF318C0257
:1069CC0086EA81215F4810445F4A90427FD9DFF804
:1069DC00A4A16C225D48584DB0FBFEF0D5F800E048
:1069EC00B0FBFCF0DFF890C10EEA0C0CD44509D0DA
:1069FC0042F400524FF4805CC5F800C02A602A684B
:106A0C00002AFCDA464A156905F007059D4203D0B9
:106A1C001361936CDD03FCD411F4E05F09D026F410
:106A2C00E05604F4E0543E4A26435661936C9907B1
:106A3C00FCD44749474A014491423CD8464BC909CA
:106A4C00A3FB0131090B4B1E1B0286EA030212F455
:106A5C00407F06D026F4407603F44073304A33432B
:106A6C0053612F4A536923F000735361936C9B0657
:106A7C00FCD43A4B4F45A3FB00234FF0FF324FEAB7
:106A8C009343B0FBF1F1B2FBF3F3354A1060354A96
:106A9C001160354A136008D228F01F08214A48EAD1
:106AAC000707D7601368002BFCDABDE8F087734644
:106ABC0062E7122718E74FF440730421C5E70CF185
:106ACC00FF31204807238C02104486EA8121274A93
:106ADC00DFF8A8A0A2FB0020020D2548362A38BFFB
:106AEC00362202FB00F042EA0A0A74E74FEA8C24D1
:106AFC00002386EA8C214FF0010EAC4662E71D465E
:106B0C0086F0C05411464FF0C05313E700244FF0E9
:106B1C00010C024631462346E64653E700A4781F93
:106B2C0000C00F40000008400046C32323B24C00B5
:106B3C001F85EB5100366E0100800D404030008007
:106B4C00FFB19F26808D5B00FF7EF64D00643F4DAC
:106B5C007FD1F0087F17B42C9F10E50083DE1B4318
:106B6C00A4210020A021002084950020819F5E1686
:106B7C00001BB7006C2000807F300180002000805B
:106B8C0000B970472DE9F84F01218146214C224D67
:106B9C00224E54E8003F2A68306844E80013002B6A
:106BAC00F7D11F494B684FF47A7BDFF878A01B1A9A
:106BBC0001270BFB02F8DAF80020A3FB02325A453E
:106BCC0094BF9044D84454E8003F2A68306844E8A5
:106BDC000073002BF7D14B68DAF800C01B1A0BFBC3
:106BEC0002F2A3FB0C3CBCF57A7F94BF624402F525
:106BFC007A72A2EB0802B2F57A7F06D3B9F10109D9
:106C0C0008F57A78DFD1BDE8F88F01F0FFFD044973
:106C1C00D9E700BF0496002000960020FC950020C8
:106C2C00001000E08495002030B40F4B4FF0010CA5
:106C3C000E4D0F4C53E8002F2868216843E800C222
