:0200000460009A
:100000004643464200000156000000000103030081
:1000100000000000000000000000000000000000E0
:1000200000000000000000000000000000000000D0
:1000300000000000000000000000000000000000C0
:1000400000000000010408000000000000000000A3
:100050000000800000000000000000000000000020
:100060000000000000000000000000000000000090
:100070000000000000000000000000000000000080
:10008000EB04180A063204260000000000000000FD
:10009000050404240000000000000000000000002F
:1000A0000000000000000000000000000000000050
:1000B0000604000000000000000000000000000036
:1000C0000000000000000000000000000000000030
:1000D00020041808000000000000000000000000DC
:1000E0000000000000000000000000000000000010
:1000F0000000000000000000000000000000000000
:10010000D8041808000000000000000000000000F3
:100110000204180804200000000000000000000095
:1001200000000000000000000000000000000000CF
:10013000600400000000000000000000000000005B
:1001400000000000000000000000000000000000AF
:10015000000000000000000000000000000000009F
:10016000000000000000000000000000000000008F
:10017000000000000000000000000000000000007F
:10018000000000000000000000000000000000006F
:10019000000000000000000000000000000000005F
:1001A000000000000000000000000000000000004F
:1001B000000000000000000000000000000000003F
:1001C000000100000010000001000000000000001D
:1001D000000001000000000000000000000000001E
:1001E000000000000000000000000000000000000F
:1001F00000000000000000000000000000000000FF
:10020000FFFFFFFFFFFFFFFFFFFFFFFFFFFFFFFFFE
:10021000FFFFFFFFFFFFFFFFFFFFFFFFFFFFFFFFEE
:10100000D10020434D1600600000000000000000E9
:10101000201000600010006000540260000000001A
:10102000000000600060020000000000FFFFFFFF02
:10103000FFFFFFFFFFFFFFFFFFFFFFFFFFFFFFFFC0
:10104000FFFFFFFFFFFFFFFFFFFFFFFFFFFFFFFFB0
:10105000FFFFFFFFFFFFFFFFFFFFFFFFFFFFFFFFA0
:10106000FFFFFFFFFFFFFFFFFFFFFFFFFFFFFFFF90
:10140000814205D051F8043B40F8043B8242F9D8B0
:10141000704700BF044A05494FF0000342F8043BFF
:101420009142FBD8704700BFC03E0020E09C0020E6
:101430002DE98848BFF34F8F00BF00BF00BF00BF3A
:1014400000F0D6F9684B0822C3F8542100BF00BF52
:1014500000BF00BF00BF00BF00BF00BF00BF00BF94
:1014600000BF00BF00BF00BF00BF00BF5F4A6049B0
:101470006048FFF7C5FF604A60496148FFF7C0FF59
:10148000604CFFF7C7FF4FF470004FF0E0210023DE
:101490005D4AC1F8880D44F823200133B02BFAD1FE
:1014A0005A4B80215A4A03F8011B9342FBD14FF05B
:1014B000E0254D4E4FF08039DFF884B1DFF884A18C
:1014C0004FF0FF31C5F8084D0027C6F80491C6F863
:1014D00000B1C6F8F490C6F8F0A0D5F8243DDFF8C6
:1014E000688143F4E0234B4AC5F8243DD8F81C300A
:1014F00023F07F0343F04003C8F81C30D8F82430B1
:1015000023F07F0343F04003C8F824309166D1668E
:101510001167516700F074F93F4B4049A363404B9A
:10152000E36363236B610323AF612B613D4BC5F81C
:10153000203DD5F8FC3D43F08073C5F8FC3D3A4BA7
:101540001A6842F001021A605B680B6000F0A2FBAF
:10155000C6F804913548C6F800B1C6F8F490C6F84C
:10156000F0A000F039FDD8F86C10314B314A41F44D
:101570004051C8F86C101F60C3F80871C3F81871A7
:10158000C3F82871C3F83871936BDB0708D442F6AF
:101590001563294951651365936B43F00103936308
:1015A000244A264C936843F00113936000F0B0F98D
:1015B00000F0D4FC00F00CFD00F09AFB00F01AF9EA
:1015C0002368132BFCD900F02BFC2368B3F5967F1E
:1015D000FBD300F013F900F00FF900F005FD00F067
:1015E000F3FC30BFFDE700BF00800D4038EF010085
:1015F0001022006000000000C03E00204C1102607C
:1016000000000020003C0020515B000000E400E0EE
:10161000A0E400E000C00A40816F0000A89B002009
:10162000856F000000002020001000E00046C3236A
:101630000040084000400D400000C056AC9B002018
:101640001B1018200C0D111300C00F40054B4FF458
:101650002A01054A05485A641864054A9963954663
:10166000FFF7E6FE00C00A40FFAAAAAA0700200072
:101670000000062043690A4A03EB011010B4037A04
:10168000084C02EB0313D3E901321460C2681A60FC
:1016900003690BB142691A605DF8044B704700BFE3
:1016A000FC0D002061F801004369027E03EB021289
:1016B00092F808C08C451CD01A7AFF2A19D09142A2
:1016C00010B5044616D01A7EFF2A06D00121D3E9B0
:1016D000002312681A4201D1217610BD064B052263
:1016E000204603EB0C135B681A60FFF7C3FF2176FB
:1016F000F3E770470021EAE7FC0D002043690A4A3E
:1017000003EB011010B490F82830084C02EB0313DF
:10171000D3E901321460C26A1A60036B0BB1426BE9
:101720001A605DF8044B7047FC0D002061F8010061
:101730004369427E03EB021292F828C08C451ED00A
:1017400093F82820FF2A1AD0914210B5044617D0EA
:1017500093F83820FF2A06D00121D3E9002312682C
:101760001A4201D1617610BD064B0522204603EBDB
:101770000C135B681A60FFF7C1FF6176F3E77047EF
:101780000021EAE7FC0D0020164942698B6B23F427
:101790007C0343F4802370B58B630446124DD2E979
:1017A00000130A681A4303690A60022200211A61C1
:1017B0000E4A19619A6401225A629D624FF43035D3
:1017C000DD624FF001159E6C1E6519629D651A6100
:1017D000017EFFF74FFF617E2046BDE87040FFF7B6
:1017E0008DBF00BF00C00F40B80B05053B3728195F
:1017F000704700BF704700BF704700BF00BF704711
:1018000010B44FF0E023002110243148C3F8941D98
:10181000C3F89C4D1124C3F8A00D2E48C3F89C4D6D
:101820001224C3F8A00D2C48C3F89C4D2B4AC3F8D2
:10183000A00D2B4C42F015022A48C3F89C4DC3F86A
:10184000A00D294C2948C3F89C4DC3F8A00D284C85
:10185000C3F89C2D2748284AC3F8A04DC3F89C0D17
:10186000C3F8A02D02F5A022244C0C322448C3F862
:101870009C4DC3F8A02D234AC3F89C0D224CC3F8FD
:10188000A02D02F14062C3F89C4D2048C3F8A02D62
:101890000C32C3F89C0DC3F8A02D00BF00BF00BFE1
:1018A00000BF00BF0122C3F8942DBFF34F8FBFF3D9
:1018B0006F8FC3F8501FBFF34F8FBFF36F8FD3F8F5
:1018C000142D5DF8044B42F44032C3F8142D7047D8
:1018D0003F0000102500080709001000E09C0020D0
:1018E0001300200021000207140000202500081327
:1018F000090000101600202027000B1317000040DD
:10190000180000602F000B07190000701A000080FB
:10191000F0B5B84B1822B84E0120B84F83B0C3F8C9
:101920005C62B749C3F86072B64DC3F86462A6F54D
:101930003046B54CC3F86862C3F86C52C3F87052B5
:10194000C3F87452C3F8785248F20C75DA661A6715
:101950005A679A67DA67C3F88020C3F88420C3F80F
:101960008820C1F82C03A94AC1F83003C1F8340318
:10197000C1F83803C1F83C03C1F85003A169A44B76
:101980000A40A448A4491343A44AA361D4F884306C
:1019900043F00C03C4F884304FF0FF34036843F085
:1019A0000203036003682B404FF400551A439C4B1D
:1019B000026044608A689B4C13409B4A43F000538A
:1019C0008360C36823F07803C360036A1340234332
:1019D0000362036A1340954A2343954C4362826233
:1019E000C2620022D1F8B83023F03F0343F0010374
:1019F000C0F8B830D1F8BC308E4923F03F0343F033
:101A00000103C0F8BC3040F205630261056604675B
:101A1000C0F88030456644670224C0F8843003680B
:101A200023F0020303608161834B8449C46143F85E
:101A3000042B8B42FBD1774A136843F001031360F8
:101A4000136813F00103FBD17A48022140F2F564D8
:101A5000906140F29940D16140F26641C2F8004283
:101A600042F20144C2F810127549C2F82002C2F8CD
:101A7000301240F235417348C2F83442C2F8401285
:101A8000714CC2F8500242F201207049C2F854125F
:101A90000121C2F86042C2F864025E48C2F8A03078
:101AA000C2F8A430C2F8B0104369DA07FCD50123AC
:101AB00000244FF4803257494361C0F8A040C0F879
:101AC000A420C0F8B0304B69DB07FCD5012300240B
:101AD0004FF400304F4A4B61C1F8A040C1F8A40058
:101AE000C1F8B0305369DF07FCD501230024584802
:101AF00048495361C2F8A040C2F8A400C2F8B0300F
:101B00004B69DE07FCD5D1F8003145F60D52212096
:101B10009BB24861934265D100244FF48022012397
:101B20003C48C1F8A040C1F8A420C1F8B0304369D6
:101B3000DD07FCD501234FF400040021354A436141
:101B4000C0F8A040C0F8A410C0F8B0305369DC075A
:101B5000FCD501234FF400044FF480302D4953612C
:101B6000C2F8A040C2F8A400C2F8B0304B69D80750
:101B7000FCD501234FF400044FF40030254A4B619B
:101B8000C1F8A040C1F8A400C1F8B0305369D9072A
:101B9000FCD501234FF400042D481E495361C2F8BF
:101BA000A040C2F8A400C2F8B0304B69DA07FCD5F7
:101BB000D1F8003145F60D5221209BB24861934285
:101BC00050D008254FF4000422490020224B234A1C
:101BD000009015705A1A01232148224400F008FA97
:101BE00003B0F0BD1E4B0022C3E90022C3E902226C
:101BF00003B0F0BD00801F40F9B00100F9100100F2
:101C000000841F40F970010000C00F40FFFCFF1F5F
:101C1000000300A000402A4000802A401200FFFF7D
:101C2000FF37F7004000008000FFF07CFF000F83CB
:101C300063000200F05AF05A00422A4000432A4052
:101C40009F041830EB06180A3806180A06320126D7
:101C50000400030000000070000000709B9C002046
:101C6000BC9700204FF400044FF480220123084861
:101C7000C1F8A040C1F8A420C1F8B0304369DB0727
:101C8000FCD5012310254FF0807443619CE700BF11
:101C900000402A40F0B4154A40274FF480314FF4F9
:101CA00080564FF400554FF4404443F2420013690C
:101CB00013F0020F0ED113F4005F0FD013F4805F06
:101CC0000ED0002BF3DA13F4803F0BD15B060BD55B
:101CD000F0BC7047946151619061E8E75561E6E7B7
:101CE0005661E4E79161E2E75761E0E700800D406B
:101CF0003F4A03203F49F3EE095AD2F880304FF0B3
:101D0000000C9FED3D6A23F001039FED3C5A30B477
:101D1000C2F88030C2F89000D1F8E010384DCBB254
:101D2000384C39482B6007EE903A0B0DC1F30B216C
:101D3000F8EEE77A06EE903A07EE101A334BB8EE5B
:101D4000C77A2160F8EEE66A314937EEC66A37EEA7
:101D5000C55A76EEC76A77EEE57A26EE266AC3EDB7
:101D6000006A25EE265AD2F8803067EEA64AC0ED0A
:101D7000007AC6EE275A274885EE276AC4EEA76A7E
:101D800075EE875AFCEEE55A36EE076A15EE904A74
:101D9000BCEEC66A43EA045376EE877AC2F8803016
:101DA00016EE103AD2F89041FCEEE77A01EA0341D0
:101DB000214317EE903AC2F89011C3F30B03D2F807
:101DC00090110B431449C2F89031D2F8803043F09F
:101DD0000203C2F88030114B80F840C0C1F8403196
:101DE0004FF0E023012230BCC3F80821704700BF48
:101DF00000810D4000441F400000AA420000B44290
:101E0000249B0020209B0020289B00202C9B00204E
:101E10000000FF0F00E400E0003C0020415D0000F6
:101E2000314B40F6617210B5C3F8202140F20444F2
:101E300000F0E2F82D4A2E49D2F880302D4843F0C8
:101E40000303C2F880302C4BC1F8604102681A428B
:101E500003D1D1F8A8319A071BD0254A4FF0004191
:101E6000244B5963D2F8403143F00203C2F84031A9
:101E7000D2F840319B07FBD44FF400304FF0E02103
:101E80001C4B4FF00042C1F88C0219209A6300F0FD
:101E900097F8184A4FF08040154C002190630A20B3
:101EA000164B11604FF42072C4F8A801184600F0D8
:101EB00097F84FF4800203464FF4810040F243113B
:101EC0001860C4F858311A640D4B0E4AC4F8481112
:101ED000C3F804224FF0E0224FF400310123C2F88E
:101EE0000C11C4F8403110BD00800D4000C00F40FF
:101EF00000002E4000900D40001C1E00000000203D
:101F0000003C0020295F000008B50E4B1B6E9B07AC
:101F100000D4FBBE72B60C4B00200C4AC3F8400143
:101F200003F160430A49A3F55F2311649D46BFF3A3
:101F30004F8F4FF400130748074ADB6902609B6824
:101F4000984700BF00441F4000002E4000C00A40D8
:101F50000300200000802020000012EB104BA02086
:101F6000104AD96E41F4403110B4D96640F237645A
:101F7000D96E41F44071D96654649064936C1B0629
:101F8000FCD4094A40F23761A02351649364936CF6
:101F900013F08003FBD1054A13705DF8044B7047C2
:101FA00000C00F4000400C4000800C40999C002075
:101FB000F8B500BFF8BC08BC9E46704700000000A2
:101FC0005FF800F0D15100005FF800F0BD54000050
:101FD0005FF800F0415A00005FF800F0E14E0000A9
:101FE0005FF800F0F58D01005FF800F0A58E0100AC
:101FF0005FF800F0317000005FF800F099660000B3
:1020000005010000593D0000DD700000858D0000D5
:0820100055F0000051F300003F
:1020180080C00F40000000031900000010000000FD
:10202800E8841F4001000000FF000000FF000000DE
:102038000000000000000000180000001000000070
:10204800E4841F4001000000FF000000FF000000C2
:1020580000000000000000001F00000029450000EB
:1020680070C00F40000C00001100000011000000BB
:10207800E0841F40020000002C0000001200000055
:10208800E0841F4001000000100000001100000063
:10209800DC841F40020000002D0000001200000038
:1020A800DC841F40010000001E0000001D450000E8
:1020B80070C00F40C00000001200000013000000B4
:1020C800D0841F4001000000FF000000FF00000056
:1020D80000000000000000001300000013000000D2
:1020E800CC841F4001000000FF000000FF0000003A
:1020F80000000000000000001C0000001145000066
:10210800160355005300420020005300650072007A
:10211800690061006C000000180354006500650048
:102128006E00730079006400750069006E006F002E
:102138000403090409026200030100C032080B000D
:102148000202020100090400000102020100052444
:1021580000100105240101010424020605240600DB
:10216800010705820310001009040100020A00009B
:10217800000705030240000007058402400000092B
:1021880004020002FF6AFF00070581024000010700
:10219800050102400001000009026200030100C0BD
:1021A80032080B00020202010009040000010202C9
:1021B8000100052400100105240101010424020680
:1021C8000524060001070582031000050904010023
:1021D800020A000000070503020002000705840246
:1021E8000002000904020002FF6AC7000705810215
:1021F8000002010705010200020100000A060002B0
:08220800EF020140010000009B
:1022100000000000000000000000000000000000BE
:1022200000000000000000000000000000000000AE
:10223000F8B54FF084439D695A6915400DD0254F7C
:1022400001269D6195FAA5F4B4FA84F457F8243078
:1022500006FA04F49847A543F4D11F4B9D695A69C7
:1022600015400DD01D4F01269D6195FAA5F4B4FAD5
:1022700084F457F8243006FA04F49847A543F4D1BF
:10228000174B9D695A6915400DD0164F01269D6167
:1022900095FAA5F4B4FA84F457F8243006FA04F455
:1022A0009847A543F4D1104B9D695A6915400DD04C
:1022B0000E4F01269D6195FAA5F4B4FA84F457F8FF
:1022C000243006FA04F49847A543F4D1BFF34F8FA6
:1022D000F8BD00BFB4330020004000423434002079
:1022E00000800042B434002000C000423435002099
:1022F0000548064B1B1AD90F01EBA301491002D068
:10230000034B03B118477047C03E0020C03E002079
:102310000000000008B5054B1BB105490548AFF3A7
:102320000080BDE80840FFF7E3BF00BF00000000E9
:10233000949A002000600260704700BF0C2100F5F5
:10234000BC7004F03FBA00BF00B597B0142200F58E
:10235000BC700DA904F09CFB9DED131A9DED142A91
:102360009DED120AB7EEC11AB7EEC22AB7EEC00A47
:1023700017B05DF804FB00BF10B596B00446082204
:1023800000F5BC700DA904F083FB94ED520A9DED9D
:10239000131A9DED142ADDED127A20EE011A20EEBB
:1023A000022A20EE270AB7EEC11AB7EEC22AB7EE0C
:1023B000C00A16B010BD00BF08B50D2005F0B8F872
:1023C00001460D20B1FA81F1490905F087F8024A6A
:1023D000024B12681A6008BDAC9B0020B49A002022
:1023E00010B504460021007B05F056FB207A002141
:1023F000BDE8104005F050BB38B50D46044600213D
:10240000007A05F049FB207B85EAE571A1EBE571D7
:10241000BDE8384005F040BB38B50D460446002104
:10242000007B05F039FB207A85EAE571A1EBE571C7
:10243000BDE8384005F030BB224BD3F8D820D2E9B4
:102440000010D3680968006810B41842946801EA63
:1024500004012ED0137C03F00303D9B943F0080321
:102460009908013B11740D2B0BD8DFE803F00D0721
:102470001C070A160D0D160A071C070D5369013BB0
:1024800053615DF8044B704753695DF8044B0133A9
:102490005361704743F00403E0E753695DF8044B70
:1024A000023B5361704753695DF8044B023353613B
:1024B0007047137C03F003030029D1D043F00403D9
:1024C000CEE700BFB08F0020224BD3F8B820D2E96E
:1024D0000010D3680968006810B41842946801EAD3
:1024E00004012ED0137C03F00303D9B943F0080391
:1024F0009908013B11740D2B0BD8DFE803F00D0791
:102500001C070A160D0D160A071C070D5369013B1F
:1025100053615DF8044B704753695DF8044B013318
:102520005361704743F00403E0E753695DF8044BDF
:10253000023B5361704753695DF8044B02335361AA
:102540007047137C03F003030029D1D043F0040348
:10255000CEE700BFB08F0020224BD3F8BC20D2E9D9
:102560000010D3680968006810B41842946801EA42
:1025700004012ED0137C03F00303D9B943F0080300
:102580009908013B11740D2B0BD8DFE803F00D0700
:102590001C070A160D0D160A071C070D5369013B8F
:1025A00053615DF8044B704753695DF8044B013388
:1025B0005361704743F00403E0E753695DF8044B4F
:1025C000023B5361704753695DF8044B023353611A
:1025D0007047137C03F003030029D1D043F00403B8
:1025E000CEE700BFB08F0020224BD3F8C020D2E945
:1025F0000010D3680968006810B41842946801EAB2
:1026000004012ED0137C03F00303D9B943F008036F
:102610009908013B11740D2B0BD8DFE803F00D076F
:102620001C070A160D0D160A071C070D5369013BFE
:1026300053615DF8044B704753695DF8044B0133F7
:102640005361704743F00403E0E753695DF8044BBE
:10265000023B5361704753695DF8044B0233536189
:102660007047137C03F003030029D1D043F0040327
:10267000CEE700BFB08F0020224BD3F8C420D2E9B0
:102680000010D3680968006810B41842946801EA21
:1026900004012ED0137C03F00303D9B943F00803DF
:1026A0009908013B11740D2B0BD8DFE803F00D07DF
:1026B0001C070A160D0D160A071C070D5369013B6E
:1026C00053615DF8044B704753695DF8044B013367
:1026D0005361704743F00403E0E753695DF8044B2E
:1026E000023B5361704753695DF8044B02335361F9
:1026F0007047137C03F003030029D1D043F0040397
:10270000CEE700BFB08F0020224BD3F8C820D2E91B
:102710000010D3680968006810B41842946801EA90
:1027200004012ED0137C03F00303D9B943F008034E
:102730009908013B11740D2B0BD8DFE803F00D074E
:102740001C070A160D0D160A071C070D5369013BDD
:1027500053615DF8044B704753695DF8044B0133D6
:102760005361704743F00403E0E753695DF8044B9D
:10277000023B5361704753695DF8044B0233536168
:102780007047137C03F003030029D1D043F0040306
:10279000CEE700BFB08F0020224BD3F8CC20D2E987
:1027A0000010D3680968006810B41842946801EA00
:1027B00004012ED0137C03F00303D9B943F00803BE
:1027C0009908013B11740D2B0BD8DFE803F00D07BE
:1027D0001C070A160D0D160A071C070D5369013B4D
:1027E00053615DF8044B704753695DF8044B013346
:1027F0005361704743F00403E0E753695DF8044B0D
:10280000023B5361704753695DF8044B02335361D7
:102810007047137C03F003030029D1D043F0040375
:10282000CEE700BFB08F0020224BD3F8D020D2E9F2
:102830000010D3680968006810B41842946801EA6F
:1028400004012ED0137C03F00303D9B943F008032D
:102850009908013B11740D2B0BD8DFE803F00D072D
:102860001C070A160D0D160A071C070D5369013BBC
:1028700053615DF8044B704753695DF8044B0133B5
:102880005361704743F00403E0E753695DF8044B7C
:10289000023B5361704753695DF8044B0233536147
:1028A0007047137C03F003030029D1D043F00403E5
:1028B000CEE700BFB08F0020224BD3F8D420D2E95E
:1028C0000010D3680968006810B41842946801EADF
:1028D00004012ED0137C03F00303D9B943F008039D
:1028E0009908013B11740D2B0BD8DFE803F00D079D
:1028F0001C070A160D0D160A071C070D5369013B2C
:1029000053615DF8044B704753695DF8044B013324
:102910005361704743F00403E0E753695DF8044BEB
:10292000023B5361704753695DF8044B02335361B6
:102930007047137C03F003030029D1D043F0040354
:10294000CEE700BFB08F0020214B9A6FD2E9001074
:10295000D3680968006810B41842946801EA040159
:102960002ED0137C03F00303D9B943F00803990870
:10297000013B11740D2B0BD8DFE803F00D071C078A
:102980000A160D0D160A071C070D5369013B53610A
:102990005DF8044B704753695DF8044B0133536194
:1029A000704743F00403E0E753695DF8044B023BD2
:1029B0005361704753695DF8044B023353617047AC
:1029C000137C03F003030029D1D043F00403CEE7C6
:1029D000B08F0020214BDA6FD2E90010D36809686C
:1029E000006810B41842946801EA04012ED0137CE8
:1029F00003F00303D9B943F008039908013B1174AC
:102A00000D2B0BD8DFE803F00D071C070A160D0D80
:102A1000160A071C070D5369013B53615DF8044B0F
:102A2000704753695DF8044B01335361704743F0BD
:102A30000403E0E753695DF8044B023B53617047C0
:102A400053695DF8044B023353617047137C03F004
:102A500003030029D1D043F00403CEE7B08F002058
:102A6000224BD3F88020D2E90010D36809680068AF
:102A700010B41842946801EA04012ED0137C03F0CC
:102A80000303D9B943F008039908013B11740D2BD6
:102A90000BD8DFE803F00D071C070A160D0D160A08
:102AA000071C070D5369013B53615DF8044B7047E8
:102AB00053695DF8044B01335361704743F00403DD
:102AC000E0E753695DF8044B023B5361704753697B
:102AD0005DF8044B023353617047137C03F003032A
:102AE0000029D1D043F00403CEE700BFB08F00200F
:102AF000224BD3F88420D2E90010D368096800681B
:102B000010B41842946801EA04012ED0137C03F03B
:102B10000303D9B943F008039908013B11740D2B45
:102B20000BD8DFE803F00D071C070A160D0D160A77
:102B3000071C070D5369013B53615DF8044B704757
:102B400053695DF8044B01335361704743F004034C
:102B5000E0E753695DF8044B023B536170475369EA
:102B60005DF8044B023353617047137C03F0030399
:102B70000029D1D043F00403CEE700BFB08F00207E
:102B8000224BD3F88820D2E90010D3680968006886
:102B900010B41842946801EA04012ED0137C03F0AB
:102BA0000303D9B943F008039908013B11740D2BB5
:102BB0000BD8DFE803F00D071C070A160D0D160AE7
:102BC000071C070D5369013B53615DF8044B7047C7
:102BD00053695DF8044B01335361704743F00403BC
:102BE000E0E753695DF8044B023B5361704753695A
:102BF0005DF8044B023353617047137C03F0030309
:102C00000029D1D043F00403CEE700BFB08F0020ED
:102C1000224BD3F88C20D2E90010D36809680068F1
:102C200010B41842946801EA04012ED0137C03F01A
:102C30000303D9B943F008039908013B11740D2B24
:102C40000BD8DFE803F00D071C070A160D0D160A56
:102C5000071C070D5369013B53615DF8044B704736
:102C600053695DF8044B01335361704743F004032B
:102C7000E0E753695DF8044B023B536170475369C9
:102C80005DF8044B023353617047137C03F0030378
:102C90000029D1D043F00403CEE700BFB08F00205D
:102CA000224BD3F89020D2E90010D368096800685D
:102CB00010B41842946801EA04012ED0137C03F08A
:102CC0000303D9B943F008039908013B11740D2B94
:102CD0000BD8DFE803F00D071C070A160D0D160AC6
:102CE000071C070D5369013B53615DF8044B7047A6
:102CF00053695DF8044B01335361704743F004039B
:102D0000E0E753695DF8044B023B53617047536938
:102D10005DF8044B023353617047137C03F00303E7
:102D20000029D1D043F00403CEE700BFB08F0020CC
:102D3000224BD3F89420D2E90010D36809680068C8
:102D400010B41842946801EA04012ED0137C03F0F9
:102D50000303D9B943F008039908013B11740D2B03
:102D60000BD8DFE803F00D071C070A160D0D160A35
:102D7000071C070D5369013B53615DF8044B704715
:102D800053695DF8044B01335361704743F004030A
:102D9000E0E753695DF8044B023B536170475369A8
:102DA0005DF8044B023353617047137C03F0030357
:102DB0000029D1D043F00403CEE700BFB08F00203C
:102DC000224BD3F89820D2E90010D3680968006834
:102DD00010B41842946801EA04012ED0137C03F069
:102DE0000303D9B943F008039908013B11740D2B73
:102DF0000BD8DFE803F00D071C070A160D0D160AA5
:102E0000071C070D5369013B53615DF8044B704784
:102E100053695DF8044B01335361704743F0040379
:102E2000E0E753695DF8044B023B53617047536917
:102E30005DF8044B023353617047137C03F00303C6
:102E40000029D1D043F00403CEE700BFB08F0020AB
:102E5000224BD3F89C20D2E90010D368096800689F
:102E600010B41842946801EA04012ED0137C03F0D8
:102E70000303D9B943F008039908013B11740D2BE2
:102E80000BD8DFE803F00D071C070A160D0D160A14
:102E9000071C070D5369013B53615DF8044B7047F4
:102EA00053695DF8044B01335361704743F00403E9
:102EB000E0E753695DF8044B023B53617047536987
:102EC0005DF8044B023353617047137C03F0030336
:102ED0000029D1D043F00403CEE700BFB08F00201B
:102EE000224BD3F8A020D2E90010D368096800680B
:102EF00010B41842946801EA04012ED0137C03F048
:102F00000303D9B943F008039908013B11740D2B51
:102F10000BD8DFE803F00D071C070A160D0D160A83
:102F2000071C070D5369013B53615DF8044B704763
:102F300053695DF8044B01335361704743F0040358
:102F4000E0E753695DF8044B023B536170475369F6
:102F50005DF8044B023353617047137C03F00303A5
:102F60000029D1D043F00403CEE700BFB08F00208A
:102F7000224BD3F8A420D2E90010D3680968006876
:102F800010B41842946801EA04012ED0137C03F0B7
:102F90000303D9B943F008039908013B11740D2BC1
:102FA0000BD8DFE803F00D071C070A160D0D160AF3
:102FB000071C070D5369013B53615DF8044B7047D3
:102FC00053695DF8044B01335361704743F00403C8
:102FD000E0E753695DF8044B023B53617047536966
:102FE0005DF8044B023353617047137C03F0030315
:102FF0000029D1D043F00403CEE700BFB08F0020FA
:10300000224BD3F8A820D2E90010D36809680068E1
:1030100010B41842946801EA04012ED0137C03F026
:103020000303D9B943F008039908013B11740D2B30
:103030000BD8DFE803F00D071C070A160D0D160A62
:10304000071C070D5369013B53615DF8044B704742
:1030500053695DF8044B01335361704743F0040337
:10306000E0E753695DF8044B023B536170475369D5
:103070005DF8044B023353617047137C03F0030384
:103080000029D1D043F00403CEE700BFB08F002069
:10309000224BD3F8AC20D2E90010D368096800684D
:1030A00010B41842946801EA04012ED0137C03F096
:1030B0000303D9B943F008039908013B11740D2BA0
:1030C0000BD8DFE803F00D071C070A160D0D160AD2
:1030D000071C070D5369013B53615DF8044B7047B2
:1030E00053695DF8044B01335361704743F00403A7
:1030F000E0E753695DF8044B023B53617047536945
:103100005DF8044B023353617047137C03F00303F3
:103110000029D1D043F00403CEE700BFB08F0020D8
:10312000224BD3F8B020D2E90010D36809680068B8
:1031300010B41842946801EA04012ED0137C03F005
:103140000303D9B943F008039908013B11740D2B0F
:103150000BD8DFE803F00D071C070A160D0D160A41
:10316000071C070D5369013B53615DF8044B704721
:1031700053695DF8044B01335361704743F0040316
:10318000E0E753695DF8044B023B536170475369B4
:103190005DF8044B023353617047137C03F0030363
:1031A0000029D1D043F00403CEE700BFB08F002048
:1031B000224BD3F8B420D2E90010D3680968006824
:1031C00010B41842946801EA04012ED0137C03F075
:1031D0000303D9B943F008039908013B11740D2B7F
:1031E0000BD8DFE803F00D071C070A160D0D160AB1
:1031F000071C070D5369013B53615DF8044B704791
:1032000053695DF8044B01335361704743F0040385
:10321000E0E753695DF8044B023B53617047536923
:103220005DF8044B023353617047137C03F00303D2
:103230000029D1D043F00403CEE700BFB08F0020B7
:10324000214B9A6BD2E90010D3680968006810B46A
:103250001842946801EA04012ED0137C03F00303A2
:10326000D9B943F008039908013B11740D2B0BD811
:10327000DFE803F00D071C070A160D0D160A071CE0
:10328000070D5369013B53615DF8044B7047536967
:103290005DF8044B01335361704743F00403E0E7EA
:1032A00053695DF8044B023B5361704753695DF805
:1032B000044B023353617047137C03F0030300296E
:1032C000D1D043F00403CEE7B08F0020214BDA6B5E
:1032D000D2E90010D3680968006810B418429468F5
:1032E00001EA04012ED0137C03F00303D9B943F0A3
:1032F00008039908013B11740D2B0BD8DFE803F08C
:103300000D071C070A160D0D160A071C070D536939
:10331000013B53615DF8044B704753695DF8044B02
:1033200001335361704743F00403E0E753695DF8EC
:10333000044B023B5361704753695DF8044B023301
:1033400053617047137C03F003030029D1D043F08D
:103350000403CEE7B08F0020214B1A6CD2E9001095
:10336000D3680968006810B41842946801EA04013F
:103370002ED0137C03F00303D9B943F00803990856
:10338000013B11740D2B0BD8DFE803F00D071C0770
:103390000A160D0D160A071C070D5369013B5361F0
:1033A0005DF8044B704753695DF8044B013353617A
:1033B000704743F00403E0E753695DF8044B023BB8
:1033C0005361704753695DF8044B02335361704792
:1033D000137C03F003030029D1D043F00403CEE7AC
:1033E000B08F0020214B5A6CD2E90010D3680968D5
:1033F000006810B41842946801EA04012ED0137CCE
:1034000003F00303D9B943F008039908013B117491
:103410000D2B0BD8DFE803F00D071C070A160D0D66
:10342000160A071C070D5369013B53615DF8044BF5
:10343000704753695DF8044B01335361704743F0A3
:103440000403E0E753695DF8044B023B53617047A6
:1034500053695DF8044B023353617047137C03F0EA
:1034600003030029D1D043F00403CEE7B08F00203E
:10347000214B9A6CD2E90010D3680968006810B437
:103480001842946801EA04012ED0137C03F0030370
:10349000D9B943F008039908013B11740D2B0BD8DF
:1034A000DFE803F00D071C070A160D0D160A071CAE
:1034B000070D5369013B53615DF8044B7047536935
:1034C0005DF8044B01335361704743F00403E0E7B8
:1034D00053695DF8044B023B5361704753695DF8D3
:1034E000044B023353617047137C03F0030300293C
:1034F000D1D043F00403CEE7B08F0020214BDA6C2B
:10350000D2E90010D3680968006810B418429468C2
:1035100001EA04012ED0137C03F00303D9B943F070
:1035200008039908013B11740D2B0BD8DFE803F059
:103530000D071C070A160D0D160A071C070D536907
:10354000013B53615DF8044B704753695DF8044BD0
:1035500001335361704743F00403E0E753695DF8BA
:10356000044B023B5361704753695DF8044B0233CF
:1035700053617047137C03F003030029D1D043F05B
:103580000403CEE7B08F0020214B1A6DD2E9001062
:10359000D3680968006810B41842946801EA04010D
:1035A0002ED0137C03F00303D9B943F00803990824
:1035B000013B11740D2B0BD8DFE803F00D071C073E
:1035C0000A160D0D160A071C070D5369013B5361BE
:1035D0005DF8044B704753695DF8044B0133536148
:1035E000704743F00403E0E753695DF8044B023B86
:1035F0005361704753695DF8044B02335361704760
:10360000137C03F003030029D1D043F00403CEE779
:10361000B08F0020214B5A6DD2E90010D3680968A1
:10362000006810B41842946801EA04012ED0137C9B
:1036300003F00303D9B943F008039908013B11745F
:103640000D2B0BD8DFE803F00D071C070A160D0D34
:10365000160A071C070D5369013B53615DF8044BC3
:10366000704753695DF8044B01335361704743F071
:103670000403E0E753695DF8044B023B5361704774
:1036800053695DF8044B023353617047137C03F0B8
:1036900003030029D1D043F00403CEE7B08F00200C
:1036A000214B9A6DD2E90010D3680968006810B404
:1036B0001842946801EA04012ED0137C03F003033E
:1036C000D9B943F008039908013B11740D2B0BD8AD
:1036D000DFE803F00D071C070A160D0D160A071C7C
:1036E000070D5369013B53615DF8044B7047536903
:1036F0005DF8044B01335361704743F00403E0E786
:1037000053695DF8044B023B5361704753695DF8A0
:10371000044B023353617047137C03F00303002909
:10372000D1D043F00403CEE7B08F0020214BDA6DF7
:10373000D2E90010D3680968006810B41842946890
:1037400001EA04012ED0137C03F00303D9B943F03E
:1037500008039908013B11740D2B0BD8DFE803F027
:103760000D071C070A160D0D160A071C070D5369D5
:10377000013B53615DF8044B704753695DF8044B9E
:1037800001335361704743F00403E0E753695DF888
:10379000044B023B5361704753695DF8044B02339D
:1037A00053617047137C03F003030029D1D043F029
:1037B0000403CEE7B08F0020214B1A6ED2E900102F
:1037C000D3680968006810B41842946801EA0401DB
:1037D0002ED0137C03F00303D9B943F008039908F2
:1037E000013B11740D2B0BD8DFE803F00D071C070C
:1037F0000A160D0D160A071C070D5369013B53618C
:103800005DF8044B704753695DF8044B0133536115
:10381000704743F00403E0E753695DF8044B023B53
:103820005361704753695DF8044B0233536170472D
:10383000137C03F003030029D1D043F00403CEE747
:10384000B08F0020214B5A6ED2E90010D36809686E
:10385000006810B41842946801EA04012ED0137C69
:1038600003F00303D9B943F008039908013B11742D
:103870000D2B0BD8DFE803F00D071C070A160D0D02
:10388000160A071C070D5369013B53615DF8044B91
:10389000704753695DF8044B01335361704743F03F
:1038A0000403E0E753695DF8044B023B5361704742
:1038B00053695DF8044B023353617047137C03F086
:1038C00003030029D1D043F00403CEE7B08F0020DA
:1038D000214B9A6ED2E90010D3680968006810B4D1
:1038E0001842946801EA04012ED0137C03F003030C
:1038F000D9B943F008039908013B11740D2B0BD87B
:10390000DFE803F00D071C070A160D0D160A071C49
:10391000070D5369013B53615DF8044B70475369D0
:103920005DF8044B01335361704743F00403E0E753
:1039300053695DF8044B023B5361704753695DF86E
:10394000044B023353617047137C03F003030029D7
:10395000D1D043F00403CEE7B08F0020214BDA6EC4
:10396000D2E90010D3680968006810B4184294685E
:1039700001EA04012ED0137C03F00303D9B943F00C
:1039800008039908013B11740D2B0BD8DFE803F0F5
:103990000D071C070A160D0D160A071C070D5369A3
:1039A000013B53615DF8044B704753695DF8044B6C
:1039B00001335361704743F00403E0E753695DF856
:1039C000044B023B5361704753695DF8044B02336B
:1039D00053617047137C03F003030029D1D043F0F7
:1039E0000403CEE7B08F0020214B1A6FD2E90010FC
:1039F000D3680968006810B41842946801EA0401A9
:103A00002ED0137C03F00303D9B943F008039908BF
:103A1000013B11740D2B0BD8DFE803F00D071C07D9
:103A20000A160D0D160A071C070D5369013B536159
:103A30005DF8044B704753695DF8044B01335361E3
:103A4000704743F00403E0E753695DF8044B023B21
:103A50005361704753695DF8044B023353617047FB
:103A6000137C03F003030029D1D043F00403CEE715
:103A7000B08F0020214B5A6FD2E90010D36809683B
:103A8000006810B41842946801EA04012ED0137C37
:103A900003F00303D9B943F008039908013B1174FB
:103AA0000D2B0BD8DFE803F00D071C070A160D0DD0
:103AB000160A071C070D5369013B53615DF8044B5F
:103AC000704753695DF8044B01335361704743F00D
:103AD0000403E0E753695DF8044B023B5361704710
:103AE00053695DF8044B023353617047137C03F054
:103AF00003030029D1D043F00403CEE7B08F0020A8
:103B0000214B9A69D2E90010D3680968006810B4A3
:103B10001842946801EA04012ED0137C03F00303D9
:103B2000D9B943F008039908013B11740D2B0BD848
:103B3000DFE803F00D071C070A160D0D160A071C17
:103B4000070D5369013B53615DF8044B704753699E
:103B50005DF8044B01335361704743F00403E0E721
:103B600053695DF8044B023B5361704753695DF83C
:103B7000044B023353617047137C03F003030029A5
:103B8000D1D043F00403CEE7B08F0020214BDA6997
:103B9000D2E90010D3680968006810B4184294682C
:103BA00001EA04012ED0137C03F00303D9B943F0DA
:103BB00008039908013B11740D2B0BD8DFE803F0C3
:103BC0000D071C070A160D0D160A071C070D536971
:103BD000013B53615DF8044B704753695DF8044B3A
:103BE00001335361704743F00403E0E753695DF824
:103BF000044B023B5361704753695DF8044B023339
:103C000053617047137C03F003030029D1D043F0C4
:103C10000403CEE7B08F0020214B1A6AD2E90010CE
:103C2000D3680968006810B41842946801EA040176
:103C30002ED0137C03F00303D9B943F0080399088D
:103C4000013B11740D2B0BD8DFE803F00D071C07A7
:103C50000A160D0D160A071C070D5369013B536127
:103C60005DF8044B704753695DF8044B01335361B1
:103C7000704743F00403E0E753695DF8044B023BEF
:103C80005361704753695DF8044B023353617047C9
:103C9000137C03F003030029D1D043F00403CEE7E3
:103CA000B08F0020214B5A6AD2E90010D36809680E
:103CB000006810B41842946801EA04012ED0137C05
:103CC00003F00303D9B943F008039908013B1174C9
:103CD0000D2B0BD8DFE803F00D071C070A160D0D9E
:103CE000160A071C070D5369013B53615DF8044B2D
:103CF000704753695DF8044B01335361704743F0DB
:103D00000403E0E753695DF8044B023B53617047DD
:103D100053695DF8044B023353617047137C03F021
:103D200003030029D1D043F00403CEE7B08F002075
:103D3000214B9A6AD2E90010D3680968006810B470
:103D40001842946801EA04012ED0137C03F00303A7
:103D5000D9B943F008039908013B11740D2B0BD816
:103D6000DFE803F00D071C070A160D0D160A071CE5
:103D7000070D5369013B53615DF8044B704753696C
:103D80005DF8044B01335361704743F00403E0E7EF
:103D900053695DF8044B023B5361704753695DF80A
:103DA000044B023353617047137C03F00303002973
:103DB000D1D043F00403CEE7B08F0020214BDA6A64
:103DC000D2E90010D3680968006810B418429468FA
:103DD00001EA04012ED0137C03F00303D9B943F0A8
:103DE00008039908013B11740D2B0BD8DFE803F091
:103DF0000D071C070A160D0D160A071C070D53693F
:103E0000013B53615DF8044B704753695DF8044B07
:103E100001335361704743F00403E0E753695DF8F1
:103E2000044B023B5361704753695DF8044B023306
:103E300053617047137C03F003030029D1D043F092
:103E40000403CEE7B08F0020214B1A6BD2E900109B
:103E5000D3680968006810B41842946801EA040144
:103E60002ED0137C03F00303D9B943F0080399085B
:103E7000013B11740D2B0BD8DFE803F00D071C0775
:103E80000A160D0D160A071C070D5369013B5361F5
:103E90005DF8044B704753695DF8044B013353617F
:103EA000704743F00403E0E753695DF8044B023BBD
:103EB0005361704753695DF8044B02335361704797
:103EC000137C03F003030029D1D043F00403CEE7B1
:103ED000B08F0020214B5A6BD2E90010D3680968DB
:103EE000006810B41842946801EA04012ED0137CD3
:103EF00003F00303D9B943F008039908013B117497
:103F00000D2B0BD8DFE803F00D071C070A160D0D6B
:103F1000160A071C070D5369013B53615DF8044BFA
:103F2000704753695DF8044B01335361704743F0A8
:103F30000403E0E753695DF8044B023B53617047AB
:103F400053695DF8044B023353617047137C03F0EF
:103F500003030029D1D043F00403CEE7B08F002043
:103F6000214B9A68D2E90010D3680968006810B440
:103F70001842946801EA04012ED0137C03F0030375
:103F8000D9B943F008039908013B11740D2B0BD8E4
:103F9000DFE803F00D071C070A160D0D160A071CB3
:103FA000070D5369013B53615DF8044B704753693A
:103FB0005DF8044B01335361704743F00403E0E7BD
:103FC00053695DF8044B023B5361704753695DF8D8
:103FD000044B023353617047137C03F00303002941
:103FE000D1D043F00403CEE7B08F0020214BDA6834
:103FF000D2E90010D3680968006810B418429468C8
:1040000001EA04012ED0137C03F00303D9B943F075
:1040100008039908013B11740D2B0BD8DFE803F05E
:104020000D071C070A160D0D160A071C070D53690C
:10403000013B53615DF8044B704753695DF8044BD5
:1040400001335361704743F00403E0E753695DF8BF
:10405000044B023B5361704753695DF8044B0233D4
:1040600053617047137C03F003030029D1D043F060
:104070000403CEE7B08F0020214B1A69D2E900106B
:10408000D3680968006810B41842946801EA040112
:104090002ED0137C03F00303D9B943F00803990829
:1040A000013B11740D2B0BD8DFE803F00D071C0743
:1040B0000A160D0D160A071C070D5369013B5361C3
:1040C0005DF8044B704753695DF8044B013353614D
:1040D000704743F00403E0E753695DF8044B023B8B
:1040E0005361704753695DF8044B02335361704765
:1040F000137C03F003030029D1D043F00403CEE77F
:10410000B08F0020214B5A69D2E90010D3680968AA
:10411000006810B41842946801EA04012ED0137CA0
:1041200003F00303D9B943F008039908013B117464
:104130000D2B0BD8DFE803F00D071C070A160D0D39
:10414000160A071C070D5369013B53615DF8044BC8
:10415000704753695DF8044B01335361704743F076
:104160000403E0E753695DF8044B023B5361704779
:1041700053695DF8044B023353617047137C03F0BD
:1041800003030029D1D043F00403CEE7B08F002011
:10419000214B1A68D2E90010D3680968006810B48E
:1041A0001842946801EA04012ED0137C03F0030343
:1041B000D9B943F008039908013B11740D2B0BD8B2
:1041C000DFE803F00D071C070A160D0D160A071C81
:1041D000070D5369013B53615DF8044B7047536908
:1041E0005DF8044B01335361704743F00403E0E78B
:1041F00053695DF8044B023B5361704753695DF8A6
:10420000044B023353617047137C03F0030300290E
:10421000D1D043F00403CEE7B08F0020214B5A6881
:10422000D2E90010D3680968006810B41842946895
:1042300001EA04012ED0137C03F00303D9B943F043
:1042400008039908013B11740D2B0BD8DFE803F02C
:104250000D071C070A160D0D160A071C070D5369DA
:10426000013B53615DF8044B704753695DF8044BA3
:1042700001335361704743F00403E0E753695DF88D
:10428000044B023B5361704753695DF8044B0233A2
:1042900053617047137C03F003030029D1D043F02E
:1042A0000403CEE7B08F002038B52DED028B069BBE
:1042B00004460271B0EE408A8360D8B2144A0D46BB
:1042C000079B01212260E36003F044F90121207B78
:1042D00003F040F9B5EEC08AF1EE10FA09DDB0EE58
:1042E000480A207A03F03EFCB0EE480A207B03F037
:1042F00039FC284603F026FD0021207A03F0CCFB90
:10430000207B002103F0C8FB2046BDEC028B38BDAA
:10431000380800200B4610B5362800F29782DFE8F7
:1043200010F08C0282027902700267025E0255026E
:104330004C0243023A02310228021F02BF01B601B9
:10434000AD01A4019B0192018901800177016E01F9
:1043500065015C0153014A01410138012F01260129
:104360001D0113010901FF00F500EB00E100D7007A
:10437000CD00C300B900AF00A5009B0091008700ED
:104380007D00730069005F0055004B00410037005D
:10439000C84C0422C8493620C4F8D83003F014F9B8
:1043A000012010BDC34C0422C4493520C4F8D430C8
:1043B00003F00AF9012010BDBE4C0422C04934208C
:1043C000C4F8D03003F000F9012010BDB94C04222C
:1043D000BC493320C4F8CC3003F0F6F8012010BDFE
:1043E000B44C0422B8493220C4F8C83003F0ECF8C9
:1043F000012010BDAF4C0422B4493120C4F8C430B0
:1044000003F0E2F8012010BDAA4C0422B04930208C
:10441000C4F8C03003F0D8F8012010BDA54C042228
:10442000AC492F20C4F8BC3003F0CEF8012010BDF9
:10443000A04C0422A8492E20C4F8B83003F0C4F8D8
:10444000012010BD9B4C0422A4492D20C4F8B43097
:1044500003F0BAF8012010BD964C0422A0492C208C
:10446000C4F8B03003F0B0F8012010BD914C042224
:104470009C492B20C4F8AC3003F0A6F8012010BDF5
:104480008C4C042298492A20C4F8A83003F09CF8E8
:10449000012010BD874C042294492920C4F8A4307F
:1044A00003F092F8012010BD824C0422904928208C
:1044B000C4F8A03003F088F8012010BD7D4C042220
:1044C0008C492720C4F89C3003F07EF8012010BDF1
:1044D000784C042288492620C4F8983003F074F8F8
:1044E000012010BD734C042284492520C4F8943067
:1044F00003F06AF8012010BD6E4C0422804924208C
:10450000C4F8903003F060F8012010BD694C04221B
:104510007C492320C4F88C3003F056F8012010BDEC
:10452000644C042278492220C4F8883003F04CF807
:10453000012010BD5F4C042274492120C4F884304E
:1045400003F042F8012010BD5A4C0422704920208B
:10455000C4F8803003F038F8012010BD554C042217
:104560006C491F20E36703F02FF8012010BD514C68
:10457000042269491E20A36703F026F8012010BD1C
:104580004C4C042265491D20636703F01DF801208F
:1045900010BD484C042262491C20236703F014F824
:1045A000012010BD434C04225E491B20E36603F04A
:1045B0000BF8012010BD3F4C04225B491A20A36672
:1045C00003F002F8012010BD3A4C0422574919208B
:1045D000636602F0F9FF012010BD364C04225449F5
:1045E0001820236602F0F0FF012010BD314C042298
:1045F00050491720E36502F0E7FF012010BD2D4C64
:1046000004224D491620A36502F0DEFF012010BDF3
:10461000284C042249491520636502F0D5FF01208A
:1046200010BD244C042246491420236502F0CCFF1F
:10463000012010BD1F4C042242491320E36402F004
:10464000C3FF012010BD1B4C04223F491220A3646C
:1046500002F0BAFF012010BD164C04223B49112084
:10466000636402F0B1FF012010BD124C04223849EE
:104670001020236402F0A8FF012010BD0D4C04227D
:1046800034490F20E36302F09FFF012010BD094C65
:10469000042231490E20A36302F096FF012010BDD1
:1046A000044C04222D490D20636302F08DFF01208C
:1046B00010BD00BFB08F002029020000A906000035
:1046C0001906000089050000F904000069040000D3
:1046D000D903000049030000B9020000A10F000047
:1046E000110F0000810E0000F10D0000610D0000AF
:1046F000D10C0000410C0000B10B0000210B0000A8
:10470000910A0000010A000071090000E1080000A0
:1047100051080000C50700003907000065180000B7
:10472000D91700004D170000C11600003516000013
:10473000A91500001D1500009114000005140000CB
:1047400079130000ED12000061120000D511000085
:1047500049110000BD10000031100000C51C000010
:104760003B4C04223B490C20236302F02DFF012027
:1047700010BD374C042238490B20E36202F024FFBD
:10478000012010BD324C042234490A20A36202F0F9
:104790001BFF012010BD2E4C042231490920636209
:1047A00002F012FF012010BD294C04222D490820DF
:1047B000236202F009FF012010BD254C04222A4982
:1047C0000720E36102F000FF012010BD204C04220D
:1047D00026490620A36102F0F7FE012010BD1C4C03
:1047E000042223490520636102F0EEFE012010BD82
:1047F0000422174C1F491046236102F0E5FE0120F8
:1048000010BD134C04221C490320E36002F0DCFEBF
:10481000012010BD0E4C042218490220A36002F0B2
:10482000D3FE012010BD0446094804221449436008
:10483000012002F0C9FE204610BD054C042211499A
:104840000020236002F0C0FE012010BD002010BD3A
:10485000B08F0020391C0000AD1B0000211B0000A0
:10486000951A0000091A00007D190000F1180000D7
:10487000F51E0000691E0000DD1D0000511D000036
:104880000D200000811F00002DE9F04182B0044698
:104890000F4616469DF820C01D46BCF1000F01D002
:1048A00017460E460221384602F054FE02213046D9
:1048B00002F050FE25493B012548DFF89CC051F825
:1048C000038001EB07132560D3F80CE001EB06131E
:1048D000C4F80C80C4F814E0DA683301C958002326
:1048E000A26123621B4B45681B682161ACFB033C42
:1048F0004FF4FA634FEA9C4C03FB0CFC43685B1BD0
:104900009C45FBD8D8F80030384609681EEA030FEA
:1049100014BF012300230A4204F10C0118BF43F025
:10492000020301912377FFF7F5FC03460199304616
:1049300084F82430FFF7EEFC94F824200346204648
:10494000134484F8243002B0BDE8F081FC0D00204F
:10495000001000E0DC22002083DE1B432DE9F04341
:104960004D4C8DB001210D2002F0F4FD0C2104F519
:10497000BC7001F027FF002843D1032401210D2042
:1049800002F0ACFD962002F02BFD0D20002102F07C
:10499000A5FD962002F024FD013CEFD14FF47A7082
:1049A00002F01EFD3D4D40F2EE283D4C3D4FDFF83C
:1049B0000C912E6804F05EFB2378ABB13B78DB07EB
:1049C00012D52B68D9F800209B1A0E2B0CD9364C27
:1049D0003648374B374A3849CDE9000401200AF000
:1049E0006FFB0DB0BDE8F0832B6822789B1B2AB1CA
:1049F000B3F5FA6FEBD804F03DFBDBE74345FAD99A
:104A0000E5E7D4F85C31002B2DDD002504F5BC76FC
:104A1000142203A93046013502F03AF89DED082A28
:104A20009DED093A32209DED0A4AB7EEC22AB7EE53
:104A3000C33AB7EEC44A94ED585B94ED5A6B94EDCB
:104A40005C7B35EE025B36EE036B37EE047B84ED68
:104A5000585B84ED5A6B84ED5C7B02F0C1FCD4F8AA
:104A60005C319D42D4DB07EE903AB8EEE77A94EDE4
:104A7000585B94ED5A6BB7EEC77A94ED5C3B85EECC
:104A8000074B86EE075B83EE076B84ED584B84ED96
:104A90005A5B84ED5C6B85E720880020AC9B00208E
:104AA000A69C0020A59C0020FD3F0000F13F0000D7
:104AB000ED3F0000E93F0000E0220020349C002090
:104AC00030B5ABB0D64C24A809F0AEFE0DF1900C79
:104AD000BCE80F000FC40022DCF800502346D14888
:104AE000114643F8105907F0E5F900286ED1CD4B77
:104AF000CD4ACE49CE4807F0E1FA002840F0B68111
:104B000006F03AFACB4B0246C949CB4807F0A2FB64
:104B1000002840F063810CF097FBC84B0246C44963
:104B2000C74807F097FB002840F0378104F0D0FB1E
:104B3000C44B0246BE49C44807F0C6FB002840F0FB
:104B40000B810CF0FFFCC14B0246B949C04807F08D
:104B500081FB002840F0DF8002A806F067FE882273
:104B600002A9BC4802F0BAFDAD4B0222AD49B948DA
:104B700006F066FE002840F0AD800024B64BB74A30
:104B8000B149B448009406F00BFF002840F0818042
:104B9000B349B04806F042FF002859D1B14B0A2072
:104BA0001D680BF095FD90BB0BF076FD451B0A468A
:104BB000AD4C4FF00D004FF0010162F10002C4E96D
:104BC000005202F08BFC01202BB030BD01210D20E2
:104BD00002F084FC962002F003FC00210D2002F07C
:104BE0007DFC962002F0FCFB01210D2002F076FCFA
:104BF000962002F0F5FB00210D2002F06FFC9620BC
:104C000002F0EEFB4FF47A7002F0EAFB6FE701214D
:104C10000D2002F063FC962002F0E2FB00210D2043
:104C200002F05CFC962002F0DBFB01210D2002F07B
:104C300055FC962002F0D4FB00210D2002F04EFC22
:104C4000962002F0CDFB4FF47A7002F0C9FBABE77F
:104C500001210D2002F042FC962002F0C1FB002150
:104C60000D2002F03BFC962002F0BAFB01210D2042
:104C700002F034FC962002F0B3FB00210D2002F07C
:104C80002DFC962002F0ACFB4FF47A7002F0A8FBEA
:104C900084E701210D2002F021FC962002F0A0FB08
:104CA00021460D2002F01AFC962002F099FB01210A
:104CB0000D2002F013FC962002F092FB21460D20FD
:104CC00002F00CFC962002F08BFB4FF47A7002F09D
:104CD00087FB5DE701210D2002F000FC962002F029
:104CE0007FFB00210D2002F0F9FB962002F078FBFB
:104CF00001210D2002F0F2FB962002F071FB002151
:104D00000D2002F0EBFB962002F06AFB4FF47A7064
:104D100002F066FB31E701210D2002F0DFFB962057
:104D200002F05EFB00210D2002F0D8FB962002F07D
:104D300057FB01210D2002F0D1FB962002F050FB21
:104D400000210D2002F0CAFB962002F049FB4FF42F
:104D50007A7002F045FBFFE601210D2002F0BEFB58
:104D6000962002F03DFB00210D2002F0B7FB9620BB
:104D700002F036FB01210D2002F0B0FB962002F07C
:104D80002FFB00210D2002F0A9FB962002F028FB4A
:104D90004FF47A7002F024FBD3E601210D2002F0DB
:104DA0009DFB962002F01CFB00210D2002F096FBDB
:104DB000962002F015FB01210D2002F08FFB9620BA
:104DC00002F00EFB00210D2002F088FB962002F07D
:104DD00007FB4FF47A7002F003FBA7E601210D20D8
:104DE00002F07CFB962002F0FBFA00210D2002F07D
:104DF00075FB962002F0F4FA01210D2002F06EFB03
:104E0000962002F0EDFA00210D2002F067FB9620BB
:104E100002F0E6FA4FF47A7002F0E2FA7BE600BFA5
:104E2000A8930020749B0020DC160020CC060020F4
:104E30007C9A0020E0060020AC9A0020F0060020BA
:104E40001C980020FC060020C49B002004070020C2
:104E5000C093002048860020A9010000508F002048
:104E6000D4930020AC9B0020488F002001210D200E
:104E700002F034FB962002F0B3FA00210D2002F07C
:104E80002DFB962002F0ACFA01210D2002F026FB4A
:104E9000962002F0A5FA00210D2002F01FFB9620BB
:104EA00002F09EFA4FF47A7002F09AFA28E600BFF8
:104EB00038B5134D134C284607F052F900210BF07A
:104EC00019FC2146104807F0D3FF21460F4807F090
:104ED000CFFF21460E4808F085FA204607F0C6FDB0
:104EE0000C4808F049FD0C4806F026FD284607F05E
:104EF0002BF80D20012102F0F1FA012038BD00BF8E
:104F0000749B00207C9A0020AC9A00201C98002002
:104F1000C49B0020D493002048860020000000009D
:104F20002DE9F043E04FE14AD7ED007A92ED007AA7
:104F3000F8EE677ADE493B68096837EEC77A5B1A94
:104F40002DED108B9FEDD06BC2ED007AB7EEC77AD6
:104F5000C72B99B087EE068BB7EEC88B00F29D8306
:104F6000D44CD54894ED0A1B94ED026B94ED007B74
:104F7000D24CB7EEC11BF7EEC60BB7EEC70B01F074
:104F8000F5FE94F82430CDED150A012BF0EE408AA1
:104F90008DED140A8DED161ACDED171A40F24484EA
:104FA00072B6256A62B602F06FFA63686060C31A6F
:104FB00007EE903AA368A560EB1AB8EE676BD4EDE4
:104FC000007A07EE103ABE4DB8EEE75BB8EEC77B4D
:104FD00095F824309FEDAE3B012B86EE034B87EE18
:104FE000056B86EE049BB7EEC99B40F20A8472B64D
:104FF0002E6A62B602F048FA6B686860C31A07EE60
:10500000903AAB68AE60B8EE677BF61A9FEDA06B86
:1050100087EE065B07EE906AD5ED006AA94EB8EE02
:10502000E77B96F82430B8EEE66B012B87EE064B53
:1050300084EE057BF7EEC79B40F2CF8372B6D6F8BD
:10504000208062B602F020FA73687060C31A07EE1F
:10505000903AB368C6F80880B8EE677BA8EB0308FF
:105060009FED8B6B87EE065B07EE908AD6ED006AAC
:10507000DFF86082B8EEE77B98F82430B8EEE66B94
:10508000012B87EE064B84EE05ABB7EECAAB40F2C0
:105090008B8372B6D8F8209062B602F0F5F9D8F892
:1050A0000430DFED897AC8F80400C01AD8F8083057
:1050B00088EEA77A07EE900AC8F80890A9EB0309D2
:1050C00094F82430012BB8EE676B07EE909A9FEDB1
:1050D000705B86EE054BB8EEE76BD8ED007AB8EE64
:1050E000E75B86EE053B83EE046BF7EEC6AB40F262
:1050F000238372B6236A62B607EE903A9DED156A75
:10510000724BDFED716AF8EEE77AD3ED0B5AC6EE1B
:10511000260A93ED056AD3ED0A6AC3ED057A93ED8D
:10512000065A93ED0C2A37EEC66AD3ED071A66EEDF
:10513000A57A93ED081AB7EEC22AC6EE086AB7EE52
:10514000C55A9FED554B9FED563B86EEA76AC3EDC2
:10515000126AD3ED027ACDED0B7AD3ED037ACDED61
:105160000C7AD3ED047ACDED0D7AD3ED007ACDED46
:105170000E7AD3ED017ACDED0F7A83ED0D6A83EDD2
:10518000066AB7EEC66A26EE046BA2EE036BA5EEC6
:10519000046BB7EEC66B37EE467A83ED0C6AE8EE29
:1051A000071A83ED087AC3ED071A95F82430012B0E
:1051B00040F2AE8272B62B6A62B607EE903A444B6A
:1051C0009DED163AF8EEE77A93ED056AD3ED0B5AAA
:1051D000D3ED0A6A37EEC66AC3ED057A66EEA56AB4
:1051E000DFED393A93ED065AC6EE085A93ED0C4AB4
:1051F00093ED070A96F82420012AB7EEC44A9FEDE2
:10520000282BC5EEA67AC3ED125AB7EEC55AB7EEF3
:10521000E76AC3ED0D7AC3ED067AC3EE237AD3EDC8
:10522000083ACDED053AD3ED023ACDED063AD3ED8D
:10523000033ACDED073AD3ED043ACDED083AD3ED7C
:10524000003ACDED093AD3ED013ACDED0A3A9FEDA2
:10525000123B26EE036BA4EE026BA5EE036BB7EEDA
:10526000C66B70EEC60A83ED0C6AA8EE200AC3ED89
:10527000080AB0EE40BA83ED070A40F2358272B6F2
:10528000336A29E0AFF30080FCA9F1D24D62503FB0
:1052900000000000389C8C41C217265305A3B23F82
:1052A0008716D9CEF753EB3FAC9B0020B09A002075
:1052B000B49A0020508F0020349800207898002065
:1052C000FC9800208099002000007042A0980020E7
:1052D00024990020049A002062B606EE903ADDED93
:1052E000175ADB4B9FEDDB6AF8EEE66A93ED065A40
:1052F00085EE860A93ED056AC3ED056A93ED0C4AC7
:10530000D3ED07BA98F8242076EEC66A93ED0B6ABF
:10531000B7EEC44A012AD3ED08FAC6EE885AD3ED97
:105320000A6A93ED02FAD3ED03EA93ED04EAD3EDB2
:1053300000DA66EE866A93ED01DA9FEDBF3B9FEDE2
:10534000C02B85EEA66AC3ED125AB7EEC55A83ED9F
:105350000D6A83ED066AB7EEC66A26EE036BA4EE0D
:10536000026BA5EE036BB0EE6B3AB7EEC66B77EE51
:10537000C67A83ED0C6AA8EE273AC3ED087A83ED6E
:10538000073A40F2988172B6D8F8203062B606EE3D
:10539000903AB14BF5EE408AF8EEE66A93ED056A75
:1053A00093ED0C5AF1EE10FAD3ED02CAC3ED056A83
:1053B00076EEC66A93ED0A6AB7EEC54A93ED03CA64
:1053C000C6EE885AD3ED0B6AD3ED04BAD3ED003A9A
:1053D00066EE266AB0EE442BD3ED084ACDED034AC3
:1053E0009FED974B85EEA66AC3ED125AD3ED065A90
:1053F000B7EEE55A8DED005BD3ED015ACDED045AC1
:105400009FED8D5B83ED0D6A83ED066AB7EEC66A8C
:1054100026EE056BA2EE046B9DED004BA4EE056B32
:10542000B7EEC66BD3ED076A30EE460A83ED0C6A21
:10543000E8EE006A83ED080AC3ED076A00F0D58044
:10544000DDED034A37EE416ADDED0B5A70EE642A5A
:105450009DED065A20EE2C0A804E27EE257ADDEDD2
:105460000C5A3379A6EE8C0AC6EE086A9DED0D6AD9
:10547000A1EEA57ADDED055A70EEE55A60EE850ADB
:105480009DED075AEBEE050A37EEEF5A67EE8F7A7D
:10549000A6EE867ADDED0F6AE3EE2E7A9DED0A6ABE
:1054A000C7FE668A9DED0E7ADDED086AC7FE288A82
:1054B00085EE887AE7EE260A82EE887AC5EE086ADB
:1054C000C0FEC60A9DED096AC6FE200AA7EE2B0A99
:1054D0009DED047AE6EE8E7A80FE470ABDEEE87A0C
:1054E000C3FE803A17EE109AC7FECD7ACDFEA77A9A
:1054F0000BB1C9F10009FDEEE77AB9F1000FBDEE7D
:10550000E07A17EE904AFDEEE37A17EE105A17EEA6
:10551000908A40F3A983307A002102F0BDFA49460F
:10552000307B02F0B9FA4E4E337903B16D42002D53
:105530006BDD307A002102F0AFFA2946307B02F0B1
:10554000ABFA484D2B7903B16442002C40F39A80AA
:10555000287A002102F0A0FA2146287B02F09CFA6A
:10556000414C23790BB1C8F10008B8F1000F57DDA9
:10557000207A002102F090FA4146207B02F08CFA5A
:105580003A4900223A48C1ED008A07F0CBFCB0EE60
:10559000490A3848B0EE4A1AF0EE690AF0EE6A1A83
:1055A00001F0E8FB344A3B68F0EE411A1168B0EEB6
:1055B000601A1360F0EE400A5B1A8DED110A2F4855
:1055C00007EE903A8DED121ACDED131AB8EE677B07
:1055D0009FED1D5B87EE056BB7EEC60B19B0BDECFA
:1055E000108BBDE8F04301F0AFBC4FF00008DFEDD9
:1055F000248A1A4E44464546307B002102F04CFA7C
:10560000307A002102F048FA8DE7307B00F02781E4
:10561000002102F041FA6942307A02F03DFA90E747
:10562000207B00F02481002102F036FAC8F100014D
:10563000207A02F031FAA3E7C217265305A3B23F3E
:105640008716D9CEF753EB3F0000000000408F4093
:10565000A8990020000070422C9A00206898002031
:10566000EC98002070990020F4990020BC93002051
:10567000C093002034980020B89A0020708C00203D
:1056800000000000287B00F0E280002102F004FA14
:105690006142287A02F000FA62E700220023A44C5B
:1056A00001210D20C4E90023C4E90223C4E90A232F
:1056B00001F014FF55E472B6D8F81020D8F80C3079
:1056C0001B681168D8F814201A40D8F8183019420D
:1056D00000F0EB8198F81C3003F003030AB143F0AB
:1056E000040343F00803E7E172B63269F3681B680C
:1056F000116872691A40B369194200F07381337FEF
:1057000003F003030AB143F0040343F008036FE11D
:1057100072B62A69EB681B6811686A691A40AB693E
:10572000194200F033812B7F03F003030AB143F0E9
:10573000040343F008032FE172B62269E3681B6893
:10574000116862691A40A369194200F0A581237F9C
:1057500003F003030AB143F0040343F008039A087B
:10576000013B22770D2B3FF6C5AC01A252F823F086
:10577000773900006D390000F33900006D39000001
:10578000E52E0000E9390000773900007739000084
:10579000E9390000E52E00006D390000F339000002
:1057A0006D3900007739000072B6D8F81020D8F8AB
:1057B0000C301B681168D8F814201A40D8F818303B
:1057C000194200F03B8198F81C3003F003030AB142
:1057D00043F0040343F0080337E172B63269F3681B
:1057E0001B68116872691A40B369194200F0A280FF
:1057F000337F03F003030AB143F0040343F00803CB
:105800009EE072B62A69EB681B6811686A691A40E3
:10581000AB69194260D02B7F03F003030AB143F058
:10582000040343F008035DE072B6D4E90331626912
:105830001B6809681A40A369194220D0237F03F02E
:1058400003030AB143F0040343F008031DE02146BB
:1058500002F022F92146287A02F01EF980E6294654
:1058600002F01AF92946307A02F016F969E6414643
:1058700002F012F94146207A02F00EF980E6237F09
:1058800003F003030AB143F004039A08013B256ABD
:1058900022770D2B3FF686AB01A252F823F000BF12
:1058A0003139000029390000053A0000293900008B
:1058B000952D0000FD39000031390000313900001C
:1058C000FD390000952D000029390000053A00003F
:1058D00029390000313900002B7F03F003030AB19E
:1058E00043F004039A08013B2E6A2A770D2B3FF6FA
:1058F00080AB01A252F823F0893900008139000001
:10590000AD39000081390000E32D0000A539000009
:105910008939000089390000A5390000E32D000015
:1059200081390000AD39000081390000893900005B
:10593000508F0020337F03F003030AB143F00403C8
:105940009A08013B32770D2B3FF679AB01A252F852
:1059500023F000BF1B3900000D3900004B3A000056
:105960000D3900002F2E00003D3A00001B390000C9
:105970001B3900003D3A00002F2E00000D390000B9
:105980004B3A00000D3900001B3900002B7F03F05B
:1059900003030AB143F004039A08013B2A770D2B55
:1059A0003FF609AC01A252F823F000BF9B3900007A
:1059B00091390000BF39000091390000A72F000085
:1059C000B53900009B3900009B390000B539000053
:1059D000A72F000091390000BF3900009139000065
:1059E0009B390000337F03F003030AB143F0040343
:1059F0009A08013B32770D2B3FF642AC01A252F8D8
:105A000023F000BF4339000039390000173A000085
:105A100039390000713000000D3A000043390000B0
:105A2000433900000D3A00007130000039390000A0
:105A3000173A0000393900004339000098F81C304B
:105A400003F003030AB143F004039A08013B88F80A
:105A50001C200D2B3FF61EAB01A252F823F000BF15
:105A60005D3900004D390000D93900004D39000082
:105A7000852E0000C93900005D3900005D39000045
:105A8000C9390000852E00004D390000D9390000C9
:105A90004D3900005D390000237F03F00303002A25
:105AA0003FF45DAE43F0040359E698F81C3003F070
:105AB00003030AB143F004039A08013B88F81C2051
:105AC0000D2B3FF661AC01A252F823F00139000022
:105AD000F53800002F3A0000F53800007931000059
:105AE000213A00000139000001390000213A00008C
:105AF00079310000F53800002F3A0000F538000039
:105B000001390000D8F82030013BC8F820303DE4CE
:105B1000D8F820300133C8F8203037E4336A03F175
:105B2000FF38C6F82080FFF78CBA336A03F101080A
:105B3000C6F82080FFF785BA013D2562FFF732BA2B
:105B400001352562FFF72EBA336A013B3362FFF756
:105B5000C3BB336A01333362FFF7BEBBD8F82030D2
:105B600003F1FF39C8F82090FFF796BAD8F8203033
:105B700003F10109C8F82090FFF78EBA236A013BB0
:105B80002362FFF7B8BA236A01332362FFF7B3BA7F
:105B9000013E2E62FFF72DBA01362E62FFF729BAB9
:105BA0002B6A013B2B62FFF707BB2B6A01332B6289
:105BB000FFF702BB023E2E62FFF71BBA02362E62CF
:105BC000FFF717BA2B6A023B2B62FFF7F5BA2B6A75
:105BD00002332B62FFF7F0BAD8F82030A3F10209A4
:105BE000C8F82090FFF758BAD8F8203003F102091E
:105BF000C8F82090FFF750BA236A023B2362FFF7F0
:105C00007ABA236A02332362FFF775BA023D25622E
:105C1000FFF7C8B902352562FFF7C4B9336A023B02
:105C20003362FFF759BB336A02333362FFF754BB69
:105C3000D8F82030023BC8F82030FFF7A7BBD8F8CF
:105C400020300233C8F82030FFF7A0BB336AA3F13D
:105C50000208C6F82080FFF7F4B9336A03F102089E
:105C6000C6F82080FFF7EDB93FF4C6AC307B0021C9
:105C700001F012FFC9F10001307A01F00DFF52E48A
:105C800010B5ADF5816D6A4C6A49684601F0ECF8D3
:105C90004FF432726946684801F020FD1422B2A91F
:105CA00004F5BC7000F0F4FE9DEDB74A9DEDB86AB6
:105CB000B7EEC44A9DEDB97AB7EEC66AB7EEC77AB9
:105CC00094ED582B94ED5A3B94ED5C5B34EE424BD3
:105CD00036EE436B37EE457B9FED512B84ED224B27
:105CE00084ED246BB4EEC24B84ED267BF1EE10FA0A
:105CF00007DD9FED4D5BB4EEC54BF1EE10FA00F100
:105D00008A809FED475BB4EEC56BF1EE10FA06DDBD
:105D10009FED455BB4EEC56BF1EE10FA76D49FEDC6
:105D2000406BB4EEC67BF1EE10FA0ADD9FED3E6BE0
:105D3000B4EEC67BF1EE10FA03D500220023C4E9CD
:105D4000262394ED567AB2A908223C48B7EEC77ACA
:105D500084ED287B84ED307B84ED387B00F098FE69
:105D600094ED527ADDEDB97A4FF4A0729DEDB74A09
:105D7000B2A89DEDB85A27EE044A94ED556A27EE75
:105D8000055A2F4927EE277AB7EEC66AB7EEC44AFE
:105D9000B7EEC55AB7EEC77A84ED406B84ED3A4B47
:105DA00084ED486B84ED3C5B84ED3E7B84ED506B71
:105DB000244C01F093FCB2A94FF4A072204601F0EC
:105DC0008DFC214A2148D2E9003100684FF47A72F3
:105DD000C0184FF0000341F1000113F06BFF1C49A4
:105DE0000346206001FB02F221461A486260124C11
:105DF000C4E90032002207F095F800222146164837
:105E00000DF5816DBDE8104007F08CB8002200232D
:105E1000C4E9242383E700220023C4E9222370E796
:105E20007B14AE47E17A84BF7B14AE47E17A843FAE
:105E300020880020708C0020A889002098890020EC
:105E400028880020E0860020488F0020AC9B00209E
:105E500040420F001C980020AC9A00200000000077
:105E600070B53D4D2C78032C07D8DFE804F0302ABC
:105E70000702FFF71DF800232B7070BD374ED6E9DF
:105E80000023B3F1FF3F08BFB2F1FF3F59D005F047
:105E900041F8D6E90023801A61EB0301C92871F1AA
:105EA00000013CDA2B78022BE7D12D4828A3D3E957
:105EB000002305F0CDFFFFF7E3FEBDE87040FFF7DC
:105EC0002FB8FEF7FDFD28B302232B7070BD254CC3
:105ED000D4E90023B3F1FF3F08BFB2F1FF3F2BD05D
:105EE00005F018F8D4E90023801A61EB030140F2B1
:105EF000F513984271F10001BFDB0121642009F024
:105F0000F5F8B0FA80F04009287005F003F8C4E90C
:105F1000000170BD2870BDE87040FEF7C9BF0121C7
:105F2000642009F0E3F8002818BF03242C7004F063
:105F3000F1FFC6E90001B5E704F0ECFFC4E9000198
:105F4000CEE704F0E7FFC6E90001A0E7AFF3008069
:105F500000E1F50500000000A19C0020B021002018
:105F600048860020A8210020F0B500244FF470637B
:105F70000A22092180480326804D28272DED028B17
:105F800089B09FED7F8A0094FEF77EFC00944FF469
:105F900070630C220B217B48FEF776FC00944FF4D3
:105FA0007063102211217848FEF76EFC00944FF4C4
:105FB00070630F220E217548FEF766FC04229FEDE8
:105FC000740A4FF0FF330A2172488DED030ACDE9C0
:105FD00000262246FEF768F9162317229DED030AD4
:105FE00001930A2100924FF0FF3322466A48FEF7E0
:105FF0005BF9052306229DED030A01930A21009215
:106000004FF0FF3322466548FEF74EF91223132165
:106010009DED030A2246019300914FF0FF330A21C0
:106020005F48FEF741F9B3EE027AF1EE007A002301
:106030005C4C31465C4AB6EE002A5C48F3EE080A36
:10604000DFF8ACC1F0EE481ADFED596ADFF8A4E1E1
:10605000584E85ED027AC5ED037A84ED027AC4EDDF
:10606000037AC5F804C0C5F824C0C4F804C0C4F855
:1060700024C0C2F804C0C5ED006AC4ED006AC2EDD8
:10608000006AC5F828E0C4F828E09FED4B1A9FEDA0
:106090004B0A2B612B636B63AB63EB632B646B6409
:1060A000AB64236123636363A363E3632364636477
:1060B000A364EE62E66282ED027AC0ED006A80EDD2
:1060C000027AC2ED037AC0ED037AC2F824C0C2F8A6
:1060D00028E0C0F828E0C0F804C0C0F824C0D662A8
:1060E000C66204AE1361136353639363D363136493
:1060F0005364936440F22622036103634363836322
:10610000C3630364436483642D4800F065FD2D4838
:1061100000F07EFE2C4C2D4B30462D4A04F110052C
:106120000092C4F85431C4F858312A4B2A4AC4F8B2
:1061300048312A4B2260C4F8503184ED538AC4F8A8
:106140005C7195E80E0004F0BBFE254B96E8070055
:1061500085E8070023483A463721206004F5BC70E3
:1061600000F018FB204A2149204609B0BDEC028B03
:10617000BDE8F04003F0A6B878980020A098002071
:10618000CDCCCC3DFC98002080990020049A0020C2
:1061900000409C4668980020EC98002070990020F0
:1061A000F499002024990020A89900202C9A00201E
:1061B00000007FC3000048430000BC419A99593F4A
:1061C00034980020708C002020880020ACC5273730
:1061D000C0060020C3F51C41E0070020BD3786350E
:1061E00070250020CC070020E828002029010000AD
:1061F00000007F439A999941012070470120704720
:10620000D0F88C0203685B68184700BFD0F88C0296
:10621000836000F033BF00BF0020704790F8A320D8
:1062200090F8A200101A704790F8A23090F8A320BE
:106230009A4205D95A1C034480F8A220987E7047E0
:106240004FF0FF30704700BF90F8A23090F8A320C5
:106250009A4202D91844807E70474FF0FF30704751
:10626000704700BF0346B0F8300178B193F82F2192
:10627000882A03D9012200205A60704702F1010CDC
:1062800001201A4483F82FC182F8A510704700BF7F
:1062900038B5B0F830410CB9204638BD90F82F31F0
:1062A0000546C3F18904A2420DD8144605F1A500A4
:1062B0002246184401F012FA95F82F312046234463
:1062C00085F82F3138BD01224260EFE72DE9F04F0C
:1062D000D0F814A01524017E8146437E83B00AEBDA
:1062E0000111384A0AEB0313374F097A93F8283023
:1062F00002EB01150901E86852F8018002EB031175
:10630000D5F804B01B01CE68D558CBF80040C8F8CA
:106310008400D8F804304A6803432C490192C8F835
:1063200004301460C5F884606B6833436B60284B9D
:106330004C683A68A3FB0232920C02EB82025200D4
:106340004B681B1B9A42FBD84FF0090C1F4ADFF821
:1063500080E0D8F80830034202D0AB6833422FD136
:10636000C5F8886054683968AEFB0131890C01EBCF
:10637000810153681B1B9942FBD8C5F8846054689F
:106380003968AEFB0131890C01EB810153681B1B9D
:106390009942FBD8BCF1010CDBD1604699F818306A
:1063A000019A0AEB0313DB68CBF8003099F8193037
:1063B0000AEB031ADAF82C30136003B0BDE8F08F53
:1063C0000120EBE7FC0D0020DC220020001000E0A3
:1063D00083DE1B430E4A10B51168046905E0DB013A
:1063E00007D413685B1A102B08D8636913F0007F79
:1063F000F5D14FF4FE430120636110BDFFF766FF46
:106400000028FAD04FF4FE4301206361F5E700BF96
:10641000AC9B00202DE9F04790F82FA10569BAF157
:10642000000F4FD081468846FFF7D4FF002849D09F
:10643000374E0024376818E06B69190551D4DA0427
:1064400055D4580559D4990441D43268D21B322A04
:106450003DD8544507D9EA6D520704D19B0555D460
:10646000B8F1000F52D002F005FE5445E4D8EA6DB1
:10647000500702F00703DFD413E099F8A520013399
:10648000022442F48062042B2A661ED08A4503F15E
:10649000010309EB01020ED992F8A520042B2A660C
:1064A000CAD00121002CE8D02146013301348A45AD
:1064B00009EB0102F0D8B8F1000FBDD04FF4007322
:1064C0002B66B9E70420BDE8F0870124B4E72B6907
:1064D0004FF40072042043F440732B612A66BDE838
:1064E000F0872B69042043F440732B61EBE72B69A1
:1064F000052043F440732B61E5E72B694FF40072EC
:10650000022043F440732B612A66DCE70020DAE7BF
:10651000AC9B00202DE9F84F83460C4615461F46DC
:10652000D0F810A0FFF756FF002800F09E80610011
:10653000012DDFF83C8140F20146CBB24FF0000163
:1065400038BF0125D8F800900C461E43ABF8A210C6
:1065500020E09BF8A330872B3FD9DAF814201005F0
:106560005AD412F4105F70D1D8F80030A3EB0903AD
:10657000322B6AD89BF8A330AB4209D3022C07D93F
:10658000DAF85C30590703D193054BD4002F49D07A
:1065900002F070FD022CDCD8DAF85C3003F0070260
:1065A0005B07D6D4681E224440F480704CB9CAF808
:1065B00060600134131B032BCBD8022CC9D8002CEC
:1065C000F5D0012C37D01FB14FF40073CAF86030FA
:1065D0009BF8A3300324872BBFD8DAF85C2012F491
:1065E000E02FC2F3024CB8D0591C9C441933C9B2F5
:1065F0005FFA8CFC5BFA83F3DAF870004A1C6145A1
:106600008BF8A310D1B203F8010FA6D08929F3D1DA
:10661000DAF814201005A4D5DAF8103043F44073EA
:10662000CAF81030DAF85C3013F4E02F06D19BF88A
:10663000A300BDE8F88FCAF86000BAE7DAF81030B6
:1066400043F40073CAF81030F1E7DAF810304FF471
:10665000007243F44073CAF81030CAF86020DAF8C8
:106660005C3013F4E02FE2D0E8E70420BDE8F88FB7
:10667000AC9B0020F8B506690446D6F8145115F411
:10668000706301D0C6F81431A8070BD5D6F8702175
:1066900011043DD50023012184F8A230234484F85D
:1066A000A3109A76EA0710D594F83071F7B194F8F0
:1066B0002E7194F82F31BB4226D97B1C274484F8D5
:1066C0002E3197F8A530C6F86031AB050DD594F89A
:1066D000A30018B1D4F83C3103B198470023A4F8C3
:1066E000A230A4F82E3184F83031F8BDD4F8383116
:1066F00003B19847002384F82E31012384F8303108
:1067000094F82F31BB42D8D80023C6F86031DCE7BB
:1067100094F8A330872BC5D8591CC9B2BEE700BF77
:106720000148FFF7A7BF00BFF02200200148FFF794
:10673000A1BF00BF302400200148FFF79BBF00BF6E
:1067400070250020704700BF704700BF38B50C4669
:1067500020220021054604F1080014F053FC0B220E
:106760000649204613F074FD01230321044AE36027
:10677000AB6861612262236138BD00BF5C07002005
:106780000AD7233C10B50446102101F043F82046F7
:1067900010BD00BF70B504461546094E002282B0F8
:1067A0008160066010206260019301F031F8294693
:1067B000019A054611F094FE2046656002B070BD56
:1067C000F40700202DE9F0410F46064684B0002171
:1067D0004068552511F08EFE04E000F001FE013DF9
:1067E00000F0A2800121706811F084FE04460A20A6
:1067F000002CF2D003AB4FF0000801251946CDF86C
:10680000048000952A4670688DF80C8011F0FAFE1D
:106810009DF80C30A02B12D04FF47A7000F0E0FD00
:1068200003ABCDF804802A461946009570688DF8B0
:106830000C8011F0E7FE9DF80C30A02B74D10025E0
:106840003D23022203A935734FF00108ADF80C3047
:106850000123CDE90055706811F068FE1E2000F09C
:10686000BFFD42F23F03022203A9ADF80C30012321
:10687000CDE90055706811F059FE1E2000F0B0FD02
:1068800001E000F0ADFD03AB706801228DF80C5003
:106890001946CDE9008511F0B5FE9DF80C300A20AF
:1068A000A02BEED1322000F09BFD3E2303A9022253
:1068B000ADF80C300123CDE90055706811F036FEBB
:1068C0000A2000F08DFD072303A90222ADF80C3049
:1068D0000123CDE90055706811F028FE3F2303A97C
:1068E0000222ADF80C300123CDE90055706811F09B
:1068F0001DFE0A2000F074FD3D2203A901237068EB
:1069000037738DF80C2002228DF80D70CDE90055FB
:1069100011F00CFE1E2000F063FD142000F060FD5D
:10692000204604B0BDE8F0810024204604B0BDE854
:10693000F08100BF0000000030B587B0154600238D
:1069400004468DF80C200622083D036043608360F6
:10695000C360036143610493486803A90193ADF8E0
:10696000143004AB0092012211F04CFEBDF910006E
:10697000BDF91210BDF91420262D2FD8DFE805F03F
:10698000142E2E2E2E2E312E2E2E2E2E312E2E2E3B
:106990002E2E312E2E2E2E2E2E2E2E2E2E2E2E2E14
:1069A000142E2E2E2E2E140007EE900AB8EEE75B62
:1069B00007EE901AB8EEE76B07EE902A9FED184BA2
:1069C000B8EEE77B85EE043B86EE045B87EE046B56
:1069D00084ED003B84ED025B84ED046B204607B040
:1069E00030BD07EE900A2046B8EEE75B07EE901A3E
:1069F000B8EEE76B07EE902A9FED0B4BB8EEE77B06
:106A000025EE045B26EE046B27EE047B84ED005B31
:106A100084ED026B84ED047B07B030BDAFF30080E2
:106A20000000000000005940000000000000B03FDE
:106A300070B50C4686B0054620220021201D14F0BA
:106A4000E1FA2422104B032622606846AA682946F0
:106A50001B6862601A22A6602361FFF76DFF0120A8
:106A60009DED005B9DED026B9DED047BB7EEC55B7C
:106A7000B7EEC66BB7EEC77B84ED055A84ED066AA8
:106A800084ED077A06B070BDAC9B002000000000CA
:106A900070B50C468CB01546064620220021201DFC
:106AA00014F0B0FA24224A4B282D22601B68B268E9
:106AB00023614FF000036260CDE90033CDE902337A
:106AC000CDE9043318D0083D262D36D8DFE805F08F
:106AD0003D3535353535423535353535573535352F
:106AE0003535753535353535353535353535353516
:106AF00035353535353538000A232A463146A36009
:106B000006AD06A8FFF718FF6E460FCD0FC69DED28
:106B1000005B9DED026B95E8030086E803009DEDA8
:106B2000047BB7EEC55BB7EEC66BB7EEC77B84EDF3
:106B3000055A84ED066A84ED077A01200CB070BD19
:106B4000092331462E22A360DAE7012331460822C9
:106B5000A360D5E7022306AD31460E2206A8A36046
:106B6000FFF7EAFEEC460FCDACE80F0095E8030016
:106B70009DED005B9DED026B8CE80300CFE70423E5
:106B800006AD3146142206A8A360FFF7D5FE6E4677
:106B90000FCD0FC695E803009FED0B4B9DED005BFD
:106BA0009DED026B86E803009DED047B25EE045B02
:106BB00026EE046B27EE047BB3E7032331461A224B
:106BC000A3609DE7AFF30080000000A046DF913F87
:106BD000AC9B0020000000009FED196BB7EEE17A3E
:106BE00001700139B5EEC01A4FF07A5380ED022AD8
:106BF00027EE067B022906EE902A83618CBF0222D3
:106C00000422F1EE10FA4261B7EEC77B80ED047A00
:106C100010D4B4EE601AF1EE10FA30FE811AC1EE13
:106C2000207AF8EEE66A67EEA67A27EE800A80ED13
:106C3000010A70479FED041AF1E700BFAFF300802F
