:0200000460009A
:100000004643464200000156000000000103030081
:1000100000000000000000000000000000000000E0
:1000200000000000000000000000000000000000D0
:1000300000000000000000000000000000000000C0
:1000400000000000010408000000000000000000A3
:100050000000800000000000000000000000000020
:100060000000000000000000000000000000000090
:100070000000000000000000000000000000000080
:10008000EB04180A063204260000000000000000FD
:10009000050404240000000000000000000000002F
:1000A0000000000000000000000000000000000050
:1000B0000604000000000000000000000000000036
:1000C0000000000000000000000000000000000030
:1000D00020041808000000000000000000000000DC
:1000E0000000000000000000000000000000000010
:1000F0000000000000000000000000000000000000
:10010000D8041808000000000000000000000000F3
:100110000204180804200000000000000000000095
:1001200000000000000000000000000000000000CF
:10013000600400000000000000000000000000005B
:1001400000000000000000000000000000000000AF
:10015000000000000000000000000000000000009F
:10016000000000000000000000000000000000008F
:10017000000000000000000000000000000000007F
:10018000000000000000000000000000000000006F
:10019000000000000000000000000000000000005F
:1001A000000000000000000000000000000000004F
:1001B000000000000000000000000000000000003F
:1001C000000100000010000001000000000000001D
:1001D000000001000000000000000000000000001E
:1001E000000000000000000000000000000000000F
:1001F00000000000000000000000000000000000FF
:10020000FFFFFFFFFFFFFFFFFFFFFFFFFFFFFFFFFE
:10021000FFFFFFFFFFFFFFFFFFFFFFFFFFFFFFFFEE
:10100000D10020434D1600600000000000000000E9
:101010002010006000100060004802600000000026
:10102000000000600054020000000000FFFFFFFF0E
:10103000FFFFFFFFFFFFFFFFFFFFFFFFFFFFFFFFC0
:10104000FFFFFFFFFFFFFFFFFFFFFFFFFFFFFFFFB0
:10105000FFFFFFFFFFFFFFFFFFFFFFFFFFFFFFFFA0
:10106000FFFFFFFFFFFFFFFFFFFFFFFFFFFFFFFF90
:10140000814205D051F8043B40F8043B8242F9D8B0
:10141000704700BF044A05494FF0000342F8043BFF
:101420009142FBD8704700BFC03A0020609800206E
:101430002DE98848BFF34F8F00BF00BF00BF00BF3A
:1014400000F0D6F9684B0822C3F8542100BF00BF52
:1014500000BF00BF00BF00BF00BF00BF00BF00BF94
:1014600000BF00BF00BF00BF00BF00BF5F4A6049B0
:101470006048FFF7C5FF604A60496148FFF7C0FF59
:10148000604CFFF7C7FF4FF470004FF0E0210023DE
:101490005D4AC1F8880D44F823200133B02BFAD1FE
:1014A0005A4B80215A4A03F8011B9342FBD14FF05B
:1014B000E0254D4E4FF08039DFF884B1DFF884A18C
:1014C0004FF0FF31C5F8084D0027C6F80491C6F863
:1014D00000B1C6F8F490C6F8F0A0D5F8243DDFF8C6
:1014E000688143F4E0234B4AC5F8243DD8F81C300A
:1014F00023F07F0343F04003C8F81C30D8F82430B1
:1015000023F07F0343F04003C8F824309166D1668E
:101510001167516700F074F93F4B4049A363404B9A
:10152000E36363236B610323AF612B613D4BC5F81C
:10153000203DD5F8FC3D43F08073C5F8FC3D3A4BA7
:101540001A6842F001021A605B680B6000F0A2FBAF
:10155000C6F804913548C6F800B1C6F8F490C6F84C
:10156000F0A000F03DFDD8F86C10314B314A41F449
:101570004051C8F86C101F60C3F80871C3F81871A7
:10158000C3F82871C3F83871936BDB0708D442F6AF
:101590001563294951651365936B43F00103936308
:1015A000244A264C936843F00113936000F0B0F98D
:1015B00000F0D4FC00F01CFD00F09AFB00F01AF9DA
:1015C0002368132BFCD900F02BFC2368B3F5967F1E
:1015D000FBD300F013F900F00FF900F0F5FC00F078
:1015E0000BFD30BFFDE700BF00800D4078E7010034
:1015F0000C22006000000000C03A00208809026050
:1016000000000020003800205D53000000E400E0EE
:10161000A0E400E000C00A408D6700002C97002085
:101620009167000000002020001000E00046C32366
:101630000040084000400D400000C0563097002098
:101640001B1018200C0D111300C00F40054B4FF458
:101650002A01054A05485A641864054A9963954663
:10166000FFF7E6FE00C00A40FFAAAAAA0700200072
:101670000000062043690A4A03EB011010B4037A04
:10168000084C02EB0313D3E901321460C2681A60FC
:1016900003690BB142691A605DF8044B704700BFE3
:1016A000C80D002061F801004369027E03EB0212BD
:1016B00092F808C08C451CD01A7AFF2A19D09142A2
:1016C00010B5044616D01A7EFF2A06D00121D3E9B0
:1016D000002312681A4201D1217610BD064B052263
:1016E000204603EB0C135B681A60FFF7C3FF2176FB
:1016F000F3E770470021EAE7C80D002043690A4A72
:1017000003EB011010B490F82830084C02EB0313DF
:10171000D3E901321460C26A1A60036B0BB1426BE9
:101720001A605DF8044B7047C80D002061F8010095
:101730004369427E03EB021292F828C08C451ED00A
:1017400093F82820FF2A1AD0914210B5044617D0EA
:1017500093F83820FF2A06D00121D3E9002312682C
:101760001A4201D1617610BD064B0522204603EBDB
:101770000C135B681A60FFF7C1FF6176F3E77047EF
:101780000021EAE7C80D0020164942698B6B23F45B
:101790007C0343F4802370B58B630446124DD2E979
:1017A00000130A681A4303690A60022200211A61C1
:1017B0000E4A19619A6401225A629D624FF43035D3
:1017C000DD624FF001159E6C1E6519629D651A6100
:1017D000017EFFF74FFF617E2046BDE87040FFF7B6
:1017E0008DBF00BF00C00F40B80B05053B3728195F
:1017F000704700BF704700BF704700BF00BF704711
:1018000010B44FF0E023002110243148C3F8941D98
:10181000C3F89C4D1124C3F8A00D2E48C3F89C4D6D
:101820001224C3F8A00D2C48C3F89C4D2B4AC3F8D2
:10183000A00D2B4C42F015022A48C3F89C4DC3F86A
:10184000A00D294C2948C3F89C4DC3F8A00D284C85
:10185000C3F89C2D2748284AC3F8A04DC3F89C0D17
:10186000C3F8A02D02F5A022244C0C322448C3F862
:101870009C4DC3F8A02D234AC3F89C0D224CC3F8FD
:10188000A02D02F14062C3F89C4D2048C3F8A02D62
:101890000C32C3F89C0DC3F8A02D00BF00BF00BFE1
:1018A00000BF00BF0122C3F8942DBFF34F8FBFF3D9
:1018B0006F8FC3F8501FBFF34F8FBFF36F8FD3F8F5
:1018C000142D5DF8044B42F44032C3F8142D7047D8
:1018D0003F00001025000807090010006098002054
:1018E0001300200021000207140000202500081327
:1018F000090000101600202027000B1317000040DD
:10190000180000602F000B07190000701A000080FB
:10191000F0B5B84B1822B84E0120B84F83B0C3F8C9
:101920005C62B749C3F86072B64DC3F86462A6F54D
:101930003046B54CC3F86862C3F86C52C3F87052B5
:10194000C3F87452C3F8785248F20C75DA661A6715
:101950005A679A67DA67C3F88020C3F88420C3F80F
:101960008820C1F82C03A94AC1F83003C1F8340318
:10197000C1F83803C1F83C03C1F85003A169A44B76
:101980000A40A448A4491343A44AA361D4F884306C
:1019900043F00C03C4F884304FF0FF34036843F085
:1019A0000203036003682B404FF400551A439C4B1D
:1019B000026044608A689B4C13409B4A43F000538A
:1019C0008360C36823F07803C360036A1340234332
:1019D0000362036A1340954A2343954C4362826233
:1019E000C2620022D1F8B83023F03F0343F0010374
:1019F000C0F8B830D1F8BC308E4923F03F0343F033
:101A00000103C0F8BC3040F205630261056604675B
:101A1000C0F88030456644670224C0F8843003680B
:101A200023F0020303608161834B8449C46143F85E
:101A3000042B8B42FBD1774A136843F001031360F8
:101A4000136813F00103FBD17A48022140F2F564D8
:101A5000906140F29940D16140F26641C2F8004283
:101A600042F20144C2F810127549C2F82002C2F8CD
:101A7000301240F235417348C2F83442C2F8401285
:101A8000714CC2F8500242F201207049C2F854125F
:101A90000121C2F86042C2F864025E48C2F8A03078
:101AA000C2F8A430C2F8B0104369DA07FCD50123AC
:101AB00000244FF4803257494361C0F8A040C0F879
:101AC000A420C0F8B0304B69DB07FCD5012300240B
:101AD0004FF400304F4A4B61C1F8A040C1F8A40058
:101AE000C1F8B0305369DF07FCD501230024584802
:101AF00048495361C2F8A040C2F8A400C2F8B0300F
:101B00004B69DE07FCD5D1F8003145F60D52212096
:101B10009BB24861934265D100244FF48022012397
:101B20003C48C1F8A040C1F8A420C1F8B0304369D6
:101B3000DD07FCD501234FF400040021354A436141
:101B4000C0F8A040C0F8A410C0F8B0305369DC075A
:101B5000FCD501234FF400044FF480302D4953612C
:101B6000C2F8A040C2F8A400C2F8B0304B69D80750
:101B7000FCD501234FF400044FF40030254A4B619B
:101B8000C1F8A040C1F8A400C1F8B0305369D9072A
:101B9000FCD501234FF400042D481E495361C2F8BF
:101BA000A040C2F8A400C2F8B0304B69DA07FCD5F7
:101BB000D1F8003145F60D5221209BB24861934285
:101BC00050D008254FF4000422490020224B234A1C
:101BD000009015705A1A01232148224400F0F0F9B0
:101BE00003B0F0BD1E4B0022C3E90022C3E902226C
:101BF00003B0F0BD00801F40F9B00100F9100100F2
:101C000000841F40F970010000C00F40FFFCFF1F5F
:101C1000000300A000402A4000802A401200FFFF7D
:101C2000FF37F7004000008000FFF07CFF000F83CB
:101C300063000200F05AF05A00422A4000432A4052
:101C40009F041830EB06180A3806180A06320126D7
:101C50000400030000000070000000701F980020C6
:101C6000749400204FF400044FF4802201230848AC
:101C7000C1F8A040C1F8A420C1F8B0304369DB0727
:101C8000FCD5012310254FF0807443619CE700BF11
:101C900000402A40F0B4154A40274FF480314FF4F9
:101CA00080564FF400554FF4404443F2420013690C
:101CB00013F0020F0ED113F4005F0FD013F4805F06
:101CC0000ED0002BF3DA13F4803F0BD15B060BD55B
:101CD000F0BC7047946151619061E8E75561E6E7B7
:101CE0005661E4E79161E2E75761E0E700800D406B
:101CF0003F4A03203F49F3EE095AD2F880304FF0B3
:101D0000000C9FED3D6A23F001039FED3C5A30B477
:101D1000C2F88030C2F89000D1F8E010384DCBB254
:101D2000384C39482B6007EE903A0B0DC1F30B216C
:101D3000F8EEE77A06EE903A07EE101A334BB8EE5B
:101D4000C77A2160F8EEE66A314937EEC66A37EEA7
:101D5000C55A76EEC76A77EEE57A26EE266AC3EDB7
:101D6000006A25EE265AD2F8803067EEA64AC0ED0A
:101D7000007AC6EE275A274885EE276AC4EEA76A7E
:101D800075EE875AFCEEE55A36EE076A15EE904A74
:101D9000BCEEC66A43EA045376EE877AC2F8803016
:101DA00016EE103AD2F89041FCEEE77A01EA0341D0
:101DB000214317EE903AC2F89011C3F30B03D2F807
:101DC00090110B431449C2F89031D2F8803043F09F
:101DD0000203C2F88030114B80F840C0C1F8403196
:101DE0004FF0E023012230BCC3F80821704700BF48
:101DF00000810D4000441F400000AA420000B44290
:101E0000A8960020A4960020AC960020B096002052
:101E10000000FF0F00E400E0003800204D550000F6
:101E2000314B40F6617210B5C3F8202140F20444F2
:101E300000F0D2F82D4A2E49D2F880302D4843F0D8
:101E40000303C2F880302C4BC1F8604102681A428B
:101E500003D1D1F8A8319A071BD0254A4FF0004191
:101E6000244B5963D2F8403143F00203C2F84031A9
:101E7000D2F840319B07FBD44FF400304FF0E02103
:101E80001C4B4FF00042C1F88C0219209A6300F0FD
:101E9000ABF8184A4FF08040154C002190630A209F
:101EA000164B11604FF42072C4F8A801184600F0D8
:101EB0008FF84FF4800203464FF4810040F2431143
:101EC0001860C4F858311A640D4B0E4AC4F8481112
:101ED000C3F804224FF0E0224FF400310123C2F88E
:101EE0000C11C4F8403110BD00800D4000C00F40FF
:101EF00000002E4000900D40001C1E00000000203D
:101F0000003800203557000008B50E4B1B6E9B07AC
:101F100000D4FBBE72B60C4B00200C4AC3F8400143
:101F200003F160430A49A3F55F2311649D46BFF3A3
:101F30004F8F4FF400130748074ADB6902609B6824
:101F4000984700BF00441F4000002E4000C00A40D8
:101F50000300200000802020000012EB104BA02086
:101F6000104AD96E41F4403110B4D96640F237645A
:101F7000D96E41F44071D96654649064936C1B0629
:101F8000FCD4094A40F23761A02351649364936CF6
:101F900013F08003FBD1054A13705DF8044B7047C2
:101FA00000C00F4000400C4000800C401D980020F5
:101FB000F8B500BFF8BC08BC9E46704700000000A2
:101FC0005FF800F03D6800005FF800F0ED8601006A
:101FD0005FF800F03D8601005FF800F0A55E0000AC
:101FE0005FF800F0ED4600005FF800F0DD4900000A
:101FF0005FF800F04D5200005FF800F0C94C00009F
:1020000005010000C1330000E968000041830000C1
:04201000BDE8000027
:1020140080C00F4000000003190000001000000001
:10202400E8841F4001000000FF000000FF000000E2
:102034000000000000000000180000001000000074
:10204400E4841F4001000000FF000000FF000000C6
:1020540000000000000000001F000000413B0000E1
:1020640070C00F40000C00001100000011000000BF
:10207400E0841F40020000002C0000001200000059
:10208400E0841F4001000000100000001100000067
:10209400DC841F40020000002D000000120000003C
:1020A400DC841F40010000001E000000353B0000DE
:1020B40070C00F40C00000001200000013000000B8
:1020C400D0841F4001000000FF000000FF0000005A
:1020D40000000000000000001300000013000000D6
:1020E400CC841F4001000000FF000000FF0000003E
:1020F40000000000000000001C000000293B00005C
:10210400160355005300420020005300650072007E
:10211400690061006C00000018035400650065004C
:102124006E00730079006400750069006E006F0032
:102134000403090409026200030100C032080B0011
:102144000202020100090400000102020100052448
:1021540000100105240101010424020605240600DF
:10216400010705820310001009040100020A00009F
:10217400000705030240000007058402400000092F
:1021840004020002FF6AFF00070581024000010704
:10219400050102400001000009026200030100C0C1
:1021A40032080B00020202010009040000010202CD
:1021B4000100052400100105240101010424020684
:1021C4000524060001070582031000050904010027
:1021D400020A00000007050302000200070584024A
:1021E4000002000904020002FF6AC7000705810219
:1021F4000002010705010200020100000A060002B4
:08220400EF020140010000009F
:10220C0000000000000000000000000000000000C2
:10221C0000000000000000000000000000000000B2
:10222C00F8B54FF084439D695A6915400DD0254F80
:10223C0001269D6195FAA5F4B4FA84F457F824307C
:10224C0006FA04F49847A543F4D11F4B9D695A69CB
:10225C0015400DD01D4F01269D6195FAA5F4B4FAD9
:10226C0084F457F8243006FA04F49847A543F4D1C3
:10227C00174B9D695A6915400DD0164F01269D616B
:10228C0095FAA5F4B4FA84F457F8243006FA04F459
:10229C009847A543F4D1104B9D695A6915400DD050
:1022AC000E4F01269D6195FAA5F4B4FA84F457F803
:1022BC00243006FA04F49847A543F4D1BFF34F8FAA
:1022CC00F8BD00BF6832002000400042E832002018
:1022DC00008000426833002000C00042E833002038
:1022EC000548064B1B1AD90F01EBA301491002D06C
:1022FC00034B03B118477047C03A0020C03A002086
:10230C000000000008B5054B1BB105490548AFF3AB
:10231C000080BDE80840FFF7E3BF00BF00000000ED
:10232C001C96002000540260704700BF0C2100F581
:10233C00BC7003F04BBD00BF00B597B0142200F584
:10234C00BC700DA903F0A8FE9DED131A9DED142A87
:10235C009DED120AB7EEC11AB7EEC22AB7EEC00A4B
:10236C0017B05DF804FB00BF10B596B00446082208
:10237C0000F5BC700DA903F08FFE94ED520A9DED93
:10238C00131A9DED142ADDED127A20EE011A20EEBF
:10239C00022A20EE270AB7EEC11AB7EEC22AB7EE10
:1023AC00C00A16B010BD00BF08B50D2004F0BEFC6D
:1023BC0001460D20B1FA81F1490904F08DFC024A65
:1023CC00024B12681A6008BD309700203896002026
:1023DC0010B504460021007B04F05CFF207A00213C
:1023EC00BDE8104004F056BF38B50D460446002138
:1023FC00007A04F04FFF207B85EAE571A1EBE571D3
:10240C00BDE8384004F046BF38B50D4604460021FF
:10241C00007B04F03FFF207A85EAE571A1EBE571C2
:10242C00BDE8384004F036BF214BDA68D2E9001021
:10243C00D3680968006810B41842946801EA040172
:10244C002ED0137C03F00303D9B943F00803990889
:10245C00013B11740D2B0BD8DFE803F00D071C07A3
:10246C000A160D0D160A071C070D5369013B536123
:10247C005DF8044B704753695DF8044B01335361AD
:10248C00704743F00403E0E753695DF8044B023BEB
:10249C005361704753695DF8044B023353617047C5
:1024AC00137C03F003030029D1D043F00403CEE7DF
:1024BC00708C0020214B1A69D2E90010D36809688E
:1024CC00006810B41842946801EA04012ED0137C01
:1024DC0003F00303D9B943F008039908013B1174C5
:1024EC000D2B0BD8DFE803F00D071C070A160D0D9A
:1024FC00160A071C070D5369013B53615DF8044B29
:10250C00704753695DF8044B01335361704743F0D6
:10251C000403E0E753695DF8044B023B53617047D9
:10252C0053695DF8044B023353617047137C03F01D
:10253C0003030029D1D043F00403CEE7708C0020B4
:10254C00214B5A69D2E90010D3680968006810B4AD
:10255C001842946801EA04012ED0137C03F00303A3
:10256C00D9B943F008039908013B11740D2B0BD812
:10257C00DFE803F00D071C070A160D0D160A071CE1
:10258C00070D5369013B53615DF8044B7047536968
:10259C005DF8044B01335361704743F00403E0E7EB
:1025AC0053695DF8044B023B5361704753695DF806
:1025BC00044B023353617047137C03F0030300296F
:1025CC00D1D043F00403CEE7708C0020214B9A69E4
:1025DC00D2E90010D3680968006810B418429468F6
:1025EC0001EA04012ED0137C03F00303D9B943F0A4
:1025FC0008039908013B11740D2B0BD8DFE803F08D
:10260C000D071C070A160D0D160A071C070D53693A
:10261C00013B53615DF8044B704753695DF8044B03
:10262C0001335361704743F00403E0E753695DF8ED
:10263C00044B023B5361704753695DF8044B023302
:10264C0053617047137C03F003030029D1D043F08E
:10265C000403CEE7708C0020214BDA69D2E900101C
:10266C00D3680968006810B41842946801EA040140
:10267C002ED0137C03F00303D9B943F00803990857
:10268C00013B11740D2B0BD8DFE803F00D071C0771
:10269C000A160D0D160A071C070D5369013B5361F1
:1026AC005DF8044B704753695DF8044B013353617B
:1026BC00704743F00403E0E753695DF8044B023BB9
:1026CC005361704753695DF8044B02335361704793
:1026DC00137C03F003030029D1D043F00403CEE7AD
:1026EC00708C0020214B1A6AD2E90010D36809685B
:1026FC00006810B41842946801EA04012ED0137CCF
:10270C0003F00303D9B943F008039908013B117492
:10271C000D2B0BD8DFE803F00D071C070A160D0D67
:10272C00160A071C070D5369013B53615DF8044BF6
:10273C00704753695DF8044B01335361704743F0A4
:10274C000403E0E753695DF8044B023B53617047A7
:10275C0053695DF8044B023353617047137C03F0EB
:10276C0003030029D1D043F00403CEE7708C002082
:10277C00214B5A6AD2E90010D3680968006810B47A
:10278C001842946801EA04012ED0137C03F0030371
:10279C00D9B943F008039908013B11740D2B0BD8E0
:1027AC00DFE803F00D071C070A160D0D160A071CAF
:1027BC00070D5369013B53615DF8044B7047536936
:1027CC005DF8044B01335361704743F00403E0E7B9
:1027DC0053695DF8044B023B5361704753695DF8D4
:1027EC00044B023353617047137C03F0030300293D
:1027FC00D1D043F00403CEE7708C0020214B9A6AB1
:10280C00D2E90010D3680968006810B418429468C3
:10281C0001EA04012ED0137C03F00303D9B943F071
:10282C0008039908013B11740D2B0BD8DFE803F05A
:10283C000D071C070A160D0D160A071C070D536908
:10284C00013B53615DF8044B704753695DF8044BD1
:10285C0001335361704743F00403E0E753695DF8BB
:10286C00044B023B5361704753695DF8044B0233D0
:10287C0053617047137C03F003030029D1D043F05C
:10288C000403CEE7708C0020214B1A68D2E90010AB
:10289C00D3680968006810B41842946801EA04010E
:1028AC002ED0137C03F00303D9B943F00803990825
:1028BC00013B11740D2B0BD8DFE803F00D071C073F
:1028CC000A160D0D160A071C070D5369013B5361BF
:1028DC005DF8044B704753695DF8044B0133536149
:1028EC00704743F00403E0E753695DF8044B023B87
:1028FC005361704753695DF8044B02335361704761
:10290C00137C03F003030029D1D043F00403CEE77A
:10291C00708C0020214B5A68D2E90010D3680968EA
:10292C00006810B41842946801EA04012ED0137C9C
:10293C0003F00303D9B943F008039908013B117460
:10294C000D2B0BD8DFE803F00D071C070A160D0D35
:10295C00160A071C070D5369013B53615DF8044BC4
:10296C00704753695DF8044B01335361704743F072
:10297C000403E0E753695DF8044B023B5361704775
:10298C0053695DF8044B023353617047137C03F0B9
:10299C0003030029D1D043F00403CEE7708C002050
:1029AC00214B9A68D2E90010D3680968006810B40A
:1029BC001842946801EA04012ED0137C03F003033F
:1029CC00D9B943F008039908013B11740D2B0BD8AE
:1029DC00DFE803F00D071C070A160D0D160A071C7D
:1029EC00070D5369013B53615DF8044B7047536904
:1029FC005DF8044B01335361704743F00403E0E787
:102A0C0053695DF8044B023B5361704753695DF8A1
:102A1C00044B023353617047137C03F0030300290A
:102A2C00D1D043F00403CEE7708C0020224BD3F8B6
:102A3C00CC20D2E90010D3680968006810B41842A1
:102A4C00946801EA04012ED0137C03F00303D9B976
:102A5C0043F008039908013B11740D2B0BD8DFE8E8
:102A6C0003F00D071C070A160D0D160A071C070D9F
:102A7C005369013B53615DF8044B704753695DF832
:102A8C00044B01335361704743F00403E0E753698F
:102A9C005DF8044B023B5361704753695DF8044B7E
:102AAC00023353617047137C03F003030029D1D028
:102ABC0043F00403CEE700BF708C0020224BD3F808
:102ACC00D020D2E90010D3680968006810B418420D
:102ADC00946801EA04012ED0137C03F00303D9B9E6
:102AEC0043F008039908013B11740D2B0BD8DFE858
:102AFC0003F00D071C070A160D0D160A071C070D0F
:102B0C005369013B53615DF8044B704753695DF8A1
:102B1C00044B01335361704743F00403E0E75369FE
:102B2C005DF8044B023B5361704753695DF8044BED
:102B3C00023353617047137C03F003030029D1D097
:102B4C0043F00403CEE700BF708C0020224BD3F877
:102B5C00D420D2E90010D3680968006810B4184278
:102B6C00946801EA04012ED0137C03F00303D9B955
:102B7C0043F008039908013B11740D2B0BD8DFE8C7
:102B8C0003F00D071C070A160D0D160A071C070D7E
:102B9C005369013B53615DF8044B704753695DF811
:102BAC00044B01335361704743F00403E0E753696E
:102BBC005DF8044B023B5361704753695DF8044B5D
:102BCC00023353617047137C03F003030029D1D007
:102BDC0043F00403CEE700BF708C0020224BD3F8E7
:102BEC00D820D2E90010D3680968006810B41842E4
:102BFC00946801EA04012ED0137C03F00303D9B9C5
:102C0C0043F008039908013B11740D2B0BD8DFE836
:102C1C0003F00D071C070A160D0D160A071C070DED
:102C2C005369013B53615DF8044B704753695DF880
:102C3C00044B01335361704743F00403E0E75369DD
:102C4C005DF8044B023B5361704753695DF8044BCC
:102C5C00023353617047137C03F003030029D1D076
:102C6C0043F00403CEE700BF708C0020224BD3F856
:102C7C00AC20D2E90010D3680968006810B418427F
:102C8C00946801EA04012ED0137C03F00303D9B934
:102C9C0043F008039908013B11740D2B0BD8DFE8A6
:102CAC0003F00D071C070A160D0D160A071C070D5D
:102CBC005369013B53615DF8044B704753695DF8F0
:102CCC00044B01335361704743F00403E0E753694D
:102CDC005DF8044B023B5361704753695DF8044B3C
:102CEC00023353617047137C03F003030029D1D0E6
:102CFC0043F00403CEE700BF708C0020224BD3F8C6
:102D0C00B020D2E90010D3680968006810B41842EA
:102D1C00946801EA04012ED0137C03F00303D9B9A3
:102D2C0043F008039908013B11740D2B0BD8DFE815
:102D3C0003F00D071C070A160D0D160A071C070DCC
:102D4C005369013B53615DF8044B704753695DF85F
:102D5C00044B01335361704743F00403E0E75369BC
:102D6C005DF8044B023B5361704753695DF8044BAB
:102D7C00023353617047137C03F003030029D1D055
:102D8C0043F00403CEE700BF708C0020224BD3F835
:102D9C00B420D2E90010D3680968006810B4184256
:102DAC00946801EA04012ED0137C03F00303D9B913
:102DBC0043F008039908013B11740D2B0BD8DFE885
:102DCC0003F00D071C070A160D0D160A071C070D3C
:102DDC005369013B53615DF8044B704753695DF8CF
:102DEC00044B01335361704743F00403E0E753692C
:102DFC005DF8044B023B5361704753695DF8044B1B
:102E0C00023353617047137C03F003030029D1D0C4
:102E1C0043F00403CEE700BF708C0020224BD3F8A4
:102E2C00B820D2E90010D3680968006810B41842C1
:102E3C00946801EA04012ED0137C03F00303D9B982
:102E4C0043F008039908013B11740D2B0BD8DFE8F4
:102E5C0003F00D071C070A160D0D160A071C070DAB
:102E6C005369013B53615DF8044B704753695DF83E
:102E7C00044B01335361704743F00403E0E753699B
:102E8C005DF8044B023B5361704753695DF8044B8A
:102E9C00023353617047137C03F003030029D1D034
:102EAC0043F00403CEE700BF708C0020224BD3F814
:102EBC00BC20D2E90010D3680968006810B418422D
:102ECC00946801EA04012ED0137C03F00303D9B9F2
:102EDC0043F008039908013B11740D2B0BD8DFE864
:102EEC0003F00D071C070A160D0D160A071C070D1B
:102EFC005369013B53615DF8044B704753695DF8AE
:102F0C00044B01335361704743F00403E0E753690A
:102F1C005DF8044B023B5361704753695DF8044BF9
:102F2C00023353617047137C03F003030029D1D0A3
:102F3C0043F00403CEE700BF708C0020224BD3F883
:102F4C00C020D2E90010D3680968006810B4184298
:102F5C00946801EA04012ED0137C03F00303D9B961
:102F6C0043F008039908013B11740D2B0BD8DFE8D3
:102F7C0003F00D071C070A160D0D160A071C070D8A
:102F8C005369013B53615DF8044B704753695DF81D
:102F9C00044B01335361704743F00403E0E753697A
:102FAC005DF8044B023B5361704753695DF8044B69
:102FBC00023353617047137C03F003030029D1D013
:102FCC0043F00403CEE700BF708C0020224BD3F8F3
:102FDC00C420D2E90010D3680968006810B4184204
:102FEC00946801EA04012ED0137C03F00303D9B9D1
:102FFC0043F008039908013B11740D2B0BD8DFE843
:10300C0003F00D071C070A160D0D160A071C070DF9
:10301C005369013B53615DF8044B704753695DF88C
:10302C00044B01335361704743F00403E0E75369E9
:10303C005DF8044B023B5361704753695DF8044BD8
:10304C00023353617047137C03F003030029D1D082
:10305C0043F00403CEE700BF708C0020224BD3F862
:10306C00C820D2E90010D3680968006810B418426F
:10307C00946801EA04012ED0137C03F00303D9B940
:10308C0043F008039908013B11740D2B0BD8DFE8B2
:10309C0003F00D071C070A160D0D160A071C070D69
:1030AC005369013B53615DF8044B704753695DF8FC
:1030BC00044B01335361704743F00403E0E7536959
:1030CC005DF8044B023B5361704753695DF8044B48
:1030DC00023353617047137C03F003030029D1D0F2
:1030EC0043F00403CEE700BF708C0020214BDA6A5A
:1030FC00D2E90010D3680968006810B418429468CB
:10310C0001EA04012ED0137C03F00303D9B943F078
:10311C0008039908013B11740D2B0BD8DFE803F061
:10312C000D071C070A160D0D160A071C070D53690F
:10313C00013B53615DF8044B704753695DF8044BD8
:10314C0001335361704743F00403E0E753695DF8C2
:10315C00044B023B5361704753695DF8044B0233D7
:10316C0053617047137C03F003030029D1D043F063
:10317C000403CEE7708C0020214B1A6BD2E90010AF
:10318C00D3680968006810B41842946801EA040115
:10319C002ED0137C03F00303D9B943F0080399082C
:1031AC00013B11740D2B0BD8DFE803F00D071C0746
:1031BC000A160D0D160A071C070D5369013B5361C6
:1031CC005DF8044B704753695DF8044B0133536150
:1031DC00704743F00403E0E753695DF8044B023B8E
:1031EC005361704753695DF8044B02335361704768
:1031FC00137C03F003030029D1D043F00403CEE782
:10320C00708C0020214B5A6BD2E90010D3680968EE
:10321C00006810B41842946801EA04012ED0137CA3
:10322C0003F00303D9B943F008039908013B117467
:10323C000D2B0BD8DFE803F00D071C070A160D0D3C
:10324C00160A071C070D5369013B53615DF8044BCB
:10325C00704753695DF8044B01335361704743F079
:10326C000403E0E753695DF8044B023B536170477C
:10327C0053695DF8044B023353617047137C03F0C0
:10328C0003030029D1D043F00403CEE7708C002057
:10329C00214B9A6BD2E90010D3680968006810B40E
:1032AC001842946801EA04012ED0137C03F0030346
:1032BC00D9B943F008039908013B11740D2B0BD8B5
:1032CC00DFE803F00D071C070A160D0D160A071C84
:1032DC00070D5369013B53615DF8044B704753690B
:1032EC005DF8044B01335361704743F00403E0E78E
:1032FC0053695DF8044B023B5361704753695DF8A9
:10330C00044B023353617047137C03F00303002911
:10331C00D1D043F00403CEE7708C0020214BDA6B44
:10332C00D2E90010D3680968006810B41842946898
:10333C0001EA04012ED0137C03F00303D9B943F046
:10334C0008039908013B11740D2B0BD8DFE803F02F
:10335C000D071C070A160D0D160A071C070D5369DD
:10336C00013B53615DF8044B704753695DF8044BA6
:10337C0001335361704743F00403E0E753695DF890
:10338C00044B023B5361704753695DF8044B0233A5
:10339C0053617047137C03F003030029D1D043F031
:1033AC000403CEE7708C0020214B1A6CD2E900107C
:1033BC00D3680968006810B41842946801EA0401E3
:1033CC002ED0137C03F00303D9B943F008039908FA
:1033DC00013B11740D2B0BD8DFE803F00D071C0714
:1033EC000A160D0D160A071C070D5369013B536194
:1033FC005DF8044B704753695DF8044B013353611E
:10340C00704743F00403E0E753695DF8044B023B5B
:10341C005361704753695DF8044B02335361704735
:10342C00137C03F003030029D1D043F00403CEE74F
:10343C00708C0020214B5A6CD2E90010D3680968BB
:10344C00006810B41842946801EA04012ED0137C71
:10345C0003F00303D9B943F008039908013B117435
:10346C000D2B0BD8DFE803F00D071C070A160D0D0A
:10347C00160A071C070D5369013B53615DF8044B99
:10348C00704753695DF8044B01335361704743F047
:10349C000403E0E753695DF8044B023B536170474A
:1034AC0053695DF8044B023353617047137C03F08E
:1034BC0003030029D1D043F00403CEE7708C002025
:1034CC00214B9A6CD2E90010D3680968006810B4DB
:1034DC001842946801EA04012ED0137C03F0030314
:1034EC00D9B943F008039908013B11740D2B0BD883
:1034FC00DFE803F00D071C070A160D0D160A071C52
:10350C00070D5369013B53615DF8044B70475369D8
:10351C005DF8044B01335361704743F00403E0E75B
:10352C0053695DF8044B023B5361704753695DF876
:10353C00044B023353617047137C03F003030029DF
:10354C00D1D043F00403CEE7708C0020214BDA6C11
:10355C00D2E90010D3680968006810B41842946866
:10356C0001EA04012ED0137C03F00303D9B943F014
:10357C0008039908013B11740D2B0BD8DFE803F0FD
:10358C000D071C070A160D0D160A071C070D5369AB
:10359C00013B53615DF8044B704753695DF8044B74
:1035AC0001335361704743F00403E0E753695DF85E
:1035BC00044B023B5361704753695DF8044B023373
:1035CC0053617047137C03F003030029D1D043F0FF
:1035DC000403CEE7708C0020214B1A6DD2E9001049
:1035EC00D3680968006810B41842946801EA0401B1
:1035FC002ED0137C03F00303D9B943F008039908C8
:10360C00013B11740D2B0BD8DFE803F00D071C07E1
:10361C000A160D0D160A071C070D5369013B536161
:10362C005DF8044B704753695DF8044B01335361EB
:10363C00704743F00403E0E753695DF8044B023B29
:10364C005361704753695DF8044B02335361704703
:10365C00137C03F003030029D1D043F00403CEE71D
:10366C00708C0020214B5A6DD2E90010D368096888
:10367C00006810B41842946801EA04012ED0137C3F
:10368C0003F00303D9B943F008039908013B117403
:10369C000D2B0BD8DFE803F00D071C070A160D0DD8
:1036AC00160A071C070D5369013B53615DF8044B67
:1036BC00704753695DF8044B01335361704743F015
:1036CC000403E0E753695DF8044B023B5361704718
:1036DC0053695DF8044B023353617047137C03F05C
:1036EC0003030029D1D043F00403CEE7708C0020F3
:1036FC00214B9A6DD2E90010D3680968006810B4A8
:10370C001842946801EA04012ED0137C03F00303E1
:10371C00D9B943F008039908013B11740D2B0BD850
:10372C00DFE803F00D071C070A160D0D160A071C1F
:10373C00070D5369013B53615DF8044B70475369A6
:10374C005DF8044B01335361704743F00403E0E729
:10375C0053695DF8044B023B5361704753695DF844
:10376C00044B023353617047137C03F003030029AD
:10377C00D1D043F00403CEE7708C0020214BDA6DDE
:10378C00D2E90010D3680968006810B41842946834
:10379C0001EA04012ED0137C03F00303D9B943F0E2
:1037AC0008039908013B11740D2B0BD8DFE803F0CB
:1037BC000D071C070A160D0D160A071C070D536979
:1037CC00013B53615DF8044B704753695DF8044B42
:1037DC0001335361704743F00403E0E753695DF82C
:1037EC00044B023B5361704753695DF8044B023341
:1037FC0053617047137C03F003030029D1D043F0CD
:10380C000403CEE7708C0020214B1A6ED2E9001015
:10381C00D3680968006810B41842946801EA04017E
:10382C002ED0137C03F00303D9B943F00803990895
:10383C00013B11740D2B0BD8DFE803F00D071C07AF
:10384C000A160D0D160A071C070D5369013B53612F
:10385C005DF8044B704753695DF8044B01335361B9
:10386C00704743F00403E0E753695DF8044B023BF7
:10387C005361704753695DF8044B023353617047D1
:10388C00137C03F003030029D1D043F00403CEE7EB
:10389C00708C0020214B5A6ED2E90010D368096855
:1038AC00006810B41842946801EA04012ED0137C0D
:1038BC0003F00303D9B943F008039908013B1174D1
:1038CC000D2B0BD8DFE803F00D071C070A160D0DA6
:1038DC00160A071C070D5369013B53615DF8044B35
:1038EC00704753695DF8044B01335361704743F0E3
:1038FC000403E0E753695DF8044B023B53617047E6
:10390C0053695DF8044B023353617047137C03F029
:10391C0003030029D1D043F00403CEE7708C0020C0
:10392C00214B9A6ED2E90010D3680968006810B474
:10393C001842946801EA04012ED0137C03F00303AF
:10394C00D9B943F008039908013B11740D2B0BD81E
:10395C00DFE803F00D071C070A160D0D160A071CED
:10396C00070D5369013B53615DF8044B7047536974
:10397C005DF8044B01335361704743F00403E0E7F7
:10398C0053695DF8044B023B5361704753695DF812
:10399C00044B023353617047137C03F0030300297B
:1039AC00D1D043F00403CEE7708C0020214BDA6EAB
:1039BC00D2E90010D3680968006810B41842946802
:1039CC0001EA04012ED0137C03F00303D9B943F0B0
:1039DC0008039908013B11740D2B0BD8DFE803F099
:1039EC000D071C070A160D0D160A071C070D536947
:1039FC00013B53615DF8044B704753695DF8044B10
:103A0C0001335361704743F00403E0E753695DF8F9
:103A1C00044B023B5361704753695DF8044B02330E
:103A2C0053617047137C03F003030029D1D043F09A
:103A3C000403CEE7708C0020214B1A6FD2E90010E2
:103A4C00D3680968006810B41842946801EA04014C
:103A5C002ED0137C03F00303D9B943F00803990863
:103A6C00013B11740D2B0BD8DFE803F00D071C077D
:103A7C000A160D0D160A071C070D5369013B5361FD
:103A8C005DF8044B704753695DF8044B0133536187
:103A9C00704743F00403E0E753695DF8044B023BC5
:103AAC005361704753695DF8044B0233536170479F
:103ABC00137C03F003030029D1D043F00403CEE7B9
:103ACC00708C0020214B5A6FD2E90010D368096822
:103ADC00006810B41842946801EA04012ED0137CDB
:103AEC0003F00303D9B943F008039908013B11749F
:103AFC000D2B0BD8DFE803F00D071C070A160D0D74
:103B0C00160A071C070D5369013B53615DF8044B02
:103B1C00704753695DF8044B01335361704743F0B0
:103B2C000403E0E753695DF8044B023B53617047B3
:103B3C0053695DF8044B023353617047137C03F0F7
:103B4C0003030029D1D043F00403CEE7708C00208E
:103B5C00214B9A6FD2E90010D3680968006810B441
:103B6C001842946801EA04012ED0137C03F003037D
:103B7C00D9B943F008039908013B11740D2B0BD8EC
:103B8C00DFE803F00D071C070A160D0D160A071CBB
:103B9C00070D5369013B53615DF8044B7047536942
:103BAC005DF8044B01335361704743F00403E0E7C5
:103BBC0053695DF8044B023B5361704753695DF8E0
:103BCC00044B023353617047137C03F00303002949
:103BDC00D1D043F00403CEE7708C0020214BDA6F78
:103BEC00D2E90010D3680968006810B418429468D0
:103BFC0001EA04012ED0137C03F00303D9B943F07E
:103C0C0008039908013B11740D2B0BD8DFE803F066
:103C1C000D071C070A160D0D160A071C070D536914
:103C2C00013B53615DF8044B704753695DF8044BDD
:103C3C0001335361704743F00403E0E753695DF8C7
:103C4C00044B023B5361704753695DF8044B0233DC
:103C5C0053617047137C03F003030029D1D043F068
:103C6C000403CEE7708C0020224BD3F88020D2E9DD
:103C7C000010D3680968006810B41842946801EA0F
:103C8C0004012ED0137C03F00303D9B943F00803CD
:103C9C009908013B11740D2B0BD8DFE803F00D07CD
:103CAC001C070A160D0D160A071C070D5369013B5C
:103CBC0053615DF8044B704753695DF8044B013355
:103CCC005361704743F00403E0E753695DF8044B1C
:103CDC00023B5361704753695DF8044B02335361E7
:103CEC007047137C03F003030029D1D043F0040385
:103CFC00CEE700BF708C0020224BD3F88420D2E991
:103D0C000010D3680968006810B41842946801EA7E
:103D1C0004012ED0137C03F00303D9B943F008033C
:103D2C009908013B11740D2B0BD8DFE803F00D073C
:103D3C001C070A160D0D160A071C070D5369013BCB
:103D4C0053615DF8044B704753695DF8044B0133C4
:103D5C005361704743F00403E0E753695DF8044B8B
:103D6C00023B5361704753695DF8044B0233536156
:103D7C007047137C03F003030029D1D043F00403F4
:103D8C00CEE700BF708C0020224BD3F88820D2E9FC
:103D9C000010D3680968006810B41842946801EAEE
:103DAC0004012ED0137C03F00303D9B943F00803AC
:103DBC009908013B11740D2B0BD8DFE803F00D07AC
:103DCC001C070A160D0D160A071C070D5369013B3B
:103DDC0053615DF8044B704753695DF8044B013334
:103DEC005361704743F00403E0E753695DF8044BFB
:103DFC00023B5361704753695DF8044B02335361C6
:103E0C007047137C03F003030029D1D043F0040363
:103E1C00CEE700BF708C0020224BD3F88C20D2E967
:103E2C000010D3680968006810B41842946801EA5D
:103E3C0004012ED0137C03F00303D9B943F008031B
:103E4C009908013B11740D2B0BD8DFE803F00D071B
:103E5C001C070A160D0D160A071C070D5369013BAA
:103E6C0053615DF8044B704753695DF8044B0133A3
:103E7C005361704743F00403E0E753695DF8044B6A
:103E8C00023B5361704753695DF8044B0233536135
:103E9C007047137C03F003030029D1D043F00403D3
:103EAC00CEE700BF708C0020224BD3F89020D2E9D3
:103EBC000010D3680968006810B41842946801EACD
:103ECC0004012ED0137C03F00303D9B943F008038B
:103EDC009908013B11740D2B0BD8DFE803F00D078B
:103EEC001C070A160D0D160A071C070D5369013B1A
:103EFC0053615DF8044B704753695DF8044B013313
:103F0C005361704743F00403E0E753695DF8044BD9
:103F1C00023B5361704753695DF8044B02335361A4
:103F2C007047137C03F003030029D1D043F0040342
:103F3C00CEE700BF708C0020224BD3F89420D2E93E
:103F4C000010D3680968006810B41842946801EA3C
:103F5C0004012ED0137C03F00303D9B943F00803FA
:103F6C009908013B11740D2B0BD8DFE803F00D07FA
:103F7C001C070A160D0D160A071C070D5369013B89
:103F8C0053615DF8044B704753695DF8044B013382
:103F9C005361704743F00403E0E753695DF8044B49
:103FAC00023B5361704753695DF8044B0233536114
:103FBC007047137C03F003030029D1D043F00403B2
:103FCC00CEE700BF708C0020224BD3F89820D2E9AA
:103FDC000010D3680968006810B41842946801EAAC
:103FEC0004012ED0137C03F00303D9B943F008036A
:103FFC009908013B11740D2B0BD8DFE803F00D076A
:10400C001C070A160D0D160A071C070D5369013BF8
:10401C0053615DF8044B704753695DF8044B0133F1
:10402C005361704743F00403E0E753695DF8044BB8
:10403C00023B5361704753695DF8044B0233536183
:10404C007047137C03F003030029D1D043F0040321
:10405C00CEE700BF708C0020224BD3F89C20D2E915
:10406C000010D3680968006810B41842946801EA1B
:10407C0004012ED0137C03F00303D9B943F00803D9
:10408C009908013B11740D2B0BD8DFE803F00D07D9
:10409C001C070A160D0D160A071C070D5369013B68
:1040AC0053615DF8044B704753695DF8044B013361
:1040BC005361704743F00403E0E753695DF8044B28
:1040CC00023B5361704753695DF8044B02335361F3
:1040DC007047137C03F003030029D1D043F0040391
:1040EC00CEE700BF708C0020224BD3F8A020D2E981
:1040FC000010D3680968006810B41842946801EA8B
:10410C0004012ED0137C03F00303D9B943F0080348
:10411C009908013B11740D2B0BD8DFE803F00D0748
:10412C001C070A160D0D160A071C070D5369013BD7
:10413C0053615DF8044B704753695DF8044B0133D0
:10414C005361704743F00403E0E753695DF8044B97
:10415C00023B5361704753695DF8044B0233536162
:10416C007047137C03F003030029D1D043F0040300
:10417C00CEE700BF708C0020224BD3F8A420D2E9EC
:10418C000010D3680968006810B41842946801EAFA
:10419C0004012ED0137C03F00303D9B943F00803B8
:1041AC009908013B11740D2B0BD8DFE803F00D07B8
:1041BC001C070A160D0D160A071C070D5369013B47
:1041CC0053615DF8044B704753695DF8044B013340
:1041DC005361704743F00403E0E753695DF8044B07
:1041EC00023B5361704753695DF8044B02335361D2
:1041FC007047137C03F003030029D1D043F0040370
:10420C00CEE700BF708C0020224BD3F8A820D2E957
:10421C000010D3680968006810B41842946801EA69
:10422C0004012ED0137C03F00303D9B943F0080327
:10423C009908013B11740D2B0BD8DFE803F00D0727
:10424C001C070A160D0D160A071C070D5369013BB6
:10425C0053615DF8044B704753695DF8044B0133AF
:10426C005361704743F00403E0E753695DF8044B76
:10427C00023B5361704753695DF8044B0233536141
:10428C007047137C03F003030029D1D043F00403DF
:10429C00CEE700BF708C002038B52DED028B069B4D
:1042AC0004460271B0EE408A8360D8B2144A0D46BF
:1042BC00079B01212260E36002F04AFD0121207B73
:1042CC0002F046FDB5EEC08AF1EE10FA09DDB0EE53
:1042DC00480A207A03F044F8B0EE480A207B03F039
:1042EC003FF8284603F02CF90021207A02F0D2FF87
:1042FC00207B002102F0CEFF2046BDEC028B38BDA6
:10430C00040800200B4610B5362800F29782DFE82F
:10431C0010F08C0282027902700267025E02550272
:10432C004C0243023A02310228021F02BF01B601BD
:10433C00AD01A4019B0192018901800177016E01FD
:10434C0065015C0153014A01410138012F0126012D
:10435C001D0113010901FF00F500EB00E100D7007E
:10436C00CD00C300B900AF00A5009B0091008700F1
:10437C007D00730069005F0055004B004100370061
:10438C00C84C0422C8493620C4F8D83002F01AFDB3
:10439C00012010BDC34C0422C4493520C4F8D430CC
:1043AC0002F010FD012010BDBE4C0422C049342087
:1043BC00C4F8D03002F006FD012010BDB94C042227
:1043CC00BC493320C4F8CC3002F0FCFC012010BDF9
:1043DC00B44C0422B8493220C4F8C83002F0F2FCC4
:1043EC00012010BDAF4C0422B4493120C4F8C430B4
:1043FC0002F0E8FC012010BDAA4C0422B049302088
:10440C00C4F8C03002F0DEFC012010BDA54C042223
:10441C00AC492F20C4F8BC3002F0D4FC012010BDF4
:10442C00A04C0422A8492E20C4F8B83002F0CAFCD3
:10443C00012010BD9B4C0422A4492D20C4F8B4309B
:10444C0002F0C0FC012010BD964C0422A0492C2087
:10445C00C4F8B03002F0B6FC012010BD914C04221F
:10446C009C492B20C4F8AC3002F0ACFC012010BDF0
:10447C008C4C042298492A20C4F8A83002F0A2FCE3
:10448C00012010BD874C042294492920C4F8A43083
:10449C0002F098FC012010BD824C04229049282087
:1044AC00C4F8A03002F08EFC012010BD7D4C04221B
:1044BC008C492720C4F89C3002F084FC012010BDEC
:1044CC00784C042288492620C4F8983002F07AFCF3
:1044DC00012010BD734C042284492520C4F894306B
:1044EC0002F070FC012010BD6E4C04228049242087
:1044FC00C4F8903002F066FC012010BD694C042217
:10450C007C492320C4F88C3002F05CFC012010BDE7
:10451C00644C042278492220C4F8883002F052FC02
:10452C00012010BD5F4C042274492120C4F8843052
:10453C0002F048FC012010BD5A4C04227049202086
:10454C00C4F8803002F03EFC012010BD554C042212
:10455C006C491F20E36702F035FC012010BD514C63
:10456C00042269491E20A36702F02CFC012010BD17
:10457C004C4C042265491D20636702F023FC01208A
:10458C0010BD484C042262491C20236702F01AFC1F
:10459C00012010BD434C04225E491B20E36602F04F
:1045AC0011FC012010BD3F4C04225B491A20A3666C
:1045BC0002F008FC012010BD3A4C04225749192086
:1045CC00636602F0FFFB012010BD364C04225449F7
:1045DC001820236602F0F6FB012010BD314C04229A
:1045EC0050491720E36502F0EDFB012010BD2D4C66
:1045FC0004224D491620A36502F0E4FB012010BDF6
:10460C00284C042249491520636502F0DBFB01208C
:10461C0010BD244C042246491420236502F0D2FB21
:10462C00012010BD1F4C042242491320E36402F008
:10463C00C9FB012010BD1B4C04223F491220A3646E
:10464C0002F0C0FB012010BD164C04223B49112086
:10465C00636402F0B7FB012010BD124C04223849F0
:10466C001020236402F0AEFB012010BD0D4C04227F
:10467C0034490F20E36302F0A5FB012010BD094C67
:10468C00042231490E20A36302F09CFB012010BDD3
:10469C00044C04222D490D20636302F093FB01208E
:1046AC0010BD00BF708C0020DD0900004D0900001A
:1046BC00BD0800002D0800005D0E0000CD0D0000AF
:1046CC003D0D0000AD0C00001D0C00008D0B00001A
:1046DC00FD0A00006D0A000009200000791F00008F
:1046EC00E91E0000591E0000C91D0000391D000004
:1046FC00A91C0000191C0000891B0000F91A0000FD
:10470C00691A0000DD19000051190000C5180000DD
:10471C0039180000AD170000211700009516000095
:10472C00091600007D150000F1140000651400004E
:10473C00D91300004D130000C11200003512000007
:10474C00A91100001D1100009110000005100000BF
:10475C003B4C04223B490C20236302F033FB012029
:10476C0010BD374C042238490B20E36202F02AFBBF
:10477C00012010BD324C042234490A20A36202F0FD
:10478C0021FB012010BD2E4C04223149092063620B
:10479C0002F018FB012010BD294C04222D490820E1
:1047AC00236202F00FFB012010BD254C04222A4984
:1047BC000720E36102F006FB012010BD204C04220F
:1047CC0026490620A36102F0FDFA012010BD1C4C05
:1047DC00042223490520636102F0F4FA012010BD84
:1047EC000422174C1F491046236102F0EBFA0120FA
:1047FC0010BD134C04221C490320E36002F0E2FAC2
:10480C00012010BD0E4C042218490220A36002F0B6
:10481C00D9FA012010BD044609480422144943600A
:10482C00012002F0CFFA204610BD054C042211499C
:10483C000020236002F0C6FA012010BD002010BD3C
:10484C00708C0020790F0000ED0E0000FD050000BB
:10485C0071050000E504000059040000CD030000C0
:10486C0041030000B502000029020000A10700006E
:10487C0015070000890600002DE9F04182B00446BE
:10488C000F4616469DF820C01D46BCF1000F01D006
:10489C0017460E460221384602F05AFA02213046DB
:1048AC0002F056FA25493B012548DFF89CC051F827
:1048BC00038001EB07132560D3F80CE001EB061322
:1048CC00C4F80C80C4F814E0DA683301C95800232A
:1048DC00A26123621B4B45681B682161ACFB033C46
:1048EC004FF4FA634FEA9C4C03FB0CFC43685B1BD4
:1048FC009C45FBD8D8F80030384609681EEA030FEF
:10490C0014BF012300230A4204F10C0118BF43F029
:10491C00020301912377FFF7F5FC0346019930461A
:10492C0084F82430FFF7EEFC94F82420034620464C
:10493C00134484F8243002B0BDE8F081C80D002087
:10494C00001000E0CC21002083DE1B432DE9F04752
:10495C004E4C8CB001210D2002F0FAF90C2104F51B
:10496C00BC7001F033FAA8B9032401210D2002F028
:10497C00B3F9962002F032F90D20002102F0ACF9C7
:10498C00962002F02BF9013CEFD14FF47A7002F033
:10499C0025F9E9E7D4F85C31002B2DDD002504F571
:1049AC00BC76142203A93046013501F075FB9DED50
:1049BC00082A9DED093A32209DED0A4AB7EEC22A2B
:1049CC00B7EEC33AB7EEC44A94ED585B94ED5A6B0C
:1049DC0094ED5C7B35EE025B36EE036B37EE047BBD
:1049EC0084ED585B84ED5A6B84ED5C7B02F0F6F839
:1049FC00D4F85C319D42D4DB07EE903A244E254D21
:104A0C0040F2EE28B8EEE77ADFF8A0903768DFF8CE
:104A1C00A0A0B7EEC77A94ED585B94ED5A6B94ED69
:104A2C005C3B85EE074B86EE075B83EE076B84EDF4
:104A3C00584B84ED5A5B84ED5C6B03F019FF2B78BB
:104A4C00B3B199F80030DB0712D53368DAF80020DF
:104A5C009B1A0E2B0CD9104C1048114B114A1249B1
:104A6C00CDE90004012009F057FF0CB0BDE8F08738
:104A7C0033682A78DB1B2AB1B3F5FA6FEBD803F055
:104A8C00F7FEDAE74345FAD9E5E700BF20840020BA
:104A9C00309700202A9800201536000009360000B7
:104AAC000536000001360000D02100202998002096
:104ABC00B897002038B5134D134C284606F028FE45
:104ACC0000210BF043FA2146104807F0D9FC21468F
:104ADC000F4807F0D5FC21460E4807F08BFF204607
:104AEC0007F0CCFA0C4808F071FB0C4806F0FCF906
:104AFC00284606F001FD0D20012102F0EDF8012001
:104B0C0038BD00BFF8960020049600203496002093
:104B1C00D4940020489700208C90002048820020DC
:104B2C0070B5C34AC34D12682B689B1AC72B2DED69
:104B3C00048B88B000F2A081BF4CC04894ED0A1BD6
:104B4C0094ED026B94ED007BBD4CB7EEC11BF7EE00
:104B5C00C60BB7EEC70B01F05DFC94F82430CDED1D
:104B6C00050A012B8DED040A8DED061ACDED071A01
:104B7C0040F2CB8172B6266A62B602F083F86368A3
:104B8C00D4ED006AC31A6060B8EEE66B07EE903A9B
:104B9C00A368A660B8EE677BF61AAA4C9FEDA04BF3
:104BAC0094F8243087EE045B07EE906A012BB8EE84
:104BBC00E77B87EE064B84EE058BB7EEC88B40F295
:104BCC00918172B6266A62B602F05CF8636894ED65
:104BDC00006AC31A6060B8EEC66B07EE903AA36821
:104BEC00A660B8EE677BF61A974C9FED8D4B94F848
:104BFC00243087EE045B07EE906A012BB8EEE77B5E
:104C0C0087EE064B84EE057BF7EEC78B40F25681A0
:104C1C0072B6266A62B602F035F863686060C31A31
:104C2C0007EE903AA368A660B8EE677BF61A9FED84
:104C3C007C6B87EE065B94ED006A07EE906A834C02
:104C4C0094F82430B8EEE77BB8EEC66B012B87EEF8
:104C5C00064B84EE059BB7EEC99B40F21B8172B6E6
:104C6C00266A62B602F00EF863686060F0EE480ADD
:104C7C00C01AA368A66007EE900AF61A9DED040A06
:104C8C00B8EE677B72489FED666B87EE065B94ED22
:104C9C00006A07EE906A6F4EB8EEE77BB8EEC66B13
:104CAC0087EE064B84EE057BF7EEC79B01F08CFD7F
:104CBC00FDEEC07B337917EE904A03B16442002CB1
:104CCC0040F38280307A002102F0E4FA2146307BF6
:104CDC0002F0E0FAF0EE680A9DED050A5E4E5F48C0
:104CEC0001F072FDFDEEC07B337917EE904A03B1F3
:104CFC006442002C40F38980307A002102F0CAFA19
:104D0C002146307B02F0C6FAF0EE490A9DED060A08
:104D1C00534E544801F058FDFDEEC07B337917EE2D
:104D2C00904A03B16442002C64DD307A002102F019
:104D3C00B1FA2146307B02F0ADFAF0EE690A9DED36
:104D4C00070A494E494801F03FFDFDEEC07B33791F
:104D5C0017EE904A03B16442002C40DD307A0021FA
:104D6C0002F098FA2146307B02F094FAB0EE480A31
:104D7C003248B0EE491AF0EE680AF0EE691A01F00A
:104D8C0057FB3B4A2B68F0EE411A1168B0EE601AE3
:104D9C001360F0EE400A5B1A8DED010A354807EE00
:104DAC00903A8DED021ACDED031AB8EE677B9FEDAC
:104DBC001E5B87EE056BB7EEC60B08B0BDEC048B23
:104DCC00BDE8704001F05CBC307B00F0C18000217C
:104DDC0002F060FA6142307A02F05CFA7AE7307BDA
:104DEC0000F0A680002102F055FA6142307A02F000
:104DFC0051FABBE7307B00F0A380002102F04AFAA5
:104E0C006142307A02F046FA97E7307B00F0A880D6
:104E1C00002102F03FFA6142307A02F03BFA73E76C
:104E2C0000000000389C8C410000000000408F40C6
:104E3C003896002030970020108C0020EC94002035
:104E4C003095002068950020A0950020D895002072
:104E5C00A88500202095002058950020D88500209A
:104E6C009095002008860020C895002038860020E8
:104E7C003C9600203089002000220023AC4C0121FC
:104E8C000D20C4E90023C4E90223C4E90A2301F07C
:104E9C0023FF52E672B62269E3681B6811686269E7
:104EAC001A40A369194200F0E780237F03F0030343
:104EBC000AB143F0040343F00803E3E072B622693D
:104ECC00E3681B68116862691A40A369194200F013
:104EDC00A780237F03F003030AB143F0040343F0DC
:104EEC000803A3E072B6E36862691B681A40236981
:104EFC001968A369194267D0237F03F003030AB131
:104F0C0043F0040343F0080364E072B6D4E90331C0
:104F1C0062691B6809681A40A369194228D0237F6B
:104F2C0003F003030AB143F0040343F0080325E044
:104F3C00214602F0AFF92146307A02F0ABF915E7C1
:104F4C00214602F0A7F92146307A02F0A3F9F4E6E3
:104F5C00214602F09FF92146307A02F09BF9B9E61E
:104F6C00214602F097F92146307A02F093F9CBE60C
:104F7C00237F03F003030AB143F004039A08013BB7
:104F8C00266A22770D2B3FF6F7AD01A252F823F0DB
:104F9C00FB2E0000F52E0000132F0000F52E000054
:104FAC00792900000D2F0000FB2E0000FB2E0000C5
:104FBC000D2F000079290000F52E0000132F0000A2
:104FCC00F52E0000FB2E0000237F03F003030AB133
:104FDC0043F004039A08013B266A22770D2B3FF617
:104FEC00F2AD01A252F823F0EF2E0000E92E0000E2
:104FFC00072F0000E92E0000C7290000012F000038
:10500C00EF2E0000EF2E0000012F0000C72900003A
:10501C00E92E0000072F0000E92E0000EF2E000003
:10502C00237F03F003030AB143F004039A08013B06
:10503C00266A22770D2B3FF6EDAD01A252F823F034
:10504C00E32E0000DD2E00002B2F0000DD2E0000D3
:10505C00152A0000252F0000E32E0000E32E00008F
:10506C00252F0000152A0000DD2E00002B2F00003C
:10507C00DD2E0000E32E0000237F03F003030AB1B2
:10508C0043F004039A08013B266A22770D2B3FF666
:10509C00E8AD01A252F823F0D72E0000D12E00006B
:1050AC001F2F0000D12E0000632A0000192F0000D2
:1050BC00D72E0000D72E0000192F0000632A000005
:1050CC00D12E00001F2F0000D12E0000D72E000083
:1050DC00013E2662C5E501362662C2E5013E266226
:1050EC0098E50136266295E5013E26626BE50136B0
:1050FC00266268E5013E26623EE5013626623BE506
:10510C00023E26625FE5023626625CE5023E2662BE
:10511C0032E5023626622FE5023E2662A1E5023612
:10512C0026629EE5023E266274E50236266271E531
:10513C00108C00200000000010B5ADF5816D6A4C9C
:10514C006A49684601F02CFA4FF432726946684895
:10515C0001F0C2FE1422B2A904F5BC7000F09CFF51
:10516C009DEDB74A9DEDB86AB7EEC44A9DEDB97A8C
:10517C00B7EEC66AB7EEC77A94ED582B94ED5A3B4E
:10518C0094ED5C5B34EE424B36EE436B37EE457B75
:10519C009FED512B84ED224B84ED246BB4EEC24B6E
:1051AC0084ED267BF1EE10FA07DD9FED4D5BB4EE3E
:1051BC00C54BF1EE10FA00F18A809FED475BB4EE1F
:1051CC00C56BF1EE10FA06DD9FED455BB4EEC56BD9
:1051DC00F1EE10FA76D49FED406BB4EEC67BF1EE97
:1051EC0010FA0ADD9FED3E6BB4EEC67BF1EE10FAC1
:1051FC0003D500220023C4E9262394ED567AB2A9E4
:10520C0008223C48B7EEC77A84ED287B84ED307BCE
:10521C0084ED387B00F040FF94ED527ADDEDB97AE5
:10522C004FF4A0729DEDB74AB2A89DEDB85A27EE87
:10523C00044A94ED556A27EE055A2F4927EE277A32
:10524C00B7EEC66AB7EEC44AB7EEC55AB7EEC77A20
:10525C0084ED406B84ED3A4B84ED486B84ED3C5B04
:10526C0084ED3E7B84ED506B244C01F035FEB2A9ED
:10527C004FF4A072204601F02FFE214A2148D2E9BA
:10528C00003100684FF47A72C0184FF0000341F1FE
:10529C00000114F02BF91C490346206001FB02F2BB
:1052AC0021461A486260124CC4E90032002207F011
:1052BC0041F90022214616480DF5816DBDE81040DC
:1052CC0007F038B900220023C4E9242383E7002225
:1052DC000023C4E9222370E77B14AE47E17A84BF34
:1052EC007B14AE47E17A843F208400203089002073
:1052FC00688600209885002028840020E082002009
:10530C00088C00203097002040420F00D4940020DD
:10531C003496002030B108B5FFF702FCBDE8084018
:10532C00FFF70ABF704700BF08B501210D2001F03F
:10533C00D3FC962001F052FC00210D2001F0CCFC96
:10534C00962001F04BFC01210D2001F0C5FC9620AC
:10535C0001F044FC00210D2001F0BEFC962001F070
:10536C003DFC4FF47A7001F039FCDEE700000000E0
:10537C0030B5ABB0404C24A808F082FE0DF1900C77
:10538C00BCE80F000FC40022DCF8001023463B4899
:10539C0043F81019114606F065F8002866D1374B12
:1053AC00374A3849384806F061F900285ED105F0D3
:1053BC00B9F8364B02463449354806F023FA002832
:1053CC0054D10BF06DFB334B02462F49324806F09B
:1053DC0019FA00284AD103F079FB304B02462A49CE
:1053EC002F4806F049FA002840D12E482349009056
:1053FC002D481FA3D3E9002306F078FA002835D1F5
:10540C0002A805F0E9FC882202A9284801F064FDF5
:10541C00A4F1100302221949244805F0E9FC0446C2
:10542C0020BB234B234A1E492048009405F090FDD5
:10543C00E0B91D491D4805F0C9FDB8B91E4B0A203D
:10544C001D680AF071FD88B90AF052FD451B0A4629
:10545C001A4C4FF00D004FF0010162F10002C4E94B
:10546C00005201F039FC01202BB030BDFFF75CFF7E
:10547C00002D31010000000068900020F8960020FB
:10548C00AC160020CC06002004960020E00600207C
:10549C0034960020F0060020D4940020FC06002056
:1054AC0048970020153100008C9000204882002085
:1054BC00A9010000108C002030970020088C0020DF
:1054CC0070B53B4D2C78032C07D8DFE804F02C2664
:1054DC000702FFF7EFFA00232B7070BD354ED6E9AB
:1054EC000023B3F1FF3F08BFB2F1FF3F55D004F0EA
:1054FC00E7FFD6E90023801A61EB0301C92871F19B
:10550C00000138DA2B78022BE7D12B4826A3D3E9FC
:10551C000023BDE8704005F073BFFFF729FF28B3E7
:10552C0002232B7070BD254CD4E90023B3F1FF3F4F
:10553C0008BFB2F1FF3F2BD004F0C2FFD4E9002327
:10554C00801A61EB030140F2F513984271F10001EE
:10555C00C3DB0121642009F0F5F9B0FA80F04009B1
:10556C00287004F0ADFFC4E9000170BD2870BDE8DF
:10557C007040FFF79FBA0121642009F0E3F900287D
:10558C0018BF03242C7004F09BFFC6E90001B9E797
:10559C0004F096FFC4E90001CEE704F091FFC6E9E0
:1055AC000001A4E7AFF3008000E1F5050000000066
:1055BC0025980020A0200020488200209820002060
:1055CC00F0B500254FF470630C220B216C48282792
:1055DC006C4C2DED068B89B0DFED6B9A9FED6B9AC1
:1055EC00009504AEFFF748F900954FF47063102254
:1055FC0011216748FFF740F900954FF470630A22B8
:10560C0009216448FFF738F900954FF470630F22B5
:10561C000E216148FFF730F9042203219FED5F0A48
:10562C0001924FF0FF332A4600915D480A218DED1F
:10563C00030AFEF731FE252224219DED030A4FF0CB
:10564C00FF3301922A4600910A215648FEF724FEA8
:10565C00062205219DED030A01924FF0FF332A46E5
:10566C00009151480A21FEF717FE17211622DFED93
:10567C004F8A9FED4F8A4FF0FF339DED030A4D4843
:10568C009FED4DAACDE900212A460A21FEF704FE22
:10569C00F0EE691AB0EE491A4848F0EE680AB0EE1E
:1056AC00480AB6EE002A01F081F8F0EE691AB0EE65
:1056BC00491A4348F0EE680AB0EE480AB6EE002AE2
:1056CC0001F074F8F0EE691AB0EE491A3D48F0EEAC
:1056DC00680AB0EE480AB6EE002A01F067F8F0EE60
:1056EC00691AB0EE491A3848F0EE680AB0EE480A6A
:1056FC00B6EE002A01F05AF8F3EE080AB0EE4A2A88
:10570C009FED321AF0EE4A1A9FED310A294640F20B
:10571C002622304804F1100500F062FD2E4800F0FE
:10572C0013FF2E4A2E4B304600922E4AC4F85431A9
:10573C002260C4F858312C4A2C4BC4F84821C4F8C8
:10574C00503184ED53AAC4F85C7195E80E0004F056
:10575C008DFE274B96E8070085E8070025483A465A
:10576C003721206004F5BC7000F018FB224A234955
:10577C00204609B0BDEC068BBDE8F04003F0A0B9A3
:10578C003095002020840020CDCC4C3F9A99193FB5
:10579C0068950020A0950020D895002000409C46DC
:1057AC00209500205895002090950020000048433B
:1057BC00000048C3C8950020CDCCCC3DA885002066
:1057CC00D885002008860020388600200000BC41C7
:1057DC009A99593FEC94002030890020C006002093
:1057EC00ACC52737AC070020C3F51C41BD37863547
:1057FC0060240020980700209C270020290100002D
:10580C000120704701207047D0F88C0203685B6858
:10581C00184700BFD0F88C02836001F02DB800BF90
:10582C000020704790F8A32090F8A200101A70473F
:10583C0090F8A23090F8A3209A4205D95A1C034440
:10584C0080F8A220987E70474FF0FF30704700BF61
:10585C0090F8A23090F8A3209A4202D91844807E86
:10586C0070474FF0FF307047704700BF0346B0F8E9
:10587C00300178B193F82F21882A03D90122002016
:10588C005A60704702F1010C01201A4483F82FC1B1
:10589C0082F8A510704700BF38B5B0F830410CB98C
:1058AC00204638BD90F82F310546C3F18904A24239
:1058BC000DD8144605F1A5002246184401F00CFB46
:1058CC0095F82F312046234485F82F3138BD01221D
:1058DC004260EFE72DE9F04FD0F814A01524017EBB
:1058EC008146437E83B00AEB0111384A0AEB03135D
:1058FC00374F097A93F8283002EB01150901E86853
:10590C0052F8018002EB0311D5F804B01B01CE68EC
:10591C00D558CBF80040C8F88400D8F804304A6851
:10592C0003432C490192C8F804301460C5F8846014
:10593C006B6833436B60284B4C683A68A3FB0232AC
:10594C00920C02EB820252004B681B1B9A42FBD852
:10595C004FF0090C1F4ADFF880E0D8F808300342FA
:10596C0002D0AB6833422FD1C5F8886054683968CF
:10597C00AEFB0131890C01EB810153681B1B994271
:10598C00FBD8C5F8846054683968AEFB0131890CCA
:10599C0001EB810153681B1B9942FBD8BCF1010C34
:1059AC00DBD1604699F81830019A0AEB0313DB68D7
:1059BC00CBF8003099F819300AEB031ADAF82C30CE
:1059CC00136003B0BDE8F08F0120EBE7C80D002099
:1059DC00CC210020001000E083DE1B430E4A10B5E2
:1059EC001168046905E0DB0107D413685B1A102BFE
:1059FC0008D8636913F0007FF5D14FF4FE43012002
:105A0C00636110BDFFF766FF0028FAD04FF4FE4328
:105A1C0001206361F5E700BF309700202DE9F047C6
:105A2C0090F82FA10569BAF1000F4FD08146884636
:105A3C00FFF7D4FF002849D0374E0024376818E010
:105A4C006B69190551D4DA0455D4580559D4990405
:105A5C0041D43268D21B322A3DD8544507D9EA6D5D
:105A6C00520704D19B0555D4B8F1000F52D002F067
:105A7C00FFFE5445E4D8EA6D500702F00703DFD46B
:105A8C0013E099F8A5200133022442F48062042B20
:105A9C002A661ED08A4503F1010309EB01020ED9D7
:105AAC0092F8A520042B2A66CAD00121002CE8D03C
:105ABC002146013301348A4509EB0102F0D8B8F1D3
:105ACC00000FBDD04FF400732B66B9E70420BDE87E
:105ADC00F0870124B4E72B694FF40072042043F4DF
:105AEC0040732B612A66BDE8F0872B69042043F4D0
:105AFC0040732B61EBE72B69052043F440732B615A
:105B0C00E5E72B694FF40072022043F440732B61DC
:105B1C002A66DCE70020DAE7309700202DE9F84F01
:105B2C0083460C4615461F46D0F810A0FFF756FFCB
:105B3C00002800F09E806100012DDFF83C8140F2CE
:105B4C000146CBB24FF0000138BF0125D8F80090C8
:105B5C000C461E43ABF8A21020E09BF8A330872B19
:105B6C003FD9DAF8142010055AD412F4105F70D112
:105B7C00D8F80030A3EB0903322B6AD89BF8A3307A
:105B8C00AB4209D3022C07D9DAF85C30590703D1A0
:105B9C0093054BD4002F49D002F06AFE022CDCD8BE
:105BAC00DAF85C3003F007025B07D6D4681E224497
:105BBC0040F480704CB9CAF860600134131B032B9D
:105BCC00CBD8022CC9D8002CF5D0012C37D01FB162
:105BDC004FF40073CAF860309BF8A3300324872B72
:105BEC00BFD8DAF85C2012F4E02FC2F3024CB8D024
:105BFC00591C9C441933C9B25FFA8CFC5BFA83F3D1
:105C0C00DAF870004A1C61458BF8A310D1B203F886
:105C1C00010FA6D08929F3D1DAF814201005A4D5E8
:105C2C00DAF8103043F44073CAF81030DAF85C300C
:105C3C0013F4E02F06D19BF8A300BDE8F88FCAF847
:105C4C006000BAE7DAF8103043F40073CAF8103089
:105C5C00F1E7DAF810304FF4007243F44073CAF8ED
:105C6C001030CAF86020DAF85C3013F4E02FE2D080
:105C7C00E8E70420BDE8F88F30970020F8B50669F6
:105C8C000446D6F8145115F4706301D0C6F81431DB
:105C9C00A8070BD5D6F8702111043DD5002301219E
:105CAC0084F8A230234484F8A3109A76EA0710D51E
:105CBC0094F83071F7B194F82E7194F82F31BB42EF
:105CCC0026D97B1C274484F82E3197F8A530C6F8CA
:105CDC006031AB050DD594F8A30018B1D4F83C3164
:105CEC0003B198470023A4F8A230A4F82E3184F80D
:105CFC003031F8BDD4F8383103B19847002384F81B
:105D0C002E31012384F8303194F82F31BB42D8D88E
:105D1C000023C6F86031DCE794F8A330872BC5D894
:105D2C00591CC9B2BEE700BF0148FFF7A7BF00BFAF
:105D3C00E02100200148FFF7A1BF00BF2023002075
:105D4C000148FFF79BBF00BF60240020704700BFD5
:105D5C00704700BF38B50C4620220021054604F1DF
:105D6C00080014F06BFD0B220649204613F08CFE44
:105D7C0001230321044AE360AB6861612262236161
:105D8C0038BD00BF4C0700200AD7233C10B5044691
:105D9C00102101F03DF9204610BD00BF70B504463E
:105DAC001546094E002282B08160066010206260A8
:105DBC00019301F02BF92946019A054611F0ACFF2D
:105DCC002046656002B070BDC00700202DE9F0418F
:105DDC000F46064684B000214068552511F0A6FFF9
:105DEC0004E000F0FBFE013D00F0A2800121706890
:105DFC0011F09CFF04460A20002CF2D003AB4FF0AC
:105E0C00000801251946CDF8048000952A467068D3
:105E1C008DF80C8012F012F89DF80C30A02B12D0DB
:105E2C004FF47A7000F0DAFE03ABCDF804802A460A
:105E3C001946009570688DF80C8011F0FFFF9DF8E5
:105E4C000C30A02B74D100253D23022203A93573FD
:105E5C004FF00108ADF80C300123CDE90055706806
:105E6C0011F080FF1E2000F0B9FE42F23F03022227
:105E7C0003A9ADF80C300123CDE90055706811F081
:105E8C0071FF1E2000F0AAFE01E000F0A7FE03AB9C
:105E9C00706801228DF80C501946CDE9008511F07F
:105EAC00CDFF9DF80C300A20A02BEED1322000F053
:105EBC0095FE3E2303A90222ADF80C300123CDE957
:105ECC000055706811F04EFF0A2000F087FE072382
:105EDC0003A90222ADF80C300123CDE900557068FE
:105EEC0011F040FF3F2303A90222ADF80C3001232F
:105EFC00CDE90055706811F035FF0A2000F06EFEF8
:105F0C003D2203A90123706837738DF80C200222FF
:105F1C008DF80D70CDE9005511F024FF1E2000F016
:105F2C005DFE142000F05AFE204604B0BDE8F0815E
:105F3C000024204604B0BDE8F08100BF0000000042
:105F4C0030B587B01546002304468DF80C20062288
:105F5C00083D036043608360C36003614361049345
:105F6C00486803A90193ADF8143004AB00920122E8
:105F7C0011F064FFBDF91000BDF91210BDF9142029
:105F8C00262D2FD8DFE805F0142E2E2E2E2E312E96
:105F9C002E2E2E2E312E2E2E2E2E312E2E2E2E2E0F
:105FAC002E2E2E2E2E2E2E2E142E2E2E2E2E140067
:105FBC0007EE900AB8EEE75B07EE901AB8EEE76BC7
:105FCC0007EE902A9FED184BB8EEE77B85EE043B6D
:105FDC0086EE045B87EE046B84ED003B84ED025B84
:105FEC0084ED046B204607B030BD07EE900A2046C6
:105FFC00B8EEE75B07EE901AB8EEE76B07EE902A67
:10600C009FED0B4BB8EEE77B25EE045B26EE046BA5
:10601C0027EE047B84ED005B84ED026B84ED047B46
:10602C0007B030BDAFF30080000000000000594005
:10603C00000000000000B03F70B50C4686B005466D
:10604C0020220021201D14F0F9FB2422104B0326E2
:10605C0022606846AA6829461B6862601A22A660FC
:10606C002361FFF76DFF01209DED005B9DED026B41
:10607C009DED047BB7EEC55BB7EEC66BB7EEC77B89
:10608C0084ED055A84ED066A84ED077A06B070BD7E
:10609C00309700200000000070B50C468CB01546FF
:1060AC00064620220021201D14F0C8FB24224A4B56
:1060BC00282D22601B68B26823614FF000036260D8
:1060CC00CDE90033CDE90233CDE9043318D0083DD6
:1060DC00262D36D8DFE805F03D35353535354235DA
:1060EC0035353535573535353535753535353535F2
:1060FC003535353535353535353535353535380076
:10610C000A232A463146A36006AD06A8FFF718FFFE
:10611C006E460FCD0FC69DED005B9DED026B95E8B5
:10612C00030086E803009DED047BB7EEC55BB7EE7C
:10613C00C66BB7EEC77B84ED055A84ED066A84ED19
:10614C00077A01200CB070BD092331462E22A360C2
:10615C00DAE7012331460822A360D5E7022306AD16
:10616C0031460E2206A8A360FFF7EAFEEC460FCDDF
:10617C00ACE80F0095E803009DED005B9DED026B14
:10618C008CE80300CFE7042306AD3146142206A8A1
:10619C00A360FFF7D5FE6E460FCD0FC695E8030042
:1061AC009FED0B4B9DED005B9DED026B86E80300B4
:1061BC009DED047B25EE045B26EE046B27EE047B41
:1061CC00B3E7032331461A22A3609DE7AFF30080A7
:1061DC00000000A046DF913F309700200000000037
:1061EC009FED196BB7EEE17A01700139B5EEC01A6B
:1061FC004FF07A5380ED022A27EE067B012906EE3A
:10620C00902A836194BF04220222F1EE10FA4261BB
:10621C00B7EEC77B80ED047A10D4B4EE601AF1EEC1
:10622C0010FA30FE811AC1EE207AF8EEE66A67EEBB
:10623C00A67A27EE800A80ED010A70479FED041ABA
:10624C00F1E700BFAFF30080182D4454FB21094047
:10625C00000000000000000090ED027AB6EE005B3A
:10626C00B7EEC12ADFED6A6AB7EEC77A90ED046A21
:10627C0020EE260AD0ED013A60EEA64A88B027EE51
:10628C00057B80EE064A27EE027B84EE865AB7EE3B
:10629C00C77B67EE267AF0EEC45A87EE867AF0EE6C
:1062AC00C56A76EEA57AF4EE673AF1EE10FAF0EEE6
:1062BC00C76A76EEA56A05D8B5EE401AF1EE10FA6B
:1062CC0000F08380F5EE400AF1EE10FA04D1F4EE02
:1062DC00663AF1EE10FA7FD9B7EEC44AD0ED067AE1
:1062EC00B7EEC55A27EE277AB1EE633A9FED3E1B07
:1062FC009FED3F6BB7EEC77A24EE011BB0EE410B5E
:10630C00A5EE060B30EE070BB7EEC00BB4EEC30ACE
:10631C00F1EE10FA56D4F4EE403AF1EE10FA48BF12
:10632C00B0EE630A9FED346B9FED312B25EE066BBF
:10633C00A4EE026B37EE066BF7EEC60BF4EEC30A57
:10634C00F1EE10FA3BD4F4EE603AF1EE10FA48BFDD
:10635C00F0EE630A9FED2A6B95EE061B37EE011BE0
:10636C00B7EEC11BB4EEC31AF1EE10FA24D4F4EE5E
:10637C00413AF1EE10FA48BFB0EE631A9FED222BB2
:10638C009FED1F6B25EE025BA4EE065B37EE057BE3
:10639C00B7EEC77BB4EEC37AF1EE10FA08D4F4EE84
:1063AC00C73AF1EE10FA54BFB0EE473AB0EE633A8A
:1063BC00F0EE431A08B07047B0EE431ADEE7F0EE89
:1063CC00430AC7E7B0EE430AACE7C3EEA76A24EE74
:1063DC00264A25EE265A7FE7C3EEA67A24EE274AF4
:1063EC0027EE277A78E700BFCC3B7F669EA0E63F7E
:1063FC00CD3B7F669EA0E63FCC3B7F669EA0E6BF72
:10640C00CE3B7F669EA0E6BFCB3B7F669EA0E63F61
:10641C0000007042037884B0DFED047A012B98BF42
:10642C00F0EE670A04B0FFF717BF00BF00000000D2
:10643C0003782DED068B88B0002B57D0B7EEC12A10
:10644C00B7EEE18A9FED307B9FED315B28EE074B79
:10645C0022EE055B22EE072B9FED2F7B28EE078BA0
:10646C00D0ED056ADFED36AAB7EEC03A30EEC00AC1
:10647C00B8EEE6AAB7EEE07A30EE411A9FED289B13
:10648C0071EE211A90ED061A81EE8A6AD0ED041A8B
:10649C00C6EE2A6A66EEA16A86EE811A9FED1C6B27
:1064AC0027EE066B27EE097BA3EE096B36EE026B2B
:1064BC0036EE086BB7EEC66BC6EE0A6AC6EEAA0AD3
:1064CC009FED196BA3EE067B60EEA10A37EE057B00
:1064DC0037EE047BB7EEC77BC7EE0A7A87EEAA0AC3
:1064EC0020EE210A08B0BDEC068B70479FED102BF7
:1064FC00DFED141A9FED108BB0EE611AB0EE424B2B
:10650C00B0EE425BACE700BFCE3B7F669EA0E6BF21
:10651C00CC3B7F669EA0E6BFCB3B7F669EA0E63F52
:10652C00CD3B7F669EA0E63FCC3B7F669EA0E63FC0
:10653C0000000000000000800000000000000000CF
:10654C000000704200000000F0B587B0002300F19D
:10655C000807114A02AD04460092C0F8C83204F193
:10656C001406C0F8CC32C0F8D032284697E80E009A
:10657C0003F07CFF094B009395E8070087E80700C0
:10658C00284696E80E0003F071FF95E8070086E8B0
:10659C000700204607B0F0BD540700205C07002020
:1065AC0010B504464FF4327200F096FC204610BD34
:1065BC0010B5B7EEC11A0C462DED0A8BB6EE00AB3A
:1065CC00B0EE608AB0EE409A21EE0ABBB7EEC88AF4
:1065DC00B7EEC99A28EE0A8B29EE0A9BB0EE4B0B4C
:1065EC0011F05AFCB0EE407BB0EE4B0BF7EEC7BB94
:1065FC0012F0CEF8B7EEC0BBB0EE480B11F04CFC6D
:10660C00B0EE40CBB0EE480B12F0C2F8B7EEC08B38
:10661C00B0EE490B11F040FCB0EE407BB0EE490BF4
:10662C00B7EECCCBF7EEC78B12F0B2F86BEE087A64
:10663C00F7EEC06B2BEE888A2BEE8C7A67EEA65A9F
:10664C0028EE286A68EEE77A2BEE0CBA26EEC88A9A
:10665C00E7EE285AE7EE267AB0EE467AABEE288AB9
:10666C00ABEE267AC4ED005AC4ED017A84ED038AB0
:10667C00BDEC0A8B84ED027A10BD00BF0000000057
:10668C0010B52DED088B90EDB48A84B0B0EE409A25
:10669C000446B0EE480AF0EE60AAF0EE418AF0EE45
:1066AC00619A11F079FFB0EE40BAB0EE480A11F0E1
:1066BC006FFE68EEC07A6BEE286A94EDB37AA9EEA1
:1066CC00898A94EDB2AAEBEE2A7ADFED370AE0EE76
:1066DC002A6A69462046B0EE600AB0EE481A84ED8C
:1066EC00B48AA7EE89AAA6EE897A84EDB2AAB0EE96
:1066FC00478A84EDB37AFFF75BFFB7EECA1A9DEDBC
:10670C00012AB7EEEA6AB7EEC87A9DED023A9DED22
:10671C00034AB7EEC22A9DED005AB7EEC33AB7EE64
:10672C00C44A0022B7EEC55A00231BA1D1E90001CF
:10673C0084ED081B84ED0A7BB7EEE81AB7EEE97A14
:10674C00C4E91601C4E92401C4E95C0114A1D1E92E
:10675C000001C4E90C2384ED0E2B84ED103B84ED79
:10676C00124B84ED145B84ED5E6B84ED601BC4E90D
:10677C006223C4E96423C4E9662384ED687BC4E91D
:10678C006A01C4E97801C4E9B00104B0BDEC088B1E
:10679C0010BD00BFAFF30080FCA9F1D24D62503F99
:1067AC002D431CEBE2361A3F0000000080ED000A7E
:1067BC00C0ED010A80ED021AC0ED031A80ED042A27
:1067CC00704700BF0000000070EE600AB5EE400A92
:1067DC0090ED065BB7EEE04AF1EE10FA90ED0A6B25
:1067EC0034EE055B34EE466B80ED065B80ED086B9A
:1067FC000ED1F5EE400AF1EE10FA09D19FED1A7B9D
:10680C00B0EE476BB0EE475B80ED067B80ED087B0E
:10681C0090ED037A90ED022AB7EEC77A90ED043A28
:10682C00B7EEC22A90ED000AB7EEC33A27EE057B0D
:10683C00B7EEC00A80ED0A4BA2EE047BA3EE067BFA
:10684C00B4EEC70BF1EE10FA0ADC90ED010AB7EECC
:10685C00C00AB4EEC70BF1EE10FA58BFB0EE470BFE
:10686C00704700BFAFF30080000000000000000084
:10687C0001F05ABF01F0F2BE2DE9F047884651B342
:10688C00914662B382460027164C174E25680BE0E2
:10689C0001F04AFF002810DA01F0EAFF2368DAF869
:1068AC0008205B1B934210D2DAF800305B69B342CC
:1068BC00EED0504698470028EEDB013708F8010B64
:1068CC00B945E3D13846BDE8F087012338468AF84C
:1068DC000C30BDE8F0870F463846BDE8F087174608
:1068EC00F0E700BF3097002071460000A249A34B8F
:1068FC0088422DE9F047A24C5E699A69D4F80C8065
:10690C001BD9A04B984240F20281C31A9E491B0A24
:10691C00A1FB031340F22761DB0903EB830303EBB9
:10692C00830303F2E2438B4228BF0B46A3F548775F
:10693C00964BA3FB0737FF0804E0954FB8428CBF7A
:10694C000E2706278D4908F01F09D1F88030B9456C
:10695C0043F0C003C1F880300CD228F01F08A1F519
:10696C00F82148EA0708C1F80C800B68002BFCDA08
:10697C0008F01F0916F0007324D186490C6986496A
:10698C00A14300F0EA8082F4805134464FF48055E4
:10699C0014F0605F04D026F060561E43774B5E61A6
:1069AC0011F4405F07D022F4405274492A438A61A3
:1069BC008B6C1A07FCD446F00076704A5661936CC7
:1069CC009B06FCD4754CA04200F2CE804FF0010C1B
:1069DC000146634603FB011203F1010E0CF10105A4
:1069EC00A24218D8BEF1080F4FF0010340F08D8081
:1069FC00BCF1040F00F291800A18A24200F2A480AC
:106A0C0005FB00F1AC4603F1010E03FB01120CF186
:106A1C000105A242E6D90CF1FF318C0286EA8121F4
:106A2C005F4810445F4A90427FD9DFF8A4A16C22E2
:106A3C005D48584DB0FBFEF0D5F800E0B0FBFCF023
:106A4C00DFF890C10EEA0C0CD44509D042F4005288
:106A5C004FF4805CC5F800C02A602A68002AFCDA72
:106A6C00464A156905F007059D4203D01361936CE6
:106A7C00DD03FCD411F4E05F09D026F4E05604F4F5
:106A8C00E0543E4A26435661936C9907FCD447491F
:106A9C00474A014491423CD8464BC909A3FB0131FA
:106AAC00090B4B1E1B0286EA030212F4407F06D030
:106ABC0026F4407603F44073304A334353612F4A33
:106ACC00536923F000735361936C9B06FCD43A4BCF
:106ADC004F45A3FB00234FF0FF324FEA9343B0FB2B
:106AEC00F1F1B2FBF3F3354A1060354A1160354AC7
:106AFC00136008D228F01F08214A48EA0707D7601C
:106B0C001368002BFCDABDE8F087734662E71227A6
:106B1C0018E74FF440730421C5E70CF1FF3120480E
:106B2C0007238C02104486EA8121274ADFF8A8A0AB
:106B3C00A2FB0020020D2548362A38BF362202FB64
:106B4C0000F042EA0A0A74E74FEA8C24002386EA32
:106B5C008C214FF0010EAC4662E71D4686F0C05406
:106B6C0011464FF0C05313E700244FF0010C0246BE
:106B7C0031462346E64653E700A4781F00C00F4079
:106B8C00000008400046C32323B24C001F85EB5184
:106B9C0000366E0100800D4040300080FFB19F2612
:106BAC00808D5B00FF7EF64D00643F4D7FD1F00879
:106BBC007F17B42C9F10E50083DE1B43CC210020F3
:106BCC00C8210020B4960020819F5E16001BB700E0
:106BDC006C2000807F3001800020008000B970475D
:106BEC002DE9F84F01218146214C224D224E54E8CB
:106BFC00003F2A68306844E80013002BF7D11F4986
:106C0C004B684FF47A7BDFF878A01B1A01270BFB3B
:106C1C0002F8DAF80020A3FB02325A4594BF9044E4
:106C2C00D84454E8003F2A68306844E80073002BCD
:106C3C00F7D14B68DAF800C01B1A0BFB02F2A3FB6E
