:0200000460009A
:100000004643464200000156000000000103030081
:1000100000000000000000000000000000000000E0
:1000200000000000000000000000000000000000D0
:1000300000000000000000000000000000000000C0
:1000400000000000010408000000000000000000A3
:100050000000800000000000000000000000000020
:100060000000000000000000000000000000000090
:100070000000000000000000000000000000000080
:10008000EB04180A063204260000000000000000FD
:10009000050404240000000000000000000000002F
:1000A0000000000000000000000000000000000050
:1000B0000604000000000000000000000000000036
:1000C0000000000000000000000000000000000030
:1000D00020041808000000000000000000000000DC
:1000E0000000000000000000000000000000000010
:1000F0000000000000000000000000000000000000
:10010000D8041808000000000000000000000000F3
:100110000204180804200000000000000000000095
:1001200000000000000000000000000000000000CF
:10013000600400000000000000000000000000005B
:1001400000000000000000000000000000000000AF
:10015000000000000000000000000000000000009F
:10016000000000000000000000000000000000008F
:10017000000000000000000000000000000000007F
:10018000000000000000000000000000000000006F
:10019000000000000000000000000000000000005F
:1001A000000000000000000000000000000000004F
:1001B000000000000000000000000000000000003F
:1001C000000100000010000001000000000000001D
:1001D000000001000000000000000000000000001E
:1001E000000000000000000000000000000000000F
:1001F00000000000000000000000000000000000FF
:10020000FFFFFFFFFFFFFFFFFFFFFFFFFFFFFFFFFE
:10021000FFFFFFFFFFFFFFFFFFFFFFFFFFFFFFFFEE
:10100000D10020434D1600600000000000000000E9
:10101000201000600010006000440260000000002A
:10102000000000600050020000000000FFFFFFFF12
:10103000FFFFFFFFFFFFFFFFFFFFFFFFFFFFFFFFC0
:10104000FFFFFFFFFFFFFFFFFFFFFFFFFFFFFFFFB0
:10105000FFFFFFFFFFFFFFFFFFFFFFFFFFFFFFFFA0
:10106000FFFFFFFFFFFFFFFFFFFFFFFFFFFFFFFF90
:10140000814205D051F8043B40F8043B8242F9D8B0
:10141000704700BF044A05494FF0000342F8043BFF
:101420009142FBD8704700BFC03A0020809800204E
:101430002DE98848BFF34F8F00BF00BF00BF00BF3A
:1014400000F0D6F9684B0822C3F8542100BF00BF52
:1014500000BF00BF00BF00BF00BF00BF00BF00BF94
:1014600000BF00BF00BF00BF00BF00BF5F4A6049B0
:101470006048FFF7C5FF604A60496148FFF7C0FF59
:10148000604CFFF7C7FF4FF470004FF0E0210023DE
:101490005D4AC1F8880D44F823200133B02BFAD1FE
:1014A0005A4B80215A4A03F8011B9342FBD14FF05B
:1014B000E0254D4E4FF08039DFF884B1DFF884A18C
:1014C0004FF0FF31C5F8084D0027C6F80491C6F863
:1014D00000B1C6F8F490C6F8F0A0D5F8243DDFF8C6
:1014E000688143F4E0234B4AC5F8243DD8F81C300A
:1014F00023F07F0343F04003C8F81C30D8F82430B1
:1015000023F07F0343F04003C8F824309166D1668E
:101510001167516700F074F93F4B4049A363404B9A
:10152000E36363236B610323AF612B613D4BC5F81C
:10153000203DD5F8FC3D43F08073C5F8FC3D3A4BA7
:101540001A6842F001021A605B680B6000F0A2FBAF
:10155000C6F804913548C6F800B1C6F8F490C6F84C
:10156000F0A000F031FDD8F86C10314B314A41F455
:101570004051C8F86C101F60C3F80871C3F81871A7
:10158000C3F82871C3F83871936BDB0708D442F6AF
:101590001563294951651365936B43F00103936308
:1015A000244A264C936843F00113936000F0B0F98D
:1015B00000F0D4FC00F01CFD00F09AFB00F01AF9DA
:1015C0002368132BFCD900F02BFC2368B3F5967F1E
:1015D000FBD300F013F900F00FF900F0F1FC00F07C
:1015E000FFFC30BFFDE700BF00800D4078E5010043
:1015F0000C22006000000000C03A00208807026052
:1016000000000020003800207951000000E400E0D4
:10161000A0E400E000C00A40A96500004497002053
:10162000AD65000000002020001000E00046C3234C
:101630000040084000400D400000C0564897002080
:101640001B1018200C0D111300C00F40054B4FF458
:101650002A01054A05485A641864054A9963954663
:10166000FFF7E6FE00C00A40FFAAAAAA0700200072
:101670000000062043690A4A03EB011010B4037A04
:10168000084C02EB0313D3E901321460C2681A60FC
:1016900003690BB142691A605DF8044B704700BFE3
:1016A000C00D002061F801004369027E03EB0212C5
:1016B00092F808C08C451CD01A7AFF2A19D09142A2
:1016C00010B5044616D01A7EFF2A06D00121D3E9B0
:1016D000002312681A4201D1217610BD064B052263
:1016E000204603EB0C135B681A60FFF7C3FF2176FB
:1016F000F3E770470021EAE7C00D002043690A4A7A
:1017000003EB011010B490F82830084C02EB0313DF
:10171000D3E901321460C26A1A60036B0BB1426BE9
:101720001A605DF8044B7047C00D002061F801009D
:101730004369427E03EB021292F828C08C451ED00A
:1017400093F82820FF2A1AD0914210B5044617D0EA
:1017500093F83820FF2A06D00121D3E9002312682C
:101760001A4201D1617610BD064B0522204603EBDB
:101770000C135B681A60FFF7C1FF6176F3E77047EF
:101780000021EAE7C00D0020164942698B6B23F463
:101790007C0343F4802370B58B630446124DD2E979
:1017A00000130A681A4303690A60022200211A61C1
:1017B0000E4A19619A6401225A629D624FF43035D3
:1017C000DD624FF001159E6C1E6519629D651A6100
:1017D000017EFFF74FFF617E2046BDE87040FFF7B6
:1017E0008DBF00BF00C00F40B80B05053B3728195F
:1017F000704700BF704700BF704700BF00BF704711
:1018000010B44FF0E023002110243148C3F8941D98
:10181000C3F89C4D1124C3F8A00D2E48C3F89C4D6D
:101820001224C3F8A00D2C48C3F89C4D2B4AC3F8D2
:10183000A00D2B4C42F015022A48C3F89C4DC3F86A
:10184000A00D294C2948C3F89C4DC3F8A00D284C85
:10185000C3F89C2D2748284AC3F8A04DC3F89C0D17
:10186000C3F8A02D02F5A022244C0C322448C3F862
:101870009C4DC3F8A02D234AC3F89C0D224CC3F8FD
:10188000A02D02F14062C3F89C4D2048C3F8A02D62
:101890000C32C3F89C0DC3F8A02D00BF00BF00BFE1
:1018A00000BF00BF0122C3F8942DBFF34F8FBFF3D9
:1018B0006F8FC3F8501FBFF34F8FBFF36F8FD3F8F5
:1018C000142D5DF8044B42F44032C3F8142D7047D8
:1018D0003F00001025000807090010008098002034
:1018E0001300200021000207140000202500081327
:1018F000090000101600202027000B1317000040DD
:10190000180000602F000B07190000701A000080FB
:10191000F0B5B84B1822B84E0120B84F83B0C3F8C9
:101920005C62B749C3F86072B64DC3F86462A6F54D
:101930003046B54CC3F86862C3F86C52C3F87052B5
:10194000C3F87452C3F8785248F20C75DA661A6715
:101950005A679A67DA67C3F88020C3F88420C3F80F
:101960008820C1F82C03A94AC1F83003C1F8340318
:10197000C1F83803C1F83C03C1F85003A169A44B76
:101980000A40A448A4491343A44AA361D4F884306C
:1019900043F00C03C4F884304FF0FF34036843F085
:1019A0000203036003682B404FF400551A439C4B1D
:1019B000026044608A689B4C13409B4A43F000538A
:1019C0008360C36823F07803C360036A1340234332
:1019D0000362036A1340954A2343954C4362826233
:1019E000C2620022D1F8B83023F03F0343F0010374
:1019F000C0F8B830D1F8BC308E4923F03F0343F033
:101A00000103C0F8BC3040F205630261056604675B
:101A1000C0F88030456644670224C0F8843003680B
:101A200023F0020303608161834B8449C46143F85E
:101A3000042B8B42FBD1774A136843F001031360F8
:101A4000136813F00103FBD17A48022140F2F564D8
:101A5000906140F29940D16140F26641C2F8004283
:101A600042F20144C2F810127549C2F82002C2F8CD
:101A7000301240F235417348C2F83442C2F8401285
:101A8000714CC2F8500242F201207049C2F854125F
:101A90000121C2F86042C2F864025E48C2F8A03078
:101AA000C2F8A430C2F8B0104369DA07FCD50123AC
:101AB00000244FF4803257494361C0F8A040C0F879
:101AC000A420C0F8B0304B69DB07FCD5012300240B
:101AD0004FF400304F4A4B61C1F8A040C1F8A40058
:101AE000C1F8B0305369DF07FCD501230024584802
:101AF00048495361C2F8A040C2F8A400C2F8B0300F
:101B00004B69DE07FCD5D1F8003145F60D52212096
:101B10009BB24861934265D100244FF48022012397
:101B20003C48C1F8A040C1F8A420C1F8B0304369D6
:101B3000DD07FCD501234FF400040021354A436141
:101B4000C0F8A040C0F8A410C0F8B0305369DC075A
:101B5000FCD501234FF400044FF480302D4953612C
:101B6000C2F8A040C2F8A400C2F8B0304B69D80750
:101B7000FCD501234FF400044FF40030254A4B619B
:101B8000C1F8A040C1F8A400C1F8B0305369D9072A
:101B9000FCD501234FF400042D481E495361C2F8BF
:101BA000A040C2F8A400C2F8B0304B69DA07FCD5F7
:101BB000D1F8003145F60D5221209BB24861934285
:101BC00050D008254FF4000422490020224B234A1C
:101BD000009015705A1A01232148224400F0FCF9A4
:101BE00003B0F0BD1E4B0022C3E90022C3E902226C
:101BF00003B0F0BD00801F40F9B00100F9100100F2
:101C000000841F40F970010000C00F40FFFCFF1F5F
:101C1000000300A000402A4000802A401200FFFF7D
:101C2000FF37F7004000008000FFF07CFF000F83CB
:101C300063000200F05AF05A00422A4000432A4052
:101C40009F041830EB06180A3806180A06320126D7
:101C500004000300000000700000007037980020AE
:101C6000289400204FF400044FF4802201230848F8
:101C7000C1F8A040C1F8A420C1F8B0304369DB0727
:101C8000FCD5012310254FF0807443619CE700BF11
:101C900000402A40F0B4154A40274FF480314FF4F9
:101CA00080564FF400554FF4404443F2420013690C
:101CB00013F0020F0ED113F4005F0FD013F4805F06
:101CC0000ED0002BF3DA13F4803F0BD15B060BD55B
:101CD000F0BC7047946151619061E8E75561E6E7B7
:101CE0005661E4E79161E2E75761E0E700800D406B
:101CF0003F4A03203F49F3EE095AD2F880304FF0B3
:101D0000000C9FED3D6A23F001039FED3C5A30B477
:101D1000C2F88030C2F89000D1F8E010384DCBB254
:101D2000384C39482B6007EE903A0B0DC1F30B216C
:101D3000F8EEE77A06EE903A07EE101A334BB8EE5B
:101D4000C77A2160F8EEE66A314937EEC66A37EEA7
:101D5000C55A76EEC76A77EEE57A26EE266AC3EDB7
:101D6000006A25EE265AD2F8803067EEA64AC0ED0A
:101D7000007AC6EE275A274885EE276AC4EEA76A7E
:101D800075EE875AFCEEE55A36EE076A15EE904A74
:101D9000BCEEC66A43EA045376EE877AC2F8803016
:101DA00016EE103AD2F89041FCEEE77A01EA0341D0
:101DB000214317EE903AC2F89011C3F30B03D2F807
:101DC00090110B431449C2F89031D2F8803043F09F
:101DD0000203C2F88030114B80F840C0C1F8403196
:101DE0004FF0E023012230BCC3F80821704700BF48
:101DF00000810D4000441F400000AA420000B44290
:101E0000C0960020BC960020C4960020C8960020F2
:101E10000000FF0F00E400E00038002069530000DC
:101E2000314B40F6617210B5C3F8202140F20444F2
:101E300000F0E2F82D4A2E49D2F880302D4843F0C8
:101E40000303C2F880302C4BC1F8604102681A428B
:101E500003D1D1F8A8319A071BD0254A4FF0004191
:101E6000244B5963D2F8403143F00203C2F84031A9
:101E7000D2F840319B07FBD44FF400304FF0E02103
:101E80001C4B4FF00042C1F88C0219209A6300F0FD
:101E90009FF8184A4FF08040154C002190630A20AB
:101EA000164B11604FF42072C4F8A801184600F0D8
:101EB0009BF84FF4800203464FF4810040F2431137
:101EC0001860C4F858311A640D4B0E4AC4F8481112
:101ED000C3F804224FF0E0224FF400310123C2F88E
:101EE0000C11C4F8403110BD00800D4000C00F40FF
:101EF00000002E4000900D40001C1E00000000203D
:101F0000003800205155000008B50E4B1B6E9B0792
:101F100000D4FBBE72B60C4B00200C4AC3F8400143
:101F200003F160430A49A3F55F2311649D46BFF3A3
:101F30004F8F4FF400130748074ADB6902609B6824
:101F4000984700BF00441F4000002E4000C00A40D8
:101F50000300200000802020000012EB104BA02086
:101F6000104AD96E41F4403110B4D96640F237645A
:101F7000D96E41F44071D96654649064936C1B0629
:101F8000FCD4094A40F23761A02351649364936CF6
:101F900013F08003FBD1054A13705DF8044B7047C2
:101FA00000C00F4000400C4000800C4035980020DD
:101FB000F8B500BFF8BC08BC9E46704700000000A2
:101FC0005FF800F0058501005FF800F009450000AA
:101FD0005FF800F0F94700005FF800F05966000074
:101FE0005FF800F0E54A00005FF800F0558401005A
:101FF0005FF800F0695000005FF800F0C15C00007D
:10200000050100006D310000056700005D810000E2
:04201000D5E6000011
:1020140080C00F4000000003190000001000000001
:10202400E8841F4001000000FF000000FF000000E2
:102034000000000000000000180000001000000074
:10204400E4841F4001000000FF000000FF000000C6
:1020540000000000000000001F000000193900000B
:1020640070C00F40000C00001100000011000000BF
:10207400E0841F40020000002C0000001200000059
:10208400E0841F4001000000100000001100000067
:10209400DC841F40020000002D000000120000003C
:1020A400DC841F40010000001E0000000D39000008
:1020B40070C00F40C00000001200000013000000B8
:1020C400D0841F4001000000FF000000FF0000005A
:1020D40000000000000000001300000013000000D6
:1020E400CC841F4001000000FF000000FF0000003E
:1020F40000000000000000001C0000000139000086
:10210400160355005300420020005300650072007E
:10211400690061006C00000018035400650065004C
:102124006E00730079006400750069006E006F0032
:102134000403090409026200030100C032080B0011
:102144000202020100090400000102020100052448
:1021540000100105240101010424020605240600DF
:10216400010705820310001009040100020A00009F
:10217400000705030240000007058402400000092F
:1021840004020002FF6AFF00070581024000010704
:10219400050102400001000009026200030100C0C1
:1021A40032080B00020202010009040000010202CD
:1021B4000100052400100105240101010424020684
:1021C4000524060001070582031000050904010027
:1021D400020A00000007050302000200070584024A
:1021E4000002000904020002FF6AC7000705810219
:1021F4000002010705010200020100000A060002B4
:08220400EF020140010000009F
:10220C0000000000000000000000000000000000C2
:10221C0000000000000000000000000000000000B2
:10222C00F8B54FF084439D695A6915400DD0254F80
:10223C0001269D6195FAA5F4B4FA84F457F824307C
:10224C0006FA04F49847A543F4D11F4B9D695A69CB
:10225C0015400DD01D4F01269D6195FAA5F4B4FAD9
:10226C0084F457F8243006FA04F49847A543F4D1C3
:10227C00174B9D695A6915400DD0164F01269D616B
:10228C0095FAA5F4B4FA84F457F8243006FA04F459
:10229C009847A543F4D1104B9D695A6915400DD050
:1022AC000E4F01269D6195FAA5F4B4FA84F457F803
:1022BC00243006FA04F49847A543F4D1BFF34F8FAA
:1022CC00F8BD00BF6032002000400042E032002028
:1022DC00008000426033002000C00042E033002048
:1022EC000548064B1B1AD90F01EBA301491002D06C
:1022FC00034B03B118477047C03A0020C03A002086
:10230C000000000008B5054B1BB105490548AFF3AB
:10231C000080BDE80840FFF7E3BF00BF00000000ED
:10232C003096002000500260224BD3F8AC20D2E94A
:10233C000010D3680968006810B41842946801EA68
:10234C0004012ED0137C03F00303D9B943F0080326
:10235C009908013B11740D2B0BD8DFE803F00D0726
:10236C001C070A160D0D160A071C070D5369013BB5
:10237C0053615DF8044B704753695DF8044B0133AE
:10238C005361704743F00403E0E753695DF8044B75
:10239C00023B5361704753695DF8044B0233536140
:1023AC007047137C03F003030029D1D043F00403DE
:1023BC00CEE700BFB08B0020704700BF08B50D20E2
:1023CC0004F0C2FB01460D20B1FA81F1490904F079
:1023DC0091FB024A024B12681A6008BD4897002014
:1023EC005096002010B504460021007B04F060FEDE
:1023FC00207A0021BDE8104004F05ABE38B50D46D5
:10240C0004460021007A04F053FE207B85EAE57136
:10241C00A1EBE571BDE8384004F04ABE38B50D4675
:10242C0004460021007B04F043FE207A85EAE57126
:10243C00A1EBE571BDE8384004F03ABE00B597B0A9
:10244C001A2200F5BC700DA903F012FD9DED131AB4
:10245C009DED142A9DED120AB7EEC11AB7EEC22AF1
:10246C00B7EEC00A17B05DF804FB00BF10B596B00C
:10247C000446082200F5BC700DA903F0F9FC94ED9C
:10248C00520A9DED131A9DED142ADDED127A20EE01
:10249C00011A20EE022A20EE270AB7EEC11AB7EE77
:1024AC00C22AB7EEC00A16B010BD00BF224BD3F83B
:1024BC00D820D2E90010D3680968006810B418421B
:1024CC00946801EA04012ED0137C03F00303D9B9FC
:1024DC0043F008039908013B11740D2B0BD8DFE86E
:1024EC0003F00D071C070A160D0D160A071C070D25
:1024FC005369013B53615DF8044B704753695DF8B8
:10250C00044B01335361704743F00403E0E7536914
:10251C005DF8044B023B5361704753695DF8044B03
:10252C00023353617047137C03F003030029D1D0AD
:10253C0043F00403CEE700BFB08B0020224BD3F84E
:10254C00D020D2E90010D3680968006810B4184292
:10255C00946801EA04012ED0137C03F00303D9B96B
:10256C0043F008039908013B11740D2B0BD8DFE8DD
:10257C0003F00D071C070A160D0D160A071C070D94
:10258C005369013B53615DF8044B704753695DF827
:10259C00044B01335361704743F00403E0E7536984
:1025AC005DF8044B023B5361704753695DF8044B73
:1025BC00023353617047137C03F003030029D1D01D
:1025CC0043F00403CEE700BFB08B0020224BD3F8BE
:1025DC00D420D2E90010D3680968006810B41842FE
:1025EC00946801EA04012ED0137C03F00303D9B9DB
:1025FC0043F008039908013B11740D2B0BD8DFE84D
:10260C0003F00D071C070A160D0D160A071C070D03
:10261C005369013B53615DF8044B704753695DF896
:10262C00044B01335361704743F00403E0E75369F3
:10263C005DF8044B023B5361704753695DF8044BE2
:10264C00023353617047137C03F003030029D1D08C
:10265C0043F00403CEE700BFB08B0020214B1A6877
:10266C00D2E90010D3680968006810B41842946865
:10267C0001EA04012ED0137C03F00303D9B943F013
:10268C0008039908013B11740D2B0BD8DFE803F0FC
:10269C000D071C070A160D0D160A071C070D5369AA
:1026AC00013B53615DF8044B704753695DF8044B73
:1026BC0001335361704743F00403E0E753695DF85D
:1026CC00044B023B5361704753695DF8044B023372
:1026DC0053617047137C03F003030029D1D043F0FE
:1026EC000403CEE7B08B0020214B5A68D2E90010CE
:1026FC00D3680968006810B41842946801EA0401B0
:10270C002ED0137C03F00303D9B943F008039908C6
:10271C00013B11740D2B0BD8DFE803F00D071C07E0
:10272C000A160D0D160A071C070D5369013B536160
:10273C005DF8044B704753695DF8044B01335361EA
:10274C00704743F00403E0E753695DF8044B023B28
:10275C005361704753695DF8044B02335361704702
:10276C00137C03F003030029D1D043F00403CEE71C
:10277C00B08B0020214B9A68D2E90010D36809680D
:10278C00006810B41842946801EA04012ED0137C3E
:10279C0003F00303D9B943F008039908013B117402
:1027AC000D2B0BD8DFE803F00D071C070A160D0DD7
:1027BC00160A071C070D5369013B53615DF8044B66
:1027CC00704753695DF8044B01335361704743F014
:1027DC000403E0E753695DF8044B023B5361704717
:1027EC0053695DF8044B023353617047137C03F05B
:1027FC0003030029D1D043F00403CEE7B08B0020B3
:10280C00214BDA68D2E90010D3680968006810B46B
:10281C001842946801EA04012ED0137C03F00303E0
:10282C00D9B943F008039908013B11740D2B0BD84F
:10283C00DFE803F00D071C070A160D0D160A071C1E
:10284C00070D5369013B53615DF8044B70475369A5
:10285C005DF8044B01335361704743F00403E0E728
:10286C0053695DF8044B023B5361704753695DF843
:10287C00044B023353617047137C03F003030029AC
:10288C00D1D043F00403CEE7B08B0020224BD3F819
:10289C00B020D2E90010D3680968006810B418425F
:1028AC00946801EA04012ED0137C03F00303D9B918
:1028BC0043F008039908013B11740D2B0BD8DFE88A
:1028CC0003F00D071C070A160D0D160A071C070D41
:1028DC005369013B53615DF8044B704753695DF8D4
:1028EC00044B01335361704743F00403E0E7536931
:1028FC005DF8044B023B5361704753695DF8044B20
:10290C00023353617047137C03F003030029D1D0C9
:10291C0043F00403CEE700BFB08B0020224BD3F86A
:10292C00B420D2E90010D3680968006810B41842CA
:10293C00946801EA04012ED0137C03F00303D9B987
:10294C0043F008039908013B11740D2B0BD8DFE8F9
:10295C0003F00D071C070A160D0D160A071C070DB0
:10296C005369013B53615DF8044B704753695DF843
:10297C00044B01335361704743F00403E0E75369A0
:10298C005DF8044B023B5361704753695DF8044B8F
:10299C00023353617047137C03F003030029D1D039
:1029AC0043F00403CEE700BFB08B0020224BD3F8DA
:1029BC00B820D2E90010D3680968006810B4184236
:1029CC00946801EA04012ED0137C03F00303D9B9F7
:1029DC0043F008039908013B11740D2B0BD8DFE869
:1029EC0003F00D071C070A160D0D160A071C070D20
:1029FC005369013B53615DF8044B704753695DF8B3
:102A0C00044B01335361704743F00403E0E753690F
:102A1C005DF8044B023B5361704753695DF8044BFE
:102A2C00023353617047137C03F003030029D1D0A8
:102A3C0043F00403CEE700BFB08B0020224BD3F849
:102A4C00BC20D2E90010D3680968006810B41842A1
:102A5C00946801EA04012ED0137C03F00303D9B966
:102A6C0043F008039908013B11740D2B0BD8DFE8D8
:102A7C0003F00D071C070A160D0D160A071C070D8F
:102A8C005369013B53615DF8044B704753695DF822
:102A9C00044B01335361704743F00403E0E753697F
:102AAC005DF8044B023B5361704753695DF8044B6E
:102ABC00023353617047137C03F003030029D1D018
:102ACC0043F00403CEE700BFB08B0020224BD3F8B9
:102ADC00C020D2E90010D3680968006810B418420D
:102AEC00946801EA04012ED0137C03F00303D9B9D6
:102AFC0043F008039908013B11740D2B0BD8DFE848
:102B0C0003F00D071C070A160D0D160A071C070DFE
:102B1C005369013B53615DF8044B704753695DF891
:102B2C00044B01335361704743F00403E0E75369EE
:102B3C005DF8044B023B5361704753695DF8044BDD
:102B4C00023353617047137C03F003030029D1D087
:102B5C0043F00403CEE700BFB08B0020224BD3F828
:102B6C00C420D2E90010D3680968006810B4184278
:102B7C00946801EA04012ED0137C03F00303D9B945
:102B8C0043F008039908013B11740D2B0BD8DFE8B7
:102B9C0003F00D071C070A160D0D160A071C070D6E
:102BAC005369013B53615DF8044B704753695DF801
:102BBC00044B01335361704743F00403E0E753695E
:102BCC005DF8044B023B5361704753695DF8044B4D
:102BDC00023353617047137C03F003030029D1D0F7
:102BEC0043F00403CEE700BFB08B0020224BD3F898
:102BFC00C820D2E90010D3680968006810B41842E4
:102C0C00946801EA04012ED0137C03F00303D9B9B4
:102C1C0043F008039908013B11740D2B0BD8DFE826
:102C2C0003F00D071C070A160D0D160A071C070DDD
:102C3C005369013B53615DF8044B704753695DF870
:102C4C00044B01335361704743F00403E0E75369CD
:102C5C005DF8044B023B5361704753695DF8044BBC
:102C6C00023353617047137C03F003030029D1D066
:102C7C0043F00403CEE700BFB08B0020224BD3F807
:102C8C00CC20D2E90010D3680968006810B418424F
:102C9C00946801EA04012ED0137C03F00303D9B924
:102CAC0043F008039908013B11740D2B0BD8DFE896
:102CBC0003F00D071C070A160D0D160A071C070D4D
:102CCC005369013B53615DF8044B704753695DF8E0
:102CDC00044B01335361704743F00403E0E753693D
:102CEC005DF8044B023B5361704753695DF8044B2C
:102CFC00023353617047137C03F003030029D1D0D6
:102D0C0043F00403CEE700BFB08B0020214B1A69BF
:102D1C00D2E90010D3680968006810B418429468AE
:102D2C0001EA04012ED0137C03F00303D9B943F05C
:102D3C0008039908013B11740D2B0BD8DFE803F045
:102D4C000D071C070A160D0D160A071C070D5369F3
:102D5C00013B53615DF8044B704753695DF8044BBC
:102D6C0001335361704743F00403E0E753695DF8A6
:102D7C00044B023B5361704753695DF8044B0233BB
:102D8C0053617047137C03F003030029D1D043F047
:102D9C000403CEE7B08B0020214B5A69D2E9001016
:102DAC00D3680968006810B41842946801EA0401F9
:102DBC002ED0137C03F00303D9B943F00803990810
:102DCC00013B11740D2B0BD8DFE803F00D071C072A
:102DDC000A160D0D160A071C070D5369013B5361AA
:102DEC005DF8044B704753695DF8044B0133536134
:102DFC00704743F00403E0E753695DF8044B023B72
:102E0C005361704753695DF8044B0233536170474B
:102E1C00137C03F003030029D1D043F00403CEE765
:102E2C00B08B0020214B9A69D2E90010D368096855
:102E3C00006810B41842946801EA04012ED0137C87
:102E4C0003F00303D9B943F008039908013B11744B
:102E5C000D2B0BD8DFE803F00D071C070A160D0D20
:102E6C00160A071C070D5369013B53615DF8044BAF
:102E7C00704753695DF8044B01335361704743F05D
:102E8C000403E0E753695DF8044B023B5361704760
:102E9C0053695DF8044B023353617047137C03F0A4
:102EAC0003030029D1D043F00403CEE7B08B0020FC
:102EBC00214BDA69D2E90010D3680968006810B4B4
:102ECC001842946801EA04012ED0137C03F003032A
:102EDC00D9B943F008039908013B11740D2B0BD899
:102EEC00DFE803F00D071C070A160D0D160A071C68
:102EFC00070D5369013B53615DF8044B70475369EF
:102F0C005DF8044B01335361704743F00403E0E771
:102F1C0053695DF8044B023B5361704753695DF88C
:102F2C00044B023353617047137C03F003030029F5
:102F3C00D1D043F00403CEE7B08B0020214B1A6AAA
:102F4C00D2E90010D3680968006810B4184294687C
:102F5C0001EA04012ED0137C03F00303D9B943F02A
:102F6C0008039908013B11740D2B0BD8DFE803F013
:102F7C000D071C070A160D0D160A071C070D5369C1
:102F8C00013B53615DF8044B704753695DF8044B8A
:102F9C0001335361704743F00403E0E753695DF874
:102FAC00044B023B5361704753695DF8044B023389
:102FBC0053617047137C03F003030029D1D043F015
:102FCC000403CEE7B08B0020214B5A6AD2E90010E3
:102FDC00D3680968006810B41842946801EA0401C7
:102FEC002ED0137C03F00303D9B943F008039908DE
:102FFC00013B11740D2B0BD8DFE803F00D071C07F8
:10300C000A160D0D160A071C070D5369013B536177
:10301C005DF8044B704753695DF8044B0133536101
:10302C00704743F00403E0E753695DF8044B023B3F
:10303C005361704753695DF8044B02335361704719
:10304C00137C03F003030029D1D043F00403CEE733
:10305C00B08B0020214B9A6AD2E90010D368096822
:10306C00006810B41842946801EA04012ED0137C55
:10307C0003F00303D9B943F008039908013B117419
:10308C000D2B0BD8DFE803F00D071C070A160D0DEE
:10309C00160A071C070D5369013B53615DF8044B7D
:1030AC00704753695DF8044B01335361704743F02B
:1030BC000403E0E753695DF8044B023B536170472E
:1030CC0053695DF8044B023353617047137C03F072
:1030DC0003030029D1D043F00403CEE7B08B0020CA
:1030EC00214BDA6AD2E90010D3680968006810B481
:1030FC001842946801EA04012ED0137C03F00303F8
:10310C00D9B943F008039908013B11740D2B0BD866
:10311C00DFE803F00D071C070A160D0D160A071C35
:10312C00070D5369013B53615DF8044B70475369BC
:10313C005DF8044B01335361704743F00403E0E73F
:10314C0053695DF8044B023B5361704753695DF85A
:10315C00044B023353617047137C03F003030029C3
:10316C00D1D043F00403CEE7B08B0020214B1A6B77
:10317C00D2E90010D3680968006810B4184294684A
:10318C0001EA04012ED0137C03F00303D9B943F0F8
:10319C0008039908013B11740D2B0BD8DFE803F0E1
:1031AC000D071C070A160D0D160A071C070D53698F
:1031BC00013B53615DF8044B704753695DF8044B58
:1031CC0001335361704743F00403E0E753695DF842
:1031DC00044B023B5361704753695DF8044B023357
:1031EC0053617047137C03F003030029D1D043F0E3
:1031FC000403CEE7B08B0020214B5A6BD2E90010B0
:10320C00D3680968006810B41842946801EA040194
:10321C002ED0137C03F00303D9B943F008039908AB
:10322C00013B11740D2B0BD8DFE803F00D071C07C5
:10323C000A160D0D160A071C070D5369013B536145
:10324C005DF8044B704753695DF8044B01335361CF
:10325C00704743F00403E0E753695DF8044B023B0D
:10326C005361704753695DF8044B023353617047E7
:10327C00137C03F003030029D1D043F00403CEE701
:10328C00B08B0020214B9A6BD2E90010D3680968EF
:10329C00006810B41842946801EA04012ED0137C23
:1032AC0003F00303D9B943F008039908013B1174E7
:1032BC000D2B0BD8DFE803F00D071C070A160D0DBC
:1032CC00160A071C070D5369013B53615DF8044B4B
:1032DC00704753695DF8044B01335361704743F0F9
:1032EC000403E0E753695DF8044B023B53617047FC
:1032FC0053695DF8044B023353617047137C03F040
:10330C0003030029D1D043F00403CEE7B08B002097
:10331C00214BDA6BD2E90010D3680968006810B44D
:10332C001842946801EA04012ED0137C03F00303C5
:10333C00D9B943F008039908013B11740D2B0BD834
:10334C00DFE803F00D071C070A160D0D160A071C03
:10335C00070D5369013B53615DF8044B704753698A
:10336C005DF8044B01335361704743F00403E0E70D
:10337C0053695DF8044B023B5361704753695DF828
:10338C00044B023353617047137C03F00303002991
:10339C00D1D043F00403CEE7B08B0020214B1A6C44
:1033AC00D2E90010D3680968006810B41842946818
:1033BC0001EA04012ED0137C03F00303D9B943F0C6
:1033CC0008039908013B11740D2B0BD8DFE803F0AF
:1033DC000D071C070A160D0D160A071C070D53695D
:1033EC00013B53615DF8044B704753695DF8044B26
:1033FC0001335361704743F00403E0E753695DF810
:10340C00044B023B5361704753695DF8044B023324
:10341C0053617047137C03F003030029D1D043F0B0
:10342C000403CEE7B08B0020214B5A6CD2E900107C
:10343C00D3680968006810B41842946801EA040162
:10344C002ED0137C03F00303D9B943F00803990879
:10345C00013B11740D2B0BD8DFE803F00D071C0793
:10346C000A160D0D160A071C070D5369013B536113
:10347C005DF8044B704753695DF8044B013353619D
:10348C00704743F00403E0E753695DF8044B023BDB
:10349C005361704753695DF8044B023353617047B5
:1034AC00137C03F003030029D1D043F00403CEE7CF
:1034BC00B08B0020214B9A6CD2E90010D3680968BC
:1034CC00006810B41842946801EA04012ED0137CF1
:1034DC0003F00303D9B943F008039908013B1174B5
:1034EC000D2B0BD8DFE803F00D071C070A160D0D8A
:1034FC00160A071C070D5369013B53615DF8044B19
:10350C00704753695DF8044B01335361704743F0C6
:10351C000403E0E753695DF8044B023B53617047C9
:10352C0053695DF8044B023353617047137C03F00D
:10353C0003030029D1D043F00403CEE7B08B002065
:10354C00214BDA6CD2E90010D3680968006810B41A
:10355C001842946801EA04012ED0137C03F0030393
:10356C00D9B943F008039908013B11740D2B0BD802
:10357C00DFE803F00D071C070A160D0D160A071CD1
:10358C00070D5369013B53615DF8044B7047536958
:10359C005DF8044B01335361704743F00403E0E7DB
:1035AC0053695DF8044B023B5361704753695DF8F6
:1035BC00044B023353617047137C03F0030300295F
:1035CC00D1D043F00403CEE7B08B0020214B1A6D11
:1035DC00D2E90010D3680968006810B418429468E6
:1035EC0001EA04012ED0137C03F00303D9B943F094
:1035FC0008039908013B11740D2B0BD8DFE803F07D
:10360C000D071C070A160D0D160A071C070D53692A
:10361C00013B53615DF8044B704753695DF8044BF3
:10362C0001335361704743F00403E0E753695DF8DD
:10363C00044B023B5361704753695DF8044B0233F2
:10364C0053617047137C03F003030029D1D043F07E
:10365C000403CEE7B08B0020214B5A6DD2E9001049
:10366C00D3680968006810B41842946801EA040130
:10367C002ED0137C03F00303D9B943F00803990847
:10368C00013B11740D2B0BD8DFE803F00D071C0761
:10369C000A160D0D160A071C070D5369013B5361E1
:1036AC005DF8044B704753695DF8044B013353616B
:1036BC00704743F00403E0E753695DF8044B023BA9
:1036CC005361704753695DF8044B02335361704783
:1036DC00137C03F003030029D1D043F00403CEE79D
:1036EC00B08B0020214B9A6DD2E90010D368096889
:1036FC00006810B41842946801EA04012ED0137CBF
:10370C0003F00303D9B943F008039908013B117482
:10371C000D2B0BD8DFE803F00D071C070A160D0D57
:10372C00160A071C070D5369013B53615DF8044BE6
:10373C00704753695DF8044B01335361704743F094
:10374C000403E0E753695DF8044B023B5361704797
:10375C0053695DF8044B023353617047137C03F0DB
:10376C0003030029D1D043F00403CEE7B08B002033
:10377C00214BDA6DD2E90010D3680968006810B4E7
:10378C001842946801EA04012ED0137C03F0030361
:10379C00D9B943F008039908013B11740D2B0BD8D0
:1037AC00DFE803F00D071C070A160D0D160A071C9F
:1037BC00070D5369013B53615DF8044B7047536926
:1037CC005DF8044B01335361704743F00403E0E7A9
:1037DC0053695DF8044B023B5361704753695DF8C4
:1037EC00044B023353617047137C03F0030300292D
:1037FC00D1D043F00403CEE7B08B0020214B1A6EDE
:10380C00D2E90010D3680968006810B418429468B3
:10381C0001EA04012ED0137C03F00303D9B943F061
:10382C0008039908013B11740D2B0BD8DFE803F04A
:10383C000D071C070A160D0D160A071C070D5369F8
:10384C00013B53615DF8044B704753695DF8044BC1
:10385C0001335361704743F00403E0E753695DF8AB
:10386C00044B023B5361704753695DF8044B0233C0
:10387C0053617047137C03F003030029D1D043F04C
:10388C000403CEE7B08B0020214B5A6ED2E9001016
:10389C00D3680968006810B41842946801EA0401FE
:1038AC002ED0137C03F00303D9B943F00803990815
:1038BC00013B11740D2B0BD8DFE803F00D071C072F
:1038CC000A160D0D160A071C070D5369013B5361AF
:1038DC005DF8044B704753695DF8044B0133536139
:1038EC00704743F00403E0E753695DF8044B023B77
:1038FC005361704753695DF8044B02335361704751
:10390C00137C03F003030029D1D043F00403CEE76A
:10391C00B08B0020214B9A6ED2E90010D368096855
:10392C00006810B41842946801EA04012ED0137C8C
:10393C0003F00303D9B943F008039908013B117450
:10394C000D2B0BD8DFE803F00D071C070A160D0D25
:10395C00160A071C070D5369013B53615DF8044BB4
:10396C00704753695DF8044B01335361704743F062
:10397C000403E0E753695DF8044B023B5361704765
:10398C0053695DF8044B023353617047137C03F0A9
:10399C0003030029D1D043F00403CEE7B08B002001
:1039AC00214BDA6ED2E90010D3680968006810B4B4
:1039BC001842946801EA04012ED0137C03F003032F
:1039CC00D9B943F008039908013B11740D2B0BD89E
:1039DC00DFE803F00D071C070A160D0D160A071C6D
:1039EC00070D5369013B53615DF8044B70475369F4
:1039FC005DF8044B01335361704743F00403E0E777
:103A0C0053695DF8044B023B5361704753695DF891
:103A1C00044B023353617047137C03F003030029FA
:103A2C00D1D043F00403CEE7B08B0020214B1A6FAA
:103A3C00D2E90010D3680968006810B41842946881
:103A4C0001EA04012ED0137C03F00303D9B943F02F
:103A5C0008039908013B11740D2B0BD8DFE803F018
:103A6C000D071C070A160D0D160A071C070D5369C6
:103A7C00013B53615DF8044B704753695DF8044B8F
:103A8C0001335361704743F00403E0E753695DF879
:103A9C00044B023B5361704753695DF8044B02338E
:103AAC0053617047137C03F003030029D1D043F01A
:103ABC000403CEE7B08B0020214B5A6FD2E90010E3
:103ACC00D3680968006810B41842946801EA0401CC
:103ADC002ED0137C03F00303D9B943F008039908E3
:103AEC00013B11740D2B0BD8DFE803F00D071C07FD
:103AFC000A160D0D160A071C070D5369013B53617D
:103B0C005DF8044B704753695DF8044B0133536106
:103B1C00704743F00403E0E753695DF8044B023B44
:103B2C005361704753695DF8044B0233536170471E
:103B3C00137C03F003030029D1D043F00403CEE738
:103B4C00B08B0020214B9A6FD2E90010D368096822
:103B5C00006810B41842946801EA04012ED0137C5A
:103B6C0003F00303D9B943F008039908013B11741E
:103B7C000D2B0BD8DFE803F00D071C070A160D0DF3
:103B8C00160A071C070D5369013B53615DF8044B82
:103B9C00704753695DF8044B01335361704743F030
:103BAC000403E0E753695DF8044B023B5361704733
:103BBC0053695DF8044B023353617047137C03F077
:103BCC0003030029D1D043F00403CEE7B08B0020CF
:103BDC00214BDA6FD2E90010D3680968006810B481
:103BEC001842946801EA04012ED0137C03F00303FD
:103BFC00D9B943F008039908013B11740D2B0BD86C
:103C0C00DFE803F00D071C070A160D0D160A071C3A
:103C1C00070D5369013B53615DF8044B70475369C1
:103C2C005DF8044B01335361704743F00403E0E744
:103C3C0053695DF8044B023B5361704753695DF85F
:103C4C00044B023353617047137C03F003030029C8
:103C5C00D1D043F00403CEE7B08B0020224BD3F835
:103C6C008020D2E90010D3680968006810B41842AB
:103C7C00946801EA04012ED0137C03F00303D9B934
:103C8C0043F008039908013B11740D2B0BD8DFE8A6
:103C9C0003F00D071C070A160D0D160A071C070D5D
:103CAC005369013B53615DF8044B704753695DF8F0
:103CBC00044B01335361704743F00403E0E753694D
:103CCC005DF8044B023B5361704753695DF8044B3C
:103CDC00023353617047137C03F003030029D1D0E6
:103CEC0043F00403CEE700BFB08B0020224BD3F887
:103CFC008420D2E90010D3680968006810B4184217
:103D0C00946801EA04012ED0137C03F00303D9B9A3
:103D1C0043F008039908013B11740D2B0BD8DFE815
:103D2C0003F00D071C070A160D0D160A071C070DCC
:103D3C005369013B53615DF8044B704753695DF85F
:103D4C00044B01335361704743F00403E0E75369BC
:103D5C005DF8044B023B5361704753695DF8044BAB
:103D6C00023353617047137C03F003030029D1D055
:103D7C0043F00403CEE700BFB08B0020224BD3F8F6
:103D8C008820D2E90010D3680968006810B4184282
:103D9C00946801EA04012ED0137C03F00303D9B913
:103DAC0043F008039908013B11740D2B0BD8DFE885
:103DBC0003F00D071C070A160D0D160A071C070D3C
:103DCC005369013B53615DF8044B704753695DF8CF
:103DDC00044B01335361704743F00403E0E753692C
:103DEC005DF8044B023B5361704753695DF8044B1B
:103DFC00023353617047137C03F003030029D1D0C5
:103E0C0043F00403CEE700BFB08B0020224BD3F865
:103E1C008C20D2E90010D3680968006810B41842ED
:103E2C00946801EA04012ED0137C03F00303D9B982
:103E3C0043F008039908013B11740D2B0BD8DFE8F4
:103E4C0003F00D071C070A160D0D160A071C070DAB
:103E5C005369013B53615DF8044B704753695DF83E
:103E6C00044B01335361704743F00403E0E753699B
:103E7C005DF8044B023B5361704753695DF8044B8A
:103E8C00023353617047137C03F003030029D1D034
:103E9C0043F00403CEE700BFB08B0020224BD3F8D5
:103EAC009020D2E90010D3680968006810B4184259
:103EBC00946801EA04012ED0137C03F00303D9B9F2
:103ECC0043F008039908013B11740D2B0BD8DFE864
:103EDC0003F00D071C070A160D0D160A071C070D1B
:103EEC005369013B53615DF8044B704753695DF8AE
:103EFC00044B01335361704743F00403E0E753690B
:103F0C005DF8044B023B5361704753695DF8044BF9
:103F1C00023353617047137C03F003030029D1D0A3
:103F2C0043F00403CEE700BFB08B0020224BD3F844
:103F3C009420D2E90010D3680968006810B41842C4
:103F4C00946801EA04012ED0137C03F00303D9B961
:103F5C0043F008039908013B11740D2B0BD8DFE8D3
:103F6C0003F00D071C070A160D0D160A071C070D8A
:103F7C005369013B53615DF8044B704753695DF81D
:103F8C00044B01335361704743F00403E0E753697A
:103F9C005DF8044B023B5361704753695DF8044B69
:103FAC00023353617047137C03F003030029D1D013
:103FBC0043F00403CEE700BFB08B0020224BD3F8B4
:103FCC009820D2E90010D3680968006810B4184230
:103FDC00946801EA04012ED0137C03F00303D9B9D1
:103FEC0043F008039908013B11740D2B0BD8DFE843
:103FFC0003F00D071C070A160D0D160A071C070DFA
:10400C005369013B53615DF8044B704753695DF88C
:10401C00044B01335361704743F00403E0E75369E9
:10402C005DF8044B023B5361704753695DF8044BD8
:10403C00023353617047137C03F003030029D1D082
:10404C0043F00403CEE700BFB08B0020224BD3F823
:10405C009C20D2E90010D3680968006810B418429B
:10406C00946801EA04012ED0137C03F00303D9B940
:10407C0043F008039908013B11740D2B0BD8DFE8B2
:10408C0003F00D071C070A160D0D160A071C070D69
:10409C005369013B53615DF8044B704753695DF8FC
:1040AC00044B01335361704743F00403E0E7536959
:1040BC005DF8044B023B5361704753695DF8044B48
:1040CC00023353617047137C03F003030029D1D0F2
:1040DC0043F00403CEE700BFB08B0020224BD3F893
:1040EC00A020D2E90010D3680968006810B4184207
:1040FC00946801EA04012ED0137C03F00303D9B9B0
:10410C0043F008039908013B11740D2B0BD8DFE821
:10411C0003F00D071C070A160D0D160A071C070DD8
:10412C005369013B53615DF8044B704753695DF86B
:10413C00044B01335361704743F00403E0E75369C8
:10414C005DF8044B023B5361704753695DF8044BB7
:10415C00023353617047137C03F003030029D1D061
:10416C0043F00403CEE700BFB08B0020224BD3F802
:10417C00A420D2E90010D3680968006810B4184272
:10418C00946801EA04012ED0137C03F00303D9B91F
:10419C0043F008039908013B11740D2B0BD8DFE891
:1041AC0003F00D071C070A160D0D160A071C070D48
:1041BC005369013B53615DF8044B704753695DF8DB
:1041CC00044B01335361704743F00403E0E7536938
:1041DC005DF8044B023B5361704753695DF8044B27
:1041EC00023353617047137C03F003030029D1D0D1
:1041FC0043F00403CEE700BFB08B0020224BD3F872
:10420C00A820D2E90010D3680968006810B41842DD
:10421C00946801EA04012ED0137C03F00303D9B98E
:10422C0043F008039908013B11740D2B0BD8DFE800
:10423C0003F00D071C070A160D0D160A071C070DB7
:10424C005369013B53615DF8044B704753695DF84A
:10425C00044B01335361704743F00403E0E75369A7
:10426C005DF8044B023B5361704753695DF8044B96
:10427C00023353617047137C03F003030029D1D040
:10428C0043F00403CEE700BFB08B002038B52DED12
:10429C00028B069B04460271B0EE408A8360D8B252
:1042AC00144A0D46079B01212260E36002F05EFC7C
:1042BC000121207B02F05AFCB5EEC08AF1EE10FA17
:1042CC0009DDB0EE480A207A02F058FFB0EE480A39
:1042DC00207B02F053FF284603F040F80021207A9F
:1042EC0002F0E6FE207B002102F0E2FE2046BDEC4F
:1042FC00028B38BDFC0700200B4610B5362800F2A7
:10430C009782DFE810F08C02820279027002670259
:10431C005E0255024C0243023A02310228021F028D
:10432C00BF01B601AD01A4019B019201890180017D
:10433C0077016E0165015C0153014A0141013801AD
:10434C002F0126011D0113010901FF00F500EB00EF
:10435C00E100D700CD00C300B900AF00A5009B0061
:10436C00910087007D00730069005F0055004B00D1
:10437C0041003700C84C0422C8493620C4F8D83054
:10438C0002F02EFC012010BDC34C0422C449352080
:10439C00C4F8D43002F024FC012010BDBE4C042221
:1043AC00C0493420C4F8D03002F01AFC012010BDF2
:1043BC00B94C0422BC493320C4F8CC3002F010FCB8
:1043CC00012010BDB44C0422B8493220C4F8C830C6
:1043DC0002F006FC012010BDAF4C0422B449312080
:1043EC00C4F8C43002F0FCFB012010BDAA4C04221E
:1043FC00B0493020C4F8C03002F0F2FB012010BDEF
:10440C00A54C0422AC492F20C4F8BC3002F0E8FBC8
:10441C00012010BDA04C0422A8492E20C4F8B830AD
:10442C0002F0DEFB012010BD9B4C0422A4492D2080
:10443C00C4F8B43002F0D4FB012010BD964C042219
:10444C00A0492C20C4F8B03002F0CAFB012010BDEA
:10445C00914C04229C492B20C4F8AC3002F0C0FBD8
:10446C00012010BD8C4C042298492A20C4F8A83095
:10447C0002F0B6FB012010BD874C04229449292080
:10448C00C4F8A43002F0ACFB012010BD824C042215
:10449C0090492820C4F8A03002F0A2FB012010BDE6
:1044AC007D4C04228C492720C4F89C3002F098FBE8
:1044BC00012010BD784C042288492620C4F898307D
:1044CC0002F08EFB012010BD734C04228449252080
:1044DC00C4F8943002F084FB012010BD6E4C042211
:1044EC0080492420C4F8903002F07AFB012010BDE2
:1044FC00694C04227C492320C4F88C3002F070FBF8
:10450C00012010BD644C042278492220C4F8883064
:10451C0002F066FB012010BD5F4C0422744921207F
:10452C00C4F8843002F05CFB012010BD5A4C04220C
:10453C0070492020C4F8803002F052FB012010BDDD
:10454C00554C04226C491F20E36702F049FB012003
:10455C0010BD514C042269491E20A36702F040FB98
:10456C00012010BD4C4C042265491D20636702F0EC
:10457C0037FB012010BD484C042262491C202367E4
:10458C0002F02EFB012010BD434C04225E491B207F
:10459C00E36602F025FB012010BD3F4C04225B4971
:1045AC001A20A36602F01CFB012010BD3A4C042219
:1045BC0057491920636602F013FB012010BD364CDD
:1045CC00042254491820236602F00AFB012010BD76
:1045DC00314C042250491720E36502F001FB012005
:1045EC0010BD2D4C04224D491620A36502F0F8FA9B
:1045FC00012010BD284C042249491520636502F0A6
:10460C00EFFA012010BD244C0422464914202365E6
:10461C0002F0E6FA012010BD1F4C0422424913207F
:10462C00E36402F0DDFA012010BD1B4C04223F496B
:10463C001220A36402F0D4FA012010BD164C0422FF
:10464C003B491120636402F0CBFA012010BD124CDF
:10465C00042238491020236402F0C2FA012010BD54
:10466C000D4C042234490F20E36302F0B9FA012007
:10467C0010BD094C042231490E20A36302F0B0FA9C
:10468C00012010BD044C04222D490D20636302F05F
:10469C00A7FA012010BD00BFB08B0020AD020000B6
:1046AC00CD0300003D0300007D0A0000ED09000071
:1046BC005D090000CD0800003D080000AD070000BA
:1046CC001D0700008D06000029010000FD1F0000E1
:1046DC006D1F0000DD1E00004D1E0000BD1D000002
:1046EC002D1D00009D1C00000D1C00007D1B0000FA
:1046FC00ED1A00005D1A0000D119000045190000E8
:10470C00B91800002D180000A117000015170000A3
:10471C0089160000FD15000071150000E51400005D
:10472C0059140000CD13000041130000B512000015
:10473C00291200009D1100001111000085100000CD
:10474C00F90F00003B4C04223B490C20236302F080
:10475C0047FA012010BD374C042238490B20E36284
:10476C0002F03EFA012010BD324C042234490A20DA
:10477C00A36202F035FA012010BD2E4C04223149FF
:10478C000920636202F02CFA012010BD294C04228E
:10479C002D490820236202F023FA012010BD254C7C
:1047AC0004222A490720E36102F01AFA012010BD05
:1047BC00204C042226490620A36102F011FA0120A4
:1047CC0010BD1C4C042223490520636102F008FA39
:1047DC00012010BD0422174C1F491046236102F022
:1047EC00FFF9012010BD134C04221C490320E36087
:1047FC0002F0F6F9012010BD0E4C042218490220DB
:10480C00A36002F0EDF9012010BD04460948042212
:10481C0014494360012002F0E3F9204610BD054C19
:10482C00042211490020236002F0DAF9012010BDA6
:10483C00002010BDB08B00206D0F0000E10E0000B9
:10484C00550E0000C90D00003D0D0000B10C00001C
:10485C00250C0000990B00000D0B00000106000058
:10486C0075050000E90400005D0400002DE9F0412D
:10487C000F46164604460221384602F077F902210B
:10488C00304602F073F9224B3A0122483101DFF82D
:10489C008CC053F8028003EB0712C4F80080D2F8E6
:1048AC000CE003EB061259580023C4F808E0D26858
:1048BC006361194BE26045681B686160ACFB033CAB
:1048CC004FF4FA634FEA9C4C03FB0CFC43685B1BF4
:1048DC009C45FBD8D8F80030384609681EEA030F0F
:1048EC0014BF012300230A42214618BF43F00203E0
:1048FC002374FFF701FD0346214630462376FFF76C
:10490C00FBFC227E0346204613442376BDE8F0814F
:10491C00C00D0020001000E0C421002083DE1B43EA
:10492C002DE9F043194D83B0194C40F2EE28194F84
:10493C00DFF87C902E6803F0A9FE2378CBB13B788E
:10494C00DB0716D52B68D9F800209B1A0E2B10D933
:10495C000C21114801F026F9104C1148114B124A48
:10496C001249CDE90004012009F0E2FE03B0BDE8D4
:10497C00F0832B6822789B1B2AB1B3F5FA6FE7D82A
:10498C0003F084FED7E74345FAD9E1E748970020C6
:10499C004298002041980020F83D0020ED330000A3
:1049AC00E1330000DD330000D9330000C8210020C2
:1049BC00D097002038B5134D134C284606F0B4FDA3
:1049CC0000210BF0CFF92146104807F065FC214679
:1049DC000F4807F061FC21460E4807F017FF2046F0
:1049EC0007F058FA0C4808F0FDFA0C4806F088F964
:1049FC00284606F08DFC0D20012102F07BF80120E9
:104A0C0038BD00BF10970020189600204896002053
:104A1C008894002060970020CC8F0020D083002049
:104A2C002DE9F047E44ADFF8C0831268D8F800306B
:104A3C009B1AC72B2DED048B88B000F20582DF4C3E
:104A4C00DF48DFF8A893DFF8A8A3DE4EDE4D94ED27
:104A5C00026B94ED007B94ED0A1BF7EEC60BDB4C5E
:104A6C00B7EEC70BB7EEC11B01F0C0FBD84B99EDED
:104A7C00007A93ED0A8AD3ED036A93ED045AB7EEEC
:104A8C00C82A78EE666A8DED040AB7EEC55A8DED2C
:104A9C00061A93ED061A86EE876AD3ED057AD3EDE6
:104AAC00019A93ED009ACDED050AD3ED020A83ED40
:104ABC00038AD6ED0A8ACDED071A9FEDB94B9FED0F
:104ACC00BA3B83ED0B6A83ED046AB7EEC66A26EE39
:104ADC00046BA2EE036BA5EE046BB7EEC66B30EE67
:104AEC00460A83ED0A6A70EE416A83ED060AE7EE28
:104AFC00007A86EE876AC3ED057A67EEA97A9AF892
:104B0C000430D5ED0A9AE0EE097A94ED0A9AE6EEB5
:104B1C00207AFDEEE77A17EE907A03B17F42002FF0
:104B2C0040F368819AF80800002102F0C1FA394676
:104B3C009AF80C0002F0BCFAD6ED037AD9ED000A13
:104B4C0078EEE77A96ED043A96ED0A2AB7EEC33A78
:104B5C00DDED056A87EEA07A96ED066A9D4FC6EDEF
:104B6C00038A3B79B7EEC22A9FED8D4B9FED8E1BCE
:104B7C0086ED0B7A86ED047AB7EEC77A27EE045BE6
:104B8C0096ED057AD6ED017AA2EE015BD6ED002A00
:104B9C00A3EE045BD6ED024AB7EEC55B76EEC56AB2
:104BAC0086ED0A5A36EEC66AC6ED066AA0EEA67AFD
:104BBC00C6EE205A86ED057A67EE277AE6EEA27AE3
:104BCC00E5EEA47AFDEEE77A17EE906A03B1764231
:104BDC00002E40F32F81387A002102F069FA314619
:104BEC00387B02F065FAD5ED037AD9ED000A79EE3F
:104BFC00E77A95ED043A95ED0A2AB7EEC33ADDED66
:104C0C00066A87EEA07A95ED066A734EC5ED039A97
:104C1C003379B7EEC22A9FED624B9FED631B85ED96
:104C2C000B7A85ED047AB7EEC77A27EE045B95ED27
:104C3C00057AD5ED017AA2EE015BD5ED002AA3EE43
:104C4C00045BD5ED024AB7EEC55B76EEC56A85ED21
:104C5C000A5A36EEC66AC5ED066AA0EEA67AC6EE0C
:104C6C00205A85ED057A67EE277AE6EEA27AE5EE14
:104C7C00A47AFDEEE77A17EE905A03B16D42002D3F
:104C8C0040F3CE80307A002102F012FA2946307BB4
:104C9C0002F00EFAD4ED037AD9ED000A79EE677AB8
:104CAC0094ED043A94ED0A2AB7EEC33ADDED076AA7
:104CBC0087EEA07A94ED066A484D84ED039A2B7921
:104CCC00B7EEC22A9FED364B9FED371B84ED0B7A66
:104CDC0084ED047AB7EEC77A27EE045B94ED057A7F
:104CEC00D4ED017AA2EE015BD4ED002AA3EE045BB5
:104CFC00D4ED024AB7EEC55B76EEC56A84ED0A5A6E
:104D0C0036EEC66AC4ED066AA0EEA67AC6EE205A46
:104D1C0084ED057A67EE277AE6EEA27AE5EEA47AC0
:104D2C00FDEEE77A17EE904A03B16442002C6DDD7C
:104D3C00287A002102F0BCF92146287B02F0B8F950
:104D4C00B0EE480A1E48B0EE691AF0EE680AF0EEB2
:104D5C00491A01F059FA224AD8F80030F0EE411AFB
:104D6C001168B0EE601A1360F0EE400A5B1A8DED1C
:104D7C00010A1C4807EE903A8DED021ACDED031A8C
:104D8C00B8EE677B9FED0A5B87EE056BB7EEC60B43
:104D9C0008B0BDEC048BBDE8F04701F0E1BB00BFEF
:104DAC00C217265305A3B23F8716D9CEF753EB3F54
:104DBC000000000000408F4050960020508B0020D7
:104DCC00A09400203495002084950020D4950020D8
:104DDC00E49400202495002074950020C4950020B4
:104DEC00549600207088002048970020A093002043
:104DFC00D49400209AF80C0044D0002102F058F909
:104E0C0079429AF8080002F053F995E6287B29D0EC
:104E1C00002102F04DF96142287A02F049F98FE73E
:104E2C00307B27D0002102F043F96942307A02F03E
:104E3C003FF92FE7387B2ED0002102F039F971426F
:104E4C00387A02F035F9CEE600220023164C012107
:104E5C000D20C4E90023C4E90223C4E90A2301F0AC
:104E6C0049FEEDE5214602F023F92146287A02F0AD
:104E7C001FF965E7294602F01BF92946307A02F042
:104E8C0017F907E7394602F013F939469AF8080082
:104E9C0002F00EF950E6314602F00AF93146387A42
:104EAC0002F006F99FE600BF508B002000000000C6
:104EBC0010B5ADF5816D6A4C6A49684601F0E0FAAF
:104ECC004FF432726946684801F014FF1A22B2A9F5
:104EDC0004F5BC7000F0CCFF9DEDB74A9DEDB86AAF
:104EEC00B7EEC44A9DEDB97AB7EEC66AB7EEC77A8B
:104EFC0094ED582B94ED5A3B94ED5C5B34EE424BA5
:104F0C0036EE436B37EE457B9FED512B84ED224BF8
:104F1C0084ED246BB4EEC24B84ED267BF1EE10FADB
:104F2C0007DD9FED4D5BB4EEC54BF1EE10FA00F1D1
:104F3C008A809FED475BB4EEC56BF1EE10FA06DD8F
:104F4C009FED455BB4EEC56BF1EE10FA76D49FED98
:104F5C00406BB4EEC67BF1EE10FA0ADD9FED3E6BB2
:104F6C00B4EEC67BF1EE10FA03D500220023C4E99F
:104F7C00262394ED567AB2A908223C48B7EEC77A9C
:104F8C0084ED287B84ED307B84ED387B00F070FF62
:104F9C0094ED527ADDEDB97A4FF4A0729DEDB74ADB
:104FAC00B2A89DEDB85A27EE044A94ED556A27EE47
:104FBC00055A2F4927EE277AB7EEC66AB7EEC44AD0
:104FCC00B7EEC55AB7EEC77A84ED406B84ED3A4B19
:104FDC0084ED486B84ED3C5B84ED3E7B84ED506B43
:104FEC00244C01F087FEB2A94FF4A072204601F0C8
:104FFC0081FE214A2148D2E9003100684FF47A72CF
:10500C00C0184FF0000341F1000114F07BF91C496A
:10501C000346206001FB02F221461A486260124CE2
:10502C00C4E90032002207F091F90022214616480B
:10503C000DF5816DBDE8104007F088B90022002302
:10504C00C4E9242383E700220023C4E9222370E768
:10505C007B14AE47E17A84BF7B14AE47E17A843F80
:10506C00803C002070880020A8850020F83D00209E
:10507C00883C002068840020488B00204897002042
:10508C0040420F00889400204896002030B108B5AB
:10509C00FFF7C6FCBDE80840FFF70ABF704700BF2A
:1050AC0008B501210D2001F025FD962001F0A4FC8E
:1050BC0000210D2001F01EFD962001F09DFC012128
:1050CC000D2001F017FD962001F096FC00210D201B
:1050DC0001F010FD962001F08FFC4FF47A7001F076
:1050EC008BFCDEE70000000030B5ABB0404C24A8D0
:1050FC0008F0D2FE0DF1900CBCE80F000FC400229A
:10510C00DCF8001023463B4843F81019114606F012
:10511C00B5F8002866D1374B374A3849384806F07D
:10512C00B1F900285ED105F00BF9364B0246344933
:10513C00354806F073FA002854D10BF0BDFB334B05
:10514C0002462F49324806F069FA00284AD103F08A
:10515C00CBFB304B02462A492F4806F099FA00281F
:10516C0040D12E48234900902D481FA3D3E900239A
:10517C0006F0C8FA002835D102A805F03BFD8822BC
:10518C0002A9284801F0B6FDA4F110030222194926
:10519C00244805F039FD044620BB234B234A1E4905
:1051AC002048009405F0E0FDE0B91D491D4805F0CC
:1051BC0019FEB8B91E4B0A201D680AF0C1FD88B94A
:1051CC000AF0A2FD451B0A461A4C4FF00D004FF099
:1051DC00010162F10002C4E9005201F08BFC0120D4
:1051EC002BB030BDFFF75CFF002D3101000000003B
:1051FC00A88F002010970020A4160020CC060020B9
:10520C0018960020E006002048960020F0060020AA
:10521C0088940020FC060020609700208D2E000052
:10522C00CC8F0020D0830020BD010000508B0020CB
:10523C0048970020488B002070B501F031FC07EE38
:10524C00900A434BF8EE677ADFED426A93ED007AF1
:10525C00414D37EEC77AC3ED007A404A2C78C7EE41
:10526C00267AC2ED007A032C07D8DFE804F02C264E
:10527C000702FFF79FFB00232B7070BD384ED6E959
:10528C000023B3F1FF3F08BFB2F1FF3F55D005F04B
:10529C0025F8D6E90023801A61EB0301C92871F1C6
:1052AC00000138DA2B78022BE7D12E4826A3D3E95C
:1052BC000023BDE8704005F0AFBFFFF715FF28B322
:1052CC0002232B7070BD284CD4E90023B3F1FF3FAF
:1052DC0008BFB2F1FF3F2BD005F000F8D4E9002352
:1052EC00801A61EB030140F2F513984271F1000151
:1052FC00C3DB0121642009F031FAB0FA80F04009D7
:10530C00287004F0EBFFC4E9000170BD2870BDE803
:10531C007040FFF74FBB0121642009F01FFA0028F1
:10532C0018BF03242C7004F0D9FFC6E90001B9E7BB
:10533C0004F0D4FFC4E90001CEE704F0CFFFC6E9C6
:10534C000001A4E7AFF3008000E1F50500000000C8
:10535C004C960020002474493D980020A093002016
:10536C0098200020D083002090200020F0B50F2240
:10537C000E2179480324794D2827794E2DED028B87
:10538C0087B09FED788AFFF771FA0C220B217648D3
:10539C00FFF76CFA102211217448FFF767FA0A2202
:1053AC0009217348FFF762FA25212420B0EE480A40
:1053BC0001914FF0FF33009000220A216D48FEF757
:1053CC0065FF06210520B0EE480A01914FF0FF332E
:1053DC00009000220A216848FEF758FF172116207A
:1053EC00B0EE480A01914FF0FF33009000220A21E1
:1053FC006248FEF74BFF0420B0EE480A4FF0FF3333
:10540C0000220A21DFED5E8ACDE900405D48FEF7FF
:10541C003DFFB2EE0E7AF1EE047A00235A4A214691
:10542C005A48F3EE080A5A4CB0EE682ADFF8A0E1AD
:10543C00DFF8A0C185ED007AC5ED017A84ED007A24
:10544C00C4ED017AC5F81CE0C4F81CE0C5F820C016
:10545C00C4F820C0DFED4F1A9FED4F1A9FED4F0A95
:10546C00AB60AB62EB622B636B63AB63EB63EB60C8
:10547C002B616B61AB61A360A362E3622363636323
:10548C00A363E363E36023616361A3616E6266629D
:10549C0082ED007A80ED007AC2ED017AC0ED017ADE
:1054AC00C2F81CE0C0F81CE0C2F820C0C0F820C054
:1054BC005662466202AE93609362D3621363536387
:1054CC009363D363D36013615361936140F22622DB
:1054DC0083608362C362036343638363C363C36098
:1054EC000361436183612E4800F066FD2D4800F096
:1054FC009BFF2D4C2D4B30462D4A04F1100500928C
:10550C00C4F85431C4F858312A4B2B4AC4F84831EA
:10551C002A4B2260C4F85031C4ED538AC4F85C7134
:10552C0095E80E0004F0B0FE254B96E8070085E8E0
:10553C00070024483A463721206004F5BC7000F07F
:10554C0019FB214A2149204607B0BDEC028BBDE86E
:10555C00F04003F0C3B900BFA4930020E4940020F2
:10556C000000484300409C46C0930020DC93002080
:10557C00F8930020D49400202495002074950020EA
:10558C00CDCCCC3DC495002084950020D495002032
:10559C0034950020CDCC4C3D0000BC419A99593F2C
:1055AC00A094002070880020803C0020ACC52737D8
:1055BC00C0060020C3F51C41A8070020BD37863566
:1055CC00582400209807002094270020B9010000DF
:1055DC0000007F43666666420120704701207047D9
:1055EC00D0F88C0203685B68184700BFD0F88C02B7
:1055FC00836001F04FB800BF0020704790F8A320E3
:10560C0090F8A200101A704790F8A23090F8A320DE
:10561C009A4205D95A1C034480F8A220987E704700
:10562C004FF0FF30704700BF90F8A23090F8A320E5
:10563C009A4202D91844807E70474FF0FF30704771
:10564C00704700BF0346B0F8300178B193F82F21B2
:10565C00882A03D9012200205A60704702F1010CFC
:10566C0001201A4483F82FC182F8A510704700BF9F
:10567C0038B5B0F830410CB9204638BD90F82F3110
:10568C000546C3F18904A2420DD8144605F1A500C4
:10569C002246184401F02EFB95F82F312046234466
:1056AC0085F82F3138BD01224260EFE72DE9F04F2C
:1056BC00D0F814A01524017E8146437E83B00AEBFA
:1056CC000111384A0AEB0313374F097A93F8283043
:1056DC0002EB01150901E86852F8018002EB031195
:1056EC00D5F804B01B01CE68D558CBF80040C8F8EB
:1056FC008400D8F804304A6803432C490192C8F856
:10570C0004301460C5F884606B6833436B60284BBD
:10571C004C683A68A3FB0232920C02EB82025200F4
:10572C004B681B1B9A42FBD84FF0090C1F4ADFF841
:10573C0080E0D8F80830034202D0AB6833422FD156
:10574C00C5F8886054683968AEFB0131890C01EBEF
:10575C00810153681B1B9942FBD8C5F884605468BF
:10576C003968AEFB0131890C01EB810153681B1BBD
:10577C009942FBD8BCF1010CDBD1604699F818308A
:10578C00019A0AEB0313DB68CBF8003099F8193057
:10579C000AEB031ADAF82C30136003B0BDE8F08F73
:1057AC000120EBE7C00D0020C4210020001000E018
:1057BC0083DE1B430E4A10B51168046905E0DB015A
:1057CC0007D413685B1A102B08D8636913F0007F99
:1057DC00F5D14FF4FE430120636110BDFFF766FF66
:1057EC000028FAD04FF4FE4301206361F5E700BFB7
:1057FC00489700202DE9F04790F82FA10569BAF1E0
:10580C00000F4FD081468846FFF7D4FF002849D0BF
:10581C00374E0024376818E06B69190551D4DA0447
:10582C0055D4580559D4990441D43268D21B322A24
:10583C003DD8544507D9EA6D520704D19B0555D480
:10584C00B8F1000F52D002F021FF5445E4D8EA6DB4
:10585C00500702F00703DFD413E099F8A5200133B9
:10586C00022442F48062042B2A661ED08A4503F17E
:10587C00010309EB01020ED992F8A520042B2A662C
:10588C00CAD00121002CE8D02146013301348A45CD
:10589C0009EB0102F0D8B8F1000FBDD04FF4007342
:1058AC002B66B9E70420BDE8F0870124B4E72B6927
:1058BC004FF40072042043F440732B612A66BDE858
:1058CC00F0872B69042043F440732B61EBE72B69C1
:1058DC00052043F440732B61E5E72B694FF400720C
:1058EC00022043F440732B612A66DCE70020DAE7E0
:1058FC00489700202DE9F84F83460C4615461F4665
:10590C00D0F810A0FFF756FF002800F09E80610031
:10591C00012DDFF83C8140F20146CBB24FF0000183
:10592C0038BF0125D8F800900C461E43ABF8A210E6
:10593C0020E09BF8A330872B3FD9DAF81420100510
:10594C005AD412F4105F70D1D8F80030A3EB0903CD
:10595C00322B6AD89BF8A330AB4209D3022C07D95F
:10596C00DAF85C30590703D193054BD4002F49D09A
:10597C0002F08CFE022CDCD8DAF85C3003F0070263
:10598C005B07D6D4681E224440F480704CB9CAF828
:10599C0060600134131B032BCBD8022CC9D8002C0C
:1059AC00F5D0012C37D01FB14FF40073CAF860301A
:1059BC009BF8A3300324872BBFD8DAF85C2012F4B1
:1059CC00E02FC2F3024CB8D0591C9C441933C9B215
:1059DC005FFA8CFC5BFA83F3DAF870004A1C6145C1
:1059EC008BF8A310D1B203F8010FA6D08929F3D1FB
:1059FC00DAF814201005A4D5DAF8103043F440730B
:105A0C00CAF81030DAF85C3013F4E02F06D19BF8AA
:105A1C00A300BDE8F88FCAF86000BAE7DAF81030D6
:105A2C0043F40073CAF81030F1E7DAF810304FF491
:105A3C00007243F44073CAF81030CAF86020DAF8E8
:105A4C005C3013F4E02FE2D0E8E70420BDE8F88FD7
:105A5C0048970020F8B506690446D6F8145115F499
:105A6C00706301D0C6F81431A8070BD5D6F8702195
:105A7C0011043DD50023012184F8A230234484F87D
:105A8C00A3109A76EA0710D594F83071F7B194F810
:105A9C002E7194F82F31BB4226D97B1C274484F8F5
:105AAC002E3197F8A530C6F86031AB050DD594F8BA
:105ABC00A30018B1D4F83C3103B198470023A4F8E3
:105ACC00A230A4F82E3184F83031F8BDD4F8383136
:105ADC0003B19847002384F82E31012384F8303128
:105AEC0094F82F31BB42D8D80023C6F86031DCE7DC
:105AFC0094F8A330872BC5D8591CC9B2BEE700BF98
:105B0C000148FFF7A7BF00BFD82100200148FFF7CD
:105B1C00A1BF00BF182300200148FFF79BBF00BFA7
:105B2C0058240020704700BF704700BF38B50C46A2
:105B3C0020220021054604F1080014F08BFD0B22F5
:105B4C000649204613F0ACFE01230321044AE3600E
:105B5C00AB6861612262236138BD00BF4C07002035
:105B6C000AD7233C10B50446102101F05FF92046FA
:105B7C0010BD00BF70B504461546094E002282B018
:105B8C008160066010206260019301F04DF9294696
:105B9C00019A054611F0CCFF2046656002B070BD3D
:105BAC00B80700202DE9F0410F46064684B00021CD
:105BBC004068552511F0C6FF04E000F01DFF013DC3
:105BCC0000F0A2800121706811F0BCFF04460A208D
:105BDC00002CF2D003AB4FF0000801251946CDF88C
:105BEC00048000952A4670688DF80C8012F032F80B
:105BFC009DF80C30A02B12D04FF47A7000F0FCFE04
:105C0C0003ABCDF804802A461946009570688DF8D0
:105C1C000C8012F01FF89DF80C30A02B74D10025CD
:105C2C003D23022203A935734FF00108ADF80C3067
:105C3C000123CDE90055706811F0A0FF1E2000F083
:105C4C00DBFE42F23F03022203A9ADF80C30012324
:105C5C00CDE90055706811F091FF1E2000F0CCFECC
:105C6C0001E000F0C9FE03AB706801228DF80C5006
:105C7C001946CDE9008511F0EDFF9DF80C300A2096
:105C8C00A02BEED1322000F0B7FE3E2303A9022256
:105C9C00ADF80C300123CDE90055706811F06EFFA2
:105CAC000A2000F0A9FE072303A90222ADF80C304C
:105CBC000123CDE90055706811F060FF3F2303A963
:105CCC000222ADF80C300123CDE90055706811F0BB
:105CDC0055FF0A2000F090FE3D2203A901237068B5
:105CEC0037738DF80C2002228DF80D70CDE900551C
:105CFC0011F044FF1E2000F07FFE142000F07CFE0B
:105D0C00204604B0BDE8F0810024204604B0BDE874
:105D1C00F08100BF0000000030B587B015460023AD
:105D2C0004468DF80C200622083D03604360836016
:105D3C00C360036143610493486803A90193ADF800
:105D4C00143004AB0092012211F084FFBDF9100055
:105D5C00BDF91210BDF91420262D2FD8DFE805F05F
:105D6C00142E2E2E2E2E312E2E2E2E2E312E2E2E5B
:105D7C002E2E312E2E2E2E2E2E2E2E2E2E2E2E2E34
:105D8C00142E2E2E2E2E140007EE900AB8EEE75B82
:105D9C0007EE901AB8EEE76B07EE902A9FED184BC2
:105DAC00B8EEE77B85EE043B86EE045B87EE046B76
:105DBC0084ED003B84ED025B84ED046B204607B060
:105DCC0030BD07EE900A2046B8EEE75B07EE901A5E
:105DDC00B8EEE76B07EE902A9FED0B4BB8EEE77B26
:105DEC0025EE045B26EE046B27EE047B84ED005B52
:105DFC0084ED026B84ED047B07B030BDAFF3008003
:105E0C000000000000005940000000000000B03FFE
:105E1C0070B50C4686B0054620220021201D14F0DA
:105E2C0019FC2422104B032622606846AA682946D6
:105E3C001B6862601A22A6602361FFF76DFF0120C8
:105E4C009DED005B9DED026B9DED047BB7EEC55B9C
:105E5C00B7EEC66BB7EEC77B84ED055A84ED066AC8
:105E6C0084ED077A06B070BD489700200000000052
:105E7C0070B50C468CB01546064620220021201D1C
:105E8C0014F0E8FB24224A4B282D22601B68B268D0
:105E9C0023614FF000036260CDE90033CDE902339A
:105EAC00CDE9043318D0083D262D36D8DFE805F0AF
:105EBC003D3535353535423535353535573535354F
:105ECC003535753535353535353535353535353536
:105EDC0035353535353538000A232A463146A36029
:105EEC0006AD06A8FFF718FF6E460FCD0FC69DED49
:105EFC00005B9DED026B95E8030086E803009DEDC9
:105F0C00047BB7EEC55BB7EEC66BB7EEC77B84ED13
:105F1C00055A84ED066A84ED077A01200CB070BD39
:105F2C00092331462E22A360DAE7012331460822E9
:105F3C00A360D5E7022306AD31460E2206A8A36066
:105F4C00FFF7EAFEEC460FCDACE80F0095E8030036
:105F5C009DED005B9DED026B8CE80300CFE7042305
:105F6C0006AD3146142206A8A360FFF7D5FE6E4697
:105F7C000FCD0FC695E803009FED0B4B9DED005B1D
:105F8C009DED026B86E803009DED047B25EE045B22
:105F9C0026EE046B27EE047BB3E7032331461A226B
:105FAC00A3609DE7AFF30080000000A046DF913FA7
:105FBC0048970020000000009FED195BB7EEE17AD6
:105FCC004B1EF6EE006A0170B5EEC01A022B27EEDE
:105FDC00057B80ED022A8CBF0223042362EE266A25
:105FEC008361F1EE10FAB7EEC77BC0ED036A06EEE3
:105FFC00902A80ED057A10D4B4EE601AF1EE10FA06
:10600C0030FE811AC1EE207AF8EEE66A67EEA67AC7
:10601C0027EE800A80ED010A70479FED031AF1E725
:10602C00182D4454FB210940000000000000000022
:10603C0090ED027AB6EE005BB7EEC12ADFED6A6A2C
:10604C00B7EEC77A90ED056A20EE260AD0ED013A3C
:10605C0060EEA64A88B027EE057B80EE064A27EE56
:10606C00027B84EE865AB7EEC77B67EE267AF0EE9B
:10607C00C45A87EE867AF0EEC56A76EEA57AF4EE0F
:10608C00673AF1EE10FAF0EEC76A76EEA56A05D81B
:10609C00B5EE401AF1EE10FA00F08380F5EE400AEE
:1060AC00F1EE10FA04D1F4EE663AF1EE10FA7FD963
:1060BC00B7EEC44AD0ED037AB7EEC55A27EE277A6D
:1060CC00B1EE633A9FED3E1B9FED3F6BB7EEC77A87
:1060DC0024EE011BB0EE410BA5EE060B30EE070BC8
:1060EC00B7EEC00BB4EEC30AF1EE10FA56D4F4EED0
:1060FC00403AF1EE10FA48BFB0EE630A9FED346BF4
:10610C009FED312B25EE066BA4EE026B37EE066B82
:10611C00F7EEC60BF4EEC30AF1EE10FA3BD4F4EE34
:10612C00603AF1EE10FA48BFF0EE630A9FED2A6B6D
:10613C0095EE061B37EE011BB7EEC11BB4EEC31A6E
:10614C00F1EE10FA24D4F4EE413AF1EE10FA48BF15
:10615C00B0EE631A9FED222B9FED1F6B25EE025BB9
:10616C00A4EE065B37EE057BB7EEC77BB4EEC37AC5
:10617C00F1EE10FA08D4F4EEC73AF1EE10FA54BF6F
:10618C00B0EE473AB0EE633AF0EE431A08B07047FF
:10619C00B0EE431ADEE7F0EE430AC7E7B0EE430A6F
:1061AC00ACE7C3EEA76A24EE264A25EE265A7FE713
:1061BC00C3EEA67A24EE274A27EE277A78E700BFAB
:1061CC00CC3B7F669EA0E63FCD3B7F669EA0E63F24
:1061DC00CC3B7F669EA0E6BFCE3B7F669EA0E6BF13
:1061EC00CB3B7F669EA0E63F00007042037884B0F4
:1061FC00DFED047A012B98BFF0EE670A04B0FFF7CD
:10620C0017BF00BF000000000378F0EE407A002BAF
:10621C0040D030EE207A9FED822A70EEC06AD0ED2D
:10622C00052A022B37EE017A2DED088B90ED06BA7C
:10623C0037EE217A88B0B8EECB8A87EE086A86EE04
:10624C00020A20EE220A54D136EEC16A90ED027A8F
:10625C00B6EE005BB7EEC77A36EE216A76EE816A4F
:10626C0027EE057B86EE085A76EEE16AC6EE885A72
:10627C0085EE026AC5EE820A26EE226AB7EEC66A7F
:10628C0086EE071B60EEA20AB7EEC11B08B0BDEC90
:10629C00088B704730EEC06ADFED626A90ED067ACB
:1062AC0070EE207A9FED5E4AF0EE660AB8EEC77A81
:1062BC0090ED025A36EE266AD0ED054A77EEA67AB4
:1062CC00B6EE002BC6EE073AC7EE876AB7EEC55A94
:1062DC0025EE025B83EE847A86EE840A27EE247A1E
:1062EC00B7EEC77A20EE240A87EE051BB7EEC11B6A
:1062FC00704790ED029AB6EE005B032BB7EEC99A8D
:10630C0029EE059B55D1B7EEE76AB7EEE00AB7EE7A
:10631C00C7AAB8EECBBBB1EE007BB7EEC14A9FED7E
:10632C002E3B2BEE07BB20EE033B9FED2D5B9FED31
:10633C002E7BA6EE053BB7EEE15A8AEE0B1B20EE48
:10634C00077B9FED2BAB81EE0A0BB7EEC00B20EE5B
:10635C00220AB7EEC00A80EE091B9FED270B9FEDBA
:10636C00289BA6EE007B9FED280B9FED296BA4EEDE
:10637C00007BA5EE067BB7EEC11B9FED276BB7EE3E
:10638C00C77BC7EE087AC7EE820AB0EE437BA4EE59
:10639C00097B60EEA20AA5EE067BB7EEC77BC7EEC3
:1063AC00087A87EE820A20EE220A08B0BDEC088B30
:1063BC00704776EEC17ADFED1B0A77EEA17AC7EE55
:1063CC00886A86EE827A27EE227AB7EEC77A87EE53
:1063DC00091BB7EEC11B59E713A3CE88549FB63FD8
:1063EC00039B3D079A3AEB3F99FE7B98F3DFEFBF97
:1063FC000000000000004E403FF03A0F70CFE03F2D
:10640C00079C665556C3EDBFE9AEE5172982D73F09
:10641C00EC6A9C625F57E53F1AF24DB721D8E73F13
:10642C000000704200000000F0B587B0002300F1BE
:10643C000807114A02AD04460092C0F8C83204F1B4
:10644C001406C0F8CC32C0F8D032284697E80E00BB
:10645C0003F01AFF094B009395E8070087E8070043
:10646C00284696E80E0003F00FFF95E8070086E833
:10647C000700204607B0F0BD540700205C07002041
:10648C0010B504464FF4327200F034FC204610BDB7
:10649C0010B5B7EEC11A0C462DED0A8BB6EE00AB5B
:1064AC00B0EE608AB0EE409A21EE0ABBB7EEC88A15
:1064BC00B7EEC99A28EE0A8B29EE0A9BB0EE4B0B6D
:1064CC0011F0F6FBB0EE407BB0EE4B0BF7EEC7BB1A
:1064DC0012F06AF8B7EEC0BBB0EE480B11F0E8FB57
:1064EC00B0EE40CBB0EE480B12F05EF8B7EEC08BBE
:1064FC00B0EE490B11F0DCFBB0EE407BB0EE490B7B
:10650C00B7EECCCBF7EEC78B12F04EF86BEE087AE9
:10651C00F7EEC06B2BEE888A2BEE8C7A67EEA65AC0
:10652C0028EE286A68EEE77A2BEE0CBA26EEC88ABB
:10653C00E7EE285AE7EE267AB0EE467AABEE288ADA
:10654C00ABEE267AC4ED005AC4ED017A84ED038AD1
:10655C00BDEC0A8B84ED027A10BD00BF0000000078
:10656C0010B52DED088B90EDB48A84B0B0EE409A46
:10657C000446B0EE480AF0EE60AAF0EE418AF0EE66
:10658C00619A11F015FFB0EE40BAB0EE480A11F066
:10659C000BFE68EEC07A6BEE286A94EDB37AA9EE26
:1065AC00898A94EDB2AAEBEE2A7ADFED370AE0EE97
:1065BC002A6A69462046B0EE600AB0EE481A84EDAD
:1065CC00B48AA7EE89AAA6EE897A84EDB2AAB0EEB7
:1065DC00478A84EDB37AFFF75BFFB7EECA1A9DEDDD
:1065EC00012AB7EEEA6AB7EEC87A9DED023A9DED44
:1065FC00034AB7EEC22A9DED005AB7EEC33AB7EE86
:10660C00C44A0022B7EEC55A00231BA1D1E90001F0
:10661C0084ED081B84ED0A7BB7EEE81AB7EEE97A35
:10662C00C4E91601C4E92401C4E95C0114A1D1E94F
:10663C000001C4E90C2384ED0E2B84ED103B84ED9A
:10664C00124B84ED145B84ED5E6B84ED601BC4E92E
:10665C006223C4E96423C4E9662384ED687BC4E93E
:10666C006A01C4E97801C4E9B00104B0BDEC088B3F
:10667C0010BD00BFAFF30080FCA9F1D24D62503FBA
:10668C002D431CEBE2361A3F0000000001F05ABF0C
:10669C0001F0F2BE2DE9F047884651B3914662B342
:1066AC0082460027164C174E25680BE001F04AFF76
:1066BC00002810DA01F0EAFF2368DAF808205B1BE7
:1066CC00934210D2DAF800305B69B342EED05046F8
:1066DC0098470028EEDB013708F8010BB945E3D1E8
:1066EC003846BDE8F087012338468AF80C30BDE8FF
:1066FC00F0870F463846BDE8F0871746F0E700BF35
:10670C00489700208D440000A249A34B88422DE9F4
:10671C00F047A24C5E699A69D4F80C801BD9A04B47
:10672C00984240F20281C31A9E491B0AA1FB031333
:10673C0040F22761DB0903EB830303EB830303F2D2
:10674C00E2438B4228BF0B46A3F54877964BA3FB3D
:10675C000737FF0804E0954FB8428CBF0E27062779
:10676C008D4908F01F09D1F88030B94543F0C003BA
:10677C00C1F880300CD228F01F08A1F5F82148EAA6
:10678C000708C1F80C800B68002BFCDA08F01F0915
:10679C0016F0007324D186490C698649A14300F098
:1067AC00EA8082F4805134464FF4805514F0605FD7
:1067BC0004D026F060561E43774B5E6111F4405FA7
:1067CC0007D022F4405274492A438A618B6C1A0711
:1067DC00FCD446F00076704A5661936C9B06FCD450
:1067EC00754CA04200F2CE804FF0010C014663467E
:1067FC0003FB011203F1010E0CF10105A24218D8A2
:10680C00BEF1080F4FF0010340F08D80BCF1040F76
:10681C0000F291800A18A24200F2A48005FB00F15C
:10682C00AC4603F1010E03FB01120CF10105A2426F
:10683C00E6D90CF1FF318C0286EA81215F481044C5
:10684C005F4A90427FD9DFF8A4A16C225D48584D75
:10685C00B0FBFEF0D5F800E0B0FBFCF0DFF890C127
:10686C000EEA0C0CD44509D042F400524FF4805C73
:10687C00C5F800C02A602A68002AFCDA464A156965
:10688C0005F007059D4203D01361936CDD03FCD426
:10689C0011F4E05F09D026F4E05604F4E0543E4ACB
:1068AC0026435661936C9907FCD44749474A0144E7
:1068BC0091423CD8464BC909A3FB0131090B4B1E35
:1068CC001B0286EA030212F4407F06D026F44076BF
:1068DC0003F44073304A334353612F4A536923F016
:1068EC0000735361936C9B06FCD43A4B4F45A3FB4E
:1068FC0000234FF0FF324FEA9343B0FBF1F1B2FBB0
:10690C00F3F3354A1060354A1160354A136008D2EA
:10691C0028F01F08214A48EA0707D7601368002BA4
:10692C00FCDABDE8F087734662E7122718E74FF4EC
:10693C0040730421C5E70CF1FF31204807238C027A
:10694C00104486EA8121274ADFF8A8A0A2FB002088
:10695C00020D2548362A38BF362202FB00F042EAE7
:10696C000A0A74E74FEA8C24002386EA8C214FF044
:10697C00010EAC4662E71D4686F0C05411464FF03E
:10698C00C05313E700244FF0010C02463146234656
:10699C00E64653E700A4781F00C00F4000000840F3
:1069AC000046C32323B24C001F85EB5100366E0109
:1069BC0000800D4040300080FFB19F26808D5B0031
:1069CC00FF7EF64D00643F4D7FD1F0087F17B42C4D
:1069DC009F10E50083DE1B43C4210020C021002052
:1069EC00CC960020819F5E16001BB7006C200080A7
:1069FC007F3001800020008000B970472DE9F84FEE
:106A0C0001218146214C224D224E54E8003F2A6838
:106A1C00306844E80013002BF7D11F494B684FF442
:106A2C007A7BDFF878A01B1A01270BFB02F8DAF847
:106A3C000020A3FB02325A4594BF9044D84454E83A
:106A4C00003F2A68306844E80073002BF7D14B688C
:106A5C00DAF800C01B1A0BFB02F2A3FB0C3CBCF5D2
:106A6C007A7F94BF624402F57A72A2EB0802B2F507
:106A7C007A7F06D3B9F1010908F57A78DFD1BDE840
:106A8C00F88F01F003FE0449D9E700BF4C970020B2
:106A9C004897002044970020001000E0CC9600207E
:106AAC0030B40F4B4FF0010C0E4D0F4C53E8002F30
:106ABC002868216843E800C2002AF7D10B4B5B68B9
:106ACC000B4A5B1A4FF47A71126801FB00F0A3FBBE
:106ADC00023230BC8A4294BF80184018704700BF05
:106AEC004C9700204897002044970020001000E0AD
:106AFC00CC960020362816D80201104B03EB001060
:106B0C009B5810B4C2685C68144205D061B95DF83A
:106B1C00044BC3F888207047836851B1084A5DF86C
:106B2C00044B1A60704770475DF8044BC3F884201F
:106B3C007047044A5DF8044B1A607047C00D002082
:106B4C0038F001003830010036280BD8064B020112
:106B5C0003EB00109A58C36892681A4214BF0120C4
:106B6C000020704700207047C00D0020362829D81F
:106B7C00164B0201012903EB00109A5810B453680C
:106B8C00C4680ED004290CD023EA04035360836834
:106B9C00A9B1022917D003290CBF0D4A0D4A1A605E
:106BAC0007E0234301295360836808D040F638027C
:106BBC001A60436815225DF8044B1A60704738223E
:106BCC001A60F6E77047044A1A60F2E7C00D00201D
:106BDC00383001003800010038F00100704700BF68
:106BEC00362858D80001F0B4344C354D2358AB42FC
:106BFC0056D049D8B3F1844F4BD0A5F58045AB4264
:106C0C0040D1304D2044304E304CC4F8B462D0E901
:106C1C0001C4C0684FF0E0264FF00057042AC6F8B4
:106C2C0010712FD85E6926EA00065E614FF00506EA
:106C3C00CCF80060266846F4803626605C6824EA4E
