:0200000460009A
:100000004643464200000156000000000103030081
:1000100000000000000000000000000000000000E0
:1000200000000000000000000000000000000000D0
:1000300000000000000000000000000000000000C0
:1000400000000000010408000000000000000000A3
:100050000000800000000000000000000000000020
:100060000000000000000000000000000000000090
:100070000000000000000000000000000000000080
:10008000EB04180A063204260000000000000000FD
:10009000050404240000000000000000000000002F
:1000A0000000000000000000000000000000000050
:1000B0000604000000000000000000000000000036
:1000C0000000000000000000000000000000000030
:1000D00020041808000000000000000000000000DC
:1000E0000000000000000000000000000000000010
:1000F0000000000000000000000000000000000000
:10010000D8041808000000000000000000000000F3
:100110000204180804200000000000000000000095
:1001200000000000000000000000000000000000CF
:10013000600400000000000000000000000000005B
:1001400000000000000000000000000000000000AF
:10015000000000000000000000000000000000009F
:10016000000000000000000000000000000000008F
:10017000000000000000000000000000000000007F
:10018000000000000000000000000000000000006F
:10019000000000000000000000000000000000005F
:1001A000000000000000000000000000000000004F
:1001B000000000000000000000000000000000003F
:1001C000000100000010000001000000000000001D
:1001D000000001000000000000000000000000001E
:1001E000000000000000000000000000000000000F
:1001F00000000000000000000000000000000000FF
:10020000FFFFFFFFFFFFFFFFFFFFFFFFFFFFFFFFFE
:10021000FFFFFFFFFFFFFFFFFFFFFFFFFFFFFFFFEE
:10100000D10020434D1600600000000000000000E9
:101010002010006000100060005C02600000000012
:10102000000000600068020000000000FFFFFFFFFA
:10103000FFFFFFFFFFFFFFFFFFFFFFFFFFFFFFFFC0
:10104000FFFFFFFFFFFFFFFFFFFFFFFFFFFFFFFFB0
:10105000FFFFFFFFFFFFFFFFFFFFFFFFFFFFFFFFA0
:10106000FFFFFFFFFFFFFFFFFFFFFFFFFFFFFFFF90
:10140000814205D051F8043B40F8043B8242F9D8B0
:10141000704700BF044A05494FF0000342F8043BFF
:101420009142FBD8704700BFC0420020E0A00020DE
:101430002DE98848BFF34F8F00BF00BF00BF00BF3A
:1014400000F0D6F9684B0822C3F8542100BF00BF52
:1014500000BF00BF00BF00BF00BF00BF00BF00BF94
:1014600000BF00BF00BF00BF00BF00BF5F4A6049B0
:101470006048FFF7C5FF604A60496148FFF7C0FF59
:10148000604CFFF7C7FF4FF470004FF0E0210023DE
:101490005D4AC1F8880D44F823200133B02BFAD1FE
:1014A0005A4B80215A4A03F8011B9342FBD14FF05B
:1014B000E0254D4E4FF08039DFF884B1DFF884A18C
:1014C0004FF0FF31C5F8084D0027C6F80491C6F863
:1014D00000B1C6F8F490C6F8F0A0D5F8243DDFF8C6
:1014E000688143F4E0234B4AC5F8243DD8F81C300A
:1014F00023F07F0343F04003C8F81C30D8F82430B1
:1015000023F07F0343F04003C8F824309166D1668E
:101510001167516700F074F93F4B4049A363404B9A
:10152000E36363236B610323AF612B613D4BC5F81C
:10153000203DD5F8FC3D43F08073C5F8FC3D3A4BA7
:101540001A6842F001021A605B680B6000F0A2FBAF
:10155000C6F804913548C6F800B1C6F8F490C6F84C
:10156000F0A000F03DFDD8F86C10314B314A41F449
:101570004051C8F86C101F60C3F80871C3F81871A7
:10158000C3F82871C3F83871936BDB0708D442F6AF
:101590001563294951651365936B43F00103936308
:1015A000244A264C936843F00113936000F0B0F98D
:1015B00000F0D4FC00F020FD00F09AFB00F01AF9D6
:1015C0002368132BFCD900F02BFC2368B3F5967F1E
:1015D000FBD300F013F900F00FF900F0F1FC00F07C
:1015E000F7FC30BFFDE700BF00800D40C8F60100EA
:1015F0001022006000000000C0420020DC180260E1
:1016000000000020004000208D59000000E400E0B0
:10161000A0E400E000C00A40516E0000B49F00202A
:10162000556E000000002020001000E00046C3239B
:101630000040084000400D400000C056B89F002008
:101640001B1018200C0D111300C00F40054B4FF458
:101650002A01054A05485A641864054A9963954663
:10166000FFF7E6FE00C00A40FFAAAAAA0700200072
:101670000000062043690A4A03EB011010B4037A04
:10168000084C02EB0313D3E901321460C2681A60FC
:1016900003690BB142691A605DF8044B704700BFE3
:1016A000780E002061F801004369027E03EB02120C
:1016B00092F808C08C451CD01A7AFF2A19D09142A2
:1016C00010B5044616D01A7EFF2A06D00121D3E9B0
:1016D000002312681A4201D1217610BD064B052263
:1016E000204603EB0C135B681A60FFF7C3FF2176FB
:1016F000F3E770470021EAE7780E002043690A4AC1
:1017000003EB011010B490F82830084C02EB0313DF
:10171000D3E901321460C26A1A60036B0BB1426BE9
:101720001A605DF8044B7047780E002061F80100E4
:101730004369427E03EB021292F828C08C451ED00A
:1017400093F82820FF2A1AD0914210B5044617D0EA
:1017500093F83820FF2A06D00121D3E9002312682C
:101760001A4201D1617610BD064B0522204603EBDB
:101770000C135B681A60FFF7C1FF6176F3E77047EF
:101780000021EAE7780E0020164942698B6B23F4AA
:101790007C0343F4802370B58B630446124DD2E979
:1017A00000130A681A4303690A60022200211A61C1
:1017B0000E4A19619A6401225A629D624FF43035D3
:1017C000DD624FF001159E6C1E6519629D651A6100
:1017D000017EFFF74FFF617E2046BDE87040FFF7B6
:1017E0008DBF00BF00C00F40B80B05053B3728195F
:1017F000704700BF704700BF704700BF00BF704711
:1018000010B44FF0E023002110243148C3F8941D98
:10181000C3F89C4D1124C3F8A00D2E48C3F89C4D6D
:101820001224C3F8A00D2C48C3F89C4D2B4AC3F8D2
:10183000A00D2B4C42F015022A48C3F89C4DC3F86A
:10184000A00D294C2948C3F89C4DC3F8A00D284C85
:10185000C3F89C2D2748284AC3F8A04DC3F89C0D17
:10186000C3F8A02D02F5A022244C0C322448C3F862
:101870009C4DC3F8A02D234AC3F89C0D224CC3F8FD
:10188000A02D02F14062C3F89C4D2048C3F8A02D62
:101890000C32C3F89C0DC3F8A02D00BF00BF00BFE1
:1018A00000BF00BF0122C3F8942DBFF34F8FBFF3D9
:1018B0006F8FC3F8501FBFF34F8FBFF36F8FD3F8F5
:1018C000142D5DF8044B42F44032C3F8142D7047D8
:1018D0003F0000102500080709001000E0A00020CC
:1018E0001300200021000207140000202500081327
:1018F000090000101600202027000B1317000040DD
:10190000180000602F000B07190000701A000080FB
:10191000F0B5B84B1822B84E0120B84F83B0C3F8C9
:101920005C62B749C3F86072B64DC3F86462A6F54D
:101930003046B54CC3F86862C3F86C52C3F87052B5
:10194000C3F87452C3F8785248F20C75DA661A6715
:101950005A679A67DA67C3F88020C3F88420C3F80F
:101960008820C1F82C03A94AC1F83003C1F8340318
:10197000C1F83803C1F83C03C1F85003A169A44B76
:101980000A40A448A4491343A44AA361D4F884306C
:1019900043F00C03C4F884304FF0FF34036843F085
:1019A0000203036003682B404FF400551A439C4B1D
:1019B000026044608A689B4C13409B4A43F000538A
:1019C0008360C36823F07803C360036A1340234332
:1019D0000362036A1340954A2343954C4362826233
:1019E000C2620022D1F8B83023F03F0343F0010374
:1019F000C0F8B830D1F8BC308E4923F03F0343F033
:101A00000103C0F8BC3040F205630261056604675B
:101A1000C0F88030456644670224C0F8843003680B
:101A200023F0020303608161834B8449C46143F85E
:101A3000042B8B42FBD1774A136843F001031360F8
:101A4000136813F00103FBD17A48022140F2F564D8
:101A5000906140F29940D16140F26641C2F8004283
:101A600042F20144C2F810127549C2F82002C2F8CD
:101A7000301240F235417348C2F83442C2F8401285
:101A8000714CC2F8500242F201207049C2F854125F
:101A90000121C2F86042C2F864025E48C2F8A03078
:101AA000C2F8A430C2F8B0104369DA07FCD50123AC
:101AB00000244FF4803257494361C0F8A040C0F879
:101AC000A420C0F8B0304B69DB07FCD5012300240B
:101AD0004FF400304F4A4B61C1F8A040C1F8A40058
:101AE000C1F8B0305369DF07FCD501230024584802
:101AF00048495361C2F8A040C2F8A400C2F8B0300F
:101B00004B69DE07FCD5D1F8003145F60D52212096
:101B10009BB24861934265D100244FF48022012397
:101B20003C48C1F8A040C1F8A420C1F8B0304369D6
:101B3000DD07FCD501234FF400040021354A436141
:101B4000C0F8A040C0F8A410C0F8B0305369DC075A
:101B5000FCD501234FF400044FF480302D4953612C
:101B6000C2F8A040C2F8A400C2F8B0304B69D80750
:101B7000FCD501234FF400044FF40030254A4B619B
:101B8000C1F8A040C1F8A400C1F8B0305369D9072A
:101B9000FCD501234FF400042D481E495361C2F8BF
:101BA000A040C2F8A400C2F8B0304B69DA07FCD5F7
:101BB000D1F8003145F60D5221209BB24861934285
:101BC00050D008254FF4000422490020224B234A1C
:101BD000009015705A1A01232148224400F004FA9B
:101BE00003B0F0BD1E4B0022C3E90022C3E902226C
:101BF00003B0F0BD00801F40F9B00100F9100100F2
:101C000000841F40F970010000C00F40FFFCFF1F5F
:101C1000000300A000402A4000802A401200FFFF7D
:101C2000FF37F7004000008000FFF07CFF000F83CB
:101C300063000200F05AF05A00422A4000432A4052
:101C40009F041830EB06180A3806180A06320126D7
:101C5000040003000000007000000070A7A0002036
:101C6000E49B00204FF400044FF480220123084835
:101C7000C1F8A040C1F8A420C1F8B0304369DB0727
:101C8000FCD5012310254FF0807443619CE700BF11
:101C900000402A40F0B4154A40274FF480314FF4F9
:101CA00080564FF400554FF4404443F2420013690C
:101CB00013F0020F0ED113F4005F0FD013F4805F06
:101CC0000ED0002BF3DA13F4803F0BD15B060BD55B
:101CD000F0BC7047946151619061E8E75561E6E7B7
:101CE0005661E4E79161E2E75761E0E700800D406B
:101CF0003F4A03203F49F3EE095AD2F880304FF0B3
:101D0000000C9FED3D6A23F001039FED3C5A30B477
:101D1000C2F88030C2F89000D1F8E010384DCBB254
:101D2000384C39482B6007EE903A0B0DC1F30B216C
:101D3000F8EEE77A06EE903A07EE101A334BB8EE5B
:101D4000C77A2160F8EEE66A314937EEC66A37EEA7
:101D5000C55A76EEC76A77EEE57A26EE266AC3EDB7
:101D6000006A25EE265AD2F8803067EEA64AC0ED0A
:101D7000007AC6EE275A274885EE276AC4EEA76A7E
:101D800075EE875AFCEEE55A36EE076A15EE904A74
:101D9000BCEEC66A43EA045376EE877AC2F8803016
:101DA00016EE103AD2F89041FCEEE77A01EA0341D0
:101DB000214317EE903AC2F89011C3F30B03D2F807
:101DC00090110B431449C2F89031D2F8803043F09F
:101DD0000203C2F88030114B80F840C0C1F8403196
:101DE0004FF0E023012230BCC3F80821704700BF48
:101DF00000810D4000441F400000AA420000B44290
:101E0000309F00202C9F0020349F0020389F00200E
:101E10000000FF0F00E400E0004000207D5B0000B8
:101E2000314B40F6617210B5C3F8202140F20444F2
:101E300000F0D2F82D4A2E49D2F880302D4843F0D8
:101E40000303C2F880302C4BC1F8604102681A428B
:101E500003D1D1F8A8319A071BD0254A4FF0004191
:101E6000244B5963D2F8403143F00203C2F84031A9
:101E7000D2F840319B07FBD44FF400304FF0E02103
:101E80001C4B4FF00042C1F88C0219209A6300F0FD
:101E90009BF8184A4FF08040154C002190630A20AF
:101EA000164B11604FF42072C4F8A801184600F0D8
:101EB0009FF84FF4800203464FF4810040F2431133
:101EC0001860C4F858311A640D4B0E4AC4F8481112
:101ED000C3F804224FF0E0224FF400310123C2F88E
:101EE0000C11C4F8403110BD00800D4000C00F40FF
:101EF00000002E4000900D40001C1E00000000203D
:101F000000400020655D000008B50E4B1B6E9B076E
:101F100000D4FBBE72B60C4B00200C4AC3F8400143
:101F200003F160430A49A3F55F2311649D46BFF3A3
:101F30004F8F4FF400130748074ADB6902609B6824
:101F4000984700BF00441F4000002E4000C00A40D8
:101F50000300200000802020000012EB104BA02086
:101F6000104AD96E41F4403110B4D96640F237645A
:101F7000D96E41F44071D96654649064936C1B0629
:101F8000FCD4094A40F23761A02351649364936CF6
:101F900013F08003FBD1054A13705DF8044B7047C2
:101FA00000C00F4000400C4000800C40A5A0002065
:101FB000F8B500BFF8BC08BC9E46704700000000A2
:101FC0005FF800F0D9B101005FF800F00D5000009B
:101FD0005FF800F0F95200005FF800F0D5640000EF
:101FE0005FF800F01D4D00005FF800F0E56E0000A6
:101FF0005FF800F0DDB001005FF800F07D580000F0
:10200000050100001D3C0000916F0000498C00009C
:082010001DEF000019F20000B1
:1020180080C00F40000000031900000010000000FD
:10202800E8841F4001000000FF000000FF000000DE
:102038000000000000000000180000001000000070
:10204800E4841F4001000000FF000000FF000000C2
:1020580000000000000000001F000000B143000065
:1020680070C00F40000C00001100000011000000BB
:10207800E0841F40020000002C0000001200000055
:10208800E0841F4001000000100000001100000063
:10209800DC841F40020000002D0000001200000038
:1020A800DC841F40010000001E000000A543000062
:1020B80070C00F40C00000001200000013000000B4
:1020C800D0841F4001000000FF000000FF00000056
:1020D80000000000000000001300000013000000D2
:1020E800CC841F4001000000FF000000FF0000003A
:1020F80000000000000000001C00000099430000E0
:10210800160355005300420020005300650072007A
:10211800690061006C000000180354006500650048
:102128006E00730079006400750069006E006F002E
:102138000403090409026200030100C032080B000D
:102148000202020100090400000102020100052444
:1021580000100105240101010424020605240600DB
:10216800010705820310001009040100020A00009B
:10217800000705030240000007058402400000092B
:1021880004020002FF6AFF00070581024000010700
:10219800050102400001000009026200030100C0BD
:1021A80032080B00020202010009040000010202C9
:1021B8000100052400100105240101010424020680
:1021C8000524060001070582031000050904010023
:1021D800020A000000070503020002000705840246
:1021E8000002000904020002FF6AC7000705810215
:1021F8000002010705010200020100000A060002B0
:08220800EF020140010000009B
:1022100000000000000000000000000000000000BE
:1022200000000000000000000000000000000000AE
:10223000F8B54FF084439D695A6915400DD0254F7C
:1022400001269D6195FAA5F4B4FA84F457F8243078
:1022500006FA04F49847A543F4D11F4B9D695A69C7
:1022600015400DD01D4F01269D6195FAA5F4B4FAD5
:1022700084F457F8243006FA04F49847A543F4D1BF
:10228000174B9D695A6915400DD0164F01269D6167
:1022900095FAA5F4B4FA84F457F8243006FA04F455
:1022A0009847A543F4D1104B9D695A6915400DD04C
:1022B0000E4F01269D6195FAA5F4B4FA84F457F8FF
:1022C000243006FA04F49847A543F4D1BFF34F8FA6
:1022D000F8BD00BF7435002000400042F4350020F6
:1022E000008000427436002000C00042F436002016
:1022F0000548064B1B1AD90F01EBA301491002D068
:10230000034B03B118477047C0420020C042002071
:102310000000000008B5054B1BB105490548AFF3A7
:102320000080BDE80840FFF7E3BF00BF00000000E9
:102330007C9E002000680260704700BF704700BFAD
:102340000C2100F5BC7004F077B900BF00B597B060
:10235000142200F5BC700DA904F0D2FA9DED131AF9
:102360009DED142A9DED120AB7EEC11AB7EEC22AEE
:10237000B7EEC00A17B05DF804FB00BF10B596B009
:102380000446082200F5BC700DA904F0B9FA94EDDA
:10239000520A9DED131A9DED142ADDED127A20EEFE
:1023A000011A20EE022A20EE270AB7EEC11AB7EE74
:1023B000C22AB7EEC00A16B010BD00BF08B50D2086
:1023C00004F0D4FF01460D20B1FA81F1490904F06F
:1023D000A3FF024A024B12681A6008BDB89F002092
:1023E0009C9E0020224BD3F8D820D2E90010D3685D
:1023F0000968006810B41842946801EA04012ED0FC
:10240000137C03F00303D9B943F008039908013B97
:1024100011740D2B0BD8DFE803F00D071C070A160B
:102420000D0D160A071C070D5369013B53615DF83A
:10243000044B704753695DF8044B01335361704797
:1024400043F00403E0E753695DF8044B023B53613A
:10245000704753695DF8044B023353617047137C36
:1024600003F003030029D1D043F00403CEE700BFFB
:10247000B0930020214B9A68D2E90010D368096814
:10248000006810B41842946801EA04012ED0137C4D
:1024900003F00303D9B943F008039908013B117411
:1024A0000D2B0BD8DFE803F00D071C070A160D0DE6
:1024B000160A071C070D5369013B53615DF8044B75
:1024C000704753695DF8044B01335361704743F023
:1024D0000403E0E753695DF8044B023B5361704726
:1024E00053695DF8044B023353617047137C03F06A
:1024F00003030029D1D043F00403CEE7B0930020BA
:10250000214BDA68D2E90010D3680968006810B47A
:102510001842946801EA04012ED0137C03F00303EF
:10252000D9B943F008039908013B11740D2B0BD85E
:10253000DFE803F00D071C070A160D0D160A071C2D
:10254000070D5369013B53615DF8044B70475369B4
:102550005DF8044B01335361704743F00403E0E737
:1025600053695DF8044B023B5361704753695DF852
:10257000044B023353617047137C03F003030029BB
:10258000D1D043F00403CEE7B0930020214B1A6969
:10259000D2E90010D3680968006810B41842946842
:1025A00001EA04012ED0137C03F00303D9B943F0F0
:1025B00008039908013B11740D2B0BD8DFE803F0D9
:1025C0000D071C070A160D0D160A071C070D536987
:1025D000013B53615DF8044B704753695DF8044B50
:1025E00001335361704743F00403E0E753695DF83A
:1025F000044B023B5361704753695DF8044B02334F
:1026000053617047137C03F003030029D1D043F0DA
:102610000403CEE7B0930020214B5A69D2E90010A1
:10262000D3680968006810B41842946801EA04018C
:102630002ED0137C03F00303D9B943F008039908A3
:10264000013B11740D2B0BD8DFE803F00D071C07BD
:102650000A160D0D160A071C070D5369013B53613D
:102660005DF8044B704753695DF8044B01335361C7
:10267000704743F00403E0E753695DF8044B023B05
:102680005361704753695DF8044B023353617047DF
:10269000137C03F003030029D1D043F00403CEE7F9
:1026A000B0930020214B9A69D2E90010D3680968E1
:1026B000006810B41842946801EA04012ED0137C1B
:1026C00003F00303D9B943F008039908013B1174DF
:1026D0000D2B0BD8DFE803F00D071C070A160D0DB4
:1026E000160A071C070D5369013B53615DF8044B43
:1026F000704753695DF8044B01335361704743F0F1
:102700000403E0E753695DF8044B023B53617047F3
:1027100053695DF8044B023353617047137C03F037
:1027200003030029D1D043F00403CEE7B093002087
:10273000214BDA69D2E90010D3680968006810B447
:102740001842946801EA04012ED0137C03F00303BD
:10275000D9B943F008039908013B11740D2B0BD82C
:10276000DFE803F00D071C070A160D0D160A071CFB
:10277000070D5369013B53615DF8044B7047536982
:102780005DF8044B01335361704743F00403E0E705
:1027900053695DF8044B023B5361704753695DF820
:1027A000044B023353617047137C03F00303002989
:1027B000D1D043F00403CEE7B0930020214B1A6A36
:1027C000D2E90010D3680968006810B41842946810
:1027D00001EA04012ED0137C03F00303D9B943F0BE
:1027E00008039908013B11740D2B0BD8DFE803F0A7
:1027F0000D071C070A160D0D160A071C070D536955
:10280000013B53615DF8044B704753695DF8044B1D
:1028100001335361704743F00403E0E753695DF807
:10282000044B023B5361704753695DF8044B02331C
:1028300053617047137C03F003030029D1D043F0A8
:102840000403CEE7B0930020214B5A6AD2E900106E
:10285000D3680968006810B41842946801EA04015A
:102860002ED0137C03F00303D9B943F00803990871
:10287000013B11740D2B0BD8DFE803F00D071C078B
:102880000A160D0D160A071C070D5369013B53610B
:102890005DF8044B704753695DF8044B0133536195
:1028A000704743F00403E0E753695DF8044B023BD3
:1028B0005361704753695DF8044B023353617047AD
:1028C000137C03F003030029D1D043F00403CEE7C7
:1028D000B0930020214B9A6AD2E90010D3680968AE
:1028E000006810B41842946801EA04012ED0137CE9
:1028F00003F00303D9B943F008039908013B1174AD
:102900000D2B0BD8DFE803F00D071C070A160D0D81
:10291000160A071C070D5369013B53615DF8044B10
:10292000704753695DF8044B01335361704743F0BE
:102930000403E0E753695DF8044B023B53617047C1
:1029400053695DF8044B023353617047137C03F005
:1029500003030029D1D043F00403CEE7B093002055
:10296000214BDA6AD2E90010D3680968006810B414
:102970001842946801EA04012ED0137C03F003038B
:10298000D9B943F008039908013B11740D2B0BD8FA
:10299000DFE803F00D071C070A160D0D160A071CC9
:1029A000070D5369013B53615DF8044B7047536950
:1029B0005DF8044B01335361704743F00403E0E7D3
:1029C00053695DF8044B023B5361704753695DF8EE
:1029D000044B023353617047137C03F00303002957
:1029E000D1D043F00403CEE7B0930020214B1A6B03
:1029F000D2E90010D3680968006810B418429468DE
:102A000001EA04012ED0137C03F00303D9B943F08B
:102A100008039908013B11740D2B0BD8DFE803F074
:102A20000D071C070A160D0D160A071C070D536922
:102A3000013B53615DF8044B704753695DF8044BEB
:102A400001335361704743F00403E0E753695DF8D5
:102A5000044B023B5361704753695DF8044B0233EA
:102A600053617047137C03F003030029D1D043F076
:102A70000403CEE7B0930020214B5A6BD2E900103B
:102A8000D3680968006810B41842946801EA040128
:102A90002ED0137C03F00303D9B943F0080399083F
:102AA000013B11740D2B0BD8DFE803F00D071C0759
:102AB0000A160D0D160A071C070D5369013B5361D9
:102AC0005DF8044B704753695DF8044B0133536163
:102AD000704743F00403E0E753695DF8044B023BA1
:102AE0005361704753695DF8044B0233536170477B
:102AF000137C03F003030029D1D043F00403CEE795
:102B0000B0930020214B9A6BD2E90010D36809687A
:102B1000006810B41842946801EA04012ED0137CB6
:102B200003F00303D9B943F008039908013B11747A
:102B30000D2B0BD8DFE803F00D071C070A160D0D4F
:102B4000160A071C070D5369013B53615DF8044BDE
:102B5000704753695DF8044B01335361704743F08C
:102B60000403E0E753695DF8044B023B536170478F
:102B700053695DF8044B023353617047137C03F0D3
:102B800003030029D1D043F00403CEE7B093002023
:102B9000214BDA6BD2E90010D3680968006810B4E1
:102BA0001842946801EA04012ED0137C03F0030359
:102BB000D9B943F008039908013B11740D2B0BD8C8
:102BC000DFE803F00D071C070A160D0D160A071C97
:102BD000070D5369013B53615DF8044B704753691E
:102BE0005DF8044B01335361704743F00403E0E7A1
:102BF00053695DF8044B023B5361704753695DF8BC
:102C0000044B023353617047137C03F00303002924
:102C1000D1D043F00403CEE7B0930020214B1A6CCF
:102C2000D2E90010D3680968006810B418429468AB
:102C300001EA04012ED0137C03F00303D9B943F059
:102C400008039908013B11740D2B0BD8DFE803F042
:102C50000D071C070A160D0D160A071C070D5369F0
:102C6000013B53615DF8044B704753695DF8044BB9
:102C700001335361704743F00403E0E753695DF8A3
:102C8000044B023B5361704753695DF8044B0233B8
:102C900053617047137C03F003030029D1D043F044
:102CA0000403CEE7B0930020214B5A6CD2E9001008
:102CB000D3680968006810B41842946801EA0401F6
:102CC0002ED0137C03F00303D9B943F0080399080D
:102CD000013B11740D2B0BD8DFE803F00D071C0727
:102CE0000A160D0D160A071C070D5369013B5361A7
:102CF0005DF8044B704753695DF8044B0133536131
:102D0000704743F00403E0E753695DF8044B023B6E
:102D10005361704753695DF8044B02335361704748
:102D2000137C03F003030029D1D043F00403CEE762
:102D3000B0930020214B9A6CD2E90010D368096847
:102D4000006810B41842946801EA04012ED0137C84
:102D500003F00303D9B943F008039908013B117448
:102D60000D2B0BD8DFE803F00D071C070A160D0D1D
:102D7000160A071C070D5369013B53615DF8044BAC
:102D8000704753695DF8044B01335361704743F05A
:102D90000403E0E753695DF8044B023B536170475D
:102DA00053695DF8044B023353617047137C03F0A1
:102DB00003030029D1D043F00403CEE7B0930020F1
:102DC000214BDA6CD2E90010D3680968006810B4AE
:102DD0001842946801EA04012ED0137C03F0030327
:102DE000D9B943F008039908013B11740D2B0BD896
:102DF000DFE803F00D071C070A160D0D160A071C65
:102E0000070D5369013B53615DF8044B70475369EB
:102E10005DF8044B01335361704743F00403E0E76E
:102E200053695DF8044B023B5361704753695DF889
:102E3000044B023353617047137C03F003030029F2
:102E4000D1D043F00403CEE7B0930020214B1A6D9C
:102E5000D2E90010D3680968006810B41842946879
:102E600001EA04012ED0137C03F00303D9B943F027
:102E700008039908013B11740D2B0BD8DFE803F010
:102E80000D071C070A160D0D160A071C070D5369BE
:102E9000013B53615DF8044B704753695DF8044B87
:102EA00001335361704743F00403E0E753695DF871
:102EB000044B023B5361704753695DF8044B023386
:102EC00053617047137C03F003030029D1D043F012
:102ED0000403CEE7B0930020214B5A6DD2E90010D5
:102EE000D3680968006810B41842946801EA0401C4
:102EF0002ED0137C03F00303D9B943F008039908DB
:102F0000013B11740D2B0BD8DFE803F00D071C07F4
:102F10000A160D0D160A071C070D5369013B536174
:102F20005DF8044B704753695DF8044B01335361FE
:102F3000704743F00403E0E753695DF8044B023B3C
:102F40005361704753695DF8044B02335361704716
:102F5000137C03F003030029D1D043F00403CEE730
:102F6000B0930020214B9A6DD2E90010D368096814
:102F7000006810B41842946801EA04012ED0137C52
:102F800003F00303D9B943F008039908013B117416
:102F90000D2B0BD8DFE803F00D071C070A160D0DEB
:102FA000160A071C070D5369013B53615DF8044B7A
:102FB000704753695DF8044B01335361704743F028
:102FC0000403E0E753695DF8044B023B536170472B
:102FD00053695DF8044B023353617047137C03F06F
:102FE00003030029D1D043F00403CEE7B0930020BF
:102FF000214BDA6DD2E90010D3680968006810B47B
:103000001842946801EA04012ED0137C03F00303F4
:10301000D9B943F008039908013B11740D2B0BD863
:10302000DFE803F00D071C070A160D0D160A071C32
:10303000070D5369013B53615DF8044B70475369B9
:103040005DF8044B01335361704743F00403E0E73C
:1030500053695DF8044B023B5361704753695DF857
:10306000044B023353617047137C03F003030029C0
:10307000D1D043F00403CEE7B0930020214B1A6E69
:10308000D2E90010D3680968006810B41842946847
:1030900001EA04012ED0137C03F00303D9B943F0F5
:1030A00008039908013B11740D2B0BD8DFE803F0DE
:1030B0000D071C070A160D0D160A071C070D53698C
:1030C000013B53615DF8044B704753695DF8044B55
:1030D00001335361704743F00403E0E753695DF83F
:1030E000044B023B5361704753695DF8044B023354
:1030F00053617047137C03F003030029D1D043F0E0
:103100000403CEE7B0930020214B5A6ED2E90010A1
:10311000D3680968006810B41842946801EA040191
:103120002ED0137C03F00303D9B943F008039908A8
:10313000013B11740D2B0BD8DFE803F00D071C07C2
:103140000A160D0D160A071C070D5369013B536142
:103150005DF8044B704753695DF8044B01335361CC
:10316000704743F00403E0E753695DF8044B023B0A
:103170005361704753695DF8044B023353617047E4
:10318000137C03F003030029D1D043F00403CEE7FE
:10319000B0930020214B1A68D2E90010D368096867
:1031A000006810B41842946801EA04012ED0137C20
:1031B00003F00303D9B943F008039908013B1174E4
:1031C0000D2B0BD8DFE803F00D071C070A160D0DB9
:1031D000160A071C070D5369013B53615DF8044B48
:1031E000704753695DF8044B01335361704743F0F6
:1031F0000403E0E753695DF8044B023B53617047F9
:1032000053695DF8044B023353617047137C03F03C
:1032100003030029D1D043F00403CEE7B09300208C
:10322000214B5A68D2E90010D3680968006810B4CD
:103230001842946801EA04012ED0137C03F00303C2
:10324000D9B943F008039908013B11740D2B0BD831
:10325000DFE803F00D071C070A160D0D160A071C00
:10326000070D5369013B53615DF8044B7047536987
:103270005DF8044B01335361704743F00403E0E70A
:1032800053695DF8044B023B5361704753695DF825
:10329000044B023353617047137C03F0030300298E
:1032A000D1D043F00403CEE7B0930020224BD3F8F3
:1032B000C820D2E90010D3680968006810B4184229
:1032C000946801EA04012ED0137C03F00303D9B9FA
:1032D00043F008039908013B11740D2B0BD8DFE86C
:1032E00003F00D071C070A160D0D160A071C070D23
:1032F0005369013B53615DF8044B704753695DF8B6
:10330000044B01335361704743F00403E0E7536912
:103310005DF8044B023B5361704753695DF8044B01
:10332000023353617047137C03F003030029D1D0AB
:1033300043F00403CEE700BFB0930020224BD3F844
:10334000CC20D2E90010D3680968006810B4184294
:10335000946801EA04012ED0137C03F00303D9B969
:1033600043F008039908013B11740D2B0BD8DFE8DB
:1033700003F00D071C070A160D0D160A071C070D92
:103380005369013B53615DF8044B704753695DF825
:10339000044B01335361704743F00403E0E7536982
:1033A0005DF8044B023B5361704753695DF8044B71
:1033B000023353617047137C03F003030029D1D01B
:1033C00043F00403CEE700BFB0930020224BD3F8B4
:1033D000D020D2E90010D3680968006810B4184200
:1033E000946801EA04012ED0137C03F00303D9B9D9
:1033F00043F008039908013B11740D2B0BD8DFE84B
:1034000003F00D071C070A160D0D160A071C070D01
:103410005369013B53615DF8044B704753695DF894
:10342000044B01335361704743F00403E0E75369F1
:103430005DF8044B023B5361704753695DF8044BE0
:10344000023353617047137C03F003030029D1D08A
:1034500043F00403CEE700BFB0930020224BD3F823
:10346000D420D2E90010D3680968006810B418426B
:10347000946801EA04012ED0137C03F00303D9B948
:1034800043F008039908013B11740D2B0BD8DFE8BA
:1034900003F00D071C070A160D0D160A071C070D71
:1034A0005369013B53615DF8044B704753695DF804
:1034B000044B01335361704743F00403E0E7536961
:1034C0005DF8044B023B5361704753695DF8044B50
:1034D000023353617047137C03F003030029D1D0FA
:1034E00043F00403CEE700BFB0930020224BD3F893
:1034F000A820D2E90010D3680968006810B4184207
:10350000946801EA04012ED0137C03F00303D9B9B7
:1035100043F008039908013B11740D2B0BD8DFE829
:1035200003F00D071C070A160D0D160A071C070DE0
:103530005369013B53615DF8044B704753695DF873
:10354000044B01335361704743F00403E0E75369D0
:103550005DF8044B023B5361704753695DF8044BBF
:10356000023353617047137C03F003030029D1D069
:1035700043F00403CEE700BFB0930020224BD3F802
:10358000AC20D2E90010D3680968006810B4184272
:10359000946801EA04012ED0137C03F00303D9B927
:1035A00043F008039908013B11740D2B0BD8DFE899
:1035B00003F00D071C070A160D0D160A071C070D50
:1035C0005369013B53615DF8044B704753695DF8E3
:1035D000044B01335361704743F00403E0E7536940
:1035E0005DF8044B023B5361704753695DF8044B2F
:1035F000023353617047137C03F003030029D1D0D9
:1036000043F00403CEE700BFB0930020224BD3F871
:10361000B020D2E90010D3680968006810B41842DD
:10362000946801EA04012ED0137C03F00303D9B996
:1036300043F008039908013B11740D2B0BD8DFE808
:1036400003F00D071C070A160D0D160A071C070DBF
:103650005369013B53615DF8044B704753695DF852
:10366000044B01335361704743F00403E0E75369AF
:103670005DF8044B023B5361704753695DF8044B9E
:10368000023353617047137C03F003030029D1D048
:1036900043F00403CEE700BFB0930020224BD3F8E1
:1036A000B420D2E90010D3680968006810B4184249
:1036B000946801EA04012ED0137C03F00303D9B906
:1036C00043F008039908013B11740D2B0BD8DFE878
:1036D00003F00D071C070A160D0D160A071C070D2F
:1036E0005369013B53615DF8044B704753695DF8C2
:1036F000044B01335361704743F00403E0E753691F
:103700005DF8044B023B5361704753695DF8044B0D
:10371000023353617047137C03F003030029D1D0B7
:1037200043F00403CEE700BFB0930020224BD3F850
:10373000B820D2E90010D3680968006810B41842B4
:10374000946801EA04012ED0137C03F00303D9B975
:1037500043F008039908013B11740D2B0BD8DFE8E7
:1037600003F00D071C070A160D0D160A071C070D9E
:103770005369013B53615DF8044B704753695DF831
:10378000044B01335361704743F00403E0E753698E
:103790005DF8044B023B5361704753695DF8044B7D
:1037A000023353617047137C03F003030029D1D027
:1037B00043F00403CEE700BFB0930020224BD3F8C0
:1037C000BC20D2E90010D3680968006810B4184220
:1037D000946801EA04012ED0137C03F00303D9B9E5
:1037E00043F008039908013B11740D2B0BD8DFE857
:1037F00003F00D071C070A160D0D160A071C070D0E
:103800005369013B53615DF8044B704753695DF8A0
:10381000044B01335361704743F00403E0E75369FD
:103820005DF8044B023B5361704753695DF8044BEC
:10383000023353617047137C03F003030029D1D096
:1038400043F00403CEE700BFB0930020224BD3F82F
:10385000C020D2E90010D3680968006810B418428B
:10386000946801EA04012ED0137C03F00303D9B954
:1038700043F008039908013B11740D2B0BD8DFE8C6
:1038800003F00D071C070A160D0D160A071C070D7D
:103890005369013B53615DF8044B704753695DF810
:1038A000044B01335361704743F00403E0E753696D
:1038B0005DF8044B023B5361704753695DF8044B5C
:1038C000023353617047137C03F003030029D1D006
:1038D00043F00403CEE700BFB0930020224BD3F89F
:1038E000C420D2E90010D3680968006810B41842F7
:1038F000946801EA04012ED0137C03F00303D9B9C4
:1039000043F008039908013B11740D2B0BD8DFE835
:1039100003F00D071C070A160D0D160A071C070DEC
:103920005369013B53615DF8044B704753695DF87F
:10393000044B01335361704743F00403E0E75369DC
:103940005DF8044B023B5361704753695DF8044BCB
:10395000023353617047137C03F003030029D1D075
:1039600043F00403CEE700BFB0930020214B9A6ED2
:10397000D2E90010D3680968006810B4184294684E
:1039800001EA04012ED0137C03F00303D9B943F0FC
:1039900008039908013B11740D2B0BD8DFE803F0E5
:1039A0000D071C070A160D0D160A071C070D536993
:1039B000013B53615DF8044B704753695DF8044B5C
:1039C00001335361704743F00403E0E753695DF846
:1039D000044B023B5361704753695DF8044B02335B
:1039E00053617047137C03F003030029D1D043F0E7
:1039F0000403CEE7B0930020214BDA6ED2E9001029
:103A0000D3680968006810B41842946801EA040198
:103A10002ED0137C03F00303D9B943F008039908AF
:103A2000013B11740D2B0BD8DFE803F00D071C07C9
:103A30000A160D0D160A071C070D5369013B536149
:103A40005DF8044B704753695DF8044B01335361D3
:103A5000704743F00403E0E753695DF8044B023B11
:103A60005361704753695DF8044B023353617047EB
:103A7000137C03F003030029D1D043F00403CEE705
:103A8000B0930020214B1A6FD2E90010D368096867
:103A9000006810B41842946801EA04012ED0137C27
:103AA00003F00303D9B943F008039908013B1174EB
:103AB0000D2B0BD8DFE803F00D071C070A160D0DC0
:103AC000160A071C070D5369013B53615DF8044B4F
:103AD000704753695DF8044B01335361704743F0FD
:103AE0000403E0E753695DF8044B023B5361704700
:103AF00053695DF8044B023353617047137C03F044
:103B000003030029D1D043F00403CEE7B093002093
:103B1000214B5A6FD2E90010D3680968006810B4CD
:103B20001842946801EA04012ED0137C03F00303C9
:103B3000D9B943F008039908013B11740D2B0BD838
:103B4000DFE803F00D071C070A160D0D160A071C07
:103B5000070D5369013B53615DF8044B704753698E
:103B60005DF8044B01335361704743F00403E0E711
:103B700053695DF8044B023B5361704753695DF82C
:103B8000044B023353617047137C03F00303002995
:103B9000D1D043F00403CEE7B0930020214B9A6FBD
:103BA000D2E90010D3680968006810B4184294681C
:103BB00001EA04012ED0137C03F00303D9B943F0CA
:103BC00008039908013B11740D2B0BD8DFE803F0B3
:103BD0000D071C070A160D0D160A071C070D536961
:103BE000013B53615DF8044B704753695DF8044B2A
:103BF00001335361704743F00403E0E753695DF814
:103C0000044B023B5361704753695DF8044B023328
:103C100053617047137C03F003030029D1D043F0B4
:103C20000403CEE7B0930020214BDA6FD2E90010F5
:103C3000D3680968006810B41842946801EA040166
:103C40002ED0137C03F00303D9B943F0080399087D
:103C5000013B11740D2B0BD8DFE803F00D071C0797
:103C60000A160D0D160A071C070D5369013B536117
:103C70005DF8044B704753695DF8044B01335361A1
:103C8000704743F00403E0E753695DF8044B023BDF
:103C90005361704753695DF8044B023353617047B9
:103CA000137C03F003030029D1D043F00403CEE7D3
:103CB000B0930020224BD3F88020D2E90010D368C3
:103CC0000968006810B41842946801EA04012ED013
:103CD000137C03F00303D9B943F008039908013BAF
:103CE00011740D2B0BD8DFE803F00D071C070A1623
:103CF0000D0D160A071C070D5369013B53615DF852
:103D0000044B704753695DF8044B013353617047AE
:103D100043F00403E0E753695DF8044B023B536151
:103D2000704753695DF8044B023353617047137C4D
:103D300003F003030029D1D043F00403CEE700BF12
:103D4000B0930020224BD3F88420D2E90010D3682E
:103D50000968006810B41842946801EA04012ED082
:103D6000137C03F00303D9B943F008039908013B1E
:103D700011740D2B0BD8DFE803F00D071C070A1692
:103D80000D0D160A071C070D5369013B53615DF8C1
:103D9000044B704753695DF8044B0133536170471E
:103DA00043F00403E0E753695DF8044B023B5361C1
:103DB000704753695DF8044B023353617047137CBD
:103DC00003F003030029D1D043F00403CEE700BF82
:103DD000B0930020224BD3F88820D2E90010D3689A
:103DE0000968006810B41842946801EA04012ED0F2
:103DF000137C03F00303D9B943F008039908013B8E
:103E000011740D2B0BD8DFE803F00D071C070A1601
:103E10000D0D160A071C070D5369013B53615DF830
:103E2000044B704753695DF8044B0133536170478D
:103E300043F00403E0E753695DF8044B023B536130
:103E4000704753695DF8044B023353617047137C2C
:103E500003F003030029D1D043F00403CEE700BFF1
:103E6000B0930020224BD3F88C20D2E90010D36805
:103E70000968006810B41842946801EA04012ED061
:103E8000137C03F00303D9B943F008039908013BFD
:103E900011740D2B0BD8DFE803F00D071C070A1671
:103EA0000D0D160A071C070D5369013B53615DF8A0
:103EB000044B704753695DF8044B013353617047FD
:103EC00043F00403E0E753695DF8044B023B5361A0
:103ED000704753695DF8044B023353617047137C9C
:103EE00003F003030029D1D043F00403CEE700BF61
:103EF000B0930020224BD3F89020D2E90010D36871
:103F00000968006810B41842946801EA04012ED0D0
:103F1000137C03F00303D9B943F008039908013B6C
:103F200011740D2B0BD8DFE803F00D071C070A16E0
:103F30000D0D160A071C070D5369013B53615DF80F
:103F4000044B704753695DF8044B0133536170476C
:103F500043F00403E0E753695DF8044B023B53610F
:103F6000704753695DF8044B023353617047137C0B
:103F700003F003030029D1D043F00403CEE700BFD0
:103F8000B0930020224BD3F89420D2E90010D368DC
:103F90000968006810B41842946801EA04012ED040
:103FA000137C03F00303D9B943F008039908013BDC
:103FB00011740D2B0BD8DFE803F00D071C070A1650
:103FC0000D0D160A071C070D5369013B53615DF87F
:103FD000044B704753695DF8044B013353617047DC
:103FE00043F00403E0E753695DF8044B023B53617F
:103FF000704753695DF8044B023353617047137C7B
:1040000003F003030029D1D043F00403CEE700BF3F
:10401000B0930020224BD3F89820D2E90010D36847
:104020000968006810B41842946801EA04012ED0AF
:10403000137C03F00303D9B943F008039908013B4B
:1040400011740D2B0BD8DFE803F00D071C070A16BF
:104050000D0D160A071C070D5369013B53615DF8EE
:10406000044B704753695DF8044B0133536170474B
:1040700043F00403E0E753695DF8044B023B5361EE
:10408000704753695DF8044B023353617047137CEA
:1040900003F003030029D1D043F00403CEE700BFAF
:1040A000B0930020224BD3F89C20D2E90010D368B3
:1040B0000968006810B41842946801EA04012ED01F
:1040C000137C03F00303D9B943F008039908013BBB
:1040D00011740D2B0BD8DFE803F00D071C070A162F
:1040E0000D0D160A071C070D5369013B53615DF85E
:1040F000044B704753695DF8044B013353617047BB
:1041000043F00403E0E753695DF8044B023B53615D
:10411000704753695DF8044B023353617047137C59
:1041200003F003030029D1D043F00403CEE700BF1E
:10413000B0930020224BD3F8A020D2E90010D3681E
:104140000968006810B41842946801EA04012ED08E
:10415000137C03F00303D9B943F008039908013B2A
:1041600011740D2B0BD8DFE803F00D071C070A169E
:104170000D0D160A071C070D5369013B53615DF8CD
:10418000044B704753695DF8044B0133536170472A
:1041900043F00403E0E753695DF8044B023B5361CD
:1041A000704753695DF8044B023353617047137CC9
:1041B00003F003030029D1D043F00403CEE700BF8E
:1041C000B0930020224BD3F8A420D2E90010D3688A
:1041D0000968006810B41842946801EA04012ED0FE
:1041E000137C03F00303D9B943F008039908013B9A
:1041F00011740D2B0BD8DFE803F00D071C070A160E
:104200000D0D160A071C070D5369013B53615DF83C
:10421000044B704753695DF8044B01335361704799
:1042200043F00403E0E753695DF8044B023B53613C
:10423000704753695DF8044B023353617047137C38
:1042400003F003030029D1D043F00403CEE700BFFD
:10425000B09300200B4610B5362800F29782DFE8B5
:1042600010F08C0282027902700267025E0255022F
:104270004C0243023A02310228021F02BF01B6017A
:10428000AD01A4019B0192018901800177016E01BA
:1042900065015C0153014A01410138012F012601EA
:1042A0001D0113010901FF00F500EB00E100D7003B
:1042B000CD00C300B900AF00A5009B0091008700AE
:1042C0007D00730069005F0055004B00410037001E
:1042D000C84C0422C8493620C4F8D83003F092F8FC
:1042E000012010BDC34C0422C4493520C4F8D43089
:1042F00003F088F8012010BDBE4C0422C0493420D0
:10430000C4F8D03003F07EF8012010BDB94C04226F
:10431000BC493320C4F8CC3003F074F8012010BD40
:10432000B44C0422B8493220C4F8C83003F06AF80B
:10433000012010BDAF4C0422B4493120C4F8C43070
:1043400003F060F8012010BDAA4C0422B0493020CF
:10435000C4F8C03003F056F8012010BDA54C04226B
:10436000AC492F20C4F8BC3003F04CF8012010BD3C
:10437000A04C0422A8492E20C4F8B83003F042F81B
:10438000012010BD9B4C0422A4492D20C4F8B43058
:1043900003F038F8012010BD964C0422A0492C20CF
:1043A000C4F8B03003F02EF8012010BD914C042267
:1043B0009C492B20C4F8AC3003F024F8012010BD38
:1043C0008C4C042298492A20C4F8A83003F01AF82B
:1043D000012010BD874C042294492920C4F8A43040
:1043E00003F010F8012010BD824C042290492820CF
:1043F000C4F8A03003F006F8012010BD7D4C042263
:104400008C492720C4F89C3002F0FCFF012010BD2D
:10441000784C042288492620C4F8983002F0F2FF34
:10442000012010BD734C042284492520C4F8943027
:1044300002F0E8FF012010BD6E4C042280492420C8
:10444000C4F8903002F0DEFF012010BD694C042258
:104450007C492320C4F88C3002F0D4FF012010BD29
:10446000644C042278492220C4F8883002F0CAFF44
:10447000012010BD5F4C042274492120C4F884300F
:1044800002F0C0FF012010BD5A4C042270492020C8
:10449000C4F8803002F0B6FF012010BD554C042254
:1044A0006C491F20E36702F0ADFF012010BD514CA5
:1044B000042269491E20A36702F0A4FF012010BD59
:1044C0004C4C042265491D20636702F09BFF0120CC
:1044D00010BD484C042262491C20236702F092FF61
:1044E000012010BD434C04225E491B20E36602F00C
:1044F00089FF012010BD3F4C04225B491A20A366AE
:1045000002F080FF012010BD3A4C042257491920C7
:10451000636602F077FF012010BD364C0422544937
:104520001820236602F06EFF012010BD314C0422DA
:1045300050491720E36502F065FF012010BD2D4CA6
:1045400004224D491620A36502F05CFF012010BD36
:10455000284C042249491520636502F053FF0120CD
:1045600010BD244C042246491420236502F04AFF62
:10457000012010BD1F4C042242491320E36402F0C5
:1045800041FF012010BD1B4C04223F491220A364AF
:1045900002F038FF012010BD164C04223B491120C7
:1045A000636402F02FFF012010BD124C0422384931
:1045B0001020236402F026FF012010BD0D4C0422C0
:1045C00034490F20E36302F01DFF012010BD094CA8
:1045D000042231490E20A36302F014FF012010BD14
:1045E000044C04222D490D20636302F00BFF0120CF
:1045F00010BD00BFB0930020D50100004D12000097
:10460000BD1100002D1100009D100000CD1600000E
:104610003D160000AD1500001D1500008D140000B2
:10462000FD1300006D130000DD120000B51F000037
:10463000251F0000951E0000051E0000751D0000CE
:10464000E51C0000551C0000C51B0000351B0000C8
:10465000A51A0000191A00008D19000001190000A8
:1046600075180000E91700005D170000F90E000042
:104670006D0E0000E10D0000550D0000C90C00009A
:104680003D0C0000B10B0000250B0000990A000052
:104690000D0A000081090000F5080000690800000B
:1046A0003B4C04223B490C20236302F0ABFE01206B
:1046B00010BD374C042238490B20E36202F0A2FE01
:1046C000012010BD324C042234490A20A36202F0BA
:1046D00099FE012010BD2E4C04223149092063624D
:1046E00002F090FE012010BD294C04222D49082023
:1046F000236202F087FE012010BD254C04222A49C6
:104700000720E36102F07EFE012010BD204C042250
:1047100026490620A36102F075FE012010BD1C4C45
:10472000042223490520636102F06CFE012010BDC4
:104730000422174C1F491046236102F063FE01203A
:1047400010BD134C04221C490320E36002F05AFE02
:10475000012010BD0E4C042218490220A36002F073
:1047600051FE012010BD044609480422144943604B
:10477000012002F047FE204610BD054C04221149DD
:104780000020236002F03EFE012010BD002010BD7D
:10479000B0930020DD07000051070000C5060000AF
:1047A00039060000AD050000210500009504000059
:1047B000090400007D030000F10200006502000012
:1047C00011100000850F00002DE9F04182B0044671
:1047D0000F4616469DF820C01D46BCF1000F01D0C3
:1047E00017460E460221384602F0D2FD022130461D
:1047F00002F0CEFD25493B012548DFF89CC051F869
:10480000038001EB07132560D3F80CE001EB0613DE
:10481000C4F80C80C4F814E0DA683301C9580023E6
:10482000A26123621B4B45681B682161ACFB033C02
:104830004FF4FA634FEA9C4C03FB0CFC43685B1B90
:104840009C45FBD8D8F80030384609681EEA030FAB
:1048500014BF012300230A4204F10C0118BF43F0E6
:10486000020301912377FFF7F5FC034601993046D7
:1048700084F82430FFF7EEFC94F824200346204609
:10488000134484F8243002B0BDE8F081780E002093
:10489000001000E0FC23002083DE1B432DE9F043E1
:1048A000664C01210D202DED028B8DB002F070FDC4
:1048B0000C2104F5BC7001F0BFFE002873D1032465
:1048C00001210D2002F028FD962002F0A7FC0D200A
:1048D000002102F021FD962002F0A0FC013CEFD166
:1048E0004FF47A7002F09AFC554D40F2EE28554C88
:1048F000554FDFF878912E6804F0D6FA2378002B14
:104900003FD03B78DB073CD52B68D9F800209B1AB9
:104910000E2B36D94D4E12254D484E4C06F114083B
:104920004D4F9FED4E8A4E4B4E4A4F49CDE9000404
:1049300001200AF029FBEDB20121284602F028FDF2
:1049400056F8044B0121E4B2204602F021FDB0EEFE
:10495000480A284603F024F8B0EE480A204603F03F
:104960001FF8082003F00CF92846002102F0B2FFDE
:104970000021204602F0AEFF46450FD057F8045FF5
:10498000D9E72B6822789B1B2AB1B3F5FA6FC1D8FF
:1049900004F08AFAB0E74345FAD9BBE70DB0BDECA5
:1049A000028BBDE8F083D4F85C31002B2DDD0025AF
:1049B00004F5BC76142203A93046013501F0A0FFAE
:1049C0009DED082A9DED093A32209DED0A4AB7EE89
:1049D000C22AB7EEC33AB7EEC44A94ED585B94EDE1
:1049E0005A6B94ED5C7B35EE025B36EE036B37EE73
:1049F000047B84ED585B84ED5A6B84ED5C7B02F0A4
:104A00000DFCD4F85C319D42D4DB07EE903AB8EE51
:104A1000E77A94ED585B94ED5A6BB7EEC77A94ED54
:104A20005C3B85EE074B86EE075B83EE076B84ED00
:104A3000584B84ED5A5B84ED5C6B55E7208C00206D
:104A4000B89F0020B2A00020B1A0002024070020C1
:104A5000793E0000853E00001407002000409C467F
:104A6000753E0000713E00005024002040A0002050
:104A700030B5ABB0DA4C24A809F03AFE0DF1900C39
:104A8000BCE80F000FC40022DCF800502346D548D4
:104A9000114643F8105907F071F9002876D1D14B2F
:104AA000D14AD249D24807F06DFA002840F0C081BF
:104AB00006F0C4F9CF4B0246CD49CF4807F02EFB94
:104AC000002840F06B810CF023FBCC4B0246C84918
:104AD000CB4807F023FB002840F03F8104F052FB55
:104AE000C84B0246C249C84807F052FB002840F0B4
:104AF00013810CF08BFCC54B0246BD49C44807F03E
:104B00000DFB002840F0E780102017F0FFFFC14B9D
:104B10000146042202A8C3E9041206F0E9FD882236
:104B200002A9BD4802F0F8FCAD4B0222AD49BA48DB
:104B300006F0EAFD002840F0AD800024B74BB84AEB
:104B4000B149B548009406F08FFE002840F08180FE
:104B5000B449B14806F0C6FE002859D1B24B0A202C
:104B60001D680BF019FD90BB0BF0FAFC451B0A46C3
:104B7000AE4C4FF00D004FF0010162F10002C4E9AC
:104B8000005202F0C9FB01202BB030BD01210D20E5
:104B900002F0C2FB962002F041FB00210D2002F042
:104BA000BBFB962002F03AFB01210D2002F0B4FB82
:104BB000962002F033FB00210D2002F0ADFB962081
:104BC00002F02CFB4FF47A7002F028FB67E701211A
:104BD0000D2002F0A1FB962002F020FB00210D2009
:104BE00002F09AFB962002F019FB01210D2002F041
:104BF00093FB962002F012FB00210D2002F08CFBAB
:104C0000962002F00BFB4FF47A7002F007FBABE743
:104C100001210D2002F080FB962002F0FFFA002116
:104C20000D2002F079FB962002F0F8FA01210D2008
:104C300002F072FB962002F0F1FA00210D2002F042
:104C40006BFB962002F0EAFA4FF47A7002F0E6FA73
:104C500084E701210D2002F05FFB962002F0DEFACE
:104C600021460D2002F058FB962002F0D7FA0121D0
:104C70000D2002F051FB962002F0D0FA21460D20C3
:104C800002F04AFB962002F0C9FA4FF47A7002F063
:104C9000C5FA5DE701210D2002F03EFB962002F0EF
:104CA000BDFA00210D2002F037FB962002F0B6FA83
:104CB00001210D2002F030FB962002F0AFFA002116
:104CC0000D2002F029FB962002F0A8FA4FF47A702A
:104CD00002F0A4FA31E701210D2002F01DFB96201D
:104CE00002F09CFA00210D2002F016FB962002F043
:104CF00095FA01210D2002F00FFB962002F08EFAAA
:104D000000210D2002F008FB962002F087FA4FF4F4
:104D10007A7002F083FAF7E601210D2002F0FCFA26
:104D2000962002F07BFA00210D2002F0F5FA962081
:104D300002F074FA01210D2002F0EEFA962002F042
:104D40006DFA00210D2002F0E7FA962002F066FAD3
:104D50004FF47A7002F062FACBE601210D2002F0E6
:104D6000DBFA962002F05AFA00210D2002F0D4FA64
:104D7000962002F053FA01210D2002F0CDFA962080
:104D800002F04CFA00210D2002F0C6FA962002F043
:104D900045FA4FF47A7002F041FA9FE601210D20A6
:104DA00002F0BAFA962002F039FA00210D2002F042
:104DB000B3FA962002F032FA01210D2002F0ACFA8B
:104DC000962002F02BFA00210D2002F0A5FA962081
:104DD00002F024FA4FF47A7002F020FA73E600BF72
:104DE000A8970020809F002058170020CC060020A4
:104DF000649E0020E0060020949E0020F006002023
:104E0000449C0020FC060020D09F002004070020C6
:104E1000E8970020CC970020488A0020AD010000D0
:104E200050930020FC970020B89F0020489300205A
:104E300001210D2002F070FA962002F0EFF9002116
:104E40000D2002F069FA962002F0E8F901210D2008
:104E500002F062FA962002F0E1F900210D2002F042
:104E60005BFA962002F0DAF94FF47A7002F0D6F984
:104E70001EE600BFB5EEC00A10B5F1EE10FA0C4602
:104E80002DED028BB0EE408A1CDC4FF00001C0B269
:104E900009D402F01FFD0021E0B2BDEC028BBDE899
:104EA000104002F017BDB0EEC88A02F013FDE0B268
:104EB000FDEEC87ABDEC028B17EE901ABDE81040EB
:104EC00002F008BDB0EEC08AC0B2FDEEC87A17EE9F
:104ED000901ADEE738B5134D134C284607F0A4F8B6
:104EE00000210BF06BFB2146104807F025FF2146FF
:104EF0000F4807F021FF21460E4808F0D7F9204659
:104F000007F018FD0C4808F09BFC0C4806F078FCF4
:104F1000284606F07DFF0D20012102F0FDF9012059
:104F200038BD00BF809F0020649E0020949E00201A
:104F3000449C0020D09F0020FC970020488A00203D
:104F40002DE9F0432DED0A8B93B01422E24809A914
:104F5000E24F01F0D5FC02F0B5F9E14907EE900A05
:104F6000E04A3B68F8EE677A096892ED007A5B1ACE
:104F7000DFEDDD6A37EEC77AC2ED007AC72B87EE28
:104F8000268A00F2EA82D94CD94894ED0A1B94EDA6
:104F9000026B94ED007BD74CB7EEC11BF7EEC60B4E
:104FA000B7EEC70B01F0FAFD94F82430B0EE609A2A
:104FB000CDED060A012BF0EE408AF0EE419A8DED20
:104FC000050AB0EE61AA8DED071ACDED081A40F280
:104FD000EB8272B6256A62B602F074F963686060AB
:104FE000C31A07EE903AA368A560EB1AB8EE676B98
:104FF000D4ED007A07EE103ABF4DB8EEE75BB8EE9D
:10500000C77B95F824309FEDAE3B012B86EE034B1A
:1050100087EE056B86EE047BF7EEC7AB40F2EC82C1
:1050200072B62E6A62B602F04DF96B686860C31AF8
:1050300007EE903AAB68AE60B8EE677BF61A9FED6C
:10504000A06B87EE065B07EE906AD5ED006AAB4E6B
:10505000B8EEE77B96F82430B8EEE66B012B87EECE
:10506000064B84EE05BBB7EECBBB40F2B18272B605
:10507000D6F8208062B602F025F973687060C31A12
:1050800007EE903AB368C6F80880B8EE677BA8EBE5
:1050900003089FED8B6B87EE065B07EE908AD6EDDB
:1050A000006ADFF86882B8EEE77B98F82430B8EE43
:1050B000E66B012B87EE064B84EE057BF7EEC7BB54
:1050C00040F22B8372B6D8F8209062B602F0FAF85C
:1050D000D8F80430C8F80400C31A07EE903AD8F89C
:1050E0000830C8F80890B8EE677BA9EB030994F87C
:1050F00024309FED736B012B87EE065B07EE909AD1
:10510000D8ED006AB8EEE77BB8EEE66B87EE064BAB
:1051100084EE057BF7EEC71B40F2EC8272B6236A81
:1051200062B607EE903A764BF8EEE77AD3ED056A71
:1051300093ED0A7A93ED0B6A77EEE66AC3ED057A92
:1051400067EE067A93ED066A93ED0C5A86EE881A9E
:1051500093ED082AD3ED072A93ED000AB7EEC55A5E
:10516000B7EEC66A9FED584B9FED593B81EE277A0B
:1051700083ED121A83ED0D7A83ED067AB7EEC77AC6
:1051800027EE047BA5EE037B93ED033AD3ED023AC1
:10519000D3ED045AA6EE047B93ED016AB7EEC77B0C
:1051A000F0EE627A78EEC76A83ED0C7A36EEC27A58
:1051B000C3ED086AE8EE267A87EE085AC3ED077A4F
:1051C00067EE837A95F82430012BE6EEA37AE5EEBC
:1051D000257AC7FEC67A80FE270A40F2778272B629
:1051E0002B6A62B607EE903A464BF8EEE77A93EDFB
:1051F000055AD3ED0B3AD3ED0A5A37EEC55A93ED63
:105200000C7A65EEA35AC3ED057AB7EEC77AD3EDF3
:10521000022A85EE083A93ED00CA9FED2B4B9FEDD5
:105220002C6BC3EE253A83ED123A93ED063AB7EEB6
:10523000E35AC3ED0D3AC3ED063AB7EEC33A25EE95
:10524000045BA7EE065B93ED086AD3ED076AD3ED26
:10525000037AA3EE045BB7EEC55B39EE457A83EDC6
:105260000C5A37EE466A83ED087AE8EE076AC6EE16
:10527000085A93ED046AC3ED076A66EEA77AD3ED88
:10528000016A96F82430E7EE227A012BE5EE867A61
:10529000C7FEE67A8CFE27CA40F2048272B6336AF1
:1052A00062B607EE903A184BF8EEE77AD3ED053A7E
:1052B00093ED0A7AD3ED0B6A77EEE33A28E000BF6C
:1052C00000000000389C8C41C217265305A3B23F52
:1052D0008716D9CEF753EB3FBC970020B89F00202C
:1052E0009C9E0020989E002000247449509300202A
:1052F0005C9C0020909C0020049D0020789D002054
:10530000B89C00202C9D0020A09D0020EC9D00203A
:10531000C3ED057A67EE267A93ED0C6AD3ED00CAE9
:1053200083EE887AD3ED083AB7EEC66A9FEDD05B7C
:105330009FEDD14B87EE273A83ED127AB7EEC37A11
:1053400083ED0D3A27EE057BA6EE047B93ED064A2E
:10535000D3ED076A83ED063AB7EEC44AA4EE057BA7
:1053600093ED034AD3ED024A93ED045AD3ED015A6B
:10537000B7EEC77BF0EE667A39EEC76A83ED0C7A3A
:1053800036EE637A83ED086AE8EE067AC7EE086ABD
:10539000C3ED077A67EE847A98F82430012BE6EEA5
:1053A000247AE6EE857AC7FEE57ACCFEA7CA40F2FB
:1053B000E28072B6D8F8203062B607EE903AB24B6F
:1053C000F5EE408AF8EEE77AD3ED054A93ED0A7AD6
:1053D000D3ED0B6AF1EE10FA77EEE44AC3ED057AED
:1053E00067EE267A93ED0C6A93ED033AB5EE409A98
:1053F00084EE887AB7EEC66A9FED9D5B9FED9E4B6B
:10540000C7EE273A83ED127AB7EEE37AC3ED0D3A91
:1054100027EE057BA6EE047B93ED066A93ED084A22
:10542000D3ED074AC3ED063AB7EEC66AD3ED023AAA
:10543000A6EE057BD3ED045A93ED016AB7EEC77B68
:10544000F0EE647A7AEE476A83ED0C7A36EEC47A2F
:10545000C3ED086AE8EE267A87EE085A93ED008AD3
:10546000C3ED077A08BF012367EE837A18BF0023D4
:10547000F1EE10FAF5EE409A03F00103E6EEA37A9E
:1054800018BF0023F1EE10FA03F0010318BF002348
:10549000E5EE257AC7FEC67A88FE278A2BB1B5EEDF
:1054A00040AAF1EE10FA00F0E58213211220CDEDB2
:1054B000011AFFF7DFFCB0EE4C0A06210520FFF7CA
:1054C000D9FCB0EE6C0A17211620FFF7D3FCB0EE22
:1054D000480A04210320FFF7CDFC6C4900226C48E8
:1054E0000B69C3ED008A83ED019AC3ED029A83ED47
:1054F00003AA07F07BFCF0EE4B0AB0EE6A0ADDED82
:10550000011AB0EE6B1A634801F04CFB624A39682D
:10551000F0EE606A1368B0EE416A8DED020AB0EEFB
:10552000601ACB1ACDED036A8DED046AF0EE400AE5
:1055300007EE903ADDED101A5848B8EE677B11601F
:105540009FED4F5B87EE056BB7EEC60B01F008FCD5
:1055500013B0BDEC0A8BBDE8F08300220023504C51
:1055600001210D20C4E90023C4E90223C4E90A2370
:1055700001F0D2FE08E572B6D8F81020D8F80C3049
:105580001B681168D8F814201A40D8F8183019424E
:1055900000F0ED8198F81C3003F003030AB143F0EA
:1055A000040343F00803E9E172B6D4E90331626908
:1055B0001B6809681A40A369194200F07781237FAC
:1055C00003F003030AB143F0040343F0080373E15B
:1055D00072B63269F3681B68116872691A40B36960
:1055E000194200F03781337F03F003030AB143F01F
:1055F000040343F0080333E172B62A69EB681B68C1
:1056000011686A691A40AB69194200F0A7812B7FC3
:1056100003F003030AB143F0040343F008039A08BC
:10562000013B2E6A2A770D2B3FF6FCAC01A252F803
:1056300023F000BF2D38000025380000C3380000DB
:1056400025380000152E0000BB3800002D38000062
:105650002D380000BB380000152E00002538000052
:10566000C3380000253800002D380000AFF300805B
:10567000C217265305A3B23F8716D9CEF753EB3F87
:105680000000000000408F40149E0020CC970020B6
:10569000E89700205C9C0020A09E002070900020D5
:1056A0005093002072B63269F3681B681168726902
:1056B0001A40B369194200F02581337F03F00303D8
:1056C0000AB143F0040343F0080321E172B62A69EA
:1056D000EB681B6811686A691A40AB69194200F0EF
:1056E0008D802B7F03F003030AB143F0040343F0E2
:1056F000080389E072B62269E3681B681168626971
:105700001A40A36919424DD0237F03F003030AB165
:1057100043F0040343F008034AE072B6D8F81020BF
:10572000D8F80C301B681168D8F814201A40D8F843
:105730001830194209D098F81C3003F003030AB15D
:1057400043F0040343F0080306E098F81C3003F02C
:1057500003030AB143F004039A08013B88F81C20B4
:105760000D2B3FF6B0AC01A252F823F0F537000044
:10577000E5370000DB380000E5370000B72E0000F9
:10578000CB380000F5370000F5370000CB380000BB
:10579000B72E0000E5370000DB380000E5370000D9
:1057A000F5370000237F03F003030AB143F004033D
:1057B0009A08013B22770D2B3FF6B1AC01A252F8BB
:1057C00023F000BF3F38000035380000813800006A
:1057D000353800000F2F0000773800003F380000F8
:1057E0003F380000773800000F2F000035380000E8
:1057F00081380000353800003F3800002B7F03F06F
:1058000003030AB143F004039A08013B2A770D2BE6
:105810003FF6E6AC01A252F823F000BFDB370000F0
:10582000D13700001D390000D1370000D12F000012
:1058300013390000DB370000DB37000013390000AC
:10584000D12F0000D13700001D390000D1370000F2
:10585000DB370000337F03F003030AB143F0040396
:105860009A08013B32770D2B3FF602AC01A252F8A9
:1058700023F000BF57380000493800009938000075
:1058800049380000612E00008B38000057380000B6
:10589000573800008B380000612E000049380000A6
:1058A000993800004938000057380000237F03F082
:1058B00003030AB143F004039A08013B256A2277E7
:1058C0000D2B3FF688AB01A252F823F00D380000F3
:1058D00005380000F338000005380000C72D00002F
:1058E000EB3800000D3800000D380000EB380000E8
:1058F000C72D000005380000F3380000053800000F
:105900000D380000337F03F003030AB143F00403B2
:105910009A08013B32770D2B3FF6C1AC01A252F839
:1059200023F000BF1D38000015380000B13800001A
:10593000153800008F300000A73800001D38000027
:105940001D380000A73800008F3000001538000017
:10595000B1380000153800001D3800002B7F03F01F
:105960000303002A3FF45BAE43F0040357E698F8C4
:105970001C3003F003030AB143F004039A08013B0F
:1059800088F81C200D2B3FF615AD01A252F823F02C
:10599000C5370000B937000007390000B9370000EB
:1059A000A5310000FB380000C5370000C5370000F6
:1059B000FB380000A5310000B937000007390000AE
:1059C000B9370000C5370000D8F82030013BC8F8CF
:1059D0002030F1E4D8F820300133C8F82030EBE46F
:1059E0002B6A013B2B62FFF7FCBB2B6A01332B6256
:1059F000FFF7F7BBD8F8203003F1FF39C8F8209043
:105A0000FFF763BBD8F8203003F10109C8F82090F4
:105A1000FFF75BBB013D2562FFF7DDBA013525626B
:105A2000FFF7D9BA336A013B336239E4336A013391
:105A3000336235E4013E2E62FFF7F4BA01362E627E
:105A4000FFF7F0BA236A013B2362FFF769BB236AC1
:105A500001332362FFF764BB336A03F1FF38C6F8F2
:105A60002080FFF707BB336A03F10108C6F82080E6
:105A7000FFF700BBDFED30CAB0EE6C8AB0EE6CCA47
:105A8000B0EE6C0A11E5236A023B2362FFF748BBC4
:105A9000236A02332362FFF743BB336AA3F1020890
:105AA000C6F82080FFF7E6BA336A03F10208C6F8A9
:105AB0002080FFF7DFBA336A023B3362FFF7F0BBA7
:105AC000336A02333362FFF7EBBB023E2E62FFF70D
:105AD000A9BA02362E62FFF7A5BAD8F82030A3F192
:105AE0000209C8F82090FFF7F0BAD8F8203003F187
:105AF0000209C8F82090FFF7E8BA023D2562FFF7D7
:105B00006ABA02352562FFF766BAD8F82030023B40
:105B1000C8F8203050E4D8F820300233C8F82030DC
:105B20004AE42B6A023B2B62FFF75BBB2B6A023312
:105B30002B62FFF756BB00BF000000000000000012
:105B400010B5ADF5816D6A4C6A49684601F09AF866
:105B50004FF432726946684801F0DEFC1422B2A9A3
:105B600004F5BC7000F0CCFE9DEDB74A9DEDB86A1F
:105B7000B7EEC44A9DEDB97AB7EEC66AB7EEC77AFA
:105B800094ED582B94ED5A3B94ED5C5B34EE424B14
:105B900036EE436B37EE457B9FED512B84ED224B68
:105BA00084ED246BB4EEC24B84ED267BF1EE10FA4B
:105BB00007DD9FED4D5BB4EEC54BF1EE10FA00F141
:105BC0008A809FED475BB4EEC56BF1EE10FA06DDFF
:105BD0009FED455BB4EEC56BF1EE10FA76D49FED08
:105BE000406BB4EEC67BF1EE10FA0ADD9FED3E6B22
:105BF000B4EEC67BF1EE10FA03D500220023C4E90F
:105C0000262394ED567AB2A908223C48B7EEC77A0B
:105C100084ED287B84ED307B84ED387B00F070FED2
:105C200094ED527ADDEDB97A4FF4A0729DEDB74A4A
:105C3000B2A89DEDB85A27EE044A94ED556A27EEB6
:105C4000055A2F4927EE277AB7EEC66AB7EEC44A3F
:105C5000B7EEC55AB7EEC77A84ED406B84ED3A4B88
:105C600084ED486B84ED3C5B84ED3E7B84ED506BB2
:105C7000244C01F051FCB2A94FF4A072204601F06F
:105C80004BFC214A2148D2E9003100684FF47A7276
:105C9000C0184FF0000341F1000114F0DBFB1C4978
:105CA0000346206001FB02F221461A486260124C52
:105CB000C4E90032002207F099F800222146164874
:105CC0000DF5816DBDE8104007F090B8002200236B
:105CD000C4E9242383E700220023C4E9222370E7D8
:105CE0007B14AE47E17A84BF7B14AE47E17A843FF0
:105CF000208C002070900020A88D0020988D00201E
:105D0000288C0020E08A002048930020B89F0020C3
:105D100040420F00449C0020949E002070B53A4DF4
:105D20002C78032C07D8DFE804F02F290702FFF7AF
:105D3000D1F800232B7070BD344ED6E90023B3F1A7
:105D4000FF3F08BFB2F1FF3F58D005F045F8D6E954
:105D50000023801A61EB0301C92871F100013BDACD
:105D60002B78022BE7D12A4A00232A4805F0D4FFDA
:105D7000FFF7E6FEBDE87040FFF7E2B8FEF778FEF9
:105D800028B302232B7070BD234CD4E90023B3F158
:105D9000FF3F08BFB2F1FF3F2BD005F01DF8D4E95B
:105DA0000023801A61EB030140F2F513984271F170
:105DB0000001C0DB0121642009F0FCF8B0FA80F09A
:105DC0004009287005F008F8C4E9000170BD28708A
:105DD000BDE87040FFF77EB80121642009F0EAF8C1
:105DE000002818BF03242C7004F0F6FFC6E9000158
:105DF000B6E704F0F1FFC4E90001CEE704F0ECFFE0
:105E0000C6E90001A1E700BFADA00020D02200201C
:105E100040420F00488A0020C822002010B50446E6
:105E2000102101F015FC204610BD00BF2DE9F04304
:105E3000734E1D22734F1C21734D0024734B4FF082
:105E400028097348DFF82C822DED028B87B09FED77
:105E5000718A00F0F7FD334628223721384600F0DA
:105E6000D3FB2A4638466C4903F086F900944FF478
:105E700070630A2209216948FEF7A6FC00944FF4DA
:105E800070630C220B216648FEF79EFC00944FF4D1
:105E90007063102211216348FEF796FC00944FF4C2
:105EA00070630F220E216048FEF78EFCF3EE097A34
:105EB00000235E4C5E48B6EE002A5E4AF3EE080A06
:105EC0005D49F0EE481ADFF8B0C19FED5C7ADFF86B
:105ED000ACE15B4F84ED007AC4F804C0C4ED027AF3
:105EE000C4F824C080ED007AC0F804C0C0ED027A86
:105EF000C0F824C082ED007AC2F804C0C4F828E0DB
:105F0000C0F828E09FED4F1A9FED4F0AC4F80C80AF
:105F1000236123636363A363E36323646364A36410
:105F2000C0F80C800361036343638363C36303644A
:105F300043648364E762C762C2ED027A434881ED3D
:105F4000007AC1ED027AC2F824C0C2F828E0C1F894
:105F500028E0C1F804C0C1F824C0C2F80C80C1F820
:105F60000C800DF10808D762CF621361136353638D
:105F70009363D36313645364936440F226220B61EA
:105F80000B634B638B63CB630B644B648B640321A8
:105F900000F076FD2E4800F049FE2E4C2E4B404678
:105FA0002E4A04F11007C4F85431C4F858312C4B70
:105FB000226084ED538AC4F85C910093294BC4F8A5
:105FC0004831294BC4F8503197E80E0004F0DAFE4E
:105FD000264A3346226098E8070087E807004A46C9
:105FE000372104F5BC7000F00FFB2A4620492046FB
:105FF00007B0BDEC028BBDE8F04303F0BDB800BFB5
:10600000E0260020BC970020A82A00208096980057
:10601000B49E0020CDCCCC3D2D010000909C0020F2
:10602000049D0020789D0020EC9D0020B89C00205D
:106030002C9D0020A09D0020149E0020008080C385
:10604000000048430000BC419A99593F5C9C0020E5
:1060500070900020208C0020ACC5273770080020ED
:10606000C0060020C3F51C41BD3786355C08002002
:10607000290100000000D04000007F439A99994117
:106080000120704701207047D0F88C0203685B68DC
:10609000184700BFD0F88C02836000F00DBF00BF2E
:1060A0000020704790F8A32090F8A200101A7047C3
:1060B00090F8A23090F8A3209A4205D95A1C0344C4
:1060C00080F8A220987E70474FF0FF30704700BFE5
:1060D00090F8A23090F8A3209A4202D91844807E0A
:1060E00070474FF0FF307047704700BF0346B0F86D
:1060F000300178B193F82F21882A03D9012200209A
:106100005A60704702F1010C01201A4483F82FC134
:1061100082F8A510704700BF38B5B0F830410CB90F
:10612000204638BD90F82F310546C3F18904A242BC
:106130000DD8144605F1A5002246184401F0ECF9EB
:1061400095F82F312046234485F82F3138BD0122A0
:106150004260EFE72DE9F04FD0F814A01524017E3E
:106160008146437E83B00AEB0111384A0AEB0313E0
:10617000374F097A93F8283002EB01150901E868D6
:1061800052F8018002EB0311D5F804B01B01CE6870
:10619000D558CBF80040C8F88400D8F804304A68D5
:1061A00003432C490192C8F804301460C5F8846098
:1061B0006B6833436B60284B4C683A68A3FB023230
:1061C000920C02EB820252004B681B1B9A42FBD8D6
:1061D0004FF0090C1F4ADFF880E0D8F8083003427E
:1061E00002D0AB6833422FD1C5F888605468396853
:1061F000AEFB0131890C01EB810153681B1B9942F5
:10620000FBD8C5F8846054683968AEFB0131890C4D
:1062100001EB810153681B1B9942FBD8BCF1010CB7
:10622000DBD1604699F81830019A0AEB0313DB685A
:10623000CBF8003099F819300AEB031ADAF82C3051
:10624000136003B0BDE8F08F0120EBE7780E00206B
:10625000FC230020001000E083DE1B430E4A10B533
:106260001168046905E0DB0107D413685B1A102B81
:1062700008D8636913F0007FF5D14FF4FE43012085
:10628000636110BDFFF766FF0028FAD04FF4FE43AC
:1062900001206361F5E700BFB89F00202DE9F047BA
:1062A00090F82FA10569BAF1000F4FD081468846BA
:1062B000FFF7D4FF002849D0374E0024376818E094
:1062C0006B69190551D4DA0455D4580559D4990489
:1062D00041D43268D21B322A3DD8544507D9EA6DE1
:1062E000520704D19B0555D4B8F1000F52D002F0EB
:1062F000DBFD5445E4D8EA6D500702F00703DFD414
:1063000013E099F8A5200133022442F48062042BA3
:106310002A661ED08A4503F1010309EB01020ED95A
:1063200092F8A520042B2A66CAD00121002CE8D0BF
:106330002146013301348A4509EB0102F0D8B8F156
:10634000000FBDD04FF400732B66B9E70420BDE801
:10635000F0870124B4E72B694FF40072042043F462
:1063600040732B612A66BDE8F0872B69042043F453
:1063700040732B61EBE72B69052043F440732B61DD
:10638000E5E72B694FF40072022043F440732B6160
:106390002A66DCE70020DAE7B89F00202DE9F84FF5
:1063A00083460C4615461F46D0F810A0FFF756FF4F
:1063B000002800F09E806100012DDFF83C8140F252
:1063C0000146CBB24FF0000138BF0125D8F800904C
:1063D0000C461E43ABF8A21020E09BF8A330872B9D
:1063E0003FD9DAF8142010055AD412F4105F70D196
:1063F000D8F80030A3EB0903322B6AD89BF8A330FE
:10640000AB4209D3022C07D9DAF85C30590703D123
:1064100093054BD4002F49D002F046FD022CDCD866
:10642000DAF85C3003F007025B07D6D4681E22441A
:1064300040F480704CB9CAF860600134131B032B20
:10644000CBD8022CC9D8002CF5D0012C37D01FB1E5
:106450004FF40073CAF860309BF8A3300324872BF5
:10646000BFD8DAF85C2012F4E02FC2F3024CB8D0A7
:10647000591C9C441933C9B25FFA8CFC5BFA83F354
:10648000DAF870004A1C61458BF8A310D1B203F80A
:10649000010FA6D08929F3D1DAF814201005A4D56C
:1064A000DAF8103043F44073CAF81030DAF85C3090
:1064B00013F4E02F06D19BF8A300BDE8F88FCAF8CB
:1064C0006000BAE7DAF8103043F40073CAF810300D
:1064D000F1E7DAF810304FF4007243F44073CAF871
:1064E0001030CAF86020DAF85C3013F4E02FE2D004
:1064F000E8E70420BDE8F88FB89F0020F8B50669EA
:106500000446D6F8145115F4706301D0C6F814315E
:10651000A8070BD5D6F8702111043DD50023012121
:1065200084F8A230234484F8A3109A76EA0710D5A1
:1065300094F83071F7B194F82E7194F82F31BB4272
:1065400026D97B1C274484F82E3197F8A530C6F84D
:106550006031AB050DD594F8A30018B1D4F83C31E7
:1065600003B198470023A4F8A230A4F82E3184F890
:106570003031F8BDD4F8383103B19847002384F89E
:106580002E31012384F8303194F82F31BB42D8D812
:106590000023C6F86031DCE794F8A330872BC5D818
:1065A000591CC9B2BEE700BF0148FFF7A7BF00BF33
:1065B000602400200148FFF7A1BF00BFA0250020F4
:1065C0000148FFF79BBF00BFE0260020704700BFD7
:1065D00038B50C4620220021054604F1080016F0CB
:1065E00085FE0B220649204614F002FA01230321FE
:1065F000044AE360AB6861612262236138BD00BF79
:106600007C0700200AD7233C70B504461546094E86
:10661000002282B08160066010206260019301F068
:1066200015F82946019A054612F02CFB20466560B4
:1066300002B070BD840800202DE9F0410F460646E7
:1066400084B000214068552512F026FB04E000F0DC
:10665000E5FD013D00F0A2800121706812F01CFBF5
:1066600004460A20002CF2D003AB4FF000080125AD
:106670001946CDF8048000952A4670688DF80C8084
:1066800012F092FB9DF80C30A02B12D04FF47A70D0
:1066900000F0C4FD03ABCDF804802A4619460095EE
:1066A00070688DF80C8012F07FFB9DF80C30A02BE9
:1066B00074D100253D23022203A935734FF0010850
:1066C000ADF80C300123CDE90055706812F000FBE5
:1066D0001E2000F0A3FD42F23F03022203A9ADF801
:1066E0000C300123CDE90055706812F0F1FA1E203C
:1066F00000F094FD01E000F091FD03AB7068012211
:106700008DF80C501946CDE9008512F04DFB9DF82F
:106710000C300A20A02BEED1322000F07FFD3E236A
:1067200003A90222ADF80C300123CDE900557068B1
:1067300012F0CEFA0A2000F071FD072303A902220D
:10674000ADF80C300123CDE90055706812F0C0FAA5
:106750003F2303A90222ADF80C300123CDE90055F7
:10676000706812F0B5FA0A2000F058FD3D2203A926
:106770000123706837738DF80C2002228DF80D709C
:10678000CDE9005512F0A4FA1E2000F047FD1420B8
:1067900000F044FD204604B0BDE8F081002420460E
:1067A00004B0BDE8F08100BF30B587B015460023C6
:1067B00004468DF80C200622083D03604360836088
:1067C000C360036143610493486803A90193ADF872
:1067D000143004AB0092012212F0E6FABDF9100069
:1067E000BDF91210BDF91420262D2FD8DFE805F0D1
:1067F000142E2E2E2E2E312E2E2E2E2E312E2E2ECD
:106800002E2E312E2E2E2E2E2E2E2E2E2E2E2E2EA5
:10681000142E2E2E2E2E140007EE900AB8EEE75BF3
:1068200007EE901AB8EEE76B07EE902A9FED184B33
:10683000B8EEE77B85EE043B86EE045B87EE046BE7
:1068400084ED003B84ED025B84ED046B204607B0D1
:1068500030BD07EE900A2046B8EEE75B07EE901ACF
:10686000B8EEE76B07EE902A9FED0B4BB8EEE77B97
:1068700025EE045B26EE046B27EE047B84ED005BC3
:1068800084ED026B84ED047B07B030BDAFF3008074
:106890000000000000005940000000000000B03F70
:1068A00070B50C4686B0054620220021201D16F04A
:1068B0001DFD2422104B032622606846AA68294643
:1068C0001B6862601A22A6602361FFF76DFF01203A
:1068D0009DED005B9DED026B9DED047BB7EEC55B0E
:1068E000B7EEC66BB7EEC77B84ED055A84ED066A3A
:1068F00084ED077A06B070BDB89F0020000000004C
:1069000070B50C468CB01546064620220021201D8D
:1069100016F0ECFC24224A4B282D22601B68B2683A
:1069200023614FF000036260CDE90033CDE902330B
:10693000CDE9043318D0083D262D36D8DFE805F020
:106940003D353535353542353535353557353535C0
:1069500035357535353535353535353535353535A7
:1069600035353535353538000A232A463146A3609A
:1069700006AD06A8FFF718FF6E460FCD0FC69DEDBA
:10698000005B9DED026B95E8030086E803009DED3A
:10699000047BB7EEC55BB7EEC66BB7EEC77B84ED85
:1069A000055A84ED066A84ED077A01200CB070BDAB
:1069B000092331462E22A360DAE70123314608225B
:1069C000A360D5E7022306AD31460E2206A8A360D8
:1069D000FFF7EAFEEC460FCDACE80F0095E80300A8
:1069E0009DED005B9DED026B8CE80300CFE7042377
:1069F00006AD3146142206A8A360FFF7D5FE6E4609
:106A00000FCD0FC695E803009FED0B4B9DED005B8E
:106A10009DED026B86E803009DED047B25EE045B93
:106A200026EE046B27EE047BB3E7032331461A22DC
:106A3000A3609DE7AFF30080000000A046DF913F18
:106A4000B89F00200171002142718182817348F654
:106A5000B801094A8B4288BF1A460523012182608A
:106A6000064AC37503620176026000B54FF0200E3E
:106A700080F80DE05DF804FB80969800002400206B
:106A80009FED196BB7EEE17A01700139B5EEC01ACE
:106A90004FF07A5380ED022A27EE067B022906EE9C
:106AA000902A83618CBF02220422F1EE10FA426127
:106AB000B7EEC77B80ED047A10D4B4EE601AF1EE25
:106AC00010FA30FE811AC1EE207AF8EEE66A67EE1F
:106AD000A67A27EE800A80ED010A70479FED041A1E
:106AE000F1E700BFAFF30080182D4454FB210940AB
:106AF000000000009FED226A88B0DFED227A60EE90
:106B0000860ADFED216A9FED217A20EE060ADFED8D
:106B1000205A21EE061A60EEA77ADFED1E4A60EEDB
:106B2000A61A9FED1D5A20EE877A90ED016AF0EECD
:106B3000676AE0EE051AD0EE257AE0EE256AD0ED20
:106B4000065AA0EE247AB1EE460AE5EE811AE5EE89
:106B5000817AE5EE816AA5EE817AC1FEC61AC0FE91
:106B6000211AC7FEC60AC0FE200AC6FEC66A87FEF4
:106B7000461A80FE011A80FE260A08B0704700BF40
:106B800000007042F304353FF104353FF40435BF93
:106B9000F30435BFF204353FF504353F84B004B04B
:106BA000FFF7A8BF9FED1C7A88B0DFED1C5A60EE9E
:106BB000877ADFED1B3A70EEC00A9FED1A4ADFEDCF
:106BC0001A4AF0EE676A90ED046AE0EE477A90EDBB
:106BD000065A70EEC10AE0EE076A90ED057A70EE93
:106BE000A10AB8EEC77AE1EE257AC0EE875AE1EE47
:106BF000236AE1EEA47AE1EE846AC7EE870A86EEA4
:106C0000870A65EE865A85EE851A60EE860A20EEC2
:106C1000060A08B0704700BFF30435BFF40435BF5F
:106C2000F204353FF504353FF104353FF0B587B048
:106C3000002300F10807114A02AD04460092C0F893
