:0200000460009A
:100000004643464200000156000000000103030081
:1000100000000000000000000000000000000000E0
:1000200000000000000000000000000000000000D0
:1000300000000000000000000000000000000000C0
:1000400000000000010408000000000000000000A3
:100050000000800000000000000000000000000020
:100060000000000000000000000000000000000090
:100070000000000000000000000000000000000080
:10008000EB04180A063204260000000000000000FD
:10009000050404240000000000000000000000002F
:1000A0000000000000000000000000000000000050
:1000B0000604000000000000000000000000000036
:1000C0000000000000000000000000000000000030
:1000D00020041808000000000000000000000000DC
:1000E0000000000000000000000000000000000010
:1000F0000000000000000000000000000000000000
:10010000D8041808000000000000000000000000F3
:100110000204180804200000000000000000000095
:1001200000000000000000000000000000000000CF
:10013000600400000000000000000000000000005B
:1001400000000000000000000000000000000000AF
:10015000000000000000000000000000000000009F
:10016000000000000000000000000000000000008F
:10017000000000000000000000000000000000007F
:10018000000000000000000000000000000000006F
:10019000000000000000000000000000000000005F
:1001A000000000000000000000000000000000004F
:1001B000000000000000000000000000000000003F
:1001C000000100000010000001000000000000001D
:1001D000000001000000000000000000000000001E
:1001E000000000000000000000000000000000000F
:1001F00000000000000000000000000000000000FF
:10020000FFFFFFFFFFFFFFFFFFFFFFFFFFFFFFFFFE
:10021000FFFFFFFFFFFFFFFFFFFFFFFFFFFFFFFFEE
:10100000D10020434D1600600000000000000000E9
:10101000201000600010006000440260000000002A
:10102000000000600050020000000000FFFFFFFF12
:10103000FFFFFFFFFFFFFFFFFFFFFFFFFFFFFFFFC0
:10104000FFFFFFFFFFFFFFFFFFFFFFFFFFFFFFFFB0
:10105000FFFFFFFFFFFFFFFFFFFFFFFFFFFFFFFFA0
:10106000FFFFFFFFFFFFFFFFFFFFFFFFFFFFFFFF90
:10140000814205D051F8043B40F8043B8242F9D8B0
:10141000704700BF044A05494FF0000342F8043BFF
:101420009142FBD8704700BFC03A002020970020AF
:101430002DE98848BFF34F8F00BF00BF00BF00BF3A
:1014400000F0D6F9684B0822C3F8542100BF00BF52
:1014500000BF00BF00BF00BF00BF00BF00BF00BF94
:1014600000BF00BF00BF00BF00BF00BF5F4A6049B0
:101470006048FFF7C5FF604A60496148FFF7C0FF59
:10148000604CFFF7C7FF4FF470004FF0E0210023DE
:101490005D4AC1F8880D44F823200133B02BFAD1FE
:1014A0005A4B80215A4A03F8011B9342FBD14FF05B
:1014B000E0254D4E4FF08039DFF884B1DFF884A18C
:1014C0004FF0FF31C5F8084D0027C6F80491C6F863
:1014D00000B1C6F8F490C6F8F0A0D5F8243DDFF8C6
:1014E000688143F4E0234B4AC5F8243DD8F81C300A
:1014F00023F07F0343F04003C8F81C30D8F82430B1
:1015000023F07F0343F04003C8F824309166D1668E
:101510001167516700F074F93F4B4049A363404B9A
:10152000E36363236B610323AF612B613D4BC5F81C
:10153000203DD5F8FC3D43F08073C5F8FC3D3A4BA7
:101540001A6842F001021A605B680B6000F0A2FBAF
:10155000C6F804913548C6F800B1C6F8F490C6F84C
:10156000F0A000F031FDD8F86C10314B314A41F455
:101570004051C8F86C101F60C3F80871C3F81871A7
:10158000C3F82871C3F83871936BDB0708D442F6AF
:101590001563294951651365936B43F00103936308
:1015A000244A264C936843F00113936000F0B0F98D
:1015B00000F0D4FC00F018FD00F09AFB00F01AF9DE
:1015C0002368132BFCD900F02BFC2368B3F5967F1E
:1015D000FBD300F013F900F00FF900F00DFD00F05F
:1015E000FFFC30BFFDE700BF00800D40E8E50100D3
:1015F0000C22006000000000C03A0020F8070260E2
:1016000000000020003800202554000000E400E025
:10161000A0E400E000C00A4055680000E495002006
:101620005968000000002020001000E00046C3239D
:101630000040084000400D400000C056E8950020E2
:101640001B1018200C0D111300C00F40054B4FF458
:101650002A01054A05485A641864054A9963954663
:10166000FFF7E6FE00C00A40FFAAAAAA0700200072
:101670000000062043690A4A03EB011010B4037A04
:10168000084C02EB0313D3E901321460C2681A60FC
:1016900003690BB142691A605DF8044B704700BFE3
:1016A000A40D002061F801004369027E03EB0212E1
:1016B00092F808C08C451CD01A7AFF2A19D09142A2
:1016C00010B5044616D01A7EFF2A06D00121D3E9B0
:1016D000002312681A4201D1217610BD064B052263
:1016E000204603EB0C135B681A60FFF7C3FF2176FB
:1016F000F3E770470021EAE7A40D002043690A4A96
:1017000003EB011010B490F82830084C02EB0313DF
:10171000D3E901321460C26A1A60036B0BB1426BE9
:101720001A605DF8044B7047A40D002061F80100B9
:101730004369427E03EB021292F828C08C451ED00A
:1017400093F82820FF2A1AD0914210B5044617D0EA
:1017500093F83820FF2A06D00121D3E9002312682C
:101760001A4201D1617610BD064B0522204603EBDB
:101770000C135B681A60FFF7C1FF6176F3E77047EF
:101780000021EAE7A40D0020164942698B6B23F47F
:101790007C0343F4802370B58B630446124DD2E979
:1017A00000130A681A4303690A60022200211A61C1
:1017B0000E4A19619A6401225A629D624FF43035D3
:1017C000DD624FF001159E6C1E6519629D651A6100
:1017D000017EFFF74FFF617E2046BDE87040FFF7B6
:1017E0008DBF00BF00C00F40B80B05053B3728195F
:1017F000704700BF704700BF704700BF00BF704711
:1018000010B44FF0E023002110243148C3F8941D98
:10181000C3F89C4D1124C3F8A00D2E48C3F89C4D6D
:101820001224C3F8A00D2C48C3F89C4D2B4AC3F8D2
:10183000A00D2B4C42F015022A48C3F89C4DC3F86A
:10184000A00D294C2948C3F89C4DC3F8A00D284C85
:10185000C3F89C2D2748284AC3F8A04DC3F89C0D17
:10186000C3F8A02D02F5A022244C0C322448C3F862
:101870009C4DC3F8A02D234AC3F89C0D224CC3F8FD
:10188000A02D02F14062C3F89C4D2048C3F8A02D62
:101890000C32C3F89C0DC3F8A02D00BF00BF00BFE1
:1018A00000BF00BF0122C3F8942DBFF34F8FBFF3D9
:1018B0006F8FC3F8501FBFF34F8FBFF36F8FD3F8F5
:1018C000142D5DF8044B42F44032C3F8142D7047D8
:1018D0003F00001025000807090010002097002095
:1018E0001300200021000207140000202500081327
:1018F000090000101600202027000B1317000040DD
:10190000180000602F000B07190000701A000080FB
:10191000F0B5B84B1822B84E0120B84F83B0C3F8C9
:101920005C62B749C3F86072B64DC3F86462A6F54D
:101930003046B54CC3F86862C3F86C52C3F87052B5
:10194000C3F87452C3F8785248F20C75DA661A6715
:101950005A679A67DA67C3F88020C3F88420C3F80F
:101960008820C1F82C03A94AC1F83003C1F8340318
:10197000C1F83803C1F83C03C1F85003A169A44B76
:101980000A40A448A4491343A44AA361D4F884306C
:1019900043F00C03C4F884304FF0FF34036843F085
:1019A0000203036003682B404FF400551A439C4B1D
:1019B000026044608A689B4C13409B4A43F000538A
:1019C0008360C36823F07803C360036A1340234332
:1019D0000362036A1340954A2343954C4362826233
:1019E000C2620022D1F8B83023F03F0343F0010374
:1019F000C0F8B830D1F8BC308E4923F03F0343F033
:101A00000103C0F8BC3040F205630261056604675B
:101A1000C0F88030456644670224C0F8843003680B
:101A200023F0020303608161834B8449C46143F85E
:101A3000042B8B42FBD1774A136843F001031360F8
:101A4000136813F00103FBD17A48022140F2F564D8
:101A5000906140F29940D16140F26641C2F8004283
:101A600042F20144C2F810127549C2F82002C2F8CD
:101A7000301240F235417348C2F83442C2F8401285
:101A8000714CC2F8500242F201207049C2F854125F
:101A90000121C2F86042C2F864025E48C2F8A03078
:101AA000C2F8A430C2F8B0104369DA07FCD50123AC
:101AB00000244FF4803257494361C0F8A040C0F879
:101AC000A420C0F8B0304B69DB07FCD5012300240B
:101AD0004FF400304F4A4B61C1F8A040C1F8A40058
:101AE000C1F8B0305369DF07FCD501230024584802
:101AF00048495361C2F8A040C2F8A400C2F8B0300F
:101B00004B69DE07FCD5D1F8003145F60D52212096
:101B10009BB24861934265D100244FF48022012397
:101B20003C48C1F8A040C1F8A420C1F8B0304369D6
:101B3000DD07FCD501234FF400040021354A436141
:101B4000C0F8A040C0F8A410C0F8B0305369DC075A
:101B5000FCD501234FF400044FF480302D4953612C
:101B6000C2F8A040C2F8A400C2F8B0304B69D80750
:101B7000FCD501234FF400044FF40030254A4B619B
:101B8000C1F8A040C1F8A400C1F8B0305369D9072A
:101B9000FCD501234FF400042D481E495361C2F8BF
:101BA000A040C2F8A400C2F8B0304B69DA07FCD5F7
:101BB000D1F8003145F60D5221209BB24861934285
:101BC00050D008254FF4000422490020224B234A1C
:101BD000009015705A1A01232148224400F008FA97
:101BE00003B0F0BD1E4B0022C3E90022C3E902226C
:101BF00003B0F0BD00801F40F9B00100F9100100F2
:101C000000841F40F970010000C00F40FFFCFF1F5F
:101C1000000300A000402A4000802A401200FFFF7D
:101C2000FF37F7004000008000FFF07CFF000F83CB
:101C300063000200F05AF05A00422A4000432A4052
:101C40009F041830EB06180A3806180A06320126D7
:101C5000040003000000007000000070D796002010
:101C60002C9300204FF400044FF4802201230848F5
:101C7000C1F8A040C1F8A420C1F8B0304369DB0727
:101C8000FCD5012310254FF0807443619CE700BF11
:101C900000402A40F0B4154A40274FF480314FF4F9
:101CA00080564FF400554FF4404443F2420013690C
:101CB00013F0020F0ED113F4005F0FD013F4805F06
:101CC0000ED0002BF3DA13F4803F0BD15B060BD55B
:101CD000F0BC7047946151619061E8E75561E6E7B7
:101CE0005661E4E79161E2E75761E0E700800D406B
:101CF0003F4A03203F49F3EE095AD2F880304FF0B3
:101D0000000C9FED3D6A23F001039FED3C5A30B477
:101D1000C2F88030C2F89000D1F8E010384DCBB254
:101D2000384C39482B6007EE903A0B0DC1F30B216C
:101D3000F8EEE77A06EE903A07EE101A334BB8EE5B
:101D4000C77A2160F8EEE66A314937EEC66A37EEA7
:101D5000C55A76EEC76A77EEE57A26EE266AC3EDB7
:101D6000006A25EE265AD2F8803067EEA64AC0ED0A
:101D7000007AC6EE275A274885EE276AC4EEA76A7E
:101D800075EE875AFCEEE55A36EE076A15EE904A74
:101D9000BCEEC66A43EA045376EE877AC2F8803016
:101DA00016EE103AD2F89041FCEEE77A01EA0341D0
:101DB000214317EE903AC2F89011C3F30B03D2F807
:101DC00090110B431449C2F89031D2F8803043F09F
:101DD0000203C2F88030114B80F840C0C1F8403196
:101DE0004FF0E023012230BCC3F80821704700BF48
:101DF00000810D4000441F400000AA420000B44290
:101E0000609500205C950020649500206895002076
:101E10000000FF0F00E400E000380020155600002D
:101E2000314B40F6617210B5C3F8202140F20444F2
:101E300000F0C6F82D4A2E49D2F880302D4843F0E4
:101E40000303C2F880302C4BC1F8604102681A428B
:101E500003D1D1F8A8319A071BD0254A4FF0004191
:101E6000244B5963D2F8403143F00203C2F84031A9
:101E7000D2F840319B07FBD44FF400304FF0E02103
:101E80001C4B4FF00042C1F88C0219209A6300F0FD
:101E9000A3F8184A4FF08040154C002190630A20A7
:101EA000164B11604FF42072C4F8A801184600F0D8
:101EB0008FF84FF4800203464FF4810040F2431143
:101EC0001860C4F858311A640D4B0E4AC4F8481112
:101ED000C3F804224FF0E0224FF400310123C2F88E
:101EE0000C11C4F8403110BD00800D4000C00F40FF
:101EF00000002E4000900D40001C1E00000000203D
:101F000000380020FD57000008B50E4B1B6E9B07E4
:101F100000D4FBBE72B60C4B00200C4AC3F8400143
:101F200003F160430A49A3F55F2311649D46BFF3A3
:101F30004F8F4FF400130748074ADB6902609B6824
:101F4000984700BF00441F4000002E4000C00A40D8
:101F50000300200000802020000012EB104BA02086
:101F6000104AD96E41F4403110B4D96640F237645A
:101F7000D96E41F44071D96654649064936C1B0629
:101F8000FCD4094A40F23761A02351649364936CF6
:101F900013F08003FBD1054A13705DF8044B7047C2
:101FA00000C00F4000400C4000800C40D59600203F
:101FB000F8B500BFF8BC08BC9E46704700000000A2
:101FC0005FF800F06D5F00005FF800F0BD470000B3
:101FD0005FF800F0758501005FF800F0AD4A000081
:101FE0005FF800F0994D00005FF800F01553000015
:101FF0005FF800F0056900005FF800F01986010045
:1020000005010000E9350000A5690000FD8300001E
:0420100075E900006E
:1020140080C00F4000000003190000001000000001
:10202400E8841F4001000000FF000000FF000000E2
:102034000000000000000000180000001000000074
:10204400E4841F4001000000FF000000FF000000C6
:1020540000000000000000001F000000693D0000B7
:1020640070C00F40000C00001100000011000000BF
:10207400E0841F40020000002C0000001200000059
:10208400E0841F4001000000100000001100000067
:10209400DC841F40020000002D000000120000003C
:1020A400DC841F40010000001E0000005D3D0000B4
:1020B40070C00F40C00000001200000013000000B8
:1020C400D0841F4001000000FF000000FF0000005A
:1020D40000000000000000001300000013000000D6
:1020E400CC841F4001000000FF000000FF0000003E
:1020F40000000000000000001C000000513D000032
:10210400160355005300420020005300650072007E
:10211400690061006C00000018035400650065004C
:102124006E00730079006400750069006E006F0032
:102134000403090409026200030100C032080B0011
:102144000202020100090400000102020100052448
:1021540000100105240101010424020605240600DF
:10216400010705820310001009040100020A00009F
:10217400000705030240000007058402400000092F
:1021840004020002FF6AFF00070581024000010704
:10219400050102400001000009026200030100C0C1
:1021A40032080B00020202010009040000010202CD
:1021B4000100052400100105240101010424020684
:1021C4000524060001070582031000050904010027
:1021D400020A00000007050302000200070584024A
:1021E4000002000904020002FF6AC7000705810219
:1021F4000002010705010200020100000A060002B4
:08220400EF020140010000009F
:10220C0000000000000000000000000000000000C2
:10221C0000000000000000000000000000000000B2
:10222C00F8B54FF084439D695A6915400DD0254F80
:10223C0001269D6195FAA5F4B4FA84F457F824307C
:10224C0006FA04F49847A543F4D11F4B9D695A69CB
:10225C0015400DD01D4F01269D6195FAA5F4B4FAD9
:10226C0084F457F8243006FA04F49847A543F4D1C3
:10227C00174B9D695A6915400DD0164F01269D616B
:10228C0095FAA5F4B4FA84F457F8243006FA04F459
:10229C009847A543F4D1104B9D695A6915400DD050
:1022AC000E4F01269D6195FAA5F4B4FA84F457F803
:1022BC00243006FA04F49847A543F4D1BFF34F8FAA
:1022CC00F8BD00BF3C32002000400042BC32002070
:1022DC00008000423C33002000C00042BC33002090
:1022EC000548064B1B1AD90F01EBA301491002D06C
:1022FC00034B03B118477047C03A0020C03A002086
:10230C000000000008B5054B1BB105490548AFF3AB
:10231C000080BDE80840FFF7E3BF00BF00000000ED
:10232C00D49400200050026010B58EB0044600F228
:10233C008F100DF11E0307AA0DF11A0103F07CFE9C
:10234C00BDF91A3094ED5F4A04F5DC7E05EE103AC7
:10235C00BDF91C30B7EEC44A0DF1200C06EE103A54
:10236C00BDF91E30B8EEC55B07EE103AB8EEC66B81
:10237C00B8EEC77B25EE045B26EE046B27EE047BE0
:10238C009FED0F3B25EE035B26EE036B27EE037BE5
:10239C0084ED6E5B84ED706B84ED727BBEE80F0098
:1023AC00ACE80F009EE803009DED0A1B9DED080BA9
:1023BC008CE803009DED0C2B0EB010BDAFF300802C
:1023CC00399D52A246DF913F08B50D2004F016FD51
:1023DC0001460D20B1FA81F1490904F0E5FC024AED
:1023EC00024B12681A6008BDE8950020F09400209A
:1023FC0010B504460021007B04F0B0FF207A0021C8
:10240C00BDE8104004F0AABF38B50D4604460021C3
:10241C00007A04F0A3FF207B85EAE571A1EBE5715E
:10242C00BDE8384004F09ABF38B50D46044600218B
:10243C00007B04F093FF207A85EAE571A1EBE5714E
:10244C00BDE8384004F08ABF10B58EB0044600F5E4
:10245C00C0700DF11E0307AA0DF11A0103F0CCFD9B
:10246C00BDF91A3094ED5E3A04F5D07E05EE103AC3
:10247C00BDF91C30B7EEC33A94ED524A06EE103A51
:10248C00BDF91E30B8EEC55B0DF1200C07EE103A0D
:10249C00B8EEC66BB7EEC44AB8EEC77B25EE035B4D
:1024AC0026EE036B27EE037B25EE045B26EE046B16
:1024BC0027EE047B84ED685B84ED6A6B84ED6C7BAA
:1024CC00BEE80F00ACE80F009EE803009DED0A1B70
:1024DC009DED080B8CE803009DED0C2B0EB010BD90
:1024EC0010B5044682B00C481EF06AF904F5C070B1
:1024FC00019003F043FD019803F064FD08B902B0AC
:10250C0010BD04F28F10019003F038FD019802B059
:10251C00BDE8104003F056BDB8210020224BD3F883
:10252C00AC20D2E90010D3680968006810B41842D6
:10253C00946801EA04012ED0137C03F00303D9B98B
:10254C0043F008039908013B11740D2B0BD8DFE8FD
:10255C0003F00D071C070A160D0D160A071C070DB4
:10256C005369013B53615DF8044B704753695DF847
:10257C00044B01335361704743F00403E0E75369A4
:10258C005DF8044B023B5361704753695DF8044B93
:10259C00023353617047137C03F003030029D1D03D
:1025AC0043F00403CEE700BFB88C0020224BD3F8D5
:1025BC00B020D2E90010D3680968006810B4184242
:1025CC00946801EA04012ED0137C03F00303D9B9FB
:1025DC0043F008039908013B11740D2B0BD8DFE86D
:1025EC0003F00D071C070A160D0D160A071C070D24
:1025FC005369013B53615DF8044B704753695DF8B7
:10260C00044B01335361704743F00403E0E7536913
:10261C005DF8044B023B5361704753695DF8044B02
:10262C00023353617047137C03F003030029D1D0AC
:10263C0043F00403CEE700BFB88C0020224BD3F844
:10264C00B420D2E90010D3680968006810B41842AD
:10265C00946801EA04012ED0137C03F00303D9B96A
:10266C0043F008039908013B11740D2B0BD8DFE8DC
:10267C0003F00D071C070A160D0D160A071C070D93
:10268C005369013B53615DF8044B704753695DF826
:10269C00044B01335361704743F00403E0E7536983
:1026AC005DF8044B023B5361704753695DF8044B72
:1026BC00023353617047137C03F003030029D1D01C
:1026CC0043F00403CEE700BFB88C0020224BD3F8B4
:1026DC00B820D2E90010D3680968006810B4184219
:1026EC00946801EA04012ED0137C03F00303D9B9DA
:1026FC0043F008039908013B11740D2B0BD8DFE84C
:10270C0003F00D071C070A160D0D160A071C070D02
:10271C005369013B53615DF8044B704753695DF895
:10272C00044B01335361704743F00403E0E75369F2
:10273C005DF8044B023B5361704753695DF8044BE1
:10274C00023353617047137C03F003030029D1D08B
:10275C0043F00403CEE700BFB88C0020224BD3F823
:10276C00BC20D2E90010D3680968006810B4184284
:10277C00946801EA04012ED0137C03F00303D9B949
:10278C0043F008039908013B11740D2B0BD8DFE8BB
:10279C0003F00D071C070A160D0D160A071C070D72
:1027AC005369013B53615DF8044B704753695DF805
:1027BC00044B01335361704743F00403E0E7536962
:1027CC005DF8044B023B5361704753695DF8044B51
:1027DC00023353617047137C03F003030029D1D0FB
:1027EC0043F00403CEE700BFB88C0020224BD3F893
:1027FC00C020D2E90010D3680968006810B41842F0
:10280C00946801EA04012ED0137C03F00303D9B9B8
:10281C0043F008039908013B11740D2B0BD8DFE82A
:10282C0003F00D071C070A160D0D160A071C070DE1
:10283C005369013B53615DF8044B704753695DF874
:10284C00044B01335361704743F00403E0E75369D1
:10285C005DF8044B023B5361704753695DF8044BC0
:10286C00023353617047137C03F003030029D1D06A
:10287C0043F00403CEE700BFB88C0020224BD3F802
:10288C00C420D2E90010D3680968006810B418425B
:10289C00946801EA04012ED0137C03F00303D9B928
:1028AC0043F008039908013B11740D2B0BD8DFE89A
:1028BC0003F00D071C070A160D0D160A071C070D51
:1028CC005369013B53615DF8044B704753695DF8E4
:1028DC00044B01335361704743F00403E0E7536941
:1028EC005DF8044B023B5361704753695DF8044B30
:1028FC00023353617047137C03F003030029D1D0DA
:10290C0043F00403CEE700BFB88C0020224BD3F871
:10291C00C820D2E90010D3680968006810B41842C6
:10292C00946801EA04012ED0137C03F00303D9B997
:10293C0043F008039908013B11740D2B0BD8DFE809
:10294C0003F00D071C070A160D0D160A071C070DC0
:10295C005369013B53615DF8044B704753695DF853
:10296C00044B01335361704743F00403E0E75369B0
:10297C005DF8044B023B5361704753695DF8044B9F
:10298C00023353617047137C03F003030029D1D049
:10299C0043F00403CEE700BFB88C0020214B1A682B
:1029AC00D2E90010D3680968006810B41842946822
:1029BC0001EA04012ED0137C03F00303D9B943F0D0
:1029CC0008039908013B11740D2B0BD8DFE803F0B9
:1029DC000D071C070A160D0D160A071C070D536967
:1029EC00013B53615DF8044B704753695DF8044B30
:1029FC0001335361704743F00403E0E753695DF81A
:102A0C00044B023B5361704753695DF8044B02332E
:102A1C0053617047137C03F003030029D1D043F0BA
:102A2C000403CEE7B88C0020214B5A68D2E9001081
:102A3C00D3680968006810B41842946801EA04016C
:102A4C002ED0137C03F00303D9B943F00803990883
:102A5C00013B11740D2B0BD8DFE803F00D071C079D
:102A6C000A160D0D160A071C070D5369013B53611D
:102A7C005DF8044B704753695DF8044B01335361A7
:102A8C00704743F00403E0E753695DF8044B023BE5
:102A9C005361704753695DF8044B023353617047BF
:102AAC00137C03F003030029D1D043F00403CEE7D9
:102ABC00B88C0020214B9A68D2E90010D3680968C1
:102ACC00006810B41842946801EA04012ED0137CFB
:102ADC0003F00303D9B943F008039908013B1174BF
:102AEC000D2B0BD8DFE803F00D071C070A160D0D94
:102AFC00160A071C070D5369013B53615DF8044B23
:102B0C00704753695DF8044B01335361704743F0D0
:102B1C000403E0E753695DF8044B023B53617047D3
:102B2C0053695DF8044B023353617047137C03F017
:102B3C0003030029D1D043F00403CEE7B88C002066
:102B4C00224BD3F8CC20D2E90010D3680968006876
:102B5C0010B41842946801EA04012ED0137C03F0DF
:102B6C000303D9B943F008039908013B11740D2BE9
:102B7C000BD8DFE803F00D071C070A160D0D160A1B
:102B8C00071C070D5369013B53615DF8044B7047FB
:102B9C0053695DF8044B01335361704743F00403F0
:102BAC00E0E753695DF8044B023B5361704753698E
:102BBC005DF8044B023353617047137C03F003033D
:102BCC000029D1D043F00403CEE700BFB88C00201D
:102BDC00224BD3F8D020D2E90010D36809680068E2
:102BEC0010B41842946801EA04012ED0137C03F04F
:102BFC000303D9B943F008039908013B11740D2B59
:102C0C000BD8DFE803F00D071C070A160D0D160A8A
:102C1C00071C070D5369013B53615DF8044B70476A
:102C2C0053695DF8044B01335361704743F004035F
:102C3C00E0E753695DF8044B023B536170475369FD
:102C4C005DF8044B023353617047137C03F00303AC
:102C5C000029D1D043F00403CEE700BFB88C00208C
:102C6C00224BD3F8D420D2E90010D368096800684D
:102C7C0010B41842946801EA04012ED0137C03F0BE
:102C8C000303D9B943F008039908013B11740D2BC8
:102C9C000BD8DFE803F00D071C070A160D0D160AFA
:102CAC00071C070D5369013B53615DF8044B7047DA
:102CBC0053695DF8044B01335361704743F00403CF
:102CCC00E0E753695DF8044B023B5361704753696D
:102CDC005DF8044B023353617047137C03F003031C
:102CEC000029D1D043F00403CEE700BFB88C0020FC
:102CFC00224BD3F8D820D2E90010D36809680068B9
:102D0C0010B41842946801EA04012ED0137C03F02D
:102D1C000303D9B943F008039908013B11740D2B37
:102D2C000BD8DFE803F00D071C070A160D0D160A69
:102D3C00071C070D5369013B53615DF8044B704749
:102D4C0053695DF8044B01335361704743F004033E
:102D5C00E0E753695DF8044B023B536170475369DC
:102D6C005DF8044B023353617047137C03F003038B
:102D7C000029D1D043F00403CEE700BFB88C00206B
:102D8C00214BDA68D2E90010D3680968006810B4E6
:102D9C001842946801EA04012ED0137C03F003035B
:102DAC00D9B943F008039908013B11740D2B0BD8CA
:102DBC00DFE803F00D071C070A160D0D160A071C99
:102DCC00070D5369013B53615DF8044B7047536920
:102DDC005DF8044B01335361704743F00403E0E7A3
:102DEC0053695DF8044B023B5361704753695DF8BE
:102DFC00044B023353617047137C03F00303002927
:102E0C00D1D043F00403CEE7B88C0020214B1A69D3
:102E1C00D2E90010D3680968006810B418429468AD
:102E2C0001EA04012ED0137C03F00303D9B943F05B
:102E3C0008039908013B11740D2B0BD8DFE803F044
:102E4C000D071C070A160D0D160A071C070D5369F2
:102E5C00013B53615DF8044B704753695DF8044BBB
:102E6C0001335361704743F00403E0E753695DF8A5
:102E7C00044B023B5361704753695DF8044B0233BA
:102E8C0053617047137C03F003030029D1D043F046
:102E9C000403CEE7B88C0020214B5A69D2E900100C
:102EAC00D3680968006810B41842946801EA0401F8
:102EBC002ED0137C03F00303D9B943F0080399080F
:102ECC00013B11740D2B0BD8DFE803F00D071C0729
:102EDC000A160D0D160A071C070D5369013B5361A9
:102EEC005DF8044B704753695DF8044B0133536133
:102EFC00704743F00403E0E753695DF8044B023B71
:102F0C005361704753695DF8044B0233536170474A
:102F1C00137C03F003030029D1D043F00403CEE764
:102F2C00B88C0020214B9A69D2E90010D36809684B
:102F3C00006810B41842946801EA04012ED0137C86
:102F4C0003F00303D9B943F008039908013B11744A
:102F5C000D2B0BD8DFE803F00D071C070A160D0D1F
:102F6C00160A071C070D5369013B53615DF8044BAE
:102F7C00704753695DF8044B01335361704743F05C
:102F8C000403E0E753695DF8044B023B536170475F
:102F9C0053695DF8044B023353617047137C03F0A3
:102FAC0003030029D1D043F00403CEE7B88C0020F2
:102FBC00214BDA69D2E90010D3680968006810B4B3
:102FCC001842946801EA04012ED0137C03F0030329
:102FDC00D9B943F008039908013B11740D2B0BD898
:102FEC00DFE803F00D071C070A160D0D160A071C67
:102FFC00070D5369013B53615DF8044B70475369EE
:10300C005DF8044B01335361704743F00403E0E770
:10301C0053695DF8044B023B5361704753695DF88B
:10302C00044B023353617047137C03F003030029F4
:10303C00D1D043F00403CEE7B88C0020214B1A6AA0
:10304C00D2E90010D3680968006810B4184294687B
:10305C0001EA04012ED0137C03F00303D9B943F029
:10306C0008039908013B11740D2B0BD8DFE803F012
:10307C000D071C070A160D0D160A071C070D5369C0
:10308C00013B53615DF8044B704753695DF8044B89
:10309C0001335361704743F00403E0E753695DF873
:1030AC00044B023B5361704753695DF8044B023388
:1030BC0053617047137C03F003030029D1D043F014
:1030CC000403CEE7B88C0020214B5A6AD2E90010D9
:1030DC00D3680968006810B41842946801EA0401C6
:1030EC002ED0137C03F00303D9B943F008039908DD
:1030FC00013B11740D2B0BD8DFE803F00D071C07F7
:10310C000A160D0D160A071C070D5369013B536176
:10311C005DF8044B704753695DF8044B0133536100
:10312C00704743F00403E0E753695DF8044B023B3E
:10313C005361704753695DF8044B02335361704718
:10314C00137C03F003030029D1D043F00403CEE732
:10315C00B88C0020214B9A6AD2E90010D368096818
:10316C00006810B41842946801EA04012ED0137C54
:10317C0003F00303D9B943F008039908013B117418
:10318C000D2B0BD8DFE803F00D071C070A160D0DED
:10319C00160A071C070D5369013B53615DF8044B7C
:1031AC00704753695DF8044B01335361704743F02A
:1031BC000403E0E753695DF8044B023B536170472D
:1031CC0053695DF8044B023353617047137C03F071
:1031DC0003030029D1D043F00403CEE7B88C0020C0
:1031EC00214BDA6AD2E90010D3680968006810B480
:1031FC001842946801EA04012ED0137C03F00303F7
:10320C00D9B943F008039908013B11740D2B0BD865
:10321C00DFE803F00D071C070A160D0D160A071C34
:10322C00070D5369013B53615DF8044B70475369BB
:10323C005DF8044B01335361704743F00403E0E73E
:10324C0053695DF8044B023B5361704753695DF859
:10325C00044B023353617047137C03F003030029C2
:10326C00D1D043F00403CEE7B88C0020214B1A6B6D
:10327C00D2E90010D3680968006810B41842946849
:10328C0001EA04012ED0137C03F00303D9B943F0F7
:10329C0008039908013B11740D2B0BD8DFE803F0E0
:1032AC000D071C070A160D0D160A071C070D53698E
:1032BC00013B53615DF8044B704753695DF8044B57
:1032CC0001335361704743F00403E0E753695DF841
:1032DC00044B023B5361704753695DF8044B023356
:1032EC0053617047137C03F003030029D1D043F0E2
:1032FC000403CEE7B88C0020214B5A6BD2E90010A6
:10330C00D3680968006810B41842946801EA040193
:10331C002ED0137C03F00303D9B943F008039908AA
:10332C00013B11740D2B0BD8DFE803F00D071C07C4
:10333C000A160D0D160A071C070D5369013B536144
:10334C005DF8044B704753695DF8044B01335361CE
:10335C00704743F00403E0E753695DF8044B023B0C
:10336C005361704753695DF8044B023353617047E6
:10337C00137C03F003030029D1D043F00403CEE700
:10338C00B88C0020214B9A6BD2E90010D3680968E5
:10339C00006810B41842946801EA04012ED0137C22
:1033AC0003F00303D9B943F008039908013B1174E6
:1033BC000D2B0BD8DFE803F00D071C070A160D0DBB
:1033CC00160A071C070D5369013B53615DF8044B4A
:1033DC00704753695DF8044B01335361704743F0F8
:1033EC000403E0E753695DF8044B023B53617047FB
:1033FC0053695DF8044B023353617047137C03F03F
:10340C0003030029D1D043F00403CEE7B88C00208D
:10341C00214BDA6BD2E90010D3680968006810B44C
:10342C001842946801EA04012ED0137C03F00303C4
:10343C00D9B943F008039908013B11740D2B0BD833
:10344C00DFE803F00D071C070A160D0D160A071C02
:10345C00070D5369013B53615DF8044B7047536989
:10346C005DF8044B01335361704743F00403E0E70C
:10347C0053695DF8044B023B5361704753695DF827
:10348C00044B023353617047137C03F00303002990
:10349C00D1D043F00403CEE7B88C0020214B1A6C3A
:1034AC00D2E90010D3680968006810B41842946817
:1034BC0001EA04012ED0137C03F00303D9B943F0C5
:1034CC0008039908013B11740D2B0BD8DFE803F0AE
:1034DC000D071C070A160D0D160A071C070D53695C
:1034EC00013B53615DF8044B704753695DF8044B25
:1034FC0001335361704743F00403E0E753695DF80F
:10350C00044B023B5361704753695DF8044B023323
:10351C0053617047137C03F003030029D1D043F0AF
:10352C000403CEE7B88C0020214B5A6CD2E9001072
:10353C00D3680968006810B41842946801EA040161
:10354C002ED0137C03F00303D9B943F00803990878
:10355C00013B11740D2B0BD8DFE803F00D071C0792
:10356C000A160D0D160A071C070D5369013B536112
:10357C005DF8044B704753695DF8044B013353619C
:10358C00704743F00403E0E753695DF8044B023BDA
:10359C005361704753695DF8044B023353617047B4
:1035AC00137C03F003030029D1D043F00403CEE7CE
:1035BC00B88C0020214B9A6CD2E90010D3680968B2
:1035CC00006810B41842946801EA04012ED0137CF0
:1035DC0003F00303D9B943F008039908013B1174B4
:1035EC000D2B0BD8DFE803F00D071C070A160D0D89
:1035FC00160A071C070D5369013B53615DF8044B18
:10360C00704753695DF8044B01335361704743F0C5
:10361C000403E0E753695DF8044B023B53617047C8
:10362C0053695DF8044B023353617047137C03F00C
:10363C0003030029D1D043F00403CEE7B88C00205B
:10364C00214BDA6CD2E90010D3680968006810B419
:10365C001842946801EA04012ED0137C03F0030392
:10366C00D9B943F008039908013B11740D2B0BD801
:10367C00DFE803F00D071C070A160D0D160A071CD0
:10368C00070D5369013B53615DF8044B7047536957
:10369C005DF8044B01335361704743F00403E0E7DA
:1036AC0053695DF8044B023B5361704753695DF8F5
:1036BC00044B023353617047137C03F0030300295E
:1036CC00D1D043F00403CEE7B88C0020214B1A6D07
:1036DC00D2E90010D3680968006810B418429468E5
:1036EC0001EA04012ED0137C03F00303D9B943F093
:1036FC0008039908013B11740D2B0BD8DFE803F07C
:10370C000D071C070A160D0D160A071C070D536929
:10371C00013B53615DF8044B704753695DF8044BF2
:10372C0001335361704743F00403E0E753695DF8DC
:10373C00044B023B5361704753695DF8044B0233F1
:10374C0053617047137C03F003030029D1D043F07D
:10375C000403CEE7B88C0020214B5A6DD2E900103F
:10376C00D3680968006810B41842946801EA04012F
:10377C002ED0137C03F00303D9B943F00803990846
:10378C00013B11740D2B0BD8DFE803F00D071C0760
:10379C000A160D0D160A071C070D5369013B5361E0
:1037AC005DF8044B704753695DF8044B013353616A
:1037BC00704743F00403E0E753695DF8044B023BA8
:1037CC005361704753695DF8044B02335361704782
:1037DC00137C03F003030029D1D043F00403CEE79C
:1037EC00B88C0020214B9A6DD2E90010D36809687F
:1037FC00006810B41842946801EA04012ED0137CBE
:10380C0003F00303D9B943F008039908013B117481
:10381C000D2B0BD8DFE803F00D071C070A160D0D56
:10382C00160A071C070D5369013B53615DF8044BE5
:10383C00704753695DF8044B01335361704743F093
:10384C000403E0E753695DF8044B023B5361704796
:10385C0053695DF8044B023353617047137C03F0DA
:10386C0003030029D1D043F00403CEE7B88C002029
:10387C00214BDA6DD2E90010D3680968006810B4E6
:10388C001842946801EA04012ED0137C03F0030360
:10389C00D9B943F008039908013B11740D2B0BD8CF
:1038AC00DFE803F00D071C070A160D0D160A071C9E
:1038BC00070D5369013B53615DF8044B7047536925
:1038CC005DF8044B01335361704743F00403E0E7A8
:1038DC0053695DF8044B023B5361704753695DF8C3
:1038EC00044B023353617047137C03F0030300292C
:1038FC00D1D043F00403CEE7B88C0020214B1A6ED4
:10390C00D2E90010D3680968006810B418429468B2
:10391C0001EA04012ED0137C03F00303D9B943F060
:10392C0008039908013B11740D2B0BD8DFE803F049
:10393C000D071C070A160D0D160A071C070D5369F7
:10394C00013B53615DF8044B704753695DF8044BC0
:10395C0001335361704743F00403E0E753695DF8AA
:10396C00044B023B5361704753695DF8044B0233BF
:10397C0053617047137C03F003030029D1D043F04B
:10398C000403CEE7B88C0020214B5A6ED2E900100C
:10399C00D3680968006810B41842946801EA0401FD
:1039AC002ED0137C03F00303D9B943F00803990814
:1039BC00013B11740D2B0BD8DFE803F00D071C072E
:1039CC000A160D0D160A071C070D5369013B5361AE
:1039DC005DF8044B704753695DF8044B0133536138
:1039EC00704743F00403E0E753695DF8044B023B76
:1039FC005361704753695DF8044B02335361704750
:103A0C00137C03F003030029D1D043F00403CEE769
:103A1C00B88C0020214B9A6ED2E90010D36809684B
:103A2C00006810B41842946801EA04012ED0137C8B
:103A3C0003F00303D9B943F008039908013B11744F
:103A4C000D2B0BD8DFE803F00D071C070A160D0D24
:103A5C00160A071C070D5369013B53615DF8044BB3
:103A6C00704753695DF8044B01335361704743F061
:103A7C000403E0E753695DF8044B023B5361704764
:103A8C0053695DF8044B023353617047137C03F0A8
:103A9C0003030029D1D043F00403CEE7B88C0020F7
:103AAC00214BDA6ED2E90010D3680968006810B4B3
:103ABC001842946801EA04012ED0137C03F003032E
:103ACC00D9B943F008039908013B11740D2B0BD89D
:103ADC00DFE803F00D071C070A160D0D160A071C6C
:103AEC00070D5369013B53615DF8044B70475369F3
:103AFC005DF8044B01335361704743F00403E0E776
:103B0C0053695DF8044B023B5361704753695DF890
:103B1C00044B023353617047137C03F003030029F9
:103B2C00D1D043F00403CEE7B88C0020214B1A6FA0
:103B3C00D2E90010D3680968006810B41842946880
:103B4C0001EA04012ED0137C03F00303D9B943F02E
:103B5C0008039908013B11740D2B0BD8DFE803F017
:103B6C000D071C070A160D0D160A071C070D5369C5
:103B7C00013B53615DF8044B704753695DF8044B8E
:103B8C0001335361704743F00403E0E753695DF878
:103B9C00044B023B5361704753695DF8044B02338D
:103BAC0053617047137C03F003030029D1D043F019
:103BBC000403CEE7B88C0020214B5A6FD2E90010D9
:103BCC00D3680968006810B41842946801EA0401CB
:103BDC002ED0137C03F00303D9B943F008039908E2
:103BEC00013B11740D2B0BD8DFE803F00D071C07FC
:103BFC000A160D0D160A071C070D5369013B53617C
:103C0C005DF8044B704753695DF8044B0133536105
:103C1C00704743F00403E0E753695DF8044B023B43
:103C2C005361704753695DF8044B0233536170471D
:103C3C00137C03F003030029D1D043F00403CEE737
:103C4C00B88C0020214B9A6FD2E90010D368096818
:103C5C00006810B41842946801EA04012ED0137C59
:103C6C0003F00303D9B943F008039908013B11741D
:103C7C000D2B0BD8DFE803F00D071C070A160D0DF2
:103C8C00160A071C070D5369013B53615DF8044B81
:103C9C00704753695DF8044B01335361704743F02F
:103CAC000403E0E753695DF8044B023B5361704732
:103CBC0053695DF8044B023353617047137C03F076
:103CCC0003030029D1D043F00403CEE7B88C0020C5
:103CDC00214BDA6FD2E90010D3680968006810B480
:103CEC001842946801EA04012ED0137C03F00303FC
:103CFC00D9B943F008039908013B11740D2B0BD86B
:103D0C00DFE803F00D071C070A160D0D160A071C39
:103D1C00070D5369013B53615DF8044B70475369C0
:103D2C005DF8044B01335361704743F00403E0E743
:103D3C0053695DF8044B023B5361704753695DF85E
:103D4C00044B023353617047137C03F003030029C7
:103D5C00D1D043F00403CEE7B88C0020224BD3F82B
:103D6C008020D2E90010D3680968006810B41842AA
:103D7C00946801EA04012ED0137C03F00303D9B933
:103D8C0043F008039908013B11740D2B0BD8DFE8A5
:103D9C0003F00D071C070A160D0D160A071C070D5C
:103DAC005369013B53615DF8044B704753695DF8EF
:103DBC00044B01335361704743F00403E0E753694C
:103DCC005DF8044B023B5361704753695DF8044B3B
:103DDC00023353617047137C03F003030029D1D0E5
:103DEC0043F00403CEE700BFB88C0020224BD3F87D
:103DFC008420D2E90010D3680968006810B4184216
:103E0C00946801EA04012ED0137C03F00303D9B9A2
:103E1C0043F008039908013B11740D2B0BD8DFE814
:103E2C0003F00D071C070A160D0D160A071C070DCB
:103E3C005369013B53615DF8044B704753695DF85E
:103E4C00044B01335361704743F00403E0E75369BB
:103E5C005DF8044B023B5361704753695DF8044BAA
:103E6C00023353617047137C03F003030029D1D054
:103E7C0043F00403CEE700BFB88C0020224BD3F8EC
:103E8C008820D2E90010D3680968006810B4184281
:103E9C00946801EA04012ED0137C03F00303D9B912
:103EAC0043F008039908013B11740D2B0BD8DFE884
:103EBC0003F00D071C070A160D0D160A071C070D3B
:103ECC005369013B53615DF8044B704753695DF8CE
:103EDC00044B01335361704743F00403E0E753692B
:103EEC005DF8044B023B5361704753695DF8044B1A
:103EFC00023353617047137C03F003030029D1D0C4
:103F0C0043F00403CEE700BFB88C0020224BD3F85B
:103F1C008C20D2E90010D3680968006810B41842EC
:103F2C00946801EA04012ED0137C03F00303D9B981
:103F3C0043F008039908013B11740D2B0BD8DFE8F3
:103F4C0003F00D071C070A160D0D160A071C070DAA
:103F5C005369013B53615DF8044B704753695DF83D
:103F6C00044B01335361704743F00403E0E753699A
:103F7C005DF8044B023B5361704753695DF8044B89
:103F8C00023353617047137C03F003030029D1D033
:103F9C0043F00403CEE700BFB88C0020224BD3F8CB
:103FAC009020D2E90010D3680968006810B4184258
:103FBC00946801EA04012ED0137C03F00303D9B9F1
:103FCC0043F008039908013B11740D2B0BD8DFE863
:103FDC0003F00D071C070A160D0D160A071C070D1A
:103FEC005369013B53615DF8044B704753695DF8AD
:103FFC00044B01335361704743F00403E0E753690A
:10400C005DF8044B023B5361704753695DF8044BF8
:10401C00023353617047137C03F003030029D1D0A2
:10402C0043F00403CEE700BFB88C0020224BD3F83A
:10403C009420D2E90010D3680968006810B41842C3
:10404C00946801EA04012ED0137C03F00303D9B960
:10405C0043F008039908013B11740D2B0BD8DFE8D2
:10406C0003F00D071C070A160D0D160A071C070D89
:10407C005369013B53615DF8044B704753695DF81C
:10408C00044B01335361704743F00403E0E7536979
:10409C005DF8044B023B5361704753695DF8044B68
:1040AC00023353617047137C03F003030029D1D012
:1040BC0043F00403CEE700BFB88C0020224BD3F8AA
:1040CC009820D2E90010D3680968006810B418422F
:1040DC00946801EA04012ED0137C03F00303D9B9D0
:1040EC0043F008039908013B11740D2B0BD8DFE842
:1040FC0003F00D071C070A160D0D160A071C070DF9
:10410C005369013B53615DF8044B704753695DF88B
:10411C00044B01335361704743F00403E0E75369E8
:10412C005DF8044B023B5361704753695DF8044BD7
:10413C00023353617047137C03F003030029D1D081
:10414C0043F00403CEE700BFB88C0020224BD3F819
:10415C009C20D2E90010D3680968006810B418429A
:10416C00946801EA04012ED0137C03F00303D9B93F
:10417C0043F008039908013B11740D2B0BD8DFE8B1
:10418C0003F00D071C070A160D0D160A071C070D68
:10419C005369013B53615DF8044B704753695DF8FB
:1041AC00044B01335361704743F00403E0E7536958
:1041BC005DF8044B023B5361704753695DF8044B47
:1041CC00023353617047137C03F003030029D1D0F1
:1041DC0043F00403CEE700BFB88C0020224BD3F889
:1041EC00A020D2E90010D3680968006810B4184206
:1041FC00946801EA04012ED0137C03F00303D9B9AF
:10420C0043F008039908013B11740D2B0BD8DFE820
:10421C0003F00D071C070A160D0D160A071C070DD7
:10422C005369013B53615DF8044B704753695DF86A
:10423C00044B01335361704743F00403E0E75369C7
:10424C005DF8044B023B5361704753695DF8044BB6
:10425C00023353617047137C03F003030029D1D060
:10426C0043F00403CEE700BFB88C0020224BD3F8F8
:10427C00A420D2E90010D3680968006810B4184271
:10428C00946801EA04012ED0137C03F00303D9B91E
:10429C0043F008039908013B11740D2B0BD8DFE890
:1042AC0003F00D071C070A160D0D160A071C070D47
:1042BC005369013B53615DF8044B704753695DF8DA
:1042CC00044B01335361704743F00403E0E7536937
:1042DC005DF8044B023B5361704753695DF8044B26
:1042EC00023353617047137C03F003030029D1D0D0
:1042FC0043F00403CEE700BFB88C0020224BD3F868
:10430C00A820D2E90010D3680968006810B41842DC
:10431C00946801EA04012ED0137C03F00303D9B98D
:10432C0043F008039908013B11740D2B0BD8DFE8FF
:10433C0003F00D071C070A160D0D160A071C070DB6
:10434C005369013B53615DF8044B704753695DF849
:10435C00044B01335361704743F00403E0E75369A6
:10436C005DF8044B023B5361704753695DF8044B95
:10437C00023353617047137C03F003030029D1D03F
:10438C0043F00403CEE700BFB88C002038B52DED08
:10439C00028B069B04460271B0EE408A8360D8B251
:1043AC00144A0D46079B01212260E36002F038FDA0
:1043BC000121207B02F034FDB5EEC08AF1EE10FA3B
:1043CC0009DDB0EE480A207A03F02EF8B0EE480A68
:1043DC00207B03F029F8284603F016F90021207AF7
:1043EC0002F0BCFF207B002102F0B8FF2046BDECA0
:1043FC00028B38BDE00700200B4610B5362800F2C2
:10440C009782DFE810F08C02820279027002670258
:10441C005E0255024C0243023A02310228021F028C
:10442C00BF01B601AD01A4019B019201890180017C
:10443C0077016E0165015C0153014A0141013801AC
:10444C002F0126011D0113010901FF00F500EB00EE
:10445C00E100D700CD00C300B900AF00A5009B0060
:10446C00910087007D00730069005F0055004B00D0
:10447C0041003700C84C0422C8493620C4F8D83053
:10448C0002F008FD012010BDC34C0422C4493520A4
:10449C00C4F8D43002F0FEFC012010BDBE4C042246
:1044AC00C0493420C4F8D03002F0F4FC012010BD17
:1044BC00B94C0422BC493320C4F8CC3002F0EAFCDD
:1044CC00012010BDB44C0422B8493220C4F8C830C5
:1044DC0002F0E0FC012010BDAF4C0422B4493120A5
:1044EC00C4F8C43002F0D6FC012010BDAA4C042242
:1044FC00B0493020C4F8C03002F0CCFC012010BD13
:10450C00A54C0422AC492F20C4F8BC3002F0C2FCEC
:10451C00012010BDA04C0422A8492E20C4F8B830AC
:10452C0002F0B8FC012010BD9B4C0422A4492D20A4
:10453C00C4F8B43002F0AEFC012010BD964C04223D
:10454C00A0492C20C4F8B03002F0A4FC012010BD0E
:10455C00914C04229C492B20C4F8AC3002F09AFCFC
:10456C00012010BD8C4C042298492A20C4F8A83094
:10457C0002F090FC012010BD874C042294492920A4
:10458C00C4F8A43002F086FC012010BD824C042239
:10459C0090492820C4F8A03002F07CFC012010BD0A
:1045AC007D4C04228C492720C4F89C3002F072FC0C
:1045BC00012010BD784C042288492620C4F898307C
:1045CC0002F068FC012010BD734C042284492520A4
:1045DC00C4F8943002F05EFC012010BD6E4C042235
:1045EC0080492420C4F8903002F054FC012010BD06
:1045FC00694C04227C492320C4F88C3002F04AFC1C
:10460C00012010BD644C042278492220C4F8883063
:10461C0002F040FC012010BD5F4C042274492120A3
:10462C00C4F8843002F036FC012010BD5A4C042230
:10463C0070492020C4F8803002F02CFC012010BD01
:10464C00554C04226C491F20E36702F023FC012027
:10465C0010BD514C042269491E20A36702F01AFCBC
:10466C00012010BD4C4C042265491D20636702F0EB
:10467C0011FC012010BD484C042262491C20236708
:10468C0002F008FC012010BD434C04225E491B20A3
:10469C00E36602F0FFFB012010BD3F4C04225B4996
:1046AC001A20A36602F0F6FB012010BD3A4C04223E
:1046BC0057491920636602F0EDFB012010BD364C02
:1046CC00042254491820236602F0E4FB012010BD9B
:1046DC00314C042250491720E36502F0DBFB01202A
:1046EC0010BD2D4C04224D491620A36502F0D2FBBF
:1046FC00012010BD284C042249491520636502F0A5
:10470C00C9FB012010BD244C04224649142023650A
:10471C0002F0C0FB012010BD1F4C042242491320A3
:10472C00E36402F0B7FB012010BD1B4C04223F498F
:10473C001220A36402F0AEFB012010BD164C042223
:10474C003B491120636402F0A5FB012010BD124C03
:10475C00042238491020236402F09CFB012010BD78
:10476C000D4C042234490F20E36302F093FB01202B
:10477C0010BD094C042231490E20A36302F08AFBC0
:10478C00012010BD044C04222D490D20636302F05E
:10479C0081FB012010BD00BFB88C0020F10A000085
:1047AC00610A0000D1090000410900000D0700005A
:1047BC007D060000ED0500005D050000CD04000045
:1047CC003D040000AD0300001D030000FD200000AF
:1047DC006D200000DD1F00004D1F0000BD1E0000FD
:1047EC002D1E00009D1D00000D1D00007D1C0000F5
:1047FC00ED1B00005D1B0000D11A0000451A0000E3
:10480C00B91900002D190000A1180000151800009E
:10481C0089170000FD16000071160000E515000058
:10482C0059150000CD14000041140000B513000010
:10483C00291300009D1200001112000085110000C8
:10484C00F91000003B4C04223B490C20236302F07E
:10485C0021FB012010BD374C042238490B20E362A8
:10486C0002F018FB012010BD324C042234490A20FE
:10487C00A36202F00FFB012010BD2E4C0422314923
:10488C000920636202F006FB012010BD294C0422B2
:10489C002D490820236202F0FDFA012010BD254CA1
:1048AC0004222A490720E36102F0F4FA012010BD2A
:1048BC00204C042226490620A36102F0EBFA0120C9
:1048CC0010BD1C4C042223490520636102F0E2FA5E
:1048DC00012010BD0422174C1F491046236102F021
:1048EC00D9FA012010BD134C04221C490320E360AB
:1048FC0002F0D0FA012010BD0E4C042218490220FF
:10490C00A36002F0C7FA012010BD04460948042236
:10491C0014494360012002F0BDFA204610BD054C3D
:10492C00042211490020236002F0B4FA012010BDCA
:10493C00002010BDB88C00206D100000E10F0000AD
:10494C00550F0000C90E00003D0E0000B10D000017
:10495C00250D0000990C00000D0C0000810B0000CF
:10496C00B5080000290800009D0700002DE9F04162
:10497C0082B004460F4616469DF820C01D46BCF179
:10498C00000F01D017460E460221384602F048FAB5
:10499C000221304602F044FA25493B012548DFF854
:1049AC009CC051F8038001EB07132560D3F80CE091
:1049BC0001EB0613C4F80C80C4F814E0DA68330178
:1049CC00C9580023A26123621B4B45681B682161F7
:1049DC00ACFB033C4FF4FA634FEA9C4C03FB0CFC1E
:1049EC0043685B1B9C45FBD8D8F8003038460968F7
:1049FC001EEA030F14BF012300230A4204F10C0129
:104A0C0018BF43F0020301912377FFF7F5FC03462F
:104A1C000199304684F82430FFF7EEFC94F82420FA
:104A2C0003462046134484F8243002B0BDE8F081DC
:104A3C00A40D0020001000E0A421002083DE1B4305
:104A4C002DE9F04701210D20694C2DED028B84B02E
:104A5C0002F0E6F967481BF0B3FE04F5C07001F0F4
:104A6C008DFA04F5C07001F0ADFAA8B90324012148
:104A7C000D2002F099F9962002F018F90D20002172
:104A8C0002F092F9962002F011F9013CEFD14FF4AB
:104A9C007A7002F00BF9E9E704F28F1001F06EFA6C
:104AAC0004F28F1001F08EFA0028DFD0D4F85C31BC
:104ABC00002B4EDD002504F28F169FED4B8B0DF174
:104ACC000E0303AA0DF10A01304601F0B5FABDF947
:104ADC000A3094ED5F1A322002EE103ABDF90C3018
:104AEC00B7EEC11A013503EE103ABDF90E30B8EE2F
:104AFC00C22B07EE103AB8EEC33BB8EEC77B22EEE2
:104B0C00012B23EE013B27EE017B22EE082B23EE3B
:104B1C00083B27EE087B94ED584B94ED5A5B94EDD3
:104B2C005C6B34EE024B35EE035B36EE076B84EDBB
:104B3C00584B84ED5A5B84ED5C6B84ED6E2B84EDED
:104B4C00703B84ED727B02F0B1F8D4F85C319D427D
:104B5C00B5DB07EE903A284E284D40F2EE28B8EE21
:104B6C00E77ADFF8B0903768DFF8ACA0B7EEC77A19
:104B7C0094ED585B94ED5A6B94ED5C3B85EE074BD2
:104B8C0086EE075B83EE076B84ED584B84ED5A5B26
:104B9C0084ED5C6B03F0D0FE2B78C3B199F8003038
:104BAC00DB0714D53368DAF800209B1A0E2B0ED9CC
:104BBC00134C1448144B154A1549CDE90004012037
:104BCC0009F006FF04B0BDEC028BBDE8F08733683A
:104BDC002A78DB1B2AB1B3F5FA6FE9D803F0ACFEE7
:104BEC00D8E74345FAD9E3E7399D52A246DF913F16
:104BFC00E0820020B8210020E8950020E2960020F9
:104C0C003D380000313800002D38000029380000F4
:104C1C00A8210020E19600207096002038B5134D95
:104C2C00134C284606F0D0FD00210BF0EBF9214681
:104C3C00104807F081FC21460F4807F07DFC214607
:104C4C000E4807F033FF204607F074FA0C4808F0C2
:104C5C0019FB0C4806F0A4F9284606F0A9FC0D2017
:104C6C00012102F0A1F8012038BD00BFB095002051
:104C7C00BC940020EC9400208C9300200096002023
:104C8C00448F00204882002070B5C34AC34D12687F
:104C9C002B689B1AC72B2DED048B88B000F2A081DA
:104CAC00BF4CC04894ED0A1B94ED026B94ED007B55
:104CBC00BD4CB7EEC11BF7EEC60BB7EEC70B01F040
:104CCC0011FC94F82430CDED050A012B8DED040A6E
:104CDC008DED061ACDED071A40F2CB8172B6266A1D
:104CEC0062B602F037F86368D4ED006AC31A6060EC
:104CFC00B8EEE66B07EE903AA368A660B8EE677B59
:104D0C00F61AAA4C9FEDA04B94F8243087EE045B66
:104D1C0007EE906A012BB8EEE77B87EE064B84EE2C
:104D2C00058BB7EEC88B40F2918172B6266A62B6DB
:104D3C0002F010F8636894ED006AC31A6060B8EE74
:104D4C00C66B07EE903AA368A660B8EE677BF61ABE
:104D5C00974C9FED8D4B94F8243087EE045B07EE57
:104D6C00906A012BB8EEE77B87EE064B84EE057B51
:104D7C00F7EEC78B40F2568172B6266A62B601F026
:104D8C00E9FF63686060C31A07EE903AA368A660F7
:104D9C00B8EE677BF61A9FED7C6B87EE065B94EDA5
:104DAC00006A07EE906A834C94F82430B8EEE77BE7
:104DBC00B8EEC66B012B87EE064B84EE059BB7EE67
:104DCC00C99B40F21B8172B6266A62B601F0C2FF23
:104DDC0063686060F0EE480AC01AA368A66007EE2C
:104DEC00900AF61A9DED040AB8EE677B72489FEDA7
:104DFC00666B87EE065B94ED006A07EE906A6F4E69
:104E0C00B8EEE77BB8EEC66B87EE064B84EE057BFF
:104E1C00F7EEC79B01F040FDFDEEC07B337917EE3A
:104E2C00904A03B16442002C40F38280307A002116
:104E3C0002F094FA2146307B02F090FAF0EE680A08
:104E4C009DED050A5E4E5F4801F026FDFDEEC07B30
:104E5C00337917EE904A03B16442002C40F38980F9
:104E6C00307A002102F07AFA2146307B02F076FA91
:104E7C00F0EE490A9DED060A534E544801F00CFD24
:104E8C00FDEEC07B337917EE904A03B16442002CDF
:104E9C0064DD307A002102F061FA2146307B02F0A9
:104EAC005DFAF0EE690A9DED070A494E494801F09A
:104EBC00F3FCFDEEC07B337917EE904A03B16442EC
:104ECC00002C40DD307A002102F048FA2146307B7C
:104EDC0002F044FAB0EE480A3248B0EE491AF0EE4D
:104EEC00680AF0EE691A01F00BFB3B4A2B68F0EEF6
:104EFC00411A1168B0EE601A1360F0EE400A5B1AAA
:104F0C008DED010A354807EE903A8DED021ACDED84
:104F1C00031AB8EE677B9FED1E5B87EE056BB7EE51
:104F2C00C60B08B0BDEC048BBDE8704001F010BCA2
:104F3C00307B00F0C180002102F010FA6142307A1F
:104F4C0002F00CFA7AE7307B00F0A680002102F028
:104F5C0005FA6142307A02F001FABBE7307B00F0CF
:104F6C00A380002102F0FAF96142307A02F0F6F9DE
:104F7C0097E7307B00F0A880002102F0EFF9614246
:104F8C00307A02F0EBF973E700000000389C8C419A
:104F9C000000000000408F40F0940020E8950020B5
:104FAC00588C0020A4930020E8930020209400202B
:104FBC005894002090940020F0850020D893002075
:104FCC001094002020860020489400205086002059
:104FDC008094002080860020F494002078890020A2
:104FEC0000220023AC4C01210D20C4E90023C4E9AC
:104FFC000223C4E90A2301F0D7FE52E672B62269F5
:10500C00E3681B68116862691A40A369194200F0D1
:10501C00E780237F03F003030AB143F0040343F05A
:10502C000803E3E072B62269E3681B6811686269E1
:10503C001A40A369194200F0A780237F03F00303F1
:10504C000AB143F0040343F00803A3E072B6E3682B
:10505C0062691B681A4023691968A369194267D0F1
:10506C00237F03F003030AB143F0040343F0080366
:10507C0064E072B6D4E9033162691B6809681A40AE
:10508C00A369194228D0237F03F003030AB143F02C
:10509C00040343F0080325E0214602F05FF92146A2
:1050AC00307A02F05BF915E7214602F057F92146F8
:1050BC00307A02F053F9F4E6214602F04FF921461A
:1050CC00307A02F04BF9B9E6214602F047F9214655
:1050DC00307A02F043F9CBE6237F03F003030AB1E5
:1050EC0043F004039A08013B266A22770D2B3FF606
:1050FC00F7AD01A252F823F0633000005D300000E0
:10510C007B3000005D300000E12A000075300000AB
:10511C00633000006330000075300000E12A0000AD
:10512C005D3000007B3000005D300000633000001B
:10513C00237F03F003030AB143F004039A08013BF5
:10514C00266A22770D2B3FF6F2AD01A252F823F01E
:10515C0057300000513000006F300000513000001B
:10516C002F2B000069300000573000005730000032
:10517C00693000002F2B0000513000006F30000010
:10518C005130000057300000237F03F003030AB1B5
:10519C0043F004039A08013B266A22770D2B3FF655
:1051AC00EDAD01A252F823F04B3000004530000069
:1051BC0093300000453000007D2B00008D30000046
:1051CC004B3000004B3000008D3000007D2B000078
:1051DC004530000093300000453000004B3000009B
:1051EC00237F03F003030AB143F004039A08013B45
:1051FC00266A22770D2B3FF6E8AD01A252F823F078
:10520C003F3000003930000087300000393000009A
:10521C00CB2B0000813000003F3000003F300000FD
:10522C0081300000CB2B00003930000087300000AB
:10523C00393000003F300000013E2662C5E50136E2
:10524C002662C2E5013E266298E50136266295E5A6
:10525C00013E26626BE50136266268E5013E266258
:10526C003EE5013626623BE5023E26625FE50236EC
:10527C0026625CE5023E266232E5023626622FE5A6
:10528C00023E2662A1E5023626629EE5023E2662B9
:10529C0074E50236266271E5588C0020000000008F
:1052AC002DE9F047ADF5856D994C9A49684601F0AA
:1052BC00DFF94FF432726946974801F075FEBAABCC
:1052CC00B4AA0DF2CE2104F28F1000F0B5FEBDF998
:1052DC00CE3294ED5F0A01EE103ABDF9D032B7EE42
:1052EC00C00AB8EEC11B03EE103ABDF9E832B8EEB5
:1052FC00C33B21EE001B07EE103AB8EEC77B23EE42
:10530C00003B27EE007B9FED7C2B94ED584B9FEDE3
:10531C007C0B21EE021B23EE023B27EE027B31EECF
:10532C00444B94ED5A5B94ED5C6BB4EEC04B33EE96
:10533C00455B37EE466BF1EE10FA84ED6E1B84ED97
:10534C00703B84ED224B84ED727B84ED245B84ED09
:10535C00266B07DD9FED6C7BB4EEC74BF1EE10FABC
:10536C0000F1C3809FED667BB4EEC75BF1EE10FAE3
:10537C0007DD9FED657BB4EEC75BF1EE10FA00F133
:10538C00AF809FED5F7BB4EEC76BF1EE10FA0ADDD8
:10539C009FED5D7BB4EEC76BF1EE10FA03D50022E6
:1053AC000023C4E9262394ED567ABAAB0DF2CE2233
:1053BC00B3A9B7EEC77A5948594DDFF87C81DFF8AD
:1053CC00589184ED287B84ED307B84ED387B00F0A4
:1053DC0013FEBDF9CC3294ED5E3A0DF5347C05EE3E
:1053EC00103ABDF9CE32B7EEC33A94ED524A06EEFE
:1053FC00103ABDF9E832B8EEC55BE24607EE103A5A
:10540C00B8EEC66BB7EEC44A0DF53A7EB8EEC77B64
:10541C0025EE035B774626EE036B27EE037B25EE2A
:10542C00045B26EE046B27EE047B84ED685B84ED55
:10543C006A6B0FCD84ED6C7BACE80F0095E8030034
:10544C00A5F1C8068CE80300BAE80F00AEE80F001F
:10545C009CE803008EE803000FCF94ED557A0FC63D
:10546C00B7EEC77A4FF4A0729EE8030084ED407B40
:10547C0086E80300A5F5D471BAA884ED487B84EDC9
:10548C00507B01F091FDBAA94FF4A072404601F097
:10549C008BFD244A2448D2E9003100684FF47A721B
:1054AC00C0184FF0000341F1000113F0BBFF1F4B7C
:1054BC004146C9F8000003FB02F2C8F80000C9F825
:1054CC000420C8F804200022194807F08FF80022A5
:1054DC00494618480DF5856DBDE8F04707F086B8CC
:1054EC0000220023C4E924234BE700220023C4E953
:1054FC00222337E7AFF30080399D52A246DF913F5C
:10550C007B14AE47E17A84BF7B14AE47E17A843FCB
:10551C00E082002078890020B08600206084002082
:10552C0080840020508C0020E895002040420F0021
:10553C008C930020EC940020B084002030B108B58E
:10554C00FFF7A2FBBDE80840FFF7AABE704700BFFB
:10555C0008B501210D2001F027FC962001F0A6FBD7
:10556C0000210D2001F020FC962001F09FFB012171
:10557C000D2001F019FC962001F098FB00210D2064
:10558C0001F012FC962001F091FB4FF47A7001F0BF
:10559C008DFBDEE70000000030B5ABB0404C24A81A
:1055AC0008F0CAFD0DF1900CBCE80F000FC40022EE
:1055BC00DCF8001023463B4843F81019114605F05F
:1055CC00ADFF002866D1374B374A3849384806F0CA
:1055DC00A9F800285ED105F003F8364B0246344991
:1055EC00354806F06BF9002854D10BF0B5FA334B63
:1055FC0002462F49324806F061F900284AD103F0DF
:10560C00C3FA304B02462A492F4806F091F900287C
:10561C0040D12E48234900902D481FA3D3E90023E5
:10562C0006F0C0F9002835D102A805F033FC882219
:10563C0002A9284801F0B8FCA4F110030222194970
:10564C00244805F031FC044620BB234B234A1E4959
:10565C002048009405F0D8FCE0B91D491D4805F020
:10566C0011FDB8B91E4B0A201D680AF0B9FC88B9A7
:10567C000AF09AFC451B0A461A4C4FF00D004FF0ED
:10568C00010162F10002C4E9005201F08DFB01201E
:10569C002BB030BDFFF75CFF002D31010000000086
:1056AC00208F0020B095002088160020CC0600200A
:1056BC00BC940020E0060020EC940020F0060020B2
:1056CC008C930020FC060020009600203D33000047
:1056DC00448F002048820020C9010000588C002013
:1056EC00E8950020508C002070B53B4D2C78032C95
:1056FC0007D8DFE804F02C260702FFF78FFA002307
:10570C002B7070BD354ED6E90023B3F1FF3F08BFB7
:10571C00B2F1FF3F55D004F031FFD6E90023801AD7
:10572C0061EB0301C92871F1000138DA2B78022BE7
:10573C00E7D12B4826A3D3E90023BDE8704005F040
:10574C00BBBEFFF729FF28B302232B7070BD254C7D
:10575C00D4E90023B3F1FF3F08BFB2F1FF3F2BD0D8
:10576C0004F00CFFD4E90023801A61EB030140F232
:10577C00F513984271F10001C3DB0121642009F09B
:10578C003DF9B0FA80F04009287004F0F7FEC4E946
:10579C00000170BD2870BDE87040FFF73FBA0121D1
:1057AC00642009F02BF9002818BF03242C7004F096
:1057BC00E5FEC6E90001B9E704F0E0FEC4E900012A
:1057CC00CEE704F0DBFEC6E90001A4E7AFF30080EE
:1057DC0000E1F50500000000DD9600207820002097
:1057EC00488200207020002070B500254FF47063B3
:1057FC000A2209216E486F4C2DED068B88B0DFED27
:10580C006E9A9FED6E9A009504AEFFF7AFF8009577
:10581C004FF470630F220E216948FFF7A7F800952B
:10582C004FF470630C220B216648FFF79FF800952C
:10583C004FF47063102211216348FFF797F804228C
:10584C0003219FED620A01924FF0FF332A4600912B
:10585C005F480A218DED030AFEF798FD25222421CD
:10586C009DED030A4FF0FF3301922A4600910A2165
:10587C005848FEF78BFD062205219DED030A019287
:10588C004FF0FF332A46009153480A21FEF77EFD64
:10589C0017211622DFED518A9FED518A4FF0FF330D
:1058AC009DED030A4F489FED50AACDE900212A46F1
:1058BC000A21FEF76BFDF0EE691AB0EE491A4B485F
:1058CC00F0EE680AB0EE480AB6EE002A00F0D6FFF9
:1058DC00F0EE691AB0EE491A4548F0EE680AB0EEDF
:1058EC00480AB6EE002A00F0C9FFF0EE691AB0EED5
:1058FC00491A4048F0EE680AB0EE480AB6EE002AA3
:10590C0000F0BCFFF0EE691AB0EE491A3A48F0EE1E
:10591C00680AB0EE480AB6EE002A00F0AFFFF3EECC
:10592C00080AB0EE4A2A9FED351AF0EE4A1A9FED9E
:10593C00340A294640F22622324804F1100500F0C0
:10594C00B7FC314800F068FE304A314B30460092CB
:10595C00304AC4F8543122602822C4F858312E49F8
:10596C002E4BC4F84811C4F85C21C4F8503184EDB6
:10597C0053AA95E80E0004F0D7FD294B96E80700D2
:10598C0085E8070027494FF0625204F5C070C4F84F
:10599C007C312160C4F8782100F0ECFA04F28F100D
:1059AC0008B0BDEC068BBDE8704000F0E3BA00BF58
:1059BC00E8930020E0820020CDCC4C3F9A99193F0F
:1059CC0020940020589400209094002000409C4685
:1059DC00D8930020109400204894002000004843E5
:1059EC00000048C380940020CDCCCC3DF085002035
:1059FC002086002050860020808600200000BC41BC
:105A0C009A99593FA493002078890020C006002061
:105A1C00ACC52737A4070020C3F51C41BD3786351C
:105A2C002D23FA3B9007002001207047012070477E
:105A3C00D0F88C0203685B68184700BFD0F88C0262
:105A4C00836000F081BF00BF0020704790F8A32056
:105A5C0090F8A200101A704790F8A23090F8A3208A
:105A6C009A4205D95A1C034480F8A220987E7047AC
:105A7C004FF0FF30704700BF90F8A23090F8A32091
:105A8C009A4202D91844807E70474FF0FF3070471D
:105A9C00704700BF0346B0F8300178B193F82F215E
:105AAC00882A03D9012200205A60704702F1010CA8
:105ABC0001201A4483F82FC182F8A510704700BF4B
:105ACC0038B5B0F830410CB9204638BD90F82F31BC
:105ADC000546C3F18904A2420DD8144605F1A50070
:105AEC002246184401F060FA95F82F3120462344E1
:105AFC0085F82F3138BD01224260EFE72DE9F04FD8
:105B0C00D0F814A01524017E8146437E83B00AEBA5
:105B1C000111384A0AEB0313374F097A93F82830EE
:105B2C0002EB01150901E86852F8018002EB031140
:105B3C00D5F804B01B01CE68D558CBF80040C8F896
:105B4C008400D8F804304A6803432C490192C8F801
:105B5C0004301460C5F884606B6833436B60284B69
:105B6C004C683A68A3FB0232920C02EB82025200A0
:105B7C004B681B1B9A42FBD84FF0090C1F4ADFF8ED
:105B8C0080E0D8F80830034202D0AB6833422FD102
:105B9C00C5F8886054683968AEFB0131890C01EB9B
:105BAC00810153681B1B9942FBD8C5F8846054686B
:105BBC003968AEFB0131890C01EB810153681B1B69
:105BCC009942FBD8BCF1010CDBD1604699F8183036
:105BDC00019A0AEB0313DB68CBF8003099F8193003
:105BEC000AEB031ADAF82C30136003B0BDE8F08F1F
:105BFC000120EBE7A40D0020A4210020001000E000
:105C0C0083DE1B430E4A10B51168046905E0DB0105
:105C1C0007D413685B1A102B08D8636913F0007F44
:105C2C00F5D14FF4FE430120636110BDFFF766FF11
:105C3C000028FAD04FF4FE4301206361F5E700BF62
:105C4C00E89500202DE9F04790F82FA10569BAF1ED
:105C5C00000F4FD081468846FFF7D4FF002849D06B
:105C6C00374E0024376818E06B69190551D4DA04F3
:105C7C0055D4580559D4990441D43268D21B322AD0
:105C8C003DD8544507D9EA6D520704D19B0555D42C
:105C9C00B8F1000F52D002F04FFE5445E4D8EA6D33
:105CAC00500702F00703DFD413E099F8A520013365
:105CBC00022442F48062042B2A661ED08A4503F12A
:105CCC00010309EB01020ED992F8A520042B2A66D8
:105CDC00CAD00121002CE8D02146013301348A4579
:105CEC0009EB0102F0D8B8F1000FBDD04FF40073EE
:105CFC002B66B9E70420BDE8F0870124B4E72B69D3
:105D0C004FF40072042043F440732B612A66BDE803
:105D1C00F0872B69042043F440732B61EBE72B696C
:105D2C00052043F440732B61E5E72B694FF40072B7
:105D3C00022043F440732B612A66DCE70020DAE78B
:105D4C00E89500202DE9F84F83460C4615461F4672
:105D5C00D0F810A0FFF756FF002800F09E806100DD
:105D6C00012DDFF83C8140F20146CBB24FF000012F
:105D7C0038BF0125D8F800900C461E43ABF8A21092
:105D8C0020E09BF8A330872B3FD9DAF814201005BC
:105D9C005AD412F4105F70D1D8F80030A3EB090379
:105DAC00322B6AD89BF8A330AB4209D3022C07D90B
:105DBC00DAF85C30590703D193054BD4002F49D046
:105DCC0002F0BAFD022CDCD8DAF85C3003F00702E2
:105DDC005B07D6D4681E224440F480704CB9CAF8D4
:105DEC0060600134131B032BCBD8022CC9D8002CB8
:105DFC00F5D0012C37D01FB14FF40073CAF86030C6
:105E0C009BF8A3300324872BBFD8DAF85C2012F45C
:105E1C00E02FC2F3024CB8D0591C9C441933C9B2C0
:105E2C005FFA8CFC5BFA83F3DAF870004A1C61456C
:105E3C008BF8A310D1B203F8010FA6D08929F3D1A6
:105E4C00DAF814201005A4D5DAF8103043F44073B6
:105E5C00CAF81030DAF85C3013F4E02F06D19BF856
:105E6C00A300BDE8F88FCAF86000BAE7DAF8103082
:105E7C0043F40073CAF81030F1E7DAF810304FF43D
:105E8C00007243F44073CAF81030CAF86020DAF894
:105E9C005C3013F4E02FE2D0E8E70420BDE8F88F83
:105EAC00E8950020F8B506690446D6F8145115F4A7
:105EBC00706301D0C6F81431A8070BD5D6F8702141
:105ECC0011043DD50023012184F8A230234484F829
:105EDC00A3109A76EA0710D594F83071F7B194F8BC
:105EEC002E7194F82F31BB4226D97B1C274484F8A1
:105EFC002E3197F8A530C6F86031AB050DD594F866
:105F0C00A30018B1D4F83C3103B198470023A4F88E
:105F1C00A230A4F82E3184F83031F8BDD4F83831E1
:105F2C0003B19847002384F82E31012384F83031D3
:105F3C0094F82F31BB42D8D80023C6F86031DCE787
:105F4C0094F8A330872BC5D8591CC9B2BEE700BF43
:105F5C000148FFF7A7BF00BFB82100200148FFF799
:105F6C00A1BF00BFF82200200148FFF79BBF00BF74
:105F7C003824002068230370704700BF30B501251A
:105F8C0083B0044603230095002502226B21007880
:105F9C0000F04EF90095022304221B21207800F01A
:105FAC0047F9009504221C210223207800F040F9C7
:105FBC002B4606226B21207803B0BDE8304000F060
:105FCC00FBB800BF30B50B4A044683B006231088DB
:105FDC00254675211A46019015F8010B009500F025
:105FEC00CFF86078A0F13400B0FA80F0400903B02B
:105FFC0030BD00BFC6370020F0B516460D4A83B041
:10600C001D461288034604460F4600923B2113F8A6
:10601C00010B062200F030F8B4F801305BBA3B807B
:10602C00B4F803305BBA3380B4F805305BBA2B801C
:10603C0003B0F0BDC6370020F0B516460D4A83B04C
:10604C001D461288034604460F460092432113F85E
:10605C00010B062200F010F8B4F801305BBA3B805B
:10606C00B4F803305BBA3380B4F805305BBA2B80DC
:10607C0003B0F0BDC63700202DE9F04FDFF8FC90DF
:10608C002DED028B85B0D9F800A0BDF840600192CF
:10609C00002A6FD01F464FF000084300882A08EEF4
:1060AC00100A08EE901ADBB2A8BF8822324C454683
:1060BC004FF0010B02930392029B18EE901A2046AC
:1060CC0084F830B184F8A53084F82FB1FFF7E2FCE6
:1060DC0001212046FFF7B6FD029B18EE101A204650
:1060EC0084F8A530019B84F830B1A3EB080201239E
:1060FC0084F82FB1872AD4BFD2B28822FFF722FEB0
:10610C0094F8A32094F8A2309A4218D0581C04EBAF
:10611C00030C2EB1D9F80010A1EB0A01B1420ED23A
:10612C009A4225D99CF81A3084F8A2007B55691C38
:10613C0094F8A32094F8A2304DB29A42E6D1039B76
:10614C009844019B5FFA88F89845B5D356B1D9F8B5
:10615C000030A3EB0A03B34204D3019B9D42B8BFAA
:10616C004FF0FF35284605B0BDEC028BBDE8F08F33
:10617C00FF23DBE7019DE9E7B8210020E89500202B
:10618C0030B585B01D46BDF824400DF10F030094C9
:10619C0014460122FFF770FF60B10121621B9DF8CC
:1061AC000F4001FA05F30A44013B9340234013418D
:1061BC00089A137005B030BD2DE9F0411E461A4BFC
:1061CC0084B014461B8801220546884600930DF1C5
:1061DC000F03FFF751FF012306B39DF80F60A34097
:1061EC0046EA0302D6B20127104C4146BD40204678
:1061FC0084F8307184F8A55084F82F71FFF74AFCAD
:10620C0031462046FFF746FC39462046FFF71AFD7B
:10621C00B0FA80F0400904B0BDE8F0819DF80F6041
:10622C00A34026EA0306DEE7C6370020B82100208B
:10623C002DE9F0411C461C4B84B015461B880122ED
:10624C000646884600930DF10F039DF82870FFF762
:10625C0013FF30B32D1B76004146013507FA05F3C9
:10626C00012707FA04F4DBB2013CAC409DF80F5057
:10627C00234025EA04050D4C1D43204684F8A560F7
:10628C0084F8307184F82F71FFF704FC29462046FE
:10629C00FFF700FC39462046FFF7D4FCB0FA80F03B
:1062AC00400904B0BDE8F081C6370020B8210020B9
:1062BC009FED196BB7EEE17A01700139B5EEC01A9A
:1062CC004FF07A5380ED022A27EE067B012906EE69
:1062DC00902A836194BF04220222F1EE10FA4261EB
:1062EC00B7EEC77B80ED047A10D4B4EE601AF1EEF1
:1062FC0010FA30FE811AC1EE207AF8EEE66A67EEEB
:10630C00A67A27EE800A80ED010A70479FED041AE9
:10631C00F1E700BFAFF30080182D4454FB21094076
:10632C00000000000000000090ED027AB6EE005B69
:10633C00B7EEC12ADFED6A6AB7EEC77A90ED046A50
:10634C0020EE260AD0ED013A60EEA64A88B027EE80
:10635C00057B80EE064A27EE027B84EE865AB7EE6A
:10636C00C77B67EE267AF0EEC45A87EE867AF0EE9B
:10637C00C56A76EEA57AF4EE673AF1EE10FAF0EE15
:10638C00C76A76EEA56A05D8B5EE401AF1EE10FA9A
:10639C0000F08380F5EE400AF1EE10FA04D1F4EE31
:1063AC00663AF1EE10FA7FD9B7EEC44AD0ED067A10
:1063BC00B7EEC55A27EE277AB1EE633A9FED3E1B36
:1063CC009FED3F6BB7EEC77A24EE011BB0EE410B8D
:1063DC00A5EE060B30EE070BB7EEC00BB4EEC30AFE
:1063EC00F1EE10FA56D4F4EE403AF1EE10FA48BF42
:1063FC00B0EE630A9FED346B9FED312B25EE066BEF
:10640C00A4EE026B37EE066BF7EEC60BF4EEC30A86
:10641C00F1EE10FA3BD4F4EE603AF1EE10FA48BF0C
:10642C00F0EE630A9FED2A6B95EE061B37EE011B0F
:10643C00B7EEC11BB4EEC31AF1EE10FA24D4F4EE8D
:10644C00413AF1EE10FA48BFB0EE631A9FED222BE1
:10645C009FED1F6B25EE025BA4EE065B37EE057B12
:10646C00B7EEC77BB4EEC37AF1EE10FA08D4F4EEB3
:10647C00C73AF1EE10FA54BFB0EE473AB0EE633AB9
:10648C00F0EE431A08B07047B0EE431ADEE7F0EEB8
:10649C00430AC7E7B0EE430AACE7C3EEA76A24EEA3
:1064AC00264A25EE265A7FE7C3EEA67A24EE274A23
:1064BC0027EE277A78E700BFCC3B7F669EA0E63FAD
:1064CC00CD3B7F669EA0E63FCC3B7F669EA0E6BFA1
:1064DC00CE3B7F669EA0E6BFCB3B7F669EA0E63F91
:1064EC0000007042037884B0DFED047A012B98BF72
:1064FC00F0EE670A04B0FFF717BF00BF0000000002
:10650C0003782DED068B88B0002B57D0B7EEC12A3F
:10651C00B7EEE18A9FED307B9FED315B28EE074BA8
:10652C0022EE055B22EE072B9FED2F7B28EE078BCF
:10653C00D0ED056ADFED36AAB7EEC03A30EEC00AF0
:10654C00B8EEE6AAB7EEE07A30EE411A9FED289B42
:10655C0071EE211A90ED061A81EE8A6AD0ED041ABA
:10656C00C6EE2A6A66EEA16A86EE811A9FED1C6B56
:10657C0027EE066B27EE097BA3EE096B36EE026B5A
:10658C0036EE086BB7EEC66BC6EE0A6AC6EEAA0A02
:10659C009FED196BA3EE067B60EEA10A37EE057B2F
:1065AC0037EE047BB7EEC77BC7EE0A7A87EEAA0AF2
:1065BC0020EE210A08B0BDEC068B70479FED102B26
:1065CC00DFED141A9FED108BB0EE611AB0EE424B5A
:1065DC00B0EE425BACE700BFCE3B7F669EA0E6BF51
:1065EC00CC3B7F669EA0E6BFCB3B7F669EA0E63F82
:1065FC00CD3B7F669EA0E63FCC3B7F669EA0E63FF0
:10660C0000000000000000800000000000000000FE
:10661C000000704200000000F0B587B0002300F1CC
:10662C000807114A02AD04460092C0F8C83204F1C2
:10663C001406C0F8CC32C0F8D032284697E80E00C9
:10664C0003F072FF094B009395E8070087E80700F9
:10665C00284696E80E0003F067FF95E8070086E8E9
:10666C000700204607B0F0BD4C070020540700205F
:10667C0010B504464FF4327200F096FC204610BD63
:10668C0010B5B7EEC11A0C462DED0A8BB6EE00AB69
:10669C00B0EE608AB0EE409A21EE0ABBB7EEC88A23
:1066AC00B7EEC99A28EE0A8B29EE0A9BB0EE4B0B7B
:1066BC0011F08EFBB0EE407BB0EE4B0BF7EEC7BB90
:1066CC0012F002F8B7EEC0BBB0EE480B11F080FB35
:1066DC00B0EE40CBB0EE480B11F0F6FFB7EEC08B2E
:1066EC00B0EE490B11F074FBB0EE407BB0EE490BF1
:1066FC00B7EECCCBF7EEC78B11F0E6FF6BEE087A5A
:10670C00F7EEC06B2BEE888A2BEE8C7A67EEA65ACE
:10671C0028EE286A68EEE77A2BEE0CBA26EEC88AC9
:10672C00E7EE285AE7EE267AB0EE467AABEE288AE8
:10673C00ABEE267AC4ED005AC4ED017A84ED038ADF
:10674C00BDEC0A8B84ED027A10BD00BF0000000086
:10675C0010B52DED088B90EDB48A84B0B0EE409A54
:10676C000446B0EE480AF0EE60AAF0EE418AF0EE74
:10677C00619A11F0ADFEB0EE40BAB0EE480A11F0DD
:10678C00A3FD68EEC07A6BEE286A94EDB37AA9EE9D
:10679C00898A94EDB2AAEBEE2A7ADFED370AE0EEA5
:1067AC002A6A69462046B0EE600AB0EE481A84EDBB
:1067BC00B48AA7EE89AAA6EE897A84EDB2AAB0EEC5
:1067CC00478A84EDB37AFFF75BFFB7EECA1A9DEDEB
:1067DC00012AB7EEEA6AB7EEC87A9DED023A9DED52
:1067EC00034AB7EEC22A9DED005AB7EEC33AB7EE94
:1067FC00C44A0022B7EEC55A00231BA1D1E90001FF
:10680C0084ED081B84ED0A7BB7EEE81AB7EEE97A43
:10681C00C4E91601C4E92401C4E95C0114A1D1E95D
:10682C000001C4E90C2384ED0E2B84ED103B84EDA8
:10683C00124B84ED145B84ED5E6B84ED601BC4E93C
:10684C006223C4E96423C4E9662384ED687BC4E94C
:10685C006A01C4E97801C4E9B00104B0BDEC088B4D
:10686C0010BD00BFAFF30080FCA9F1D24D62503FC8
:10687C002D431CEBE2361A3F0000000080ED000AAD
:10688C00C0ED010A80ED021AC0ED031A80ED042A56
:10689C00704700BF0000000070EE600AB5EE400AC1
:1068AC0090ED065BB7EEE04AF1EE10FA90ED0A6B54
:1068BC0034EE055B34EE466B80ED065B80ED086BC9
:1068CC000ED1F5EE400AF1EE10FA09D19FED1A7BCC
:1068DC00B0EE476BB0EE475B80ED067B80ED087B3E
:1068EC0090ED037A90ED022AB7EEC77A90ED043A58
:1068FC00B7EEC22A90ED000AB7EEC33A27EE057B3D
:10690C00B7EEC00A80ED0A4BA2EE047BA3EE067B29
:10691C00B4EEC70BF1EE10FA0ADC90ED010AB7EEFB
:10692C00C00AB4EEC70BF1EE10FA58BFB0EE470B2D
:10693C00704700BFAFF300800000000000000000B3
:10694C0001F056BF01F0EEBE2DE9F047884651B379
:10695C00914662B382460027164C174E25680BE011
:10696C0001F046FF002810DA01F0E6FF2368DAF8A0
:10697C0008205B1B934210D2DAF800305B69B342FB
:10698C00EED0504698470028EEDB013708F8010B93
:10699C00B945E3D13846BDE8F087012338468AF87B
:1069AC000C30BDE8F0870F463846BDE8F087174637
:1069BC00F0E700BFE895002041470000A249A34B37
:1069CC0088422DE9F047A24C5E699A69D4F80C8094
:1069DC001BD9A04B984240F20281C31A9E491B0A54
:1069EC00A1FB031340F22761DB0903EB830303EBE9
:1069FC00830303F2E2438B4228BF0B46A3F548778F
:106A0C00964BA3FB0737FF0804E0954FB8428CBFA9
:106A1C000E2706278D4908F01F09D1F88030B9459B
:106A2C0043F0C003C1F880300CD228F01F08A1F548
:106A3C00F82148EA0708C1F80C800B68002BFCDA37
:106A4C0008F01F0916F0007324D186490C69864999
:106A5C00A14300F0EA8082F4805134464FF4805513
:106A6C0014F0605F04D026F060561E43774B5E61D5
:106A7C0011F4405F07D022F4405274492A438A61D2
:106A8C008B6C1A07FCD446F00076704A5661936CF6
:106A9C009B06FCD4754CA04200F2CE804FF0010C4A
:106AAC000146634603FB011203F1010E0CF10105D3
:106ABC00A24218D8BEF1080F4FF0010340F08D80B0
:106ACC00BCF1040F00F291800A18A24200F2A480DB
:106ADC0005FB00F1AC4603F1010E03FB01120CF1B6
:106AEC000105A242E6D90CF1FF318C0286EA812124
:106AFC005F4810445F4A90427FD9DFF8A4A16C2212
:106B0C005D48584DB0FBFEF0D5F800E0B0FBFCF052
:106B1C00DFF890C10EEA0C0CD44509D042F40052B7
:106B2C004FF4805CC5F800C02A602A68002AFCDAA1
:106B3C00464A156905F007059D4203D01361936C15
:106B4C00DD03FCD411F4E05F09D026F4E05604F424
:106B5C00E0543E4A26435661936C9907FCD447494E
:106B6C00474A014491423CD8464BC909A3FB013129
:106B7C00090B4B1E1B0286EA030212F4407F06D05F
:106B8C0026F4407603F44073304A334353612F4A62
:106B9C00536923F000735361936C9B06FCD43A4BFE
:106BAC004F45A3FB00234FF0FF324FEA9343B0FB5A
:106BBC00F1F1B2FBF3F3354A1060354A1160354AF6
:106BCC00136008D228F01F08214A48EA0707D7604B
:106BDC001368002BFCDABDE8F087734662E71227D6
:106BEC0018E74FF440730421C5E70CF1FF3120483E
:106BFC0007238C02104486EA8121274ADFF8A8A0DB
:106C0C00A2FB0020020D2548362A38BF362202FB93
:106C1C0000F042EA0A0A74E74FEA8C24002386EA61
:106C2C008C214FF0010EAC4662E71D4686F0C05435
:106C3C0011464FF0C05313E700244FF0010C0246ED
