:0200000460009A
:100000004643464200000156000000000103030081
:1000100000000000000000000000000000000000E0
:1000200000000000000000000000000000000000D0
:1000300000000000000000000000000000000000C0
:1000400000000000010408000000000000000000A3
:100050000000800000000000000000000000000020
:100060000000000000000000000000000000000090
:100070000000000000000000000000000000000080
:10008000EB04180A063204260000000000000000FD
:10009000050404240000000000000000000000002F
:1000A0000000000000000000000000000000000050
:1000B0000604000000000000000000000000000036
:1000C0000000000000000000000000000000000030
:1000D00020041808000000000000000000000000DC
:1000E0000000000000000000000000000000000010
:1000F0000000000000000000000000000000000000
:10010000D8041808000000000000000000000000F3
:100110000204180804200000000000000000000095
:1001200000000000000000000000000000000000CF
:10013000600400000000000000000000000000005B
:1001400000000000000000000000000000000000AF
:10015000000000000000000000000000000000009F
:10016000000000000000000000000000000000008F
:10017000000000000000000000000000000000007F
:10018000000000000000000000000000000000006F
:10019000000000000000000000000000000000005F
:1001A000000000000000000000000000000000004F
:1001B000000000000000000000000000000000003F
:1001C000000100000010000001000000000000001D
:1001D000000001000000000000000000000000001E
:1001E000000000000000000000000000000000000F
:1001F00000000000000000000000000000000000FF
:10020000FFFFFFFFFFFFFFFFFFFFFFFFFFFFFFFFFE
:10021000FFFFFFFFFFFFFFFFFFFFFFFFFFFFFFFFEE
:10100000D10020434D1600600000000000000000E9
:1010100020100060001000600074026000000000FA
:10102000000000600080020000000000FFFFFFFFE2
:10103000FFFFFFFFFFFFFFFFFFFFFFFFFFFFFFFFC0
:10104000FFFFFFFFFFFFFFFFFFFFFFFFFFFFFFFFB0
:10105000FFFFFFFFFFFFFFFFFFFFFFFFFFFFFFFFA0
:10106000FFFFFFFFFFFFFFFFFFFFFFFFFFFFFFFF90
:10140000814205D051F8043B40F8043B8242F9D8B0
:10141000704700BF044A05494FF0000342F8043BFF
:101420009142FBD8704700BFC042002040A100207D
:101430002DE98848BFF34F8F00BF00BF00BF00BF3A
:1014400000F0D6F9684B0822C3F8542100BF00BF52
:1014500000BF00BF00BF00BF00BF00BF00BF00BF94
:1014600000BF00BF00BF00BF00BF00BF5F4A6049B0
:101470006048FFF7C5FF604A60496148FFF7C0FF59
:10148000604CFFF7C7FF4FF470004FF0E0210023DE
:101490005D4AC1F8880D44F823200133B02BFAD1FE
:1014A0005A4B80215A4A03F8011B9342FBD14FF05B
:1014B000E0254D4E4FF08039DFF884B1DFF884A18C
:1014C0004FF0FF31C5F8084D0027C6F80491C6F863
:1014D00000B1C6F8F490C6F8F0A0D5F8243DDFF8C6
:1014E000688143F4E0234B4AC5F8243DD8F81C300A
:1014F00023F07F0343F04003C8F81C30D8F82430B1
:1015000023F07F0343F04003C8F824309166D1668E
:101510001167516700F074F93F4B4049A363404B9A
:10152000E36363236B610323AF612B613D4BC5F81C
:10153000203DD5F8FC3D43F08073C5F8FC3D3A4BA7
:101540001A6842F001021A605B680B6000F0A2FBAF
:10155000C6F804913548C6F800B1C6F8F490C6F84C
:10156000F0A000F039FDD8F86C10314B314A41F44D
:101570004051C8F86C101F60C3F80871C3F81871A7
:10158000C3F82871C3F83871936BDB0708D442F6AF
:101590001563294951651365936B43F00103936308
:1015A000244A264C936843F00113936000F0B0F98D
:1015B00000F0D4FC00F020FD00F09AFB00F01AF9D6
:1015C0002368132BFCD900F02BFC2368B3F5967F1E
:1015D000FBD300F013F900F00FF900F0F1FC00F07C
:1015E000F7FC30BFFDE700BF00800D400806020099
:1015F0008829006000000000C0420020942F026093
:101600000000002000400020AD66000000E400E083
:10161000A0E400E000C00A40717B000004A00020AC
:10162000757B000000002020001000E00046C3236E
:101630000040084000400D400000C05608A00020B7
:101640001B1018200C0D111300C00F40054B4FF458
:101650002A01054A05485A641864054A9963954663
:10166000FFF7E6FE00C00A40FFABAAAA0700200071
:101670000080052043690A4A03EB011010B4037A85
:10168000084C02EB0313D3E901321460C2681A60FC
:1016900003690BB142691A605DF8044B704700BFE3
:1016A0007C0E002061F801004369027E03EB021208
:1016B00092F808C08C451CD01A7AFF2A19D09142A2
:1016C00010B5044616D01A7EFF2A06D00121D3E9B0
:1016D000002312681A4201D1217610BD064B052263
:1016E000204603EB0C135B681A60FFF7C3FF2176FB
:1016F000F3E770470021EAE77C0E002043690A4ABD
:1017000003EB011010B490F82830084C02EB0313DF
:10171000D3E901321460C26A1A60036B0BB1426BE9
:101720001A605DF8044B70477C0E002061F80100E0
:101730004369427E03EB021292F828C08C451ED00A
:1017400093F82820FF2A1AD0914210B5044617D0EA
:1017500093F83820FF2A06D00121D3E9002312682C
:101760001A4201D1617610BD064B0522204603EBDB
:101770000C135B681A60FFF7C1FF6176F3E77047EF
:101780000021EAE77C0E0020164942698B6B23F4A6
:101790007C0343F4802370B58B630446124DD2E979
:1017A00000130A681A4303690A60022200211A61C1
:1017B0000E4A19619A6401225A629D624FF43035D3
:1017C000DD624FF001159E6C1E6519629D651A6100
:1017D000017EFFF74FFF617E2046BDE87040FFF7B6
:1017E0008DBF00BF00C00F40B80B05053B3728195F
:1017F000704700BF704700BF704700BF00BF704711
:1018000010B44FF0E023002110243148C3F8941D98
:10181000C3F89C4D1124C3F8A00D2E48C3F89C4D6D
:101820001224C3F8A00D2C48C3F89C4D2B4AC3F8D2
:10183000A00D2B4C42F015022A48C3F89C4DC3F86A
:10184000A00D294C2948C3F89C4DC3F8A00D284C85
:10185000C3F89C2D2748284AC3F8A04DC3F89C0D17
:10186000C3F8A02D02F5A022244C0C322448C3F862
:101870009C4DC3F8A02D234AC3F89C0D224CC3F8FD
:10188000A02D02F14062C3F89C4D2048C3F8A02D62
:101890000C32C3F89C0DC3F8A02D00BF00BF00BFE1
:1018A00000BF00BF0122C3F8942DBFF34F8FBFF3D9
:1018B0006F8FC3F8501FBFF34F8FBFF36F8FD3F8F5
:1018C000142D5DF8044B42F44032C3F8142D7047D8
:1018D0003F000010250008070900100040A100206B
:1018E0001300200021000207140000202500081327
:1018F000090000101600202027000B1317000040DD
:10190000180000602F000B07190000701A000080FB
:10191000F0B5B84B1822B84E0120B84F83B0C3F8C9
:101920005C62B749C3F86072B64DC3F86462A6F54D
:101930003046B54CC3F86862C3F86C52C3F87052B5
:10194000C3F87452C3F8785248F20C75DA661A6715
:101950005A679A67DA67C3F88020C3F88420C3F80F
:101960008820C1F82C03A94AC1F83003C1F8340318
:10197000C1F83803C1F83C03C1F85003A169A44B76
:101980000A40A448A4491343A44AA361D4F884306C
:1019900043F00C03C4F884304FF0FF34036843F085
:1019A0000203036003682B404FF400551A439C4B1D
:1019B000026044608A689B4C13409B4A43F000538A
:1019C0008360C36823F07803C360036A1340234332
:1019D0000362036A1340954A2343954C4362826233
:1019E000C2620022D1F8B83023F03F0343F0010374
:1019F000C0F8B830D1F8BC308E4923F03F0343F033
:101A00000103C0F8BC3040F205630261056604675B
:101A1000C0F88030456644670224C0F8843003680B
:101A200023F0020303608161834B8449C46143F85E
:101A3000042B8B42FBD1774A136843F001031360F8
:101A4000136813F00103FBD17A48022140F2F564D8
:101A5000906140F29940D16140F26641C2F8004283
:101A600042F20144C2F810127549C2F82002C2F8CD
:101A7000301240F235417348C2F83442C2F8401285
:101A8000714CC2F8500242F201207049C2F854125F
:101A90000121C2F86042C2F864025E48C2F8A03078
:101AA000C2F8A430C2F8B0104369DA07FCD50123AC
:101AB00000244FF4803257494361C0F8A040C0F879
:101AC000A420C0F8B0304B69DB07FCD5012300240B
:101AD0004FF400304F4A4B61C1F8A040C1F8A40058
:101AE000C1F8B0305369DF07FCD501230024584802
:101AF00048495361C2F8A040C2F8A400C2F8B0300F
:101B00004B69DE07FCD5D1F8003145F60D52212096
:101B10009BB24861934265D100244FF48022012397
:101B20003C48C1F8A040C1F8A420C1F8B0304369D6
:101B3000DD07FCD501234FF400040021354A436141
:101B4000C0F8A040C0F8A410C0F8B0305369DC075A
:101B5000FCD501234FF400044FF480302D4953612C
:101B6000C2F8A040C2F8A400C2F8B0304B69D80750
:101B7000FCD501234FF400044FF40030254A4B619B
:101B8000C1F8A040C1F8A400C1F8B0305369D9072A
:101B9000FCD501234FF400042D481E495361C2F8BF
:101BA000A040C2F8A400C2F8B0304B69DA07FCD5F7
:101BB000D1F8003145F60D5221209BB24861934285
:101BC00050D008254FF4000422490020224B234A1C
:101BD000009015705A1A01232148224400F000FA9F
:101BE00003B0F0BD1E4B0022C3E90022C3E902226C
:101BF00003B0F0BD00801F40F9B00100F9100100F2
:101C000000841F40F970010000C00F40FFFCFF1F5F
:101C1000000300A000402A4000802A401200FFFF7D
:101C2000FF37F7004000008000FFF07CFF000F83CB
:101C300063000200F05AF05A00422A4000432A4052
:101C40009F041830EB06180A3806180A06320126D7
:101C5000040003000000007000000070F7A00020E6
:101C6000E89B00204FF400044FF480220123084831
:101C7000C1F8A040C1F8A420C1F8B0304369DB0727
:101C8000FCD5012310254FF0807443619CE700BF11
:101C900000402A40F0B4154A40274FF480314FF4F9
:101CA00080564FF400554FF4404443F2420013690C
:101CB00013F0020F0ED113F4005F0FD013F4805F06
:101CC0000ED0002BF3DA13F4803F0BD15B060BD55B
:101CD000F0BC7047946151619061E8E75561E6E7B7
:101CE0005661E4E79161E2E75761E0E700800D406B
:101CF0003F4A03203F49F3EE095AD2F880304FF0B3
:101D0000000C9FED3D6A23F001039FED3C5A30B477
:101D1000C2F88030C2F89000D1F8E010384DCBB254
:101D2000384C39482B6007EE903A0B0DC1F30B216C
:101D3000F8EEE77A06EE903A07EE101A334BB8EE5B
:101D4000C77A2160F8EEE66A314937EEC66A37EEA7
:101D5000C55A76EEC76A77EEE57A26EE266AC3EDB7
:101D6000006A25EE265AD2F8803067EEA64AC0ED0A
:101D7000007AC6EE275A274885EE276AC4EEA76A7E
:101D800075EE875AFCEEE55A36EE076A15EE904A74
:101D9000BCEEC66A43EA045376EE877AC2F8803016
:101DA00016EE103AD2F89041FCEEE77A01EA0341D0
:101DB000214317EE903AC2F89011C3F30B03D2F807
:101DC00090110B431449C2F89031D2F8803043F09F
:101DD0000203C2F88030114B80F840C0C1F8403196
:101DE0004FF0E023012230BCC3F80821704700BF48
:101DF00000810D4000441F400000AA420000B44290
:101E0000809F00207C9F0020849F0020889F0020CE
:101E10000000FF0F00E400E0004000209D6800008B
:101E2000314B40F6617210B5C3F8202140F20444F2
:101E300000F0DEF82D4A2E49D2F880302D4843F0CC
:101E40000303C2F880302C4BC1F8604102681A428B
:101E500003D1D1F8A8319A071BD0254A4FF0004191
:101E6000244B5963D2F8403143F00203C2F84031A9
:101E7000D2F840319B07FBD44FF400304FF0E02103
:101E80001C4B4FF00042C1F88C0219209A6300F0FD
:101E90009BF8184A4FF08040154C002190630A20AF
:101EA000164B11604FF42072C4F8A801184600F0D8
:101EB0009BF84FF4800203464FF4810040F2431137
:101EC0001860C4F858311A640D4B0E4AC4F8481112
:101ED000C3F804224FF0E0224FF400310123C2F88E
:101EE0000C11C4F8403110BD00800D4000C00F40FF
:101EF00000002E4000900D40001C1E00000000203D
:101F000000400020856A000008B50E4B1B6E9B0741
:101F100000D4FBBE72B60C4B00200C4AC3F8400143
:101F200003F160430A49A3F55F2311649D46BFF3A3
:101F30004F8F4FF400130748074ADB6902609B6824
:101F4000984700BF00441F4000002E4000C00A40D8
:101F50000300200000802020000012EB104BA02086
:101F6000104AD96E41F4403110B4D96640F237645A
:101F7000D96E41F44071D96654649064936C1B0629
:101F8000FCD4094A40F23761A02351649364936CF6
:101F900013F08003FBD1054A13705DF8044B7047C2
:101FA00000C00F4000400C4000800C40F5A0002015
:101FB000F8B500BFF8BC08BC9E46704700000000A2
:101FC0005FF800F031C101005FF800F02D5D000006
:101FD0005FF800F0196000005FF800F03D5A000063
:101FE0005FF800F0057C00005FF800F035C00100EC
:101FF0005FF800F0F57100005FF800F09D650000EB
:1020000005010000CD3D0000B17C00006999000091
:082010003DFC000039FF000057
:1020180080C00F40000000031900000010000000FD
:10202800E8841F4001000000FF000000FF000000DE
:102038000000000000000000180000001000000070
:10204800E4841F4001000000FF000000FF000000C2
:1020580000000000000000001F000000E94500002B
:1020680070C00F40000C00001100000011000000BB
:10207800E0841F40020000002C0000001200000055
:10208800E0841F4001000000100000001100000063
:10209800DC841F40020000002D0000001200000038
:1020A800DC841F40010000001E000000DD45000028
:1020B80070C00F40C00000001200000013000000B4
:1020C800D0841F4001000000FF000000FF00000056
:1020D80000000000000000001300000013000000D2
:1020E800CC841F4001000000FF000000FF0000003A
:1020F80000000000000000001C000000D1450000A6
:1021080053544154555309093D20307825303278CD
:102118002052585F44523D25782054585F44533D1F
:102128002578204D41585F52543D25782052585FFC
:10213800505F4E4F3D25782054585F46554C4C3DD6
:1021480025780D0A000000004F4253455256455F5E
:1021580054583D253032783A20504C4F535F434E07
:10216800543D2578204152435F434E543D25780D18
:102178000A0000002573093D000000002030782582
:10218800303278000D0A00002573093D0000000078
:102198002030780025303278000000000D0A000059
:1021A80025303258000000003D20323530204B42A7
:1021B800505300003D2044697361626C65640000FF
:1021C8003D20313620626974730000003D203820BC
:1021D80062697473000000005350492053706565AC
:1021E800647A093D202564204D687A0A00000000C1
:1021F80052585F414444525F50302D310000000076
:1022080052585F414444525F50322D35000000005F
:1022180054585F41444452090000000052585F502E
:10222800575F50302D360000454E5F414109000090
:10223800454E5F52584144445200000052465F43A5
:102248004809000052465F534554555000000000AD
:10225800434F4E464947090044594E50442F46457E
:1022680041545552450000007428006068280060F9
:10227800B02100604461746120526174650925735E
:102288000D0A00005C280060502800604D6F6465EE
:102298006C09093D2025730D0A00000043524320B4
:1022A8004C656E6774680925730D0A004428006040
:1022B800382800602C2800602028006050412050F9
:1022C8006F7765720925730D0A00000041524309B2
:1022D800093D2025640D0A003D20456E61626C654C
:1022E80064000000535049204672657175656E633D
:1022F8007909093D202564204D687A0A000000000C
:102308004368616E6E656C0909093D2025752028B2
:102318007E202575204D487A290D0A004D6F646589
:102328006C0909093D2025730D0A00005246204416
:102338006174612052617465090925730D0A0000F2
:10234800524620506F77657220416D706C696669DE
:1023580065720925730D0A00BC210060E022006047
:1023680014280060042800600C2800605246204CA5
:102378006F77204E6F69736520416D706C6966696F
:1023880065720925730D0A00435243204C656E6738
:102398007468090925730D0A00000000416464721D
:1023A800657373204C656E67746809093D20256460
:1023B8002062797465730D0A00000000537461741B
:1023C8006963205061796C6F6164204C656E677435
:1023D80068093D2025642062797465730D0A000040
:1023E8004175746F2052657472792044656C617907
:1023F800093D202564206D6963726F7365636F6E94
:1024080064730D0A000000004175746F20526574F2
:10241800727920417474656D707473093D20256468
:10242800206D6178696D756D0D0A00005061636BF0
:10243800657473206C6F7374206F6E0A20202020DF
:1024480063757272656E74206368616E6E656C097F
:102458003D2025640D0A000052657472792061746C
:1024680074656D707473206D61646520666F720A9F
:10247800202020206C617374207472616E736D6902
:102488007373696F6E093D2025640D0A0000000012
:102498004D756C746963617374090925730D0A00BD
:1024A800437573746F6D2041434B205061796C6F95
:1024B80061640925730D0A0044796E616D696320B2
:1024C8005061796C6F6164730925730D0A0000000F
:1024D8004175746F2041636B6E6F776C6564676DCF
:1024E800656E740925730D0A000000004175746F4C
:1024F8002041636B6E6F776C6564676D656E7409F8
:102508003D203062256325632563256325632563A4
:102518000D0A00005072696D617279204D6F646513
:1025280009093D202563580D0A0000005458206110
:10253800646472657373090070697065202575207D
:102548002825732920626F756E6400000000000062
:10255800000000003D3D3D3D3D3D3D3D3D3D3D3D97
:102568003D3D3D3D2053504920436F6E6669677578
:10257800726174696F6E203D3D3D3D3D3D3D3D3D81
:102588003D3D3D3D3D3D3D0A43534E2050696E095A
:1025980009093D2025640A43452050696E09090947
:1025A8003D2025640A535049204672657175656E51
:1025B800637909093D202564204D687A0A3D3D3D2F
:1025C8003D3D3D3D3D3D3D3D3D3D3D3D3D204E522A
:1025D8004620436F6E66696775726174696F6E2015
:1025E8003D3D3D3D3D3D3D3D3D3D3D3D3D3D3D3D13
:1025F8000A4368616E6E656C0909093D20257520DE
:10260800287E202575204D487A290A5246204461A3
:1026180074612052617465090925730A5246205075
:102628006F77657220416D706C69666965720925FE
:10263800730A5246204C6F77204E6F6973652041AC
:102648006D706C69666965720925730A4352432087
:102658004C656E677468090925730A41646472657C
:102668007373204C656E67746809093D20256420E2
:1026780062797465730A537461746963205061796F
:102688006C6F6164204C656E677468093D20256431
:102698002062797465730A4175746F20526574728B
:1026A800792044656C6179093D202564206D696352
:1026B800726F7365636F6E64730A4175746F20522D
:1026C8006574727920417474656D707473093D2066
:1026D8002564206D6178696D756D0A5061636B655D
:1026E8007473206C6F7374206F6E0A20202020632F
:1026F800757272656E74206368616E6E656C093DF3
:102708002025640D0A526574727920617474656DB0
:10271800707473206D61646520666F720A202020D2
:10272800206C617374207472616E736D6973736960
:102738006F6E093D2025640D0A4D756C74696361DF
:102748007374090925730A437573746F6D204143C7
:102758004B205061796C6F61640925730A44796E66
:10276800616D6963205061796C6F616473092573C9
:102778000A4175746F2041636B6E6F776C6564678F
:102788006D656E7409000000257300003D203062FD
:102798002563256325632563256325630000000001
:1027A8000A5072696D617279204D6F646509093D3F
:1027B800202563580A54582061646472657373094C
:1027C800093D2030780000000A50697065202564B2
:1027D800202825732920626F756E64093D203078A2
:1027E8000000000025303258000000000A0B0C0DD4
:1027F8000E0F00000001020304050000636C6F73F4
:1028080065640000206F70656E2000003D20416CFB
:102818006C6F7765640000003D2050415F4D415862
:10282800000000003D2050415F4849474800000033
:102838003D2050415F4C4F57000000003D20504163
:102848005F4D494E000000006E524632344C303124
:102858002B0000006E524632344C3031000000002C
:102868003D2032204D425053000000003D203120D1
:102878004D4250530000000016035500530042001B
:102888002000530065007200690061006C000000C0
:1028980018035400650065006E0073007900640039
:1028A800750069006E006F000403090409026200E4
:1028B800030100C032080B000202020100090400F3
:1028C8000001020201000524001001052401010194
:1028D80004240206052406000107058203100010DF
:1028E80009040100020A0000000705030240000075
:1028F800070584024000000904020002FF6AFF0085
:10290800070581024000010705010240000100009F
:1029180009026200030100C032080B000202020132
:10292800000904000001020201000524001001054D
:10293800240101010424020605240600010705827A
:102948000310000509040100020A0000000705033E
:1029580002000200070584020002000904020002C6
:10296800FF6AC7000705810200020107050102008E
:10297800020100000A060002EF0201400100000007
:10298800000000000000000000000000000000003F
:10299800000000000000000000000000000000002F
:1029A800F8B54FF084439D695A6915400DD0254FFD
:1029B80001269D6195FAA5F4B4FA84F457F82430F9
:1029C80006FA04F49847A543F4D11F4B9D695A6948
:1029D80015400DD01D4F01269D6195FAA5F4B4FA56
:1029E80084F457F8243006FA04F49847A543F4D140
:1029F800174B9D695A6915400DD0164F01269D61E8
:102A080095FAA5F4B4FA84F457F8243006FA04F4D5
:102A18009847A543F4D1104B9D695A6915400DD0CC
:102A28000E4F01269D6195FAA5F4B4FA84F457F87F
:102A3800243006FA04F49847A543F4D1BFF34F8F26
:102A4800F8BD00BF7C35002000400042FC35002066
:102A5800008000427C36002000C00042FC36002086
:102A68000548064B1B1AD90F01EBA301491002D0E8
:102A7800034B03B118477047C0420020C0420020F2
:102A88000000000008B5054B1BB105490548AFF328
:102A98000080BDE80840FFF7E3BF00BF000000006A
:102AA800CC9E002000800260704700BF704700BFC6
:102AB8000C2100F5BC7004F093BA00BF00B597B0C4
:102AC800142200F5BC700DA904F0EEFB9DED131A5D
:102AD8009DED142A9DED120AB7EEC11AB7EEC22A6F
:102AE800B7EEC00A17B05DF804FB00BF10B596B08A
:102AF8000446082200F5BC700DA904F0D5FB94ED3E
:102B0800520A9DED131A9DED142ADDED127A20EE7E
:102B1800011A20EE022A20EE270AB7EEC11AB7EEF4
:102B2800C22AB7EEC00A16B010BD00BF08B50D2006
:102B380005F064FE01460D20B1FA81F1490905F05E
:102B480033FE024A024B12681A6008BD08A0002032
:102B5800EC9E002010B504460021007B06F002F927
:102B6800207A0021BDE8104006F0FCB838B50D46C3
:102B780004460021007A06F0F5F8207B85EAE57125
:102B8800A1EBE571BDE8384006F0ECB838B50D4664
:102B980004460021007B06F0E5F8207A85EAE57115
:102BA800A1EBE571BDE8384006F0DCB8224BD3F85C
:102BB800D820D2E90010D3680968006810B4184218
:102BC800946801EA04012ED0137C03F00303D9B9F9
:102BD80043F008039908013B11740D2B0BD8DFE86B
:102BE80003F00D071C070A160D0D160A071C070D22
:102BF8005369013B53615DF8044B704753695DF8B5
:102C0800044B01335361704743F00403E0E7536911
:102C18005DF8044B023B5361704753695DF8044B00
:102C2800023353617047137C03F003030029D1D0AA
:102C380043F00403CEE700BFB0930020224BD3F843
:102C4800B820D2E90010D3680968006810B41842A7
:102C5800946801EA04012ED0137C03F00303D9B968
:102C680043F008039908013B11740D2B0BD8DFE8DA
:102C780003F00D071C070A160D0D160A071C070D91
:102C88005369013B53615DF8044B704753695DF824
:102C9800044B01335361704743F00403E0E7536981
:102CA8005DF8044B023B5361704753695DF8044B70
:102CB800023353617047137C03F003030029D1D01A
:102CC80043F00403CEE700BFB0930020224BD3F8B3
:102CD800BC20D2E90010D3680968006810B4184213
:102CE800946801EA04012ED0137C03F00303D9B9D8
:102CF80043F008039908013B11740D2B0BD8DFE84A
:102D080003F00D071C070A160D0D160A071C070D00
:102D18005369013B53615DF8044B704753695DF893
:102D2800044B01335361704743F00403E0E75369F0
:102D38005DF8044B023B5361704753695DF8044BDF
:102D4800023353617047137C03F003030029D1D089
:102D580043F00403CEE700BFB0930020224BD3F822
:102D6800C020D2E90010D3680968006810B418427E
:102D7800946801EA04012ED0137C03F00303D9B947
:102D880043F008039908013B11740D2B0BD8DFE8B9
:102D980003F00D071C070A160D0D160A071C070D70
:102DA8005369013B53615DF8044B704753695DF803
:102DB800044B01335361704743F00403E0E7536960
:102DC8005DF8044B023B5361704753695DF8044B4F
:102DD800023353617047137C03F003030029D1D0F9
:102DE80043F00403CEE700BFB0930020224BD3F892
:102DF800C420D2E90010D3680968006810B41842EA
:102E0800946801EA04012ED0137C03F00303D9B9B6
:102E180043F008039908013B11740D2B0BD8DFE828
:102E280003F00D071C070A160D0D160A071C070DDF
:102E38005369013B53615DF8044B704753695DF872
:102E4800044B01335361704743F00403E0E75369CF
:102E58005DF8044B023B5361704753695DF8044BBE
:102E6800023353617047137C03F003030029D1D068
:102E780043F00403CEE700BFB0930020224BD3F801
:102E8800C820D2E90010D3680968006810B4184255
:102E9800946801EA04012ED0137C03F00303D9B926
:102EA80043F008039908013B11740D2B0BD8DFE898
:102EB80003F00D071C070A160D0D160A071C070D4F
:102EC8005369013B53615DF8044B704753695DF8E2
:102ED800044B01335361704743F00403E0E753693F
:102EE8005DF8044B023B5361704753695DF8044B2E
:102EF800023353617047137C03F003030029D1D0D8
:102F080043F00403CEE700BFB0930020224BD3F870
:102F1800CC20D2E90010D3680968006810B41842C0
:102F2800946801EA04012ED0137C03F00303D9B995
:102F380043F008039908013B11740D2B0BD8DFE807
:102F480003F00D071C070A160D0D160A071C070DBE
:102F58005369013B53615DF8044B704753695DF851
:102F6800044B01335361704743F00403E0E75369AE
:102F78005DF8044B023B5361704753695DF8044B9D
:102F8800023353617047137C03F003030029D1D047
:102F980043F00403CEE700BFB0930020224BD3F8E0
:102FA800D020D2E90010D3680968006810B418422C
:102FB800946801EA04012ED0137C03F00303D9B905
:102FC80043F008039908013B11740D2B0BD8DFE877
:102FD80003F00D071C070A160D0D160A071C070D2E
:102FE8005369013B53615DF8044B704753695DF8C1
:102FF800044B01335361704743F00403E0E753691E
:103008005DF8044B023B5361704753695DF8044B0C
:10301800023353617047137C03F003030029D1D0B6
:1030280043F00403CEE700BFB0930020224BD3F84F
:10303800D420D2E90010D3680968006810B4184297
:10304800946801EA04012ED0137C03F00303D9B974
:1030580043F008039908013B11740D2B0BD8DFE8E6
:1030680003F00D071C070A160D0D160A071C070D9D
:103078005369013B53615DF8044B704753695DF830
:10308800044B01335361704743F00403E0E753698D
:103098005DF8044B023B5361704753695DF8044B7C
:1030A800023353617047137C03F003030029D1D026
:1030B80043F00403CEE700BFB0930020214B9A6F82
:1030C800D2E90010D3680968006810B418429468FF
:1030D80001EA04012ED0137C03F00303D9B943F0AD
:1030E80008039908013B11740D2B0BD8DFE803F096
:1030F8000D071C070A160D0D160A071C070D536944
:10310800013B53615DF8044B704753695DF8044B0C
:1031180001335361704743F00403E0E753695DF8F6
:10312800044B023B5361704753695DF8044B02330B
:1031380053617047137C03F003030029D1D043F097
:103148000403CEE7B0930020214BDA6FD2E90010D8
:10315800D3680968006810B41842946801EA040149
:103168002ED0137C03F00303D9B943F00803990860
:10317800013B11740D2B0BD8DFE803F00D071C077A
:103188000A160D0D160A071C070D5369013B5361FA
:103198005DF8044B704753695DF8044B0133536184
:1031A800704743F00403E0E753695DF8044B023BC2
:1031B8005361704753695DF8044B0233536170479C
:1031C800137C03F003030029D1D043F00403CEE7B6
:1031D800B0930020224BD3F88020D2E90010D368A6
:1031E8000968006810B41842946801EA04012ED0F6
:1031F800137C03F00303D9B943F008039908013B92
:1032080011740D2B0BD8DFE803F00D071C070A1605
:103218000D0D160A071C070D5369013B53615DF834
:10322800044B704753695DF8044B01335361704791
:1032380043F00403E0E753695DF8044B023B536134
:10324800704753695DF8044B023353617047137C30
:1032580003F003030029D1D043F00403CEE700BFF5
:10326800B0930020224BD3F88420D2E90010D36811
:103278000968006810B41842946801EA04012ED065
:10328800137C03F00303D9B943F008039908013B01
:1032980011740D2B0BD8DFE803F00D071C070A1675
:1032A8000D0D160A071C070D5369013B53615DF8A4
:1032B800044B704753695DF8044B01335361704701
:1032C80043F00403E0E753695DF8044B023B5361A4
:1032D800704753695DF8044B023353617047137CA0
:1032E80003F003030029D1D043F00403CEE700BF65
:1032F800B0930020224BD3F88820D2E90010D3687D
:103308000968006810B41842946801EA04012ED0D4
:10331800137C03F00303D9B943F008039908013B70
:1033280011740D2B0BD8DFE803F00D071C070A16E4
:103338000D0D160A071C070D5369013B53615DF813
:10334800044B704753695DF8044B01335361704770
:1033580043F00403E0E753695DF8044B023B536113
:10336800704753695DF8044B023353617047137C0F
:1033780003F003030029D1D043F00403CEE700BFD4
:10338800B0930020224BD3F88C20D2E90010D368E8
:103398000968006810B41842946801EA04012ED044
:1033A800137C03F00303D9B943F008039908013BE0
:1033B80011740D2B0BD8DFE803F00D071C070A1654
:1033C8000D0D160A071C070D5369013B53615DF883
:1033D800044B704753695DF8044B013353617047E0
:1033E80043F00403E0E753695DF8044B023B536183
:1033F800704753695DF8044B023353617047137C7F
:1034080003F003030029D1D043F00403CEE700BF43
:10341800B0930020224BD3F89020D2E90010D36853
:103428000968006810B41842946801EA04012ED0B3
:10343800137C03F00303D9B943F008039908013B4F
:1034480011740D2B0BD8DFE803F00D071C070A16C3
:103458000D0D160A071C070D5369013B53615DF8F2
:10346800044B704753695DF8044B0133536170474F
:1034780043F00403E0E753695DF8044B023B5361F2
:10348800704753695DF8044B023353617047137CEE
:1034980003F003030029D1D043F00403CEE700BFB3
:1034A800B0930020224BD3F89420D2E90010D368BF
:1034B8000968006810B41842946801EA04012ED023
:1034C800137C03F00303D9B943F008039908013BBF
:1034D80011740D2B0BD8DFE803F00D071C070A1633
:1034E8000D0D160A071C070D5369013B53615DF862
:1034F800044B704753695DF8044B013353617047BF
:1035080043F00403E0E753695DF8044B023B536161
:10351800704753695DF8044B023353617047137C5D
:1035280003F003030029D1D043F00403CEE700BF22
:10353800B0930020224BD3F89820D2E90010D3682A
:103548000968006810B41842946801EA04012ED092
:10355800137C03F00303D9B943F008039908013B2E
:1035680011740D2B0BD8DFE803F00D071C070A16A2
:103578000D0D160A071C070D5369013B53615DF8D1
:10358800044B704753695DF8044B0133536170472E
:1035980043F00403E0E753695DF8044B023B5361D1
:1035A800704753695DF8044B023353617047137CCD
:1035B80003F003030029D1D043F00403CEE700BF92
:1035C800B0930020224BD3F89C20D2E90010D36896
:1035D8000968006810B41842946801EA04012ED002
:1035E800137C03F00303D9B943F008039908013B9E
:1035F80011740D2B0BD8DFE803F00D071C070A1612
:103608000D0D160A071C070D5369013B53615DF840
:10361800044B704753695DF8044B0133536170479D
:1036280043F00403E0E753695DF8044B023B536140
:10363800704753695DF8044B023353617047137C3C
:1036480003F003030029D1D043F00403CEE700BF01
:10365800B0930020224BD3F8A020D2E90010D36801
:103668000968006810B41842946801EA04012ED071
:10367800137C03F00303D9B943F008039908013B0D
:1036880011740D2B0BD8DFE803F00D071C070A1681
:103698000D0D160A071C070D5369013B53615DF8B0
:1036A800044B704753695DF8044B0133536170470D
:1036B80043F00403E0E753695DF8044B023B5361B0
:1036C800704753695DF8044B023353617047137CAC
:1036D80003F003030029D1D043F00403CEE700BF71
:1036E800B0930020224BD3F8A420D2E90010D3686D
:1036F8000968006810B41842946801EA04012ED0E1
:10370800137C03F00303D9B943F008039908013B7C
:1037180011740D2B0BD8DFE803F00D071C070A16F0
:103728000D0D160A071C070D5369013B53615DF81F
:10373800044B704753695DF8044B0133536170477C
:1037480043F00403E0E753695DF8044B023B53611F
:10375800704753695DF8044B023353617047137C1B
:1037680003F003030029D1D043F00403CEE700BFE0
:10377800B0930020224BD3F8A820D2E90010D368D8
:103788000968006810B41842946801EA04012ED050
:10379800137C03F00303D9B943F008039908013BEC
:1037A80011740D2B0BD8DFE803F00D071C070A1660
:1037B8000D0D160A071C070D5369013B53615DF88F
:1037C800044B704753695DF8044B013353617047EC
:1037D80043F00403E0E753695DF8044B023B53618F
:1037E800704753695DF8044B023353617047137C8B
:1037F80003F003030029D1D043F00403CEE700BF50
:10380800B0930020224BD3F8AC20D2E90010D36843
:103818000968006810B41842946801EA04012ED0BF
:10382800137C03F00303D9B943F008039908013B5B
:1038380011740D2B0BD8DFE803F00D071C070A16CF
:103848000D0D160A071C070D5369013B53615DF8FE
:10385800044B704753695DF8044B0133536170475B
:1038680043F00403E0E753695DF8044B023B5361FE
:10387800704753695DF8044B023353617047137CFA
:1038880003F003030029D1D043F00403CEE700BFBF
:10389800B0930020224BD3F8B020D2E90010D368AF
:1038A8000968006810B41842946801EA04012ED02F
:1038B800137C03F00303D9B943F008039908013BCB
:1038C80011740D2B0BD8DFE803F00D071C070A163F
:1038D8000D0D160A071C070D5369013B53615DF86E
:1038E800044B704753695DF8044B013353617047CB
:1038F80043F00403E0E753695DF8044B023B53616E
:10390800704753695DF8044B023353617047137C69
:1039180003F003030029D1D043F00403CEE700BF2E
:10392800B0930020224BD3F8B420D2E90010D3681A
:103938000968006810B41842946801EA04012ED09E
:10394800137C03F00303D9B943F008039908013B3A
:1039580011740D2B0BD8DFE803F00D071C070A16AE
:103968000D0D160A071C070D5369013B53615DF8DD
:10397800044B704753695DF8044B0133536170473A
:1039880043F00403E0E753695DF8044B023B5361DD
:10399800704753695DF8044B023353617047137CD9
:1039A80003F003030029D1D043F00403CEE700BF9E
:1039B800B0930020214B9A6BD2E90010D3680968B4
:1039C800006810B41842946801EA04012ED0137CF0
:1039D80003F00303D9B943F008039908013B1174B4
:1039E8000D2B0BD8DFE803F00D071C070A160D0D89
:1039F800160A071C070D5369013B53615DF8044B18
:103A0800704753695DF8044B01335361704743F0C5
:103A18000403E0E753695DF8044B023B53617047C8
:103A280053695DF8044B023353617047137C03F00C
:103A380003030029D1D043F00403CEE7B09300205C
:103A4800214BDA6BD2E90010D3680968006810B41A
:103A58001842946801EA04012ED0137C03F0030392
:103A6800D9B943F008039908013B11740D2B0BD801
:103A7800DFE803F00D071C070A160D0D160A071CD0
:103A8800070D5369013B53615DF8044B7047536957
:103A98005DF8044B01335361704743F00403E0E7DA
:103AA80053695DF8044B023B5361704753695DF8F5
:103AB800044B023353617047137C03F0030300295E
:103AC800D1D043F00403CEE7B0930020214B1A6C09
:103AD800D2E90010D3680968006810B418429468E5
:103AE80001EA04012ED0137C03F00303D9B943F093
:103AF80008039908013B11740D2B0BD8DFE803F07C
:103B08000D071C070A160D0D160A071C070D536929
:103B1800013B53615DF8044B704753695DF8044BF2
:103B280001335361704743F00403E0E753695DF8DC
:103B3800044B023B5361704753695DF8044B0233F1
:103B480053617047137C03F003030029D1D043F07D
:103B58000403CEE7B0930020214B5A6CD2E9001041
:103B6800D3680968006810B41842946801EA04012F
:103B78002ED0137C03F00303D9B943F00803990846
:103B8800013B11740D2B0BD8DFE803F00D071C0760
:103B98000A160D0D160A071C070D5369013B5361E0
:103BA8005DF8044B704753695DF8044B013353616A
:103BB800704743F00403E0E753695DF8044B023BA8
:103BC8005361704753695DF8044B02335361704782
:103BD800137C03F003030029D1D043F00403CEE79C
:103BE800B0930020214B9A6CD2E90010D368096881
:103BF800006810B41842946801EA04012ED0137CBE
:103C080003F00303D9B943F008039908013B117481
:103C18000D2B0BD8DFE803F00D071C070A160D0D56
:103C2800160A071C070D5369013B53615DF8044BE5
:103C3800704753695DF8044B01335361704743F093
:103C48000403E0E753695DF8044B023B5361704796
:103C580053695DF8044B023353617047137C03F0DA
:103C680003030029D1D043F00403CEE7B09300202A
:103C7800214BDA6CD2E90010D3680968006810B4E7
:103C88001842946801EA04012ED0137C03F0030360
:103C9800D9B943F008039908013B11740D2B0BD8CF
:103CA800DFE803F00D071C070A160D0D160A071C9E
:103CB800070D5369013B53615DF8044B7047536925
:103CC8005DF8044B01335361704743F00403E0E7A8
:103CD80053695DF8044B023B5361704753695DF8C3
:103CE800044B023353617047137C03F0030300292C
:103CF800D1D043F00403CEE7B0930020214B1A6DD6
:103D0800D2E90010D3680968006810B418429468B2
:103D180001EA04012ED0137C03F00303D9B943F060
:103D280008039908013B11740D2B0BD8DFE803F049
:103D38000D071C070A160D0D160A071C070D5369F7
:103D4800013B53615DF8044B704753695DF8044BC0
:103D580001335361704743F00403E0E753695DF8AA
:103D6800044B023B5361704753695DF8044B0233BF
:103D780053617047137C03F003030029D1D043F04B
:103D88000403CEE7B0930020214B5A6DD2E900100E
:103D9800D3680968006810B41842946801EA0401FD
:103DA8002ED0137C03F00303D9B943F00803990814
:103DB800013B11740D2B0BD8DFE803F00D071C072E
:103DC8000A160D0D160A071C070D5369013B5361AE
:103DD8005DF8044B704753695DF8044B0133536138
:103DE800704743F00403E0E753695DF8044B023B76
:103DF8005361704753695DF8044B02335361704750
:103E0800137C03F003030029D1D043F00403CEE769
:103E1800B0930020214B9A6DD2E90010D36809684D
:103E2800006810B41842946801EA04012ED0137C8B
:103E380003F00303D9B943F008039908013B11744F
:103E48000D2B0BD8DFE803F00D071C070A160D0D24
:103E5800160A071C070D5369013B53615DF8044BB3
:103E6800704753695DF8044B01335361704743F061
:103E78000403E0E753695DF8044B023B5361704764
:103E880053695DF8044B023353617047137C03F0A8
:103E980003030029D1D043F00403CEE7B0930020F8
:103EA800214BDA6DD2E90010D3680968006810B4B4
:103EB8001842946801EA04012ED0137C03F003032E
:103EC800D9B943F008039908013B11740D2B0BD89D
:103ED800DFE803F00D071C070A160D0D160A071C6C
:103EE800070D5369013B53615DF8044B70475369F3
:103EF8005DF8044B01335361704743F00403E0E776
:103F080053695DF8044B023B5361704753695DF890
:103F1800044B023353617047137C03F003030029F9
:103F2800D1D043F00403CEE7B0930020214B1A6EA2
:103F3800D2E90010D3680968006810B41842946880
:103F480001EA04012ED0137C03F00303D9B943F02E
:103F580008039908013B11740D2B0BD8DFE803F017
:103F68000D071C070A160D0D160A071C070D5369C5
:103F7800013B53615DF8044B704753695DF8044B8E
:103F880001335361704743F00403E0E753695DF878
:103F9800044B023B5361704753695DF8044B02338D
:103FA80053617047137C03F003030029D1D043F019
:103FB8000403CEE7B0930020214B5A6ED2E90010DB
:103FC800D3680968006810B41842946801EA0401CB
:103FD8002ED0137C03F00303D9B943F008039908E2
:103FE800013B11740D2B0BD8DFE803F00D071C07FC
:103FF8000A160D0D160A071C070D5369013B53617C
:104008005DF8044B704753695DF8044B0133536105
:10401800704743F00403E0E753695DF8044B023B43
:104028005361704753695DF8044B0233536170471D
:10403800137C03F003030029D1D043F00403CEE737
:10404800B0930020214B9A6ED2E90010D36809681A
:10405800006810B41842946801EA04012ED0137C59
:1040680003F00303D9B943F008039908013B11741D
:104078000D2B0BD8DFE803F00D071C070A160D0DF2
:10408800160A071C070D5369013B53615DF8044B81
:10409800704753695DF8044B01335361704743F02F
:1040A8000403E0E753695DF8044B023B5361704732
:1040B80053695DF8044B023353617047137C03F076
:1040C80003030029D1D043F00403CEE7B0930020C6
:1040D800214BDA6ED2E90010D3680968006810B481
:1040E8001842946801EA04012ED0137C03F00303FC
:1040F800D9B943F008039908013B11740D2B0BD86B
:10410800DFE803F00D071C070A160D0D160A071C39
:10411800070D5369013B53615DF8044B70475369C0
:104128005DF8044B01335361704743F00403E0E743
:1041380053695DF8044B023B5361704753695DF85E
:10414800044B023353617047137C03F003030029C7
:10415800D1D043F00403CEE7B0930020214B1A6F6F
:10416800D2E90010D3680968006810B4184294684E
:1041780001EA04012ED0137C03F00303D9B943F0FC
:1041880008039908013B11740D2B0BD8DFE803F0E5
:104198000D071C070A160D0D160A071C070D536993
:1041A800013B53615DF8044B704753695DF8044B5C
:1041B80001335361704743F00403E0E753695DF846
:1041C800044B023B5361704753695DF8044B02335B
:1041D80053617047137C03F003030029D1D043F0E7
:1041E8000403CEE7B0930020214B5A6FD2E90010A8
:1041F800D3680968006810B41842946801EA040199
:104208002ED0137C03F00303D9B943F008039908AF
:10421800013B11740D2B0BD8DFE803F00D071C07C9
:104228000A160D0D160A071C070D5369013B536149
:104238005DF8044B704753695DF8044B01335361D3
:10424800704743F00403E0E753695DF8044B023B11
:104258005361704753695DF8044B023353617047EB
:10426800137C03F003030029D1D043F00403CEE705
:10427800B0930020214B9A69D2E90010D3680968ED
:10428800006810B41842946801EA04012ED0137C27
:1042980003F00303D9B943F008039908013B1174EB
:1042A8000D2B0BD8DFE803F00D071C070A160D0DC0
:1042B800160A071C070D5369013B53615DF8044B4F
:1042C800704753695DF8044B01335361704743F0FD
:1042D8000403E0E753695DF8044B023B5361704700
:1042E80053695DF8044B023353617047137C03F044
:1042F80003030029D1D043F00403CEE7B093002094
:10430800214BDA69D2E90010D3680968006810B453
:104318001842946801EA04012ED0137C03F00303C9
:10432800D9B943F008039908013B11740D2B0BD838
:10433800DFE803F00D071C070A160D0D160A071C07
:10434800070D5369013B53615DF8044B704753698E
:104358005DF8044B01335361704743F00403E0E711
:1043680053695DF8044B023B5361704753695DF82C
:10437800044B023353617047137C03F00303002995
:10438800D1D043F00403CEE7B0930020214B1A6A42
:10439800D2E90010D3680968006810B4184294681C
:1043A80001EA04012ED0137C03F00303D9B943F0CA
:1043B80008039908013B11740D2B0BD8DFE803F0B3
:1043C8000D071C070A160D0D160A071C070D536961
:1043D800013B53615DF8044B704753695DF8044B2A
:1043E80001335361704743F00403E0E753695DF814
:1043F800044B023B5361704753695DF8044B023329
:1044080053617047137C03F003030029D1D043F0B4
:104418000403CEE7B0930020214B5A6AD2E900107A
:10442800D3680968006810B41842946801EA040166
:104438002ED0137C03F00303D9B943F0080399087D
:10444800013B11740D2B0BD8DFE803F00D071C0797
:104458000A160D0D160A071C070D5369013B536117
:104468005DF8044B704753695DF8044B01335361A1
:10447800704743F00403E0E753695DF8044B023BDF
:104488005361704753695DF8044B023353617047B9
:10449800137C03F003030029D1D043F00403CEE7D3
:1044A800B0930020214B9A6AD2E90010D3680968BA
:1044B800006810B41842946801EA04012ED0137CF5
:1044C80003F00303D9B943F008039908013B1174B9
:1044D8000D2B0BD8DFE803F00D071C070A160D0D8E
:1044E800160A071C070D5369013B53615DF8044B1D
:1044F800704753695DF8044B01335361704743F0CB
:104508000403E0E753695DF8044B023B53617047CD
:1045180053695DF8044B023353617047137C03F011
:1045280003030029D1D043F00403CEE7B093002061
:10453800214BDA6AD2E90010D3680968006810B420
:104548001842946801EA04012ED0137C03F0030397
:10455800D9B943F008039908013B11740D2B0BD806
:10456800DFE803F00D071C070A160D0D160A071CD5
:10457800070D5369013B53615DF8044B704753695C
:104588005DF8044B01335361704743F00403E0E7DF
:1045980053695DF8044B023B5361704753695DF8FA
:1045A800044B023353617047137C03F00303002963
:1045B800D1D043F00403CEE7B0930020214B1A6B0F
:1045C800D2E90010D3680968006810B418429468EA
:1045D80001EA04012ED0137C03F00303D9B943F098
:1045E80008039908013B11740D2B0BD8DFE803F081
:1045F8000D071C070A160D0D160A071C070D53692F
:10460800013B53615DF8044B704753695DF8044BF7
:1046180001335361704743F00403E0E753695DF8E1
:10462800044B023B5361704753695DF8044B0233F6
:1046380053617047137C03F003030029D1D043F082
:104648000403CEE7B0930020214B5A6BD2E9001047
:10465800D3680968006810B41842946801EA040134
:104668002ED0137C03F00303D9B943F0080399084B
:10467800013B11740D2B0BD8DFE803F00D071C0765
:104688000A160D0D160A071C070D5369013B5361E5
:104698005DF8044B704753695DF8044B013353616F
:1046A800704743F00403E0E753695DF8044B023BAD
:1046B8005361704753695DF8044B02335361704787
:1046C800137C03F003030029D1D043F00403CEE7A1
:1046D800B0930020214B9A68D2E90010D36809688A
:1046E800006810B41842946801EA04012ED0137CC3
:1046F80003F00303D9B943F008039908013B117487
:104708000D2B0BD8DFE803F00D071C070A160D0D5B
:10471800160A071C070D5369013B53615DF8044BEA
:10472800704753695DF8044B01335361704743F098
:104738000403E0E753695DF8044B023B536170479B
:1047480053695DF8044B023353617047137C03F0DF
:1047580003030029D1D043F00403CEE7B09300202F
:10476800214BDA68D2E90010D3680968006810B4F0
:104778001842946801EA04012ED0137C03F0030365
:10478800D9B943F008039908013B11740D2B0BD8D4
:10479800DFE803F00D071C070A160D0D160A071CA3
:1047A800070D5369013B53615DF8044B704753692A
:1047B8005DF8044B01335361704743F00403E0E7AD
:1047C80053695DF8044B023B5361704753695DF8C8
:1047D800044B023353617047137C03F00303002931
:1047E800D1D043F00403CEE7B0930020214B1A69DF
:1047F800D2E90010D3680968006810B418429468B8
:1048080001EA04012ED0137C03F00303D9B943F065
:1048180008039908013B11740D2B0BD8DFE803F04E
:104828000D071C070A160D0D160A071C070D5369FC
:10483800013B53615DF8044B704753695DF8044BC5
:1048480001335361704743F00403E0E753695DF8AF
:10485800044B023B5361704753695DF8044B0233C4
:1048680053617047137C03F003030029D1D043F050
:104878000403CEE7B0930020214B5A69D2E9001017
:10488800D3680968006810B41842946801EA040102
:104898002ED0137C03F00303D9B943F00803990819
:1048A800013B11740D2B0BD8DFE803F00D071C0733
:1048B8000A160D0D160A071C070D5369013B5361B3
:1048C8005DF8044B704753695DF8044B013353613D
:1048D800704743F00403E0E753695DF8044B023B7B
:1048E8005361704753695DF8044B02335361704755
:1048F800137C03F003030029D1D043F00403CEE76F
:10490800B0930020214B1A68D2E90010D3680968D7
:10491800006810B41842946801EA04012ED0137C90
:1049280003F00303D9B943F008039908013B117454
:104938000D2B0BD8DFE803F00D071C070A160D0D29
:10494800160A071C070D5369013B53615DF8044BB8
:10495800704753695DF8044B01335361704743F066
:104968000403E0E753695DF8044B023B5361704769
:1049780053695DF8044B023353617047137C03F0AD
:1049880003030029D1D043F00403CEE7B0930020FD
:10499800214B5A68D2E90010D3680968006810B43E
:1049A8001842946801EA04012ED0137C03F0030333
:1049B800D9B943F008039908013B11740D2B0BD8A2
:1049C800DFE803F00D071C070A160D0D160A071C71
:1049D800070D5369013B53615DF8044B70475369F8
:1049E8005DF8044B01335361704743F00403E0E77B
:1049F80053695DF8044B023B5361704753695DF896
:104A0800044B023353617047137C03F003030029FE
:104A1800D1D043F00403CEE7B093002038B52DED94
:104A2800028B069B04460271B0EE408A8360D8B2BE
:104A3800144A0D46079B01212260E36003F0F0FE53
:104A48000121207B03F0ECFEB5EEC08AF1EE10FAEE
:104A580009DDB0EE480A207A04F0EAF9B0EE480A17
:104A6800207B04F0E5F9284604F0D2FA0021207AE8
:104A780004F078F9207B002104F074F92046BDEC9D
:104A8800028B38BDA80800200B4610B5362800F266
:104A98009782DFE810F08C028202790270026702C6
:104AA8005E0255024C0243023A02310228021F02FA
:104AB800BF01B601AD01A4019B01920189018001EA
:104AC80077016E0165015C0153014A01410138011A
:104AD8002F0126011D0113010901FF00F500EB005C
:104AE800E100D700CD00C300B900AF00A5009B00CE
:104AF800910087007D00730069005F0055004B003E
:104B080041003700C84C0422C8493620C4F8D830C0
:104B180003F0C0FE012010BDC34C0422C449352057
:104B2800C4F8D43003F0B6FE012010BDBE4C0422F8
:104B3800C0493420C4F8D03003F0ACFE012010BDC9
:104B4800B94C0422BC493320C4F8CC3003F0A2FE8F
:104B5800012010BDB44C0422B8493220C4F8C83032
:104B680003F098FE012010BDAF4C0422B449312057
:104B7800C4F8C43003F08EFE012010BDAA4C0422F4
:104B8800B0493020C4F8C03003F084FE012010BDC5
:104B9800A54C0422AC492F20C4F8BC3003F07AFE9F
:104BA800012010BDA04C0422A8492E20C4F8B8301A
:104BB80003F070FE012010BD9B4C0422A4492D2057
:104BC800C4F8B43003F066FE012010BD964C0422F0
:104BD800A0492C20C4F8B03003F05CFE012010BDC1
:104BE800914C04229C492B20C4F8AC3003F052FEAF
:104BF800012010BD8C4C042298492A20C4F8A83002
:104C080003F048FE012010BD874C04229449292056
:104C1800C4F8A43003F03EFE012010BD824C0422EB
:104C280090492820C4F8A03003F034FE012010BDBC
:104C38007D4C04228C492720C4F89C3003F02AFEBE
:104C4800012010BD784C042288492620C4F89830E9
:104C580003F020FE012010BD734C04228449252056
:104C6800C4F8943003F016FE012010BD6E4C0422E7
:104C780080492420C4F8903003F00CFE012010BDB8
:104C8800694C04227C492320C4F88C3003F002FECE
:104C9800012010BD644C042278492220C4F88830D1
:104CA80003F0F8FD012010BD5F4C04227449212057
:104CB800C4F8843003F0EEFD012010BD5A4C0422E4
:104CC80070492020C4F8803003F0E4FD012010BDB5
:104CD800554C04226C491F20E36703F0DBFD0120DB
:104CE80010BD514C042269491E20A36703F0D2FD70
:104CF800012010BD4C4C042265491D20636703F058
:104D0800C9FD012010BD484C042262491C202367BC
:104D180003F0C0FD012010BD434C04225E491B2056
:104D2800E36603F0B7FD012010BD3F4C04225B4948
:104D38001A20A36603F0AEFD012010BD3A4C0422F0
:104D480057491920636603F0A5FD012010BD364CB4
:104D5800042254491820236603F09CFD012010BD4D
:104D6800314C042250491720E36503F093FD0120DC
:104D780010BD2D4C04224D491620A36503F08AFD71
:104D8800012010BD284C042249491520636503F011
:104D980081FD012010BD244C0422464914202365BE
:104DA80003F078FD012010BD1F4C04224249132056
:104DB800E36403F06FFD012010BD1B4C04223F4942
:104DC8001220A36403F066FD012010BD164C0422D6
:104DD8003B491120636403F05DFD012010BD124CB6
:104DE800042238491020236403F054FD012010BD2B
:104DF8000D4C042234490F20E36303F04BFD0120DE
:104E080010BD094C042231490E20A36303F042FD72
:104E1800012010BD044C04222D490D20636303F0CA
:104E280039FD012010BD00BFB09300202D02000005
:104E3800AD0600001D0600008D050000FD04000001
:104E48006D040000DD0300004D030000BD020000FA
:104E5800A50F0000150F0000850E0000F50D0000DD
:104E6800650D0000D50C0000450C0000B50B0000D6
:104E7800250B0000950A0000050A000075090000CE
:104E8800E508000055080000C90700003D070000BC
:104E980069180000DD17000051170000C516000052
:104EA80039160000AD15000021150000951400000A
:104EB800091400007D130000F112000065120000C3
:104EC800D91100004D110000C1100000351000007C
:104ED800C91C00003B4C04223B490C20236303F00F
:104EE800D9FC012010BD374C042238490B20E3625D
:104EF80003F0D0FC012010BD324C042234490A20B2
:104F0800A36203F0C7FC012010BD2E4C04223149D6
:104F18000920636203F0BEFC012010BD294C042265
:104F28002D490820236203F0B5FC012010BD254C53
:104F380004222A490720E36103F0ACFC012010BDDC
:104F4800204C042226490620A36103F0A3FC01207B
:104F580010BD1C4C042223490520636103F09AFC10
:104F6800012010BD0422174C1F491046236103F08D
:104F780091FC012010BD134C04221C490320E3605E
:104F880003F088FC012010BD0E4C042218490220B1
:104F9800A36003F07FFC012010BD044609480422E9
:104FA80014494360012003F075FC204610BD054CF0
:104FB800042211490020236003F06CFC012010BD7D
:104FC800002010BDB09300203D1C0000B11B000064
:104FD800251B0000991A00000D1A00008119000015
:104FE800F5180000F91E00006D1E0000E11D00000C
:104FF800551D000011200000851F00002DE9F0411B
:1050080082B004460F4616469DF820C01D46BCF1E6
:10501800000F01D017460E460221384603F000FC67
:105028000221304603F0FCFB25493B012548DFF807
:105038009CC051F8038001EB07132560D3F80CE0FE
:1050480001EB0613C4F80C80C4F814E0DA683301E5
:10505800C9580023A26123621B4B45681B68216164
:10506800ACFB033C4FF4FA634FEA9C4C03FB0CFC8B
:1050780043685B1B9C45FBD8D8F800303846096864
:105088001EEA030F14BF012300230A4204F10C0196
:1050980018BF43F0020301912377FFF7F5FC03469D
:1050A8000199304684F82430FFF7EEFC94F8242068
:1050B80003462046134484F8243002B0BDE8F0814A
:1050C8007C0E0020001000E0FC23002083DE1B4340
:1050D8002DE9F043594C8DB001210D2003F0A0FBC0
:1050E8000C2104F5BC7001F07BFF00285BD1032480
:1050F80001210D2003F058FB962003F0D7FA0D206C
:10510800002103F051FB962003F0D0FA013CEFD1C7
:105118004FF47A7003F0CAFA494D40F2EE28494C30
:10512800494FDFF844912E6805F006F923786BB3F0
:105138003B78DB072AD52B68D9F800209B1A0E2B61
:1051480024D9424C4248434B434A4449CDE90004E0
:1051580001200BF061F9424802F048FE414A012162
:105168003F4802F011FD012202213D4802F04EFEA7
:1051780002213B4802F064FE3948012102F05CFC40
:1051880037480DB0BDE8F04302F0BABC2B6822786E
:105198009B1B2AB1B3F5FA6FD3D805F0CDF8C3E756
:1051A8004345FAD9CDE7D4F85C31002B2DDD002535
:1051B80004F5BC76142203A93046013502F074F8D0
:1051C8009DED082A9DED093A32209DED0A4AB7EE79
:1051D800C22AB7EEC33AB7EEC44A94ED585B94EDD1
:1051E8005A6B94ED5C7B35EE025B36EE036B37EE63
:1051F800047B84ED585B84ED5A6B84ED5C7B03F093
:1052080055FAD4F85C319D42D4DB07EE903AB8EEFB
:10521800E77A94ED585B94ED5A6BB7EEC77A94ED44
:105228005C3B85EE074B86EE075B83EE076B84EDF0
:10523800584B84ED5A5B84ED5C6B6DE7208C002045
:1052480008A0002002A1002001A10020BD4000000C
:10525800B1400000AD400000A940000050240020EB
:10526800049F00203830002090A0002030B5ABB05B
:10527800DA4C24A80AF084FC0DF1900CBCE80F006D
:105288000FC40022DCF800502346D548114643F8E5
:10529800105907F0BBFF002876D1D14BD14AD2492B
:1052A800D24808F0B7F8002840F0C08107F00EF89F
:1052B800CF4B0246CD49CF4808F078F9002840F096
:1052C8006B810DF06DF9CC4B0246C849CB4808F00C
:1052D8006DF9002840F03F8105F09CF9C84B024663
:1052E800C249C84808F09CF9002840F013810DF025
:1052F800D5FAC54B0246BD49C44808F057F90028FD
:1053080040F0E780102018F065FFC14B01460422E9
:1053180002A8C3E9041207F033FC882202A9BD4899
:1053280003F042FBAD4B0222AD49BA4807F034FC0A
:10533800002840F0AD800024B74BB84AB149B548C1
:10534800009407F0D9FC002840F08180B449B148A6
:1053580007F010FD002859D1B24B0A201D680CF047
:1053680063FB90BB0CF044FB451B0A46AE4C4FF068
:105378000D004FF0010162F10002C4E9005203F090
:1053880013FA01202BB030BD01210D2003F00CFAD7
:10539800962003F08BF900210D2003F005FA9620E2
:1053A80003F084F901210D2003F0FEF9962003F0A3
:1053B8007DF900210D2003F0F7F9962003F076F926
:1053C8004FF47A7003F072F967E701210D2003F0BA
:1053D800EBF9962003F06AF900210D2003F0E4F9B7
:1053E800962003F063F901210D2003F0DDF99620E2
:1053F80003F05CF900210D2003F0D6F9962003F0A4
:1054080055F94FF47A7003F051F9ABE701210D20FB
:1054180003F0CAF9962003F049F900210D2003F0A2
:10542800C3F9962003F042F901210D2003F0BCF9DD
:10543800962003F03BF900210D2003F0B5F99620E2
:1054480003F034F94FF47A7003F030F984E701215E
:105458000D2003F0A9F9962003F028F921460D2024
:1054680003F0A2F9962003F021F901210D2003F0A1
:105478009BF9962003F01AF921460D2003F094F9C0
:10548800962003F013F94FF47A7003F00FF95DE7F3
:1054980001210D2003F088F9962003F007F9002177
:1054A8000D2003F081F9962003F000F901210D2069
:1054B80003F07AF9962003F0F9F800210D2003F0A3
:1054C80073F9962003F0F2F84FF47A7003F0EEF8CF
:1054D80031E701210D2003F067F9962003F0E6F883
:1054E80000210D2003F060F9962003F0DFF8012178
:1054F8000D2003F059F9962003F0D8F800210D206B
:1055080003F052F9962003F0D1F84FF47A7003F0C3
:10551800CDF8F7E601210D2003F046F9962003F0B7
:10552800C5F800210D2003F03FF9962003F0BEF8DE
:1055380001210D2003F038F9962003F0B7F8002177
:105548000D2003F031F9962003F0B0F84FF47A708B
:1055580003F0ACF8CBE601210D2003F025F99620E5
:1055680003F0A4F800210D2003F01EF9962003F0A3
:105578009DF801210D2003F017F9962003F096F805
:1055880000210D2003F010F9962003F08FF84FF456
:105598007A7003F08BF89FE601210D2003F004F9DF
:1055A800962003F083F800210D2003F0FDF89620E3
:1055B80003F07CF801210D2003F0F6F8962003F0A3
:1055C80075F800210D2003F0EFF8962003F06EF82F
:1055D8004FF47A7003F06AF873E600BFA8970020CA
:1055E800D09F00205C170020CC060020B49E00202D
:1055F800E0060020E49E0020F0060020489C0020E1
:10560800FC06002020A0002004070020EC970020C2
:10561800D0970020488A0020AD0100005093002058
:105628000098002008A000204893002001210D20A8
:1056380003F0BAF8962003F039F800210D2003F0A2
:10564800B3F8962003F032F801210D2003F0ACF8EE
:10565800962003F02BF800210D2003F0A5F89620E2
:1056680003F024F84FF47A7003F020F81EE600BF28
:1056780038B5134D134C284607F01EFF00210CF0D7
:10568800E5F92146104808F09FFD21460F4808F02B
:105698009BFD21460E4809F051F8204608F092FB80
:1056A8000C4809F015FB0C4807F0F2FA284607F0F9
:1056B800F7FD0D20012103F077F8012038BD00BF68
:1056C800D09F0020B49E0020E49E0020489C00202B
:1056D80020A0002000980020488A00200000000038
:1056E8002DE9F0432DED0A8B93B0E14802F038FA2A
:1056F80009A9002840F0B0831422DE4801F0D4FD47
:10570800DD4F03F027F8DD4907EE900ADC4A3B68D5
:10571800F8EE677A096892ED007A5B1ADFEDD96ACC
:1057280037EEC77AC2ED007AC72B87EE268A00F2D9
:105738009A83D54B1B68002B00F02A83D34BD4489F
:1057480093ED0A1B93ED026B93ED007BB7EEC11B43
:10575800F7EEC60BB7EEC70BCE4C02F05BFCF0EED3
:10576800409A8DED050A94F82430B0EE609AF0EE78
:10577800418ACDED060A012BB0EE61CA8DED071AFC
:10578800CDED081A40F2F88372B6256A62B602F0C7
:10579800E1FF63686060C31A07EE903AA368A560EA
:1057A800EB1AB8EE676BD4ED007A07EE103ABA4DF3
:1057B800B8EEE75BB8EEC77B95F824309FEDA63BC3
:1057C800012B86EE034B87EE056B86EE04ABB7EE36
:1057D800CAAB40F2978372B62E6A62B602F0BAFF7D
:1057E8006B686860C31A07EE903AAB68AE60B8EEB3
:1057F800677BF61A9FED986B87EE065B07EE906A5B
:10580800D5ED006AA54EB8EEE77B96F82430B8EEE1
:10581800E66B012B87EE064B84EE057BF7EEC7ABF4
:1058280040F25C8372B6D6F8208062B602F092FF2E
:1058380073687060C31A07EE903AB368C6F80880B8
:10584800B8EE677BA8EB03089FED836B87EE065BDA
:1058580007EE908AD6ED006ADFF84C82B8EEE77B57
:1058680098F82430B8EEE66B012B87EE064B84EEF1
:1058780005BBB7EECBBB40F2188372B6D8F82090C0
:1058880062B602F067FFD8F80430C8F80400C31AFB
:1058980007EE903AD8F80830C8F80890B8EE677B59
:1058A800A9EB030994F824309FED6B6B012B87EE6D
:1058B800065B07EE909AD8ED006AB8EEE77BB8EE83
:1058C800E66B87EE064B84EE057BF7EEC7BB40F22E
:1058D800D88272B6236A62B607EE903A704BF8EE39
:1058E800E77AD3ED056A93ED0A7A93ED0B6A77EEC2
:1058F800E66AC3ED057A67EE067A93ED066A93EDDC
:105908000C5AC6EE881A93ED082AD3ED072AB7EE8B
:10591800C55AB7EEC66A9FED524B9FED533B81EED9
:10592800A77AC3ED121AD3ED031A83ED0D7A83ED2E
:10593800067AB7EEC77A27EE047BA5EE037B93EDD4
:10594800023AD3ED045AD3ED003AA6EE047B93ED68
:10595800016AB7EEC77BF0EE627A79EEC76A83ED2B
:105968000C7A36EEC27AC3ED086AE8EE267A87EE3C
:10597800085AC3ED077A67EEA17A95F82430012B0F
:10598800E6EE837AE5EE257AC7FEC67AC3FEA73A25
:1059980040F2328372B62B6A62B607EE903A414BF8
:1059A800F8EEE77A93ED055A93ED0B3AD3ED0A5AE0
:1059B80037EEC55A93ED0C7A65EE835AC3ED057A36
:1059C800B7EEC77A93ED062AC5EE082A9FED244B59
:1059D8009FED256B82EEA53AC3ED122AB7EEC22AD7
:1059E800B7EEC35A83ED0D3A83ED063A93ED023ACA
:1059F80025EE045BA7EE065B93ED086AD3ED076A14
:105A0800D3ED037AA2EE045BB7EEC55BD3ED045A7F
:105A180039EE457A83ED0C5A37EE466A83ED087AFB
:105A2800E8EE076A86EE085A93ED016AC3ED076A45
:105A380066EEA77AD3ED006A96F82430E7EE037A8B
:105A4800012BE5EE257AC7FEC67A86FEA73A40F214
:105A5800C08272B6336A29E000000000389C8C418D
:105A6800C217265305A3B23F8716D9CEF753EB3F8B
:105A7800049F0020C097002008A00020EC9E002072
:105A8800E89E002000247449BC9700205093002011
:105A98006C9C0020B09C0020349D0020B89D002004
:105AA800D89C00205C9D00203C9E002062B607EE3A
:105AB800903ADB4BF8EEE77AD3ED052A93ED0A7AB4
:105AC800D3ED0B6A77EEE22AC3ED057A67EE267A04
:105AD80093ED0C6A93ED082A82EE887AB7EEC66ACF
:105AE8009FEDC95B9FEDCA4BC7EE272A83ED127A5B
:105AF800B7EEE27AC3ED0D2A27EE057BA6EE047B0E
:105B080093ED064AD3ED076AC3ED062AD3ED002AC2
:105B1800B7EEC44AA4EE057B93ED034AD3ED024ADF
:105B280093ED045AD3ED015AB7EEC77BF0EE667ACF
:105B380038EEC76A83ED0C7A36EE427A83ED086A4E
:105B4800E8EE067AC7EE086AC3ED077A67EE847A4C
:105B580098F82430012BE6EE247AE6EE857AC7FE23
:105B6800E57AC2FEA72A40F21B8272B6D8F8203026
:105B780062B607EE903AAB4BF5EE409AF8EEE77A4C
:105B8800D3ED054A93ED0A7AD3ED0B6AF1EE10FADC
:105B980077EEE44AC3ED057A67EE267A93ED0C6A50
:105BA80093ED082AB5EE409A84EE887AB7EEC66A75
:105BB8009FED955B9FED964BC7EE271A83ED127A02
:105BC800B7EEE17AC3ED0D1A27EE057BA6EE047B4E
:105BD80093ED064AD3ED076AC3ED061AB7EEC44A39
:105BE800A4EE057B93ED034AD3ED024A93ED045AE4
:105BF800D3ED015AB7EEC77BF0EE667A3CEE476A02
:105C080083ED0C7A36EE427A83ED086AE8EE067A7E
:105C1800C7EE086A93ED007AC3ED077A08BF01233F
:105C280067EE847A18BF0023F1EE10FAF5EE408A89
:105C380003F00103E6EE247A18BF0023F1EE10FA10
:105C480003F0010318BF0023E6EE857AC7FEE57A64
:105C580087FE277A2BB1B5EE40CAF1EE10FA00F0B4
:105C6800E681DFF8EC81FDEEE37A98F8043017EE70
:105C7800909A002B40F08980FDEEC37AB9F1000FAD
:105C880017EE906AFDEEE27A17EE905AFDEEC77AAB
:105C980017EE904A40F3AA8098F80800002103F014
:105CA80061F8494698F80C0003F05CF8DFF8A48125
:105CB80098F8043003B17642002E40F38A8098F8B1
:105CC8000800002103F04EF8314698F80C0003F064
:105CD80049F8554E337903B16D42002D6EDD307AA7
:105CE800002103F03FF82946307B03F03BF84F4D85
:105CF8002B7903B16442002C55DD287A002103F08A
:105D080031F82146287B03F02DF8494900224948FB
:105D18000B69C3ED009A83ED019AC3ED028A83ED06
:105D280003CA08F0ABFAF0EE6A0AB0EE4A0A424833
:105D3800B0EE4B1AF0EE6B1A02F070F93F4A396870
:105D4800F0EE606A1368B0EE416A8DED020AB0EEBB
:105D5800601ACB1ACDED036A8DED046AF0EE400AA5
:105D680007EE903ADDED101A3548B8EE677B116002
:105D78009FED295B87EE056BB7EEC60B02F038FA8C
:105D880013B0BDEC0A8BBDE8F083C9F1000973E7D5
:105D98002C492D4A2D4B284891ED001AD2ED000AC6
:105DA80093ED000AD8E4287B00F03981002102F045
:105DB800D9FF6142287A02F0D5FFA6E7307B00F0D0
:105DC8004681002102F0CEFF6942307A02F0CAFF14
:105DD8008DE798F80C0000F04281002102F0C2FF24
:105DE800714298F8080002F0BDFF72E700F02481C4
:105DF80098F80C00002102F0B5FFC9F1000198F8ED
:105E0800080002F0AFFF51E7C217265305A3B23FBF
:105E18008716D9CEF753EB3F0000000000408F40B3
:105E2800E09D0020649E0020A89D00202C9E00205C
:105E3800D0970020EC9700206C9C0020F09E00205A
:105E480070900020689C0020649C0020609C0020CA
:105E5800A09C0020249D00201822B148019101F047
:105E680087FE019948E400240025AE4B01210D204E
:105E7800C3E90045C3E90245C3E90A4502F094FCB9
:105E880057E472B62269E3681B68116862691A40B0
:105E9800A369194200F00782237F03F003030AB1C4
:105EA80043F0040343F0080303E272B6D8F8102065
:105EB800D8F80C301B681168D8F814201A40D8F8A4
:105EC8001830194200F08C8198F81C3003F0030355
:105ED8000AB143F0040343F0080388E172B632695B
:105EE800F3681B68116872691A40B369194200F0B7
:105EF8004B81337F03F003030AB143F0040343F0FB
:105F0800080347E172B62A69EB681B6811686A6979
:105F18001A40AB69194200F0BD812B7F03F00303DF
:105F28000AB143F0040343F008039A08013B2E6AC0
:105F38002A770D2B3FF651AC01A252F823F000BF8F
:105F4800F5390000ED390000753A0000ED39000020
:105F58005B2E00006D3A0000F5390000F5390000AD
:105F68006D3A00005B2E0000ED390000753A000024
:105F7800ED390000F539000072B6D4E903316269E1
:105F88001B6809681A40A369194200F05781237FEA
:105F980003F003030AB143F0040343F0080353E199
:105FA80072B6D8F81020D8F80C301B681168D8F8E9
:105FB80014201A40D8F81830194200F0B78098F821
:105FC8001C3003F003030AB143F0040343F0080351
:105FD800B3E072B63269F3681B68116872691A40D7
:105FE800B369194270D0337F03F003030AB143F059
:105FF800040343F008036DE072B62A69EB681B6876
:1060080011686A691A40AB69194231D02B7F03F0D5
:1060180003030AB143F0040343F008032EE02146CA
:1060280002F0A0FE2146287A02F09CFE6DE60024CC
:10603800DFF8F4802546264698F80C00002102F087
:1060480091FE98F80800002102F08CFE2EE6294601
:1060580002F088FE2946307A02F084FE47E631468F
:1060680002F080FE314698F8080002F07BFE30E628
:106078002B7F03F003030AB143F004039A08013BA2
:106088002A770D2B3FF687AC01A252F823F000BF08
:10609800B3390000A9390000873A0000A939000087
:1060A800173000007D3A0000B3390000B339000012
:1060B8007D3A000017300000A9390000873A000037
:1060C800A9390000B3390000337F03F003030AB194
:1060D80043F004039A08013B32770D2B3FF6BAAC24
:1060E80001A252F823F000BF073A0000FD39000072
:1060F800373A0000FD390000D53000002D3A000085
:10610800073A0000073A00002D3A0000D530000099
:10611800FD390000373A0000FD390000073A000059
:10612800049F002050930020A09C002098F81C3069
:1061380003F003030AB143F004039A08013B88F80B
:106148001C200D2B3FF612AD01A252F823F000BF20
:106158009D39000091390000D33A000091390000C0
:10616800ED310000C53A00009D3900009D3900005E
:10617800C53A0000ED31000091390000D33A000023
:10618800913900009D390000337F03F003030AB101
:1061980043F004039A08013B32770D2B3FF643ABDB
:1061A80001A252F823F000BF1F3A0000113A000084
:1061B8004F3A0000113A0000A72E0000413A0000B3
:1061C8001F3A00001F3A0000413A0000A72E0000C5
:1061D800113A00004F3A0000113A00001F3A00003F
:1061E80098F81C3003F003030AB143F004039A083B
:1061F800013B88F81C200D2B3FF640AB01A252F85A
:1062080023F000BFCD390000BD390000A13A0000DD
:10621800BD390000FD2E0000913A0000CD39000084
:10622800CD390000913A0000FD2E0000BD39000074
:10623800A13A0000BD390000CD390000237F03F0EA
:1062480003030AB143F004039A08013B256A227745
:106258000D2B3FF69BAA01A252F823F0E539000066
:10626800DD390000653A0000DD3900000D2E000020
:106278005D3A0000E5390000E53900005D3A0000AC
:106288000D2E0000DD390000653A0000DD39000000
:10629800E53900002B7F03F00303002A3FF445AEE5
:1062A80043F0040341E6237F03F003030AB143F0FC
:1062B80004039A08013B22770D2B3FF60BAB01A292
:1062C80052F823F0873900007D390000BB3A0000FE
:1062D8007D390000552F0000B13A000087390000D1
:1062E80087390000B13A0000552F00007D390000C1
:1062F800BB3A00007D39000087390000236A013B62
:106308002362FFF7E8BA236A01332362FFF7E3BA8F
:10631800D8F82030013BC8F8203029E4D8F82030DC
:106328000133C8F8203023E42B6A013B2B62FFF7C6
:1063380033BB2B6A01332B62FFF72EBBD8F8203012
:1063480003F1FF39C8F82090FFF79ABAD8F820303F
:1063580003F10109C8F82090FFF792BA013D2562C0
:10636800FFF714BA01352562FFF710BA013E2E6215
:10637800FFF733BA01362E62FFF72FBA336A013BB3
:106388003362FFF793BB336A01333362FFF78EBB87
:10639800336A03F1FF38C6F82080FFF746BA336A3C
:1063A80003F10108C6F82080FFF73FBA336A023BC1
:1063B8003362FFF77BBB336A02333362FFF776BB86
:1063C800336AA3F10208C6F82080FFF72EBA336AB1
:1063D80003F10208C6F82080FFF727BA023D2562BC
:1063E800FFF7D4B902352562FFF7D0B9023E2E6215
:1063F800FFF7F3B902362E62FFF7EFB92B6A023BBB
:106408002B62FFF7C9BA2B6A02332B62FFF7C4BAB3
:10641800D8F82030A3F10209C8F82090FFF730BA65
:10642800D8F8203003F10209C8F82090FFF728BAFD
:10643800236A023B2362FFF74EBA236A02332362C0
:10644800FFF749BAD8F82030023BC8F82030FFF7E8
:106458008FBBD8F820300233C8F82030FFF788BB4C
:1064680010B5ADF5816D6A4C6A49684601F050FE79
:106478004FF432726946684802F096FA1422B2A9BB
:1064880004F5BC7000F010FF9DEDB74A9DEDB86AA9
:10649800B7EEC44A9DEDB97AB7EEC66AB7EEC77AC9
:1064A80094ED582B94ED5A3B94ED5C5B34EE424BE3
:1064B80036EE436B37EE457B9FED512B84ED224B37
:1064C80084ED246BB4EEC24B84ED267BF1EE10FA1A
:1064D80007DD9FED4D5BB4EEC54BF1EE10FA00F110
:1064E8008A809FED475BB4EEC56BF1EE10FA06DDCE
:1064F8009FED455BB4EEC56BF1EE10FA76D49FEDD7
:10650800406BB4EEC67BF1EE10FA0ADD9FED3E6BF0
:10651800B4EEC67BF1EE10FA03D500220023C4E9DD
:10652800262394ED567AB2A908223C48B7EEC77ADA
:1065380084ED287B84ED307B84ED387B00F0B4FE5D
:1065480094ED527ADDEDB97A4FF4A0729DEDB74A19
:10655800B2A89DEDB85A27EE044A94ED556A27EE85
:10656800055A2F4927EE277AB7EEC66AB7EEC44A0E
:10657800B7EEC55AB7EEC77A84ED406B84ED3A4B57
:1065880084ED486B84ED3C5B84ED3E7B84ED506B81
:10659800244C02F009FAB2A94FF4A072204602F086
:1065A80003FA214A2148D2E9003100684FF47A728F
:1065B800C0184FF0000341F1000115F0AFFA1C4973
:1065C8000346206001FB02F221461A486260124C21
:1065D800C4E90032002207F051FE00222146164885
:1065E8000DF5816DBDE8104007F048BE002200237C
:1065F800C4E9242383E700220023C4E9222370E7A7
:106608007B14AE47E17A84BF7B14AE47E17A843FBE
:10661800208C002070900020A88D0020988D0020EC
:10662800288C0020E08A00204893002008A0002041
:1066380040420F00489C0020E49E002070B53A4D6F
:106648002C78032C07D8DFE804F02F290702FFF77E
:106658000FF800232B7070BD344ED6E90023B3F138
:10666800FF3F08BFB2F1FF3F58D005F0FDFDD6E966
:106678000023801A61EB0301C92871F100013BDA9C
:106688002B78022BE7D12A4A00232A4806F08CFDF2
:10669800FFF7E6FEBDE87040FFF722B8FEF7E6FD1B
:1066A80028B302232B7070BD234CD4E90023B3F127
:1066B800FF3F08BFB2F1FF3F2BD005F0D5FDD4E96D
:1066C8000023801A61EB030140F2F513984271F13F
:1066D8000001C0DB0121642009F0B4FEB0FA80F0AB
:1066E8004009287005F0C0FDC4E9000170BD28709C
:1066F800BDE87040FEF7BCBF0121642009F0A2FE8E
:10670800002818BF03242C7005F0AEFDC6E900016F
:10671800B6E705F0A9FDC4E90001CEE705F0A4FD40
:10672800C6E90001A1E700BFFDA00020D02200209B
:1067380040420F00488A0020C822002010B50446B5
:10674800102102F0CDF9204610BD00BF2DE9F0431D
:10675800914F1D22914D1C21914E0024914B4FF0D9
:10676800030891484FF028092DED028B89B09FED61
:106778008F8A01F043F93B4628223721284600F04A
:1067880017FC324628468A4903F03EFF00944FF42E
:1067980070630A2209218748FEF730FC00944FF401
:1067A80070630C220B218448FEF728FC00944FF4F8
:1067B8007063102211218148FEF720FC00944FF4E9
:1067C80070630F220E217E48FEF718FC04239FED0C
:1067D8007D0A2246CDF804800A2100934FF0FF334A
:1067E80079488DED030AFEF719F9172316229DED56
:1067F800030A0A217548764DCDE9003222464FF04A
:10680800FF33FEF70BF9062305219DED030A224607
:106818007048CDE900314FF0FF330A21FEF7FEF84A
:106828002246132312249DED030A0A216A48CDE962
:1068380000344FF0FF33694CFEF7F0F8B3EE097AF5
:10684800F1EE0A7A002366484146664AB6EE002A07
:10685800DFF8C8C1F3EE080ADFED636AF0EE481A04
:10686800DFF8BCE1DFF8BC81C5ED006A85ED027A8E
:10687800C5ED037AC4ED006A84ED027AC4ED037AAB
:10688800C0ED006AC5F804C0C5F824C0C4F804C047
:10689800C4F824C0C0F804C0C5F82CE0C4F82CE043
:1068A8009FED521A9FED520A2B612B636B63AB630A
:1068B800EB632B646B64AB64236123636363A3633F
:1068C800E36323646364A364C5F82880C4F828805C
:1068D80080ED027AC2ED006A82ED027AC0ED037A99
:1068E800C2ED037AC0F824C0C0F82CE0C2F82CE04E
:1068F800C2F804C0C2F824C0C0F82880C2F82880B2
:106908000DF110080361036343638363C363036486
:10691800436483641361136353639363D36313649E
:106928005364936440F22622324801F0B1FA3248A7
:1069380001F0C2FB314C324B4046324A04F110059B
:10694800C4F85431C4F858312F4B226084ED538A6F
:10695800C4F85C9100932D4BC4F848312C4BC4F813
:10696800503195E80E0005F055FC2A4A3B46226056
:1069780098E8070085E807004A46372104F5BC7007
:1069880000F016FB32462449204609B0BDEC028BC4
:10699800BDE8F04303F038BEE0260020C097002091
:1069A800A82A002080969800049F0020CDCCCC3DDA
:1069B8002D010000B09C0020349D0020B89D0020CF
:1069C8003C9E002000409C46A09C0020249D002066
:1069D800D89C0020A89D00202C9E00205C9D0020B3
:1069E800E09D0020649E002000007FC30000BC41A1
:1069F8009A99593F6C9C002070900020208C0020B0
:106A0800ACC5273750080020C0060020C3F51C413C
:106A1800BD3786353C0800202901000000007F436F
:106A2800000048439A999941012070470120704716
:106A3800D0F88C0203685B68184700BFD0F88C0256
:106A4800836001F081BC00BF0020704790F8A3204C
:106A580090F8A200101A704790F8A23090F8A3207E
:106A68009A4205D95A1C034480F8A220987E7047A0
:106A78004FF0FF30704700BF90F8A23090F8A32085
:106A88009A4202D91844807E70474FF0FF30704711
:106A9800704700BF0346B0F8300178B193F82F2152
:106AA800882A03D9012200205A60704702F1010C9C
:106AB80001201A4483F82FC182F8A510704700BF3F
:106AC80038B5B0F830410CB9204638BD90F82F31B0
:106AD8000546C3F18904A2420DD8144605F1A50064
:106AE8002246184401F060FF95F82F3120462344D0
:106AF80085F82F3138BD01224260EFE72DE9F04FCC
:106B0800D0F814A01524017E8146437E83B00AEB99
:106B18000111384A0AEB0313374F097A93F82830E2
:106B280002EB01150901E86852F8018002EB031134
:106B3800D5F804B01B01CE68D558CBF80040C8F88A
:106B48008400D8F804304A6803432C490192C8F8F5
:106B580004301460C5F884606B6833436B60284B5D
:106B68004C683A68A3FB0232920C02EB8202520094
:106B78004B681B1B9A42FBD84FF0090C1F4ADFF8E1
:106B880080E0D8F80830034202D0AB6833422FD1F6
:106B9800C5F8886054683968AEFB0131890C01EB8F
:106BA800810153681B1B9942FBD8C5F8846054685F
:106BB8003968AEFB0131890C01EB810153681B1B5D
:106BC8009942FBD8BCF1010CDBD1604699F818302A
:106BD800019A0AEB0313DB68CBF8003099F81930F7
:106BE8000AEB031ADAF82C30136003B0BDE8F08F13
:106BF8000120EBE77C0E0020FC230020001000E0C1
:106C080083DE1B430E4A10B51168046905E0DB01F9
:106C180007D413685B1A102B08D8636913F0007F38
:106C2800F5D14FF4FE430120636110BDFFF766FF05
:106C38000028FAD04FF4FE4301206361F5E700BF56
